{
	"contracts/TicTacToe.sol": {
		"TicTacToe": {
			"abi": [
				{
					"anonymous": false,
					"inputs": [
						{
							"indexed": false,
							"internalType": "uint256",
							"name": "gameId",
							"type": "uint256"
						},
						{
							"indexed": false,
							"internalType": "address",
							"name": "creator",
							"type": "address"
						}
					],
					"name": "GameCreated",
					"type": "event"
				},
				{
					"anonymous": false,
					"inputs": [
						{
							"indexed": false,
							"internalType": "uint256",
							"name": "gameId",
							"type": "uint256"
						},
						{
							"indexed": false,
							"internalType": "enum TicTacToe.Winners",
							"name": "winner",
							"type": "uint8"
						}
					],
					"name": "GameOver",
					"type": "event"
				},
				{
					"anonymous": false,
					"inputs": [
						{
							"indexed": false,
							"internalType": "uint256",
							"name": "gameId",
							"type": "uint256"
						},
						{
							"indexed": false,
							"internalType": "address",
							"name": "player",
							"type": "address"
						},
						{
							"indexed": false,
							"internalType": "uint8",
							"name": "playerNumber",
							"type": "uint8"
						}
					],
					"name": "PlayerJoinedGame",
					"type": "event"
				},
				{
					"anonymous": false,
					"inputs": [
						{
							"indexed": false,
							"internalType": "uint256",
							"name": "gameId",
							"type": "uint256"
						},
						{
							"indexed": false,
							"internalType": "address",
							"name": "player",
							"type": "address"
						},
						{
							"indexed": false,
							"internalType": "uint256",
							"name": "xCoordinate",
							"type": "uint256"
						},
						{
							"indexed": false,
							"internalType": "uint256",
							"name": "yCoordinate",
							"type": "uint256"
						}
					],
					"name": "PlayerMadeMove",
					"type": "event"
				},
				{
					"inputs": [
						{
							"internalType": "uint256",
							"name": "_gameId",
							"type": "uint256"
						}
					],
					"name": "joinGame",
					"outputs": [
						{
							"internalType": "bool",
							"name": "success",
							"type": "bool"
						},
						{
							"internalType": "string",
							"name": "reason",
							"type": "string"
						}
					],
					"stateMutability": "nonpayable",
					"type": "function"
				},
				{
					"inputs": [
						{
							"internalType": "uint256",
							"name": "_gameId",
							"type": "uint256"
						},
						{
							"internalType": "uint256",
							"name": "_xCoordinate",
							"type": "uint256"
						},
						{
							"internalType": "uint256",
							"name": "_yCoordinate",
							"type": "uint256"
						}
					],
					"name": "makeMove",
					"outputs": [
						{
							"internalType": "bool",
							"name": "success",
							"type": "bool"
						},
						{
							"internalType": "string",
							"name": "reason",
							"type": "string"
						}
					],
					"stateMutability": "nonpayable",
					"type": "function"
				},
				{
					"inputs": [],
					"name": "newGame",
					"outputs": [
						{
							"internalType": "uint256",
							"name": "gameId",
							"type": "uint256"
						}
					],
					"stateMutability": "nonpayable",
					"type": "function"
				}
			],
			"devdoc": {
				"kind": "dev",
				"methods": {},
				"version": 1
			},
			"evm": {
				"assembly": "    /* \"contracts/TicTacToe.sol\":172:11735  contract TicTacToe {... */\n  mstore(0x40, 0x80)\n  callvalue\n  dup1\n  iszero\n  tag_1\n  jumpi\n  0x00\n  dup1\n  revert\ntag_1:\n  pop\n  dataSize(sub_0)\n  dup1\n  dataOffset(sub_0)\n  0x00\n  codecopy\n  0x00\n  return\nstop\n\nsub_0: assembly {\n        /* \"contracts/TicTacToe.sol\":172:11735  contract TicTacToe {... */\n      mstore(0x40, 0x80)\n      callvalue\n      dup1\n      iszero\n      tag_1\n      jumpi\n      0x00\n      dup1\n      revert\n    tag_1:\n      pop\n      jumpi(tag_2, lt(calldatasize, 0x04))\n      shr(0xe0, calldataload(0x00))\n      dup1\n      0x7d03f5f3\n      eq\n      tag_3\n      jumpi\n      dup1\n      0xcfc2f5ff\n      eq\n      tag_4\n      jumpi\n      dup1\n      0xefaa55a0\n      eq\n      tag_5\n      jumpi\n    tag_2:\n      0x00\n      dup1\n      revert\n        /* \"contracts/TicTacToe.sol\":2435:2696  function newGame() public returns (uint256 gameId) {... */\n    tag_3:\n      tag_6\n      tag_7\n      jump\t// in\n    tag_6:\n      mload(0x40)\n      tag_8\n      swap2\n      swap1\n      tag_9\n      jump\t// in\n    tag_8:\n      mload(0x40)\n      dup1\n      swap2\n      sub\n      swap1\n      return\n        /* \"contracts/TicTacToe.sol\":4608:6975  function makeMove(uint256 _gameId, uint _xCoordinate, uint _yCoordinate) public returns (bool success, string memory reason) {... */\n    tag_4:\n      tag_10\n      0x04\n      dup1\n      calldatasize\n      sub\n      dup2\n      add\n      swap1\n      tag_11\n      swap2\n      swap1\n      tag_12\n      jump\t// in\n    tag_11:\n      tag_13\n      jump\t// in\n    tag_10:\n      mload(0x40)\n      tag_14\n      swap3\n      swap2\n      swap1\n      tag_15\n      jump\t// in\n    tag_14:\n      mload(0x40)\n      dup1\n      swap2\n      sub\n      swap1\n      return\n        /* \"contracts/TicTacToe.sol\":2948:4488  function joinGame(uint256 _gameId) public returns (bool success, string memory reason) {... */\n    tag_5:\n      tag_16\n      0x04\n      dup1\n      calldatasize\n      sub\n      dup2\n      add\n      swap1\n      tag_17\n      swap2\n      swap1\n      tag_18\n      jump\t// in\n    tag_17:\n      tag_19\n      jump\t// in\n    tag_16:\n      mload(0x40)\n      tag_20\n      swap3\n      swap2\n      swap1\n      tag_15\n      jump\t// in\n    tag_20:\n      mload(0x40)\n      dup1\n      swap2\n      sub\n      swap1\n      return\n        /* \"contracts/TicTacToe.sol\":2435:2696  function newGame() public returns (uint256 gameId) {... */\n    tag_7:\n        /* \"contracts/TicTacToe.sol\":2470:2484  uint256 gameId */\n      0x00\n        /* \"contracts/TicTacToe.sol\":2496:2512  Game memory game */\n      tag_22\n      tag_23\n      jump\t// in\n    tag_22:\n        /* \"contracts/TicTacToe.sol\":2540:2557  Players.PlayerOne */\n      0x01\n        /* \"contracts/TicTacToe.sol\":2522:2526  game */\n      dup2\n        /* \"contracts/TicTacToe.sol\":2522:2537  game.playerTurn */\n      0x60\n      add\n        /* \"contracts/TicTacToe.sol\":2522:2557  game.playerTurn = Players.PlayerOne */\n      swap1\n      0x02\n      dup2\n      gt\n      iszero\n      tag_24\n      jumpi\n      tag_25\n      tag_26\n      jump\t// in\n    tag_25:\n    tag_24:\n      swap1\n      dup2\n      0x02\n      dup2\n      gt\n      iszero\n      tag_27\n      jumpi\n      tag_28\n      tag_26\n      jump\t// in\n    tag_28:\n    tag_27:\n      dup2\n      mstore\n      pop\n      pop\n        /* \"contracts/TicTacToe.sol\":2568:2577  nrOfGames */\n      0x01\n      0x00\n        /* \"contracts/TicTacToe.sol\":2568:2579  nrOfGames++ */\n      dup2\n      sload\n      dup1\n      swap3\n      swap2\n      swap1\n      tag_29\n      swap1\n      tag_30\n      jump\t// in\n    tag_29:\n      swap2\n      swap1\n      pop\n      sstore\n      pop\n        /* \"contracts/TicTacToe.sol\":2608:2612  game */\n      dup1\n        /* \"contracts/TicTacToe.sol\":2589:2594  games */\n      0x00\n        /* \"contracts/TicTacToe.sol\":2589:2605  games[nrOfGames] */\n      dup1\n        /* \"contracts/TicTacToe.sol\":2595:2604  nrOfGames */\n      sload(0x01)\n        /* \"contracts/TicTacToe.sol\":2589:2605  games[nrOfGames] */\n      dup2\n      mstore\n      0x20\n      add\n      swap1\n      dup2\n      mstore\n      0x20\n      add\n      0x00\n      keccak256\n        /* \"contracts/TicTacToe.sol\":2589:2612  games[nrOfGames] = game */\n      0x00\n      dup3\n      add\n      mload\n      dup2\n      0x00\n      add\n      exp(0x0100, 0x00)\n      dup2\n      sload\n      dup2\n      0xffffffffffffffffffffffffffffffffffffffff\n      mul\n      not\n      and\n      swap1\n      dup4\n      0xffffffffffffffffffffffffffffffffffffffff\n      and\n      mul\n      or\n      swap1\n      sstore\n      pop\n      0x20\n      dup3\n      add\n      mload\n      dup2\n      0x01\n      add\n      exp(0x0100, 0x00)\n      dup2\n      sload\n      dup2\n      0xffffffffffffffffffffffffffffffffffffffff\n      mul\n      not\n      and\n      swap1\n      dup4\n      0xffffffffffffffffffffffffffffffffffffffff\n      and\n      mul\n      or\n      swap1\n      sstore\n      pop\n      0x40\n      dup3\n      add\n      mload\n      dup2\n      0x01\n      add\n      exp(0x0100, 0x14)\n      dup2\n      sload\n      dup2\n      0xff\n      mul\n      not\n      and\n      swap1\n      dup4\n      0x03\n      dup2\n      gt\n      iszero\n      tag_31\n      jumpi\n      tag_32\n      tag_26\n      jump\t// in\n    tag_32:\n    tag_31:\n      mul\n      or\n      swap1\n      sstore\n      pop\n      0x60\n      dup3\n      add\n      mload\n      dup2\n      0x01\n      add\n      exp(0x0100, 0x15)\n      dup2\n      sload\n      dup2\n      0xff\n      mul\n      not\n      and\n      swap1\n      dup4\n      0x02\n      dup2\n      gt\n      iszero\n      tag_33\n      jumpi\n      tag_34\n      tag_26\n      jump\t// in\n    tag_34:\n    tag_33:\n      mul\n      or\n      swap1\n      sstore\n      pop\n      0x80\n      dup3\n      add\n      mload\n      dup2\n      0x02\n      add\n      swap1\n      0x03\n      tag_35\n      swap3\n      swap2\n      swap1\n      tag_36\n      jump\t// in\n    tag_35:\n      pop\n      swap1\n      pop\n      pop\n        /* \"contracts/TicTacToe.sol\":2628:2662  GameCreated(nrOfGames, msg.sender) */\n      0xc3e0f84839dc888c892a013d10c8f9d6dc05a21a879d0ce468ca558013e9121c\n        /* \"contracts/TicTacToe.sol\":2640:2649  nrOfGames */\n      sload(0x01)\n        /* \"contracts/TicTacToe.sol\":2651:2661  msg.sender */\n      caller\n        /* \"contracts/TicTacToe.sol\":2628:2662  GameCreated(nrOfGames, msg.sender) */\n      mload(0x40)\n      tag_37\n      swap3\n      swap2\n      swap1\n      tag_38\n      jump\t// in\n    tag_37:\n      mload(0x40)\n      dup1\n      swap2\n      sub\n      swap1\n      log1\n        /* \"contracts/TicTacToe.sol\":2680:2689  nrOfGames */\n      sload(0x01)\n        /* \"contracts/TicTacToe.sol\":2673:2689  return nrOfGames */\n      swap2\n      pop\n      pop\n        /* \"contracts/TicTacToe.sol\":2435:2696  function newGame() public returns (uint256 gameId) {... */\n      swap1\n      jump\t// out\n        /* \"contracts/TicTacToe.sol\":4608:6975  function makeMove(uint256 _gameId, uint _xCoordinate, uint _yCoordinate) public returns (bool success, string memory reason) {... */\n    tag_13:\n        /* \"contracts/TicTacToe.sol\":4697:4709  bool success */\n      0x00\n        /* \"contracts/TicTacToe.sol\":4711:4731  string memory reason */\n      0x60\n        /* \"contracts/TicTacToe.sol\":4757:4766  nrOfGames */\n      sload(0x01)\n        /* \"contracts/TicTacToe.sol\":4747:4754  _gameId */\n      dup6\n        /* \"contracts/TicTacToe.sol\":4747:4766  _gameId > nrOfGames */\n      gt\n        /* \"contracts/TicTacToe.sol\":4747:4852  _gameId > nrOfGames || (games[_gameId].playerOne == address(0) && games[_gameId].playerTwo == address(0)) */\n      dup1\n      tag_40\n      jumpi\n      pop\n        /* \"contracts/TicTacToe.sol\":4807:4808  0 */\n      0x00\n        /* \"contracts/TicTacToe.sol\":4771:4809  games[_gameId].playerOne == address(0) */\n      0xffffffffffffffffffffffffffffffffffffffff\n      and\n        /* \"contracts/TicTacToe.sol\":4771:4776  games */\n      0x00\n        /* \"contracts/TicTacToe.sol\":4771:4785  games[_gameId] */\n      dup1\n        /* \"contracts/TicTacToe.sol\":4777:4784  _gameId */\n      dup8\n        /* \"contracts/TicTacToe.sol\":4771:4785  games[_gameId] */\n      dup2\n      mstore\n      0x20\n      add\n      swap1\n      dup2\n      mstore\n      0x20\n      add\n      0x00\n      keccak256\n        /* \"contracts/TicTacToe.sol\":4771:4795  games[_gameId].playerOne */\n      0x00\n      add\n      0x00\n      swap1\n      sload\n      swap1\n      0x0100\n      exp\n      swap1\n      div\n      0xffffffffffffffffffffffffffffffffffffffff\n      and\n        /* \"contracts/TicTacToe.sol\":4771:4809  games[_gameId].playerOne == address(0) */\n      0xffffffffffffffffffffffffffffffffffffffff\n      and\n      eq\n        /* \"contracts/TicTacToe.sol\":4771:4851  games[_gameId].playerOne == address(0) && games[_gameId].playerTwo == address(0) */\n      dup1\n      iszero\n      tag_41\n      jumpi\n      pop\n        /* \"contracts/TicTacToe.sol\":4849:4850  0 */\n      0x00\n        /* \"contracts/TicTacToe.sol\":4813:4851  games[_gameId].playerTwo == address(0) */\n      0xffffffffffffffffffffffffffffffffffffffff\n      and\n        /* \"contracts/TicTacToe.sol\":4813:4818  games */\n      0x00\n        /* \"contracts/TicTacToe.sol\":4813:4827  games[_gameId] */\n      dup1\n        /* \"contracts/TicTacToe.sol\":4819:4826  _gameId */\n      dup8\n        /* \"contracts/TicTacToe.sol\":4813:4827  games[_gameId] */\n      dup2\n      mstore\n      0x20\n      add\n      swap1\n      dup2\n      mstore\n      0x20\n      add\n      0x00\n      keccak256\n        /* \"contracts/TicTacToe.sol\":4813:4837  games[_gameId].playerTwo */\n      0x01\n      add\n      0x00\n      swap1\n      sload\n      swap1\n      0x0100\n      exp\n      swap1\n      div\n      0xffffffffffffffffffffffffffffffffffffffff\n      and\n        /* \"contracts/TicTacToe.sol\":4813:4851  games[_gameId].playerTwo == address(0) */\n      0xffffffffffffffffffffffffffffffffffffffff\n      and\n      eq\n        /* \"contracts/TicTacToe.sol\":4771:4851  games[_gameId].playerOne == address(0) && games[_gameId].playerTwo == address(0) */\n    tag_41:\n        /* \"contracts/TicTacToe.sol\":4747:4852  _gameId > nrOfGames || (games[_gameId].playerOne == address(0) && games[_gameId].playerTwo == address(0)) */\n    tag_40:\n        /* \"contracts/TicTacToe.sol\":4743:4917  if (_gameId > nrOfGames || (games[_gameId].playerOne == address(0) && games[_gameId].playerTwo == address(0))) {... */\n      iszero\n      tag_42\n      jumpi\n        /* \"contracts/TicTacToe.sol\":4876:4881  false */\n      0x00\n        /* \"contracts/TicTacToe.sol\":4868:4906  return (false, \"No such game exists.\") */\n      mload(0x40)\n      dup1\n      0x40\n      add\n      0x40\n      mstore\n      dup1\n      0x14\n      dup2\n      mstore\n      0x20\n      add\n      0x4e6f20737563682067616d65206578697374732e000000000000000000000000\n      dup2\n      mstore\n      pop\n      swap2\n      pop\n      swap2\n      pop\n      jump(tag_39)\n        /* \"contracts/TicTacToe.sol\":4743:4917  if (_gameId > nrOfGames || (games[_gameId].playerOne == address(0) && games[_gameId].playerTwo == address(0))) {... */\n    tag_42:\n        /* \"contracts/TicTacToe.sol\":4945:4946  0 */\n      0x00\n        /* \"contracts/TicTacToe.sol\":4930:4942  _xCoordinate */\n      dup5\n        /* \"contracts/TicTacToe.sol\":4930:4946  _xCoordinate < 0 */\n      lt\n        /* \"contracts/TicTacToe.sol\":4930:4966  _xCoordinate < 0 || _xCoordinate > 2 */\n      dup1\n      tag_43\n      jumpi\n      pop\n        /* \"contracts/TicTacToe.sol\":4965:4966  2 */\n      0x02\n        /* \"contracts/TicTacToe.sol\":4950:4962  _xCoordinate */\n      dup5\n        /* \"contracts/TicTacToe.sol\":4950:4966  _xCoordinate > 2 */\n      gt\n        /* \"contracts/TicTacToe.sol\":4930:4966  _xCoordinate < 0 || _xCoordinate > 2 */\n    tag_43:\n        /* \"contracts/TicTacToe.sol\":4927:5042  if(_xCoordinate < 0 || _xCoordinate > 2) { ... */\n      iszero\n      tag_44\n      jumpi\n        /* \"contracts/TicTacToe.sol\":4990:4995  false */\n      0x00\n        /* \"contracts/TicTacToe.sol\":4983:5031  return(false, \"Invalid input for x-coordinate.\") */\n      mload(0x40)\n      dup1\n      0x40\n      add\n      0x40\n      mstore\n      dup1\n      0x1f\n      dup2\n      mstore\n      0x20\n      add\n      0x496e76616c696420696e70757420666f7220782d636f6f7264696e6174652e00\n      dup2\n      mstore\n      pop\n      swap2\n      pop\n      swap2\n      pop\n      jump(tag_39)\n        /* \"contracts/TicTacToe.sol\":4927:5042  if(_xCoordinate < 0 || _xCoordinate > 2) { ... */\n    tag_44:\n        /* \"contracts/TicTacToe.sol\":5069:5070  0 */\n      0x00\n        /* \"contracts/TicTacToe.sol\":5054:5066  _yCoordinate */\n      dup4\n        /* \"contracts/TicTacToe.sol\":5054:5070  _yCoordinate < 0 */\n      lt\n        /* \"contracts/TicTacToe.sol\":5054:5090  _yCoordinate < 0 || _yCoordinate > 2 */\n      dup1\n      tag_45\n      jumpi\n      pop\n        /* \"contracts/TicTacToe.sol\":5089:5090  2 */\n      0x02\n        /* \"contracts/TicTacToe.sol\":5074:5086  _yCoordinate */\n      dup4\n        /* \"contracts/TicTacToe.sol\":5074:5090  _yCoordinate > 2 */\n      gt\n        /* \"contracts/TicTacToe.sol\":5054:5090  _yCoordinate < 0 || _yCoordinate > 2 */\n    tag_45:\n        /* \"contracts/TicTacToe.sol\":5051:5166  if(_yCoordinate < 0 || _yCoordinate > 2) { ... */\n      iszero\n      tag_46\n      jumpi\n        /* \"contracts/TicTacToe.sol\":5114:5119  false */\n      0x00\n        /* \"contracts/TicTacToe.sol\":5107:5155  return(false, \"Invalid input for y-coordinate.\") */\n      mload(0x40)\n      dup1\n      0x40\n      add\n      0x40\n      mstore\n      dup1\n      0x1f\n      dup2\n      mstore\n      0x20\n      add\n      0x496e76616c696420696e70757420666f7220792d636f6f7264696e6174652e00\n      dup2\n      mstore\n      pop\n      swap2\n      pop\n      swap2\n      pop\n      jump(tag_39)\n        /* \"contracts/TicTacToe.sol\":5051:5166  if(_yCoordinate < 0 || _yCoordinate > 2) { ... */\n    tag_46:\n        /* \"contracts/TicTacToe.sol\":5216:5217  0 */\n      0x00\n        /* \"contracts/TicTacToe.sol\":5180:5218  games[_gameId].playerOne == address(0) */\n      0xffffffffffffffffffffffffffffffffffffffff\n      and\n        /* \"contracts/TicTacToe.sol\":5180:5185  games */\n      0x00\n        /* \"contracts/TicTacToe.sol\":5180:5194  games[_gameId] */\n      dup1\n        /* \"contracts/TicTacToe.sol\":5186:5193  _gameId */\n      dup8\n        /* \"contracts/TicTacToe.sol\":5180:5194  games[_gameId] */\n      dup2\n      mstore\n      0x20\n      add\n      swap1\n      dup2\n      mstore\n      0x20\n      add\n      0x00\n      keccak256\n        /* \"contracts/TicTacToe.sol\":5180:5204  games[_gameId].playerOne */\n      0x00\n      add\n      0x00\n      swap1\n      sload\n      swap1\n      0x0100\n      exp\n      swap1\n      div\n      0xffffffffffffffffffffffffffffffffffffffff\n      and\n        /* \"contracts/TicTacToe.sol\":5180:5218  games[_gameId].playerOne == address(0) */\n      0xffffffffffffffffffffffffffffffffffffffff\n      and\n      eq\n        /* \"contracts/TicTacToe.sol\":5180:5260  games[_gameId].playerOne == address(0) || games[_gameId].playerTwo == address(0) */\n      dup1\n      tag_47\n      jumpi\n      pop\n        /* \"contracts/TicTacToe.sol\":5258:5259  0 */\n      0x00\n        /* \"contracts/TicTacToe.sol\":5222:5260  games[_gameId].playerTwo == address(0) */\n      0xffffffffffffffffffffffffffffffffffffffff\n      and\n        /* \"contracts/TicTacToe.sol\":5222:5227  games */\n      0x00\n        /* \"contracts/TicTacToe.sol\":5222:5236  games[_gameId] */\n      dup1\n        /* \"contracts/TicTacToe.sol\":5228:5235  _gameId */\n      dup8\n        /* \"contracts/TicTacToe.sol\":5222:5236  games[_gameId] */\n      dup2\n      mstore\n      0x20\n      add\n      swap1\n      dup2\n      mstore\n      0x20\n      add\n      0x00\n      keccak256\n        /* \"contracts/TicTacToe.sol\":5222:5246  games[_gameId].playerTwo */\n      0x01\n      add\n      0x00\n      swap1\n      sload\n      swap1\n      0x0100\n      exp\n      swap1\n      div\n      0xffffffffffffffffffffffffffffffffffffffff\n      and\n        /* \"contracts/TicTacToe.sol\":5222:5260  games[_gameId].playerTwo == address(0) */\n      0xffffffffffffffffffffffffffffffffffffffff\n      and\n      eq\n        /* \"contracts/TicTacToe.sol\":5180:5260  games[_gameId].playerOne == address(0) || games[_gameId].playerTwo == address(0) */\n    tag_47:\n        /* \"contracts/TicTacToe.sol\":5176:5344  if (games[_gameId].playerOne == address(0) || games[_gameId].playerTwo == address(0)) {... */\n      iszero\n      tag_48\n      jumpi\n        /* \"contracts/TicTacToe.sol\":5284:5289  false */\n      0x00\n        /* \"contracts/TicTacToe.sol\":5276:5333  return (false, \"This game doesn't have two players yet.\") */\n      mload(0x40)\n      dup1\n      0x60\n      add\n      0x40\n      mstore\n      dup1\n      0x27\n      dup2\n      mstore\n      0x20\n      add\n      data_cd1c82b9c97f6de04235118f1b9fb732f775ca593a234137657e86aa65a28d62\n      0x27\n      swap2\n      codecopy\n      swap2\n      pop\n      swap2\n      pop\n      jump(tag_39)\n        /* \"contracts/TicTacToe.sol\":5176:5344  if (games[_gameId].playerOne == address(0) || games[_gameId].playerTwo == address(0)) {... */\n    tag_48:\n        /* \"contracts/TicTacToe.sol\":5354:5371  Game storage game */\n      0x00\n        /* \"contracts/TicTacToe.sol\":5374:5379  games */\n      dup1\n        /* \"contracts/TicTacToe.sol\":5374:5388  games[_gameId] */\n      0x00\n        /* \"contracts/TicTacToe.sol\":5380:5387  _gameId */\n      dup8\n        /* \"contracts/TicTacToe.sol\":5374:5388  games[_gameId] */\n      dup2\n      mstore\n      0x20\n      add\n      swap1\n      dup2\n      mstore\n      0x20\n      add\n      0x00\n      keccak256\n        /* \"contracts/TicTacToe.sol\":5354:5388  Game storage game = games[_gameId] */\n      swap1\n      pop\n        /* \"contracts/TicTacToe.sol\":5496:5508  Winners.None */\n      0x00\n        /* \"contracts/TicTacToe.sol\":5481:5508  game.winner != Winners.None */\n      0x03\n      dup2\n      gt\n      iszero\n      tag_49\n      jumpi\n      tag_50\n      tag_26\n      jump\t// in\n    tag_50:\n    tag_49:\n        /* \"contracts/TicTacToe.sol\":5481:5485  game */\n      dup2\n        /* \"contracts/TicTacToe.sol\":5481:5492  game.winner */\n      0x01\n      add\n      0x14\n      swap1\n      sload\n      swap1\n      0x0100\n      exp\n      swap1\n      div\n      0xff\n      and\n        /* \"contracts/TicTacToe.sol\":5481:5508  game.winner != Winners.None */\n      0x03\n      dup2\n      gt\n      iszero\n      tag_51\n      jumpi\n      tag_52\n      tag_26\n      jump\t// in\n    tag_52:\n    tag_51:\n      eq\n        /* \"contracts/TicTacToe.sol\":5477:5580  if (game.winner != Winners.None) {... */\n      tag_53\n      jumpi\n        /* \"contracts/TicTacToe.sol\":5532:5537  false */\n      0x00\n        /* \"contracts/TicTacToe.sol\":5524:5569  return (false, \"The game has already ended.\") */\n      mload(0x40)\n      dup1\n      0x40\n      add\n      0x40\n      mstore\n      dup1\n      0x1b\n      dup2\n      mstore\n      0x20\n      add\n      0x5468652067616d652068617320616c726561647920656e6465642e0000000000\n      dup2\n      mstore\n      pop\n      swap3\n      pop\n      swap3\n      pop\n      pop\n      jump(tag_39)\n        /* \"contracts/TicTacToe.sol\":5477:5580  if (game.winner != Winners.None) {... */\n    tag_53:\n        /* \"contracts/TicTacToe.sol\":5669:5691  getCurrentPlayer(game) */\n      tag_54\n        /* \"contracts/TicTacToe.sol\":5686:5690  game */\n      dup2\n        /* \"contracts/TicTacToe.sol\":5669:5685  getCurrentPlayer */\n      tag_55\n        /* \"contracts/TicTacToe.sol\":5669:5691  getCurrentPlayer(game) */\n      jump\t// in\n    tag_54:\n        /* \"contracts/TicTacToe.sol\":5655:5691  msg.sender != getCurrentPlayer(game) */\n      0xffffffffffffffffffffffffffffffffffffffff\n      and\n        /* \"contracts/TicTacToe.sol\":5655:5665  msg.sender */\n      caller\n        /* \"contracts/TicTacToe.sol\":5655:5691  msg.sender != getCurrentPlayer(game) */\n      0xffffffffffffffffffffffffffffffffffffffff\n      and\n      eq\n        /* \"contracts/TicTacToe.sol\":5651:5831  if (msg.sender != getCurrentPlayer(game)) {... */\n      tag_56\n      jumpi\n        /* \"contracts/TicTacToe.sol\":5790:5795  false */\n      0x00\n        /* \"contracts/TicTacToe.sol\":5782:5820  return (false, \"It is not your turn.\") */\n      mload(0x40)\n      dup1\n      0x40\n      add\n      0x40\n      mstore\n      dup1\n      0x14\n      dup2\n      mstore\n      0x20\n      add\n      0x4974206973206e6f7420796f7572207475726e2e000000000000000000000000\n      dup2\n      mstore\n      pop\n      swap3\n      pop\n      swap3\n      pop\n      pop\n      jump(tag_39)\n        /* \"contracts/TicTacToe.sol\":5651:5831  if (msg.sender != getCurrentPlayer(game)) {... */\n    tag_56:\n        /* \"contracts/TicTacToe.sol\":5982:5983  1 */\n      0x01\n        /* \"contracts/TicTacToe.sol\":5940:5944  game */\n      dup2\n        /* \"contracts/TicTacToe.sol\":5940:5950  game.board */\n      0x02\n      add\n        /* \"contracts/TicTacToe.sol\":5951:5963  _xCoordinate */\n      dup7\n        /* \"contracts/TicTacToe.sol\":5940:5964  game.board[_xCoordinate] */\n      0x03\n      dup2\n      lt\n      tag_57\n      jumpi\n      tag_58\n      tag_59\n      jump\t// in\n    tag_58:\n    tag_57:\n      add\n        /* \"contracts/TicTacToe.sol\":5965:5977  _yCoordinate */\n      dup6\n        /* \"contracts/TicTacToe.sol\":5940:5978  game.board[_xCoordinate][_yCoordinate] */\n      0x03\n      dup2\n      lt\n      tag_61\n      jumpi\n      tag_62\n      tag_59\n      jump\t// in\n    tag_62:\n    tag_61:\n      0x20\n      swap2\n      dup3\n      dup3\n      div\n      add\n      swap2\n      swap1\n      mod\n      swap1\n      sload\n      swap1\n      0x0100\n      exp\n      swap1\n      div\n      0xff\n      and\n        /* \"contracts/TicTacToe.sol\":5940:5983  game.board[_xCoordinate][_yCoordinate] == 1 */\n      0xff\n      and\n      eq\n        /* \"contracts/TicTacToe.sol\":5940:6030  game.board[_xCoordinate][_yCoordinate] == 1 || game.board[_xCoordinate][_yCoordinate] == 2 */\n      dup1\n      tag_64\n      jumpi\n      pop\n        /* \"contracts/TicTacToe.sol\":6029:6030  2 */\n      0x02\n        /* \"contracts/TicTacToe.sol\":5987:5991  game */\n      dup2\n        /* \"contracts/TicTacToe.sol\":5987:5997  game.board */\n      0x02\n      add\n        /* \"contracts/TicTacToe.sol\":5998:6010  _xCoordinate */\n      dup7\n        /* \"contracts/TicTacToe.sol\":5987:6011  game.board[_xCoordinate] */\n      0x03\n      dup2\n      lt\n      tag_65\n      jumpi\n      tag_66\n      tag_59\n      jump\t// in\n    tag_66:\n    tag_65:\n      add\n        /* \"contracts/TicTacToe.sol\":6012:6024  _yCoordinate */\n      dup6\n        /* \"contracts/TicTacToe.sol\":5987:6025  game.board[_xCoordinate][_yCoordinate] */\n      0x03\n      dup2\n      lt\n      tag_68\n      jumpi\n      tag_69\n      tag_59\n      jump\t// in\n    tag_69:\n    tag_68:\n      0x20\n      swap2\n      dup3\n      dup3\n      div\n      add\n      swap2\n      swap1\n      mod\n      swap1\n      sload\n      swap1\n      0x0100\n      exp\n      swap1\n      div\n      0xff\n      and\n        /* \"contracts/TicTacToe.sol\":5987:6030  game.board[_xCoordinate][_yCoordinate] == 2 */\n      0xff\n      and\n      eq\n        /* \"contracts/TicTacToe.sol\":5940:6030  game.board[_xCoordinate][_yCoordinate] == 1 || game.board[_xCoordinate][_yCoordinate] == 2 */\n    tag_64:\n        /* \"contracts/TicTacToe.sol\":5936:6124  if (game.board[_xCoordinate][_yCoordinate] == 1 || game.board[_xCoordinate][_yCoordinate] == 2) {... */\n      iszero\n      tag_71\n      jumpi\n        /* \"contracts/TicTacToe.sol\":6054:6059  false */\n      0x00\n        /* \"contracts/TicTacToe.sol\":6046:6113  return (false, \"There is already a mark at the given coordinates.\") */\n      mload(0x40)\n      dup1\n      0x60\n      add\n      0x40\n      mstore\n      dup1\n      0x31\n      dup2\n      mstore\n      0x20\n      add\n      data_024d23689c7c0d36b0295c402b03cbbb30a16b10831d85b0a50598b30664ffd5\n      0x31\n      swap2\n      codecopy\n      swap3\n      pop\n      swap3\n      pop\n      pop\n      jump(tag_39)\n        /* \"contracts/TicTacToe.sol\":5936:6124  if (game.board[_xCoordinate][_yCoordinate] == 1 || game.board[_xCoordinate][_yCoordinate] == 2) {... */\n    tag_71:\n        /* \"contracts/TicTacToe.sol\":6263:6280  Players.PlayerOne */\n      0x01\n        /* \"contracts/TicTacToe.sol\":6244:6280  game.playerTurn == Players.PlayerOne */\n      0x02\n      dup2\n      gt\n      iszero\n      tag_72\n      jumpi\n      tag_73\n      tag_26\n      jump\t// in\n    tag_73:\n    tag_72:\n        /* \"contracts/TicTacToe.sol\":6244:6248  game */\n      dup2\n        /* \"contracts/TicTacToe.sol\":6244:6259  game.playerTurn */\n      0x01\n      add\n      0x15\n      swap1\n      sload\n      swap1\n      0x0100\n      exp\n      swap1\n      div\n      0xff\n      and\n        /* \"contracts/TicTacToe.sol\":6244:6280  game.playerTurn == Players.PlayerOne */\n      0x02\n      dup2\n      gt\n      iszero\n      tag_74\n      jumpi\n      tag_75\n      tag_26\n      jump\t// in\n    tag_75:\n    tag_74:\n      eq\n        /* \"contracts/TicTacToe.sol\":6244:6288  game.playerTurn == Players.PlayerOne ? 1 : 2 */\n      tag_76\n      jumpi\n        /* \"contracts/TicTacToe.sol\":6287:6288  2 */\n      0x02\n        /* \"contracts/TicTacToe.sol\":6244:6288  game.playerTurn == Players.PlayerOne ? 1 : 2 */\n      jump(tag_77)\n    tag_76:\n        /* \"contracts/TicTacToe.sol\":6283:6284  1 */\n      0x01\n        /* \"contracts/TicTacToe.sol\":6244:6288  game.playerTurn == Players.PlayerOne ? 1 : 2 */\n    tag_77:\n        /* \"contracts/TicTacToe.sol\":6203:6207  game */\n      dup2\n        /* \"contracts/TicTacToe.sol\":6203:6213  game.board */\n      0x02\n      add\n        /* \"contracts/TicTacToe.sol\":6214:6226  _xCoordinate */\n      dup7\n        /* \"contracts/TicTacToe.sol\":6203:6227  game.board[_xCoordinate] */\n      0x03\n      dup2\n      lt\n      tag_78\n      jumpi\n      tag_79\n      tag_59\n      jump\t// in\n    tag_79:\n    tag_78:\n      add\n        /* \"contracts/TicTacToe.sol\":6228:6240  _yCoordinate */\n      dup6\n        /* \"contracts/TicTacToe.sol\":6203:6241  game.board[_xCoordinate][_yCoordinate] */\n      0x03\n      dup2\n      lt\n      tag_81\n      jumpi\n      tag_82\n      tag_59\n      jump\t// in\n    tag_82:\n    tag_81:\n      0x20\n      swap2\n      dup3\n      dup3\n      div\n      add\n      swap2\n      swap1\n      mod\n        /* \"contracts/TicTacToe.sol\":6203:6288  game.board[_xCoordinate][_yCoordinate] = game.playerTurn == Players.PlayerOne ? 1 : 2 */\n      0x0100\n      exp\n      dup2\n      sload\n      dup2\n      0xff\n      mul\n      not\n      and\n      swap1\n      dup4\n      0xff\n      and\n      mul\n      or\n      swap1\n      sstore\n      pop\n        /* \"contracts/TicTacToe.sol\":6303:6366  PlayerMadeMove(_gameId, msg.sender, _xCoordinate, _yCoordinate) */\n      0xaa03b0eb53c70f6640eba4234ad2c58782c8927e7abf7d3a6e2c45d07ca9d583\n        /* \"contracts/TicTacToe.sol\":6318:6325  _gameId */\n      dup7\n        /* \"contracts/TicTacToe.sol\":6327:6337  msg.sender */\n      caller\n        /* \"contracts/TicTacToe.sol\":6339:6351  _xCoordinate */\n      dup8\n        /* \"contracts/TicTacToe.sol\":6353:6365  _yCoordinate */\n      dup8\n        /* \"contracts/TicTacToe.sol\":6303:6366  PlayerMadeMove(_gameId, msg.sender, _xCoordinate, _yCoordinate) */\n      mload(0x40)\n      tag_84\n      swap5\n      swap4\n      swap3\n      swap2\n      swap1\n      tag_85\n      jump\t// in\n    tag_84:\n      mload(0x40)\n      dup1\n      swap2\n      sub\n      swap1\n      log1\n        /* \"contracts/TicTacToe.sol\":6444:6458  Winners winner */\n      0x00\n        /* \"contracts/TicTacToe.sol\":6461:6488  calculateWinner(game.board) */\n      tag_86\n        /* \"contracts/TicTacToe.sol\":6477:6481  game */\n      dup3\n        /* \"contracts/TicTacToe.sol\":6477:6487  game.board */\n      0x02\n      add\n        /* \"contracts/TicTacToe.sol\":6461:6488  calculateWinner(game.board) */\n      0x03\n      dup1\n      0x20\n      mul\n      mload(0x40)\n      swap1\n      dup2\n      add\n      0x40\n      mstore\n      dup1\n      swap3\n      swap2\n      swap1\n      0x00\n      swap1\n    tag_87:\n      dup3\n      dup3\n      lt\n      iszero\n      tag_88\n      jumpi\n      dup4\n      dup3\n      add\n      0x03\n      dup1\n      0x20\n      mul\n      mload(0x40)\n      swap1\n      dup2\n      add\n      0x40\n      mstore\n      dup1\n      swap3\n      swap2\n      swap1\n      dup3\n      0x03\n      dup1\n      iszero\n      tag_90\n      jumpi\n      0x20\n      mul\n      dup3\n      add\n      swap2\n      0x00\n      swap1\n    tag_91:\n      dup3\n      dup3\n      swap1\n      sload\n      swap1\n      0x0100\n      exp\n      swap1\n      div\n      0xff\n      and\n      0xff\n      and\n      dup2\n      mstore\n      0x20\n      add\n      swap1\n      0x01\n      add\n      swap1\n      0x20\n      dup3\n      0x00\n      add\n      div\n      swap3\n      dup4\n      add\n      swap3\n      0x01\n      sub\n      dup3\n      mul\n      swap2\n      pop\n      dup1\n      dup5\n      gt\n      tag_91\n      jumpi\n      swap1\n      pop\n    tag_90:\n      pop\n      pop\n      pop\n      pop\n      pop\n      dup2\n      mstore\n      0x20\n      add\n      swap1\n      0x01\n      add\n      swap1\n      jump(tag_87)\n    tag_88:\n      pop\n      pop\n      pop\n      pop\n        /* \"contracts/TicTacToe.sol\":6461:6476  calculateWinner */\n      tag_92\n        /* \"contracts/TicTacToe.sol\":6461:6488  calculateWinner(game.board) */\n      jump\t// in\n    tag_86:\n        /* \"contracts/TicTacToe.sol\":6444:6488  Winners winner = calculateWinner(game.board) */\n      swap1\n      pop\n        /* \"contracts/TicTacToe.sol\":6512:6524  Winners.None */\n      0x00\n        /* \"contracts/TicTacToe.sol\":6502:6524  winner != Winners.None */\n      0x03\n      dup2\n      gt\n      iszero\n      tag_93\n      jumpi\n      tag_94\n      tag_26\n      jump\t// in\n    tag_94:\n    tag_93:\n        /* \"contracts/TicTacToe.sol\":6502:6508  winner */\n      dup2\n        /* \"contracts/TicTacToe.sol\":6502:6524  winner != Winners.None */\n      0x03\n      dup2\n      gt\n      iszero\n      tag_95\n      jumpi\n      tag_96\n      tag_26\n      jump\t// in\n    tag_96:\n    tag_95:\n      eq\n        /* \"contracts/TicTacToe.sol\":6498:6810  if (winner != Winners.None) {... */\n      tag_97\n      jumpi\n        /* \"contracts/TicTacToe.sol\":6700:6706  winner */\n      dup1\n        /* \"contracts/TicTacToe.sol\":6686:6690  game */\n      dup3\n        /* \"contracts/TicTacToe.sol\":6686:6697  game.winner */\n      0x01\n      add\n      0x14\n        /* \"contracts/TicTacToe.sol\":6686:6706  game.winner = winner */\n      0x0100\n      exp\n      dup2\n      sload\n      dup2\n      0xff\n      mul\n      not\n      and\n      swap1\n      dup4\n      0x03\n      dup2\n      gt\n      iszero\n      tag_98\n      jumpi\n      tag_99\n      tag_26\n      jump\t// in\n    tag_99:\n    tag_98:\n      mul\n      or\n      swap1\n      sstore\n      pop\n        /* \"contracts/TicTacToe.sol\":6725:6750  GameOver(_gameId, winner) */\n      0x132b564c6f96092065580fd28989d181dfbbfe4aa2fb7fb1eda8af68ba3073e0\n        /* \"contracts/TicTacToe.sol\":6734:6741  _gameId */\n      dup8\n        /* \"contracts/TicTacToe.sol\":6743:6749  winner */\n      dup3\n        /* \"contracts/TicTacToe.sol\":6725:6750  GameOver(_gameId, winner) */\n      mload(0x40)\n      tag_100\n      swap3\n      swap2\n      swap1\n      tag_101\n      jump\t// in\n    tag_100:\n      mload(0x40)\n      dup1\n      swap2\n      sub\n      swap1\n      log1\n        /* \"contracts/TicTacToe.sol\":6773:6777  true */\n      0x01\n        /* \"contracts/TicTacToe.sol\":6765:6799  return (true, \"The game is over.\") */\n      mload(0x40)\n      dup1\n      0x40\n      add\n      0x40\n      mstore\n      dup1\n      0x11\n      dup2\n      mstore\n      0x20\n      add\n      0x5468652067616d65206973206f7665722e000000000000000000000000000000\n      dup2\n      mstore\n      pop\n      swap4\n      pop\n      swap4\n      pop\n      pop\n      pop\n      jump(tag_39)\n        /* \"contracts/TicTacToe.sol\":6498:6810  if (winner != Winners.None) {... */\n    tag_97:\n        /* \"contracts/TicTacToe.sol\":6924:6940  nextPlayer(game) */\n      tag_102\n        /* \"contracts/TicTacToe.sol\":6935:6939  game */\n      dup3\n        /* \"contracts/TicTacToe.sol\":6924:6934  nextPlayer */\n      tag_103\n        /* \"contracts/TicTacToe.sol\":6924:6940  nextPlayer(game) */\n      jump\t// in\n    tag_102:\n        /* \"contracts/TicTacToe.sol\":6959:6963  true */\n      0x01\n        /* \"contracts/TicTacToe.sol\":6951:6968  return (true, \"\") */\n      mload(0x40)\n      dup1\n      0x20\n      add\n      0x40\n      mstore\n      dup1\n      0x00\n      dup2\n      mstore\n      pop\n      swap4\n      pop\n      swap4\n      pop\n      pop\n      pop\n        /* \"contracts/TicTacToe.sol\":4608:6975  function makeMove(uint256 _gameId, uint _xCoordinate, uint _yCoordinate) public returns (bool success, string memory reason) {... */\n    tag_39:\n      swap4\n      pop\n      swap4\n      swap2\n      pop\n      pop\n      jump\t// out\n        /* \"contracts/TicTacToe.sol\":2948:4488  function joinGame(uint256 _gameId) public returns (bool success, string memory reason) {... */\n    tag_19:\n        /* \"contracts/TicTacToe.sol\":2999:3011  bool success */\n      0x00\n        /* \"contracts/TicTacToe.sol\":3013:3033  string memory reason */\n      0x60\n        /* \"contracts/TicTacToe.sol\":3059:3068  nrOfGames */\n      sload(0x01)\n        /* \"contracts/TicTacToe.sol\":3049:3056  _gameId */\n      dup4\n        /* \"contracts/TicTacToe.sol\":3049:3068  _gameId > nrOfGames */\n      gt\n        /* \"contracts/TicTacToe.sol\":3045:3133  if (_gameId > nrOfGames) {... */\n      iszero\n      tag_105\n      jumpi\n        /* \"contracts/TicTacToe.sol\":3092:3097  false */\n      0x00\n        /* \"contracts/TicTacToe.sol\":3084:3122  return (false, \"No such game exists.\") */\n      mload(0x40)\n      dup1\n      0x40\n      add\n      0x40\n      mstore\n      dup1\n      0x14\n      dup2\n      mstore\n      0x20\n      add\n      0x4e6f20737563682067616d65206578697374732e000000000000000000000000\n      dup2\n      mstore\n      pop\n      swap2\n      pop\n      swap2\n      pop\n      jump(tag_104)\n        /* \"contracts/TicTacToe.sol\":3045:3133  if (_gameId > nrOfGames) {... */\n    tag_105:\n        /* \"contracts/TicTacToe.sol\":3143:3160  address newPlayer */\n      0x00\n        /* \"contracts/TicTacToe.sol\":3163:3173  msg.sender */\n      caller\n        /* \"contracts/TicTacToe.sol\":3143:3173  address newPlayer = msg.sender */\n      swap1\n      pop\n        /* \"contracts/TicTacToe.sol\":3183:3200  Game storage game */\n      0x00\n        /* \"contracts/TicTacToe.sol\":3203:3208  games */\n      dup1\n        /* \"contracts/TicTacToe.sol\":3203:3217  games[_gameId] */\n      0x00\n        /* \"contracts/TicTacToe.sol\":3209:3216  _gameId */\n      dup7\n        /* \"contracts/TicTacToe.sol\":3203:3217  games[_gameId] */\n      dup2\n      mstore\n      0x20\n      add\n      swap1\n      dup2\n      mstore\n      0x20\n      add\n      0x00\n      keccak256\n        /* \"contracts/TicTacToe.sol\":3183:3217  Game storage game = games[_gameId] */\n      swap1\n      pop\n        /* \"contracts/TicTacToe.sol\":3246:3258  Winners.None */\n      0x00\n        /* \"contracts/TicTacToe.sol\":3231:3258  game.winner != Winners.None */\n      0x03\n      dup2\n      gt\n      iszero\n      tag_106\n      jumpi\n      tag_107\n      tag_26\n      jump\t// in\n    tag_107:\n    tag_106:\n        /* \"contracts/TicTacToe.sol\":3231:3235  game */\n      dup2\n        /* \"contracts/TicTacToe.sol\":3231:3242  game.winner */\n      0x01\n      add\n      0x14\n      swap1\n      sload\n      swap1\n      0x0100\n      exp\n      swap1\n      div\n      0xff\n      and\n        /* \"contracts/TicTacToe.sol\":3231:3258  game.winner != Winners.None */\n      0x03\n      dup2\n      gt\n      iszero\n      tag_108\n      jumpi\n      tag_109\n      tag_26\n      jump\t// in\n    tag_109:\n    tag_108:\n      eq\n        /* \"contracts/TicTacToe.sol\":3228:3332  if(game.winner != Winners.None) {... */\n      tag_110\n      jumpi\n        /* \"contracts/TicTacToe.sol\":3281:3286  false */\n      0x00\n        /* \"contracts/TicTacToe.sol\":3274:3321  return(false, \"This game is already complete.\") */\n      mload(0x40)\n      dup1\n      0x40\n      add\n      0x40\n      mstore\n      dup1\n      0x1e\n      dup2\n      mstore\n      0x20\n      add\n      0x546869732067616d6520697320616c726561647920636f6d706c6574652e0000\n      dup2\n      mstore\n      pop\n      swap4\n      pop\n      swap4\n      pop\n      pop\n      pop\n      jump(tag_104)\n        /* \"contracts/TicTacToe.sol\":3228:3332  if(game.winner != Winners.None) {... */\n    tag_110:\n        /* \"contracts/TicTacToe.sol\":3441:3442  0 */\n      0x00\n        /* \"contracts/TicTacToe.sol\":3415:3443  game.playerOne == address(0) */\n      0xffffffffffffffffffffffffffffffffffffffff\n      and\n        /* \"contracts/TicTacToe.sol\":3415:3419  game */\n      dup2\n        /* \"contracts/TicTacToe.sol\":3415:3429  game.playerOne */\n      0x00\n      add\n      0x00\n      swap1\n      sload\n      swap1\n      0x0100\n      exp\n      swap1\n      div\n      0xffffffffffffffffffffffffffffffffffffffff\n      and\n        /* \"contracts/TicTacToe.sol\":3415:3443  game.playerOne == address(0) */\n      0xffffffffffffffffffffffffffffffffffffffff\n      and\n      eq\n        /* \"contracts/TicTacToe.sol\":3411:3879  if (game.playerOne == address(0)) {... */\n      iszero\n      tag_111\n      jumpi\n        /* \"contracts/TicTacToe.sol\":3476:3485  newPlayer */\n      dup2\n        /* \"contracts/TicTacToe.sol\":3459:3463  game */\n      dup2\n        /* \"contracts/TicTacToe.sol\":3459:3473  game.playerOne */\n      0x00\n      add\n      0x00\n        /* \"contracts/TicTacToe.sol\":3459:3485  game.playerOne = newPlayer */\n      0x0100\n      exp\n      dup2\n      sload\n      dup2\n      0xffffffffffffffffffffffffffffffffffffffff\n      mul\n      not\n      and\n      swap1\n      dup4\n      0xffffffffffffffffffffffffffffffffffffffff\n      and\n      mul\n      or\n      swap1\n      sstore\n      pop\n        /* \"contracts/TicTacToe.sol\":3504:3566  PlayerJoinedGame(_gameId, newPlayer, uint8(Players.PlayerOne)) */\n      0x8f5866c09e99941481e2be79d3a7698371543fe3ad3387b903553fd6043e8550\n        /* \"contracts/TicTacToe.sol\":3521:3528  _gameId */\n      dup6\n        /* \"contracts/TicTacToe.sol\":3530:3539  newPlayer */\n      dup4\n        /* \"contracts/TicTacToe.sol\":3547:3564  Players.PlayerOne */\n      0x01\n        /* \"contracts/TicTacToe.sol\":3541:3565  uint8(Players.PlayerOne) */\n      0x02\n      dup2\n      gt\n      iszero\n      tag_112\n      jumpi\n      tag_113\n      tag_26\n      jump\t// in\n    tag_113:\n    tag_112:\n        /* \"contracts/TicTacToe.sol\":3504:3566  PlayerJoinedGame(_gameId, newPlayer, uint8(Players.PlayerOne)) */\n      mload(0x40)\n      tag_114\n      swap4\n      swap3\n      swap2\n      swap1\n      tag_115\n      jump\t// in\n    tag_114:\n      mload(0x40)\n      dup1\n      swap2\n      sub\n      swap1\n      log1\n        /* \"contracts/TicTacToe.sol\":3609:3610  0 */\n      0x00\n        /* \"contracts/TicTacToe.sol\":3583:3611  game.playerTwo != address(0) */\n      0xffffffffffffffffffffffffffffffffffffffff\n      and\n        /* \"contracts/TicTacToe.sol\":3583:3587  game */\n      dup2\n        /* \"contracts/TicTacToe.sol\":3583:3597  game.playerTwo */\n      0x01\n      add\n      0x00\n      swap1\n      sload\n      swap1\n      0x0100\n      exp\n      swap1\n      div\n      0xffffffffffffffffffffffffffffffffffffffff\n      and\n        /* \"contracts/TicTacToe.sol\":3583:3611  game.playerTwo != address(0) */\n      0xffffffffffffffffffffffffffffffffffffffff\n      and\n      eq\n        /* \"contracts/TicTacToe.sol\":3580:3793  if(game.playerTwo != address(0)) {... */\n      tag_116\n      jumpi\n        /* \"contracts/TicTacToe.sol\":3649:3666  Players.PlayerOne */\n      0x01\n        /* \"contracts/TicTacToe.sol\":3631:3635  game */\n      dup2\n        /* \"contracts/TicTacToe.sol\":3631:3646  game.playerTurn */\n      0x01\n      add\n      0x15\n        /* \"contracts/TicTacToe.sol\":3631:3666  game.playerTurn = Players.PlayerOne */\n      0x0100\n      exp\n      dup2\n      sload\n      dup2\n      0xff\n      mul\n      not\n      and\n      swap1\n      dup4\n      0x02\n      dup2\n      gt\n      iszero\n      tag_117\n      jumpi\n      tag_118\n      tag_26\n      jump\t// in\n    tag_118:\n    tag_117:\n      mul\n      or\n      swap1\n      sstore\n      pop\n        /* \"contracts/TicTacToe.sol\":3691:3695  true */\n      0x01\n        /* \"contracts/TicTacToe.sol\":3684:3778  return(true, \"Joined as player 1. Player 2 already exists. Player 1 can make the first move.\") */\n      mload(0x40)\n      dup1\n      0x80\n      add\n      0x40\n      mstore\n      dup1\n      0x4e\n      dup2\n      mstore\n      0x20\n      add\n      data_2307c6cecb6cdd4358fafc00b91c477d19bbf696b7e2882ab8bda9a452fbe182\n      0x4e\n      swap2\n      codecopy\n      swap4\n      pop\n      swap4\n      pop\n      pop\n      pop\n      jump(tag_104)\n        /* \"contracts/TicTacToe.sol\":3580:3793  if(game.playerTwo != address(0)) {... */\n    tag_116:\n        /* \"contracts/TicTacToe.sol\":3815:3819  true */\n      0x01\n        /* \"contracts/TicTacToe.sol\":3807:3868  return (true, \"Joined as player 1. Game hasn't started yet.\") */\n      mload(0x40)\n      dup1\n      0x60\n      add\n      0x40\n      mstore\n      dup1\n      0x2c\n      dup2\n      mstore\n      0x20\n      add\n      data_1dec2345cf2c9904d4bfc97b685b7aceb7535b3c20b581cfcd1a8aad6e3c0022\n      0x2c\n      swap2\n      codecopy\n      swap4\n      pop\n      swap4\n      pop\n      pop\n      pop\n      jump(tag_104)\n        /* \"contracts/TicTacToe.sol\":3411:3879  if (game.playerOne == address(0)) {... */\n    tag_111:\n        /* \"contracts/TicTacToe.sol\":4008:4009  0 */\n      0x00\n        /* \"contracts/TicTacToe.sol\":3982:4010  game.playerTwo == address(0) */\n      0xffffffffffffffffffffffffffffffffffffffff\n      and\n        /* \"contracts/TicTacToe.sol\":3982:3986  game */\n      dup2\n        /* \"contracts/TicTacToe.sol\":3982:3996  game.playerTwo */\n      0x01\n      add\n      0x00\n      swap1\n      sload\n      swap1\n      0x0100\n      exp\n      swap1\n      div\n      0xffffffffffffffffffffffffffffffffffffffff\n      and\n        /* \"contracts/TicTacToe.sol\":3982:4010  game.playerTwo == address(0) */\n      0xffffffffffffffffffffffffffffffffffffffff\n      and\n      eq\n        /* \"contracts/TicTacToe.sol\":3978:4421  if (game.playerTwo == address(0)) {... */\n      iszero\n      tag_119\n      jumpi\n        /* \"contracts/TicTacToe.sol\":4043:4052  newPlayer */\n      dup2\n        /* \"contracts/TicTacToe.sol\":4026:4030  game */\n      dup2\n        /* \"contracts/TicTacToe.sol\":4026:4040  game.playerTwo */\n      0x01\n      add\n      0x00\n        /* \"contracts/TicTacToe.sol\":4026:4052  game.playerTwo = newPlayer */\n      0x0100\n      exp\n      dup2\n      sload\n      dup2\n      0xffffffffffffffffffffffffffffffffffffffff\n      mul\n      not\n      and\n      swap1\n      dup4\n      0xffffffffffffffffffffffffffffffffffffffff\n      and\n      mul\n      or\n      swap1\n      sstore\n      pop\n        /* \"contracts/TicTacToe.sol\":4071:4133  PlayerJoinedGame(_gameId, newPlayer, uint8(Players.PlayerTwo)) */\n      0x8f5866c09e99941481e2be79d3a7698371543fe3ad3387b903553fd6043e8550\n        /* \"contracts/TicTacToe.sol\":4088:4095  _gameId */\n      dup6\n        /* \"contracts/TicTacToe.sol\":4097:4106  newPlayer */\n      dup4\n        /* \"contracts/TicTacToe.sol\":4114:4131  Players.PlayerTwo */\n      0x02\n        /* \"contracts/TicTacToe.sol\":4108:4132  uint8(Players.PlayerTwo) */\n      dup1\n      dup2\n      gt\n      iszero\n      tag_120\n      jumpi\n      tag_121\n      tag_26\n      jump\t// in\n    tag_121:\n    tag_120:\n        /* \"contracts/TicTacToe.sol\":4071:4133  PlayerJoinedGame(_gameId, newPlayer, uint8(Players.PlayerTwo)) */\n      mload(0x40)\n      tag_122\n      swap4\n      swap3\n      swap2\n      swap1\n      tag_115\n      jump\t// in\n    tag_122:\n      mload(0x40)\n      dup1\n      swap2\n      sub\n      swap1\n      log1\n        /* \"contracts/TicTacToe.sol\":4176:4177  0 */\n      0x00\n        /* \"contracts/TicTacToe.sol\":4150:4178  game.playerOne != address(0) */\n      0xffffffffffffffffffffffffffffffffffffffff\n      and\n        /* \"contracts/TicTacToe.sol\":4150:4154  game */\n      dup2\n        /* \"contracts/TicTacToe.sol\":4150:4164  game.playerOne */\n      0x00\n      add\n      0x00\n      swap1\n      sload\n      swap1\n      0x0100\n      exp\n      swap1\n      div\n      0xffffffffffffffffffffffffffffffffffffffff\n      and\n        /* \"contracts/TicTacToe.sol\":4150:4178  game.playerOne != address(0) */\n      0xffffffffffffffffffffffffffffffffffffffff\n      and\n      eq\n        /* \"contracts/TicTacToe.sol\":4147:4336  if(game.playerOne != address(0)) { ... */\n      tag_123\n      jumpi\n        /* \"contracts/TicTacToe.sol\":4217:4234  Players.PlayerOne */\n      0x01\n        /* \"contracts/TicTacToe.sol\":4199:4203  game */\n      dup2\n        /* \"contracts/TicTacToe.sol\":4199:4214  game.playerTurn */\n      0x01\n      add\n      0x15\n        /* \"contracts/TicTacToe.sol\":4199:4234  game.playerTurn = Players.PlayerOne */\n      0x0100\n      exp\n      dup2\n      sload\n      dup2\n      0xff\n      mul\n      not\n      and\n      swap1\n      dup4\n      0x02\n      dup2\n      gt\n      iszero\n      tag_124\n      jumpi\n      tag_125\n      tag_26\n      jump\t// in\n    tag_125:\n    tag_124:\n      mul\n      or\n      swap1\n      sstore\n      pop\n        /* \"contracts/TicTacToe.sol\":4259:4263  true */\n      0x01\n        /* \"contracts/TicTacToe.sol\":4252:4321  return(true, \"Joined as player 2. Player 1 can make the first move.\") */\n      mload(0x40)\n      dup1\n      0x60\n      add\n      0x40\n      mstore\n      dup1\n      0x35\n      dup2\n      mstore\n      0x20\n      add\n      data_476d10d052133a3cad173f786601a80ea3fb2cf99f87880757d5b4e323ffaa9b\n      0x35\n      swap2\n      codecopy\n      swap4\n      pop\n      swap4\n      pop\n      pop\n      pop\n      jump(tag_104)\n        /* \"contracts/TicTacToe.sol\":4147:4336  if(game.playerOne != address(0)) { ... */\n    tag_123:\n        /* \"contracts/TicTacToe.sol\":4357:4361  true */\n      0x01\n        /* \"contracts/TicTacToe.sol\":4349:4410  return (true, \"Joined as player 2. Game hasn't started yet.\") */\n      mload(0x40)\n      dup1\n      0x60\n      add\n      0x40\n      mstore\n      dup1\n      0x2c\n      dup2\n      mstore\n      0x20\n      add\n      data_54a12ab040607f091841913999c9806ab3bf0ebbc1cf1cdac8686e31b8bf9155\n      0x2c\n      swap2\n      codecopy\n      swap4\n      pop\n      swap4\n      pop\n      pop\n      pop\n      jump(tag_104)\n        /* \"contracts/TicTacToe.sol\":3978:4421  if (game.playerTwo == address(0)) {... */\n    tag_119:\n        /* \"contracts/TicTacToe.sol\":4439:4444  false */\n      0x00\n        /* \"contracts/TicTacToe.sol\":4431:4481  return (false, \"This game already has 2 players.\") */\n      mload(0x40)\n      dup1\n      0x40\n      add\n      0x40\n      mstore\n      dup1\n      0x20\n      dup2\n      mstore\n      0x20\n      add\n      0x546869732067616d6520616c726561647920686173203220706c61796572732e\n      dup2\n      mstore\n      pop\n      swap4\n      pop\n      swap4\n      pop\n      pop\n      pop\n        /* \"contracts/TicTacToe.sol\":2948:4488  function joinGame(uint256 _gameId) public returns (bool success, string memory reason) {... */\n    tag_104:\n      swap2\n      pop\n      swap2\n      jump\t// out\n        /* \"contracts/TicTacToe.sol\":7131:7449  function getCurrentPlayer(Game storage _game) private view returns (address player) {... */\n    tag_55:\n        /* \"contracts/TicTacToe.sol\":7199:7213  address player */\n      0x00\n        /* \"contracts/TicTacToe.sol\":7249:7266  Players.PlayerOne */\n      0x01\n        /* \"contracts/TicTacToe.sol\":7229:7266  _game.playerTurn == Players.PlayerOne */\n      0x02\n      dup2\n      gt\n      iszero\n      tag_127\n      jumpi\n      tag_128\n      tag_26\n      jump\t// in\n    tag_128:\n    tag_127:\n        /* \"contracts/TicTacToe.sol\":7229:7234  _game */\n      dup3\n        /* \"contracts/TicTacToe.sol\":7229:7245  _game.playerTurn */\n      0x01\n      add\n      0x15\n      swap1\n      sload\n      swap1\n      0x0100\n      exp\n      swap1\n      div\n      0xff\n      and\n        /* \"contracts/TicTacToe.sol\":7229:7266  _game.playerTurn == Players.PlayerOne */\n      0x02\n      dup2\n      gt\n      iszero\n      tag_129\n      jumpi\n      tag_130\n      tag_26\n      jump\t// in\n    tag_130:\n    tag_129:\n      eq\n        /* \"contracts/TicTacToe.sol\":7225:7315  if (_game.playerTurn == Players.PlayerOne) {... */\n      iszero\n      tag_131\n      jumpi\n        /* \"contracts/TicTacToe.sol\":7289:7294  _game */\n      dup2\n        /* \"contracts/TicTacToe.sol\":7289:7304  _game.playerOne */\n      0x00\n      add\n      0x00\n      swap1\n      sload\n      swap1\n      0x0100\n      exp\n      swap1\n      div\n      0xffffffffffffffffffffffffffffffffffffffff\n      and\n        /* \"contracts/TicTacToe.sol\":7282:7304  return _game.playerOne */\n      swap1\n      pop\n      jump(tag_126)\n        /* \"contracts/TicTacToe.sol\":7225:7315  if (_game.playerTurn == Players.PlayerOne) {... */\n    tag_131:\n        /* \"contracts/TicTacToe.sol\":7349:7366  Players.PlayerTwo */\n      0x02\n        /* \"contracts/TicTacToe.sol\":7329:7366  _game.playerTurn == Players.PlayerTwo */\n      dup1\n      dup2\n      gt\n      iszero\n      tag_132\n      jumpi\n      tag_133\n      tag_26\n      jump\t// in\n    tag_133:\n    tag_132:\n        /* \"contracts/TicTacToe.sol\":7329:7334  _game */\n      dup3\n        /* \"contracts/TicTacToe.sol\":7329:7345  _game.playerTurn */\n      0x01\n      add\n      0x15\n      swap1\n      sload\n      swap1\n      0x0100\n      exp\n      swap1\n      div\n      0xff\n      and\n        /* \"contracts/TicTacToe.sol\":7329:7366  _game.playerTurn == Players.PlayerTwo */\n      0x02\n      dup2\n      gt\n      iszero\n      tag_134\n      jumpi\n      tag_135\n      tag_26\n      jump\t// in\n    tag_135:\n    tag_134:\n      eq\n        /* \"contracts/TicTacToe.sol\":7325:7415  if (_game.playerTurn == Players.PlayerTwo) {... */\n      iszero\n      tag_136\n      jumpi\n        /* \"contracts/TicTacToe.sol\":7389:7394  _game */\n      dup2\n        /* \"contracts/TicTacToe.sol\":7389:7404  _game.playerTwo */\n      0x01\n      add\n      0x00\n      swap1\n      sload\n      swap1\n      0x0100\n      exp\n      swap1\n      div\n      0xffffffffffffffffffffffffffffffffffffffff\n      and\n        /* \"contracts/TicTacToe.sol\":7382:7404  return _game.playerTwo */\n      swap1\n      pop\n      jump(tag_126)\n        /* \"contracts/TicTacToe.sol\":7325:7415  if (_game.playerTurn == Players.PlayerTwo) {... */\n    tag_136:\n        /* \"contracts/TicTacToe.sol\":7440:7441  0 */\n      0x00\n        /* \"contracts/TicTacToe.sol\":7425:7442  return address(0) */\n      swap1\n      pop\n        /* \"contracts/TicTacToe.sol\":7131:7449  function getCurrentPlayer(Game storage _game) private view returns (address player) {... */\n    tag_126:\n      swap2\n      swap1\n      pop\n      jump\t// out\n        /* \"contracts/TicTacToe.sol\":7604:8810  function calculateWinner(uint8[3][3] memory _board) private pure returns (Winners winner) {... */\n    tag_92:\n        /* \"contracts/TicTacToe.sol\":7678:7692  Winners winner */\n      0x00\n        /* \"contracts/TicTacToe.sol\":7900:7914  Players player */\n      dup1\n        /* \"contracts/TicTacToe.sol\":7917:7936  winnerInRow(_board) */\n      tag_138\n        /* \"contracts/TicTacToe.sol\":7929:7935  _board */\n      dup4\n        /* \"contracts/TicTacToe.sol\":7917:7928  winnerInRow */\n      tag_139\n        /* \"contracts/TicTacToe.sol\":7917:7936  winnerInRow(_board) */\n      jump\t// in\n    tag_138:\n        /* \"contracts/TicTacToe.sol\":7900:7936  Players player = winnerInRow(_board) */\n      swap1\n      pop\n        /* \"contracts/TicTacToe.sol\":7960:7977  Players.PlayerOne */\n      0x01\n        /* \"contracts/TicTacToe.sol\":7950:7977  player == Players.PlayerOne */\n      0x02\n      dup2\n      gt\n      iszero\n      tag_140\n      jumpi\n      tag_141\n      tag_26\n      jump\t// in\n    tag_141:\n    tag_140:\n        /* \"contracts/TicTacToe.sol\":7950:7956  player */\n      dup2\n        /* \"contracts/TicTacToe.sol\":7950:7977  player == Players.PlayerOne */\n      0x02\n      dup2\n      gt\n      iszero\n      tag_142\n      jumpi\n      tag_143\n      tag_26\n      jump\t// in\n    tag_143:\n    tag_142:\n      eq\n        /* \"contracts/TicTacToe.sol\":7946:8028  if (player == Players.PlayerOne) {... */\n      iszero\n      tag_144\n      jumpi\n        /* \"contracts/TicTacToe.sol\":8000:8017  Winners.PlayerOne */\n      0x01\n        /* \"contracts/TicTacToe.sol\":7993:8017  return Winners.PlayerOne */\n      swap2\n      pop\n      pop\n      jump(tag_137)\n        /* \"contracts/TicTacToe.sol\":7946:8028  if (player == Players.PlayerOne) {... */\n    tag_144:\n        /* \"contracts/TicTacToe.sol\":8051:8068  Players.PlayerTwo */\n      0x02\n        /* \"contracts/TicTacToe.sol\":8041:8068  player == Players.PlayerTwo */\n      dup1\n      dup2\n      gt\n      iszero\n      tag_145\n      jumpi\n      tag_146\n      tag_26\n      jump\t// in\n    tag_146:\n    tag_145:\n        /* \"contracts/TicTacToe.sol\":8041:8047  player */\n      dup2\n        /* \"contracts/TicTacToe.sol\":8041:8068  player == Players.PlayerTwo */\n      0x02\n      dup2\n      gt\n      iszero\n      tag_147\n      jumpi\n      tag_148\n      tag_26\n      jump\t// in\n    tag_148:\n    tag_147:\n      eq\n        /* \"contracts/TicTacToe.sol\":8037:8119  if (player == Players.PlayerTwo) {... */\n      iszero\n      tag_149\n      jumpi\n        /* \"contracts/TicTacToe.sol\":8091:8108  Winners.PlayerTwo */\n      0x02\n        /* \"contracts/TicTacToe.sol\":8084:8108  return Winners.PlayerTwo */\n      swap2\n      pop\n      pop\n      jump(tag_137)\n        /* \"contracts/TicTacToe.sol\":8037:8119  if (player == Players.PlayerTwo) {... */\n    tag_149:\n        /* \"contracts/TicTacToe.sol\":8162:8184  winnerInColumn(_board) */\n      tag_150\n        /* \"contracts/TicTacToe.sol\":8177:8183  _board */\n      dup4\n        /* \"contracts/TicTacToe.sol\":8162:8176  winnerInColumn */\n      tag_151\n        /* \"contracts/TicTacToe.sol\":8162:8184  winnerInColumn(_board) */\n      jump\t// in\n    tag_150:\n        /* \"contracts/TicTacToe.sol\":8153:8184  player = winnerInColumn(_board) */\n      swap1\n      pop\n        /* \"contracts/TicTacToe.sol\":8208:8225  Players.PlayerOne */\n      0x01\n        /* \"contracts/TicTacToe.sol\":8198:8225  player == Players.PlayerOne */\n      0x02\n      dup2\n      gt\n      iszero\n      tag_152\n      jumpi\n      tag_153\n      tag_26\n      jump\t// in\n    tag_153:\n    tag_152:\n        /* \"contracts/TicTacToe.sol\":8198:8204  player */\n      dup2\n        /* \"contracts/TicTacToe.sol\":8198:8225  player == Players.PlayerOne */\n      0x02\n      dup2\n      gt\n      iszero\n      tag_154\n      jumpi\n      tag_155\n      tag_26\n      jump\t// in\n    tag_155:\n    tag_154:\n      eq\n        /* \"contracts/TicTacToe.sol\":8194:8276  if (player == Players.PlayerOne) {... */\n      iszero\n      tag_156\n      jumpi\n        /* \"contracts/TicTacToe.sol\":8248:8265  Winners.PlayerOne */\n      0x01\n        /* \"contracts/TicTacToe.sol\":8241:8265  return Winners.PlayerOne */\n      swap2\n      pop\n      pop\n      jump(tag_137)\n        /* \"contracts/TicTacToe.sol\":8194:8276  if (player == Players.PlayerOne) {... */\n    tag_156:\n        /* \"contracts/TicTacToe.sol\":8299:8316  Players.PlayerTwo */\n      0x02\n        /* \"contracts/TicTacToe.sol\":8289:8316  player == Players.PlayerTwo */\n      dup1\n      dup2\n      gt\n      iszero\n      tag_157\n      jumpi\n      tag_158\n      tag_26\n      jump\t// in\n    tag_158:\n    tag_157:\n        /* \"contracts/TicTacToe.sol\":8289:8295  player */\n      dup2\n        /* \"contracts/TicTacToe.sol\":8289:8316  player == Players.PlayerTwo */\n      0x02\n      dup2\n      gt\n      iszero\n      tag_159\n      jumpi\n      tag_160\n      tag_26\n      jump\t// in\n    tag_160:\n    tag_159:\n      eq\n        /* \"contracts/TicTacToe.sol\":8285:8367  if (player == Players.PlayerTwo) {... */\n      iszero\n      tag_161\n      jumpi\n        /* \"contracts/TicTacToe.sol\":8339:8356  Winners.PlayerTwo */\n      0x02\n        /* \"contracts/TicTacToe.sol\":8332:8356  return Winners.PlayerTwo */\n      swap2\n      pop\n      pop\n      jump(tag_137)\n        /* \"contracts/TicTacToe.sol\":8285:8367  if (player == Players.PlayerTwo) {... */\n    tag_161:\n        /* \"contracts/TicTacToe.sol\":8412:8436  winnerInDiagonal(_board) */\n      tag_162\n        /* \"contracts/TicTacToe.sol\":8429:8435  _board */\n      dup4\n        /* \"contracts/TicTacToe.sol\":8412:8428  winnerInDiagonal */\n      tag_163\n        /* \"contracts/TicTacToe.sol\":8412:8436  winnerInDiagonal(_board) */\n      jump\t// in\n    tag_162:\n        /* \"contracts/TicTacToe.sol\":8403:8436  player = winnerInDiagonal(_board) */\n      swap1\n      pop\n        /* \"contracts/TicTacToe.sol\":8460:8477  Players.PlayerOne */\n      0x01\n        /* \"contracts/TicTacToe.sol\":8450:8477  player == Players.PlayerOne */\n      0x02\n      dup2\n      gt\n      iszero\n      tag_164\n      jumpi\n      tag_165\n      tag_26\n      jump\t// in\n    tag_165:\n    tag_164:\n        /* \"contracts/TicTacToe.sol\":8450:8456  player */\n      dup2\n        /* \"contracts/TicTacToe.sol\":8450:8477  player == Players.PlayerOne */\n      0x02\n      dup2\n      gt\n      iszero\n      tag_166\n      jumpi\n      tag_167\n      tag_26\n      jump\t// in\n    tag_167:\n    tag_166:\n      eq\n        /* \"contracts/TicTacToe.sol\":8446:8528  if (player == Players.PlayerOne) {... */\n      iszero\n      tag_168\n      jumpi\n        /* \"contracts/TicTacToe.sol\":8500:8517  Winners.PlayerOne */\n      0x01\n        /* \"contracts/TicTacToe.sol\":8493:8517  return Winners.PlayerOne */\n      swap2\n      pop\n      pop\n      jump(tag_137)\n        /* \"contracts/TicTacToe.sol\":8446:8528  if (player == Players.PlayerOne) {... */\n    tag_168:\n        /* \"contracts/TicTacToe.sol\":8551:8568  Players.PlayerTwo */\n      0x02\n        /* \"contracts/TicTacToe.sol\":8541:8568  player == Players.PlayerTwo */\n      dup1\n      dup2\n      gt\n      iszero\n      tag_169\n      jumpi\n      tag_170\n      tag_26\n      jump\t// in\n    tag_170:\n    tag_169:\n        /* \"contracts/TicTacToe.sol\":8541:8547  player */\n      dup2\n        /* \"contracts/TicTacToe.sol\":8541:8568  player == Players.PlayerTwo */\n      0x02\n      dup2\n      gt\n      iszero\n      tag_171\n      jumpi\n      tag_172\n      tag_26\n      jump\t// in\n    tag_172:\n    tag_171:\n      eq\n        /* \"contracts/TicTacToe.sol\":8537:8619  if (player == Players.PlayerTwo) {... */\n      iszero\n      tag_173\n      jumpi\n        /* \"contracts/TicTacToe.sol\":8591:8608  Winners.PlayerTwo */\n      0x02\n        /* \"contracts/TicTacToe.sol\":8584:8608  return Winners.PlayerTwo */\n      swap2\n      pop\n      pop\n      jump(tag_137)\n        /* \"contracts/TicTacToe.sol\":8537:8619  if (player == Players.PlayerTwo) {... */\n    tag_173:\n        /* \"contracts/TicTacToe.sol\":8709:8728  isBoardFull(_board) */\n      tag_174\n        /* \"contracts/TicTacToe.sol\":8721:8727  _board */\n      dup4\n        /* \"contracts/TicTacToe.sol\":8709:8720  isBoardFull */\n      tag_175\n        /* \"contracts/TicTacToe.sol\":8709:8728  isBoardFull(_board) */\n      jump\t// in\n    tag_174:\n        /* \"contracts/TicTacToe.sol\":8705:8774  if (isBoardFull(_board)) {... */\n      iszero\n      tag_176\n      jumpi\n        /* \"contracts/TicTacToe.sol\":8751:8763  Winners.Draw */\n      0x03\n        /* \"contracts/TicTacToe.sol\":8744:8763  return Winners.Draw */\n      swap2\n      pop\n      pop\n      jump(tag_137)\n        /* \"contracts/TicTacToe.sol\":8705:8774  if (isBoardFull(_board)) {... */\n    tag_176:\n        /* \"contracts/TicTacToe.sol\":8791:8803  Winners.None */\n      0x00\n        /* \"contracts/TicTacToe.sol\":8784:8803  return Winners.None */\n      swap2\n      pop\n      pop\n        /* \"contracts/TicTacToe.sol\":7604:8810  function calculateWinner(uint8[3][3] memory _board) private pure returns (Winners winner) {... */\n    tag_137:\n      swap2\n      swap1\n      pop\n      jump\t// out\n        /* \"contracts/TicTacToe.sol\":11498:11733  function nextPlayer(Game storage _game) private {... */\n    tag_103:\n        /* \"contracts/TicTacToe.sol\":11580:11597  Players.PlayerOne */\n      0x01\n        /* \"contracts/TicTacToe.sol\":11560:11597  _game.playerTurn == Players.PlayerOne */\n      0x02\n      dup2\n      gt\n      iszero\n      tag_178\n      jumpi\n      tag_179\n      tag_26\n      jump\t// in\n    tag_179:\n    tag_178:\n        /* \"contracts/TicTacToe.sol\":11560:11565  _game */\n      dup2\n        /* \"contracts/TicTacToe.sol\":11560:11576  _game.playerTurn */\n      0x01\n      add\n      0x15\n      swap1\n      sload\n      swap1\n      0x0100\n      exp\n      swap1\n      div\n      0xff\n      and\n        /* \"contracts/TicTacToe.sol\":11560:11597  _game.playerTurn == Players.PlayerOne */\n      0x02\n      dup2\n      gt\n      iszero\n      tag_180\n      jumpi\n      tag_181\n      tag_26\n      jump\t// in\n    tag_181:\n    tag_180:\n      eq\n        /* \"contracts/TicTacToe.sol\":11556:11727  if (_game.playerTurn == Players.PlayerOne) {... */\n      iszero\n      tag_182\n      jumpi\n        /* \"contracts/TicTacToe.sol\":11632:11649  Players.PlayerTwo */\n      0x02\n        /* \"contracts/TicTacToe.sol\":11613:11618  _game */\n      dup2\n        /* \"contracts/TicTacToe.sol\":11613:11629  _game.playerTurn */\n      0x01\n      add\n      0x15\n        /* \"contracts/TicTacToe.sol\":11613:11649  _game.playerTurn = Players.PlayerTwo */\n      0x0100\n      exp\n      dup2\n      sload\n      dup2\n      0xff\n      mul\n      not\n      and\n      swap1\n      dup4\n      0x02\n      dup2\n      gt\n      iszero\n      tag_183\n      jumpi\n      tag_184\n      tag_26\n      jump\t// in\n    tag_184:\n    tag_183:\n      mul\n      or\n      swap1\n      sstore\n      pop\n        /* \"contracts/TicTacToe.sol\":11556:11727  if (_game.playerTurn == Players.PlayerOne) {... */\n      jump(tag_185)\n    tag_182:\n        /* \"contracts/TicTacToe.sol\":11699:11716  Players.PlayerOne */\n      0x01\n        /* \"contracts/TicTacToe.sol\":11680:11685  _game */\n      dup2\n        /* \"contracts/TicTacToe.sol\":11680:11696  _game.playerTurn */\n      0x01\n      add\n      0x15\n        /* \"contracts/TicTacToe.sol\":11680:11716  _game.playerTurn = Players.PlayerOne */\n      0x0100\n      exp\n      dup2\n      sload\n      dup2\n      0xff\n      mul\n      not\n      and\n      swap1\n      dup4\n      0x02\n      dup2\n      gt\n      iszero\n      tag_186\n      jumpi\n      tag_187\n      tag_26\n      jump\t// in\n    tag_187:\n    tag_186:\n      mul\n      or\n      swap1\n      sstore\n      pop\n        /* \"contracts/TicTacToe.sol\":11556:11727  if (_game.playerTurn == Players.PlayerOne) {... */\n    tag_185:\n        /* \"contracts/TicTacToe.sol\":11498:11733  function nextPlayer(Game storage _game) private {... */\n      pop\n      jump\t// out\n        /* \"contracts/TicTacToe.sol\":9006:9463  function winnerInRow(uint8[3][3] memory _board) private pure returns (Players winner) {... */\n    tag_139:\n        /* \"contracts/TicTacToe.sol\":9076:9090  Players winner */\n      0x00\n        /* \"contracts/TicTacToe.sol\":9107:9114  uint8 x */\n      dup1\n        /* \"contracts/TicTacToe.sol\":9117:9118  0 */\n      0x00\n        /* \"contracts/TicTacToe.sol\":9107:9118  uint8 x = 0 */\n      swap1\n      pop\n        /* \"contracts/TicTacToe.sol\":9102:9427  for (uint8 x = 0; x < 3; x++) {... */\n    tag_189:\n        /* \"contracts/TicTacToe.sol\":9124:9125  3 */\n      0x03\n        /* \"contracts/TicTacToe.sol\":9120:9121  x */\n      dup2\n        /* \"contracts/TicTacToe.sol\":9120:9125  x < 3 */\n      0xff\n      and\n      lt\n        /* \"contracts/TicTacToe.sol\":9102:9427  for (uint8 x = 0; x < 3; x++) {... */\n      iszero\n      tag_190\n      jumpi\n        /* \"contracts/TicTacToe.sol\":9184:9185  1 */\n      0x01\n        /* \"contracts/TicTacToe.sol\":9168:9174  _board */\n      dup4\n        /* \"contracts/TicTacToe.sol\":9175:9176  x */\n      dup3\n        /* \"contracts/TicTacToe.sol\":9168:9177  _board[x] */\n      0xff\n      and\n      0x03\n      dup2\n      lt\n      tag_192\n      jumpi\n      tag_193\n      tag_59\n      jump\t// in\n    tag_193:\n    tag_192:\n      0x20\n      mul\n      add\n      mload\n        /* \"contracts/TicTacToe.sol\":9178:9179  0 */\n      0x00\n        /* \"contracts/TicTacToe.sol\":9168:9180  _board[x][0] */\n      0x03\n      dup2\n      lt\n      tag_194\n      jumpi\n      tag_195\n      tag_59\n      jump\t// in\n    tag_195:\n    tag_194:\n      0x20\n      mul\n      add\n      mload\n        /* \"contracts/TicTacToe.sol\":9168:9185  _board[x][0] == 1 */\n      0xff\n      and\n      eq\n        /* \"contracts/TicTacToe.sol\":9168:9206  _board[x][0] == 1 || _board[x][0] == 2 */\n      dup1\n      tag_196\n      jumpi\n      pop\n        /* \"contracts/TicTacToe.sol\":9205:9206  2 */\n      0x02\n        /* \"contracts/TicTacToe.sol\":9189:9195  _board */\n      dup4\n        /* \"contracts/TicTacToe.sol\":9196:9197  x */\n      dup3\n        /* \"contracts/TicTacToe.sol\":9189:9198  _board[x] */\n      0xff\n      and\n      0x03\n      dup2\n      lt\n      tag_197\n      jumpi\n      tag_198\n      tag_59\n      jump\t// in\n    tag_198:\n    tag_197:\n      0x20\n      mul\n      add\n      mload\n        /* \"contracts/TicTacToe.sol\":9199:9200  0 */\n      0x00\n        /* \"contracts/TicTacToe.sol\":9189:9201  _board[x][0] */\n      0x03\n      dup2\n      lt\n      tag_199\n      jumpi\n      tag_200\n      tag_59\n      jump\t// in\n    tag_200:\n    tag_199:\n      0x20\n      mul\n      add\n      mload\n        /* \"contracts/TicTacToe.sol\":9189:9206  _board[x][0] == 2 */\n      0xff\n      and\n      eq\n        /* \"contracts/TicTacToe.sol\":9168:9206  _board[x][0] == 1 || _board[x][0] == 2 */\n    tag_196:\n        /* \"contracts/TicTacToe.sol\":9167:9256  (_board[x][0] == 1 || _board[x][0] == 2) ... */\n      dup1\n      iszero\n      tag_201\n      jumpi\n      pop\n        /* \"contracts/TicTacToe.sol\":9244:9250  _board */\n      dup3\n        /* \"contracts/TicTacToe.sol\":9251:9252  x */\n      dup2\n        /* \"contracts/TicTacToe.sol\":9244:9253  _board[x] */\n      0xff\n      and\n      0x03\n      dup2\n      lt\n      tag_202\n      jumpi\n      tag_203\n      tag_59\n      jump\t// in\n    tag_203:\n    tag_202:\n      0x20\n      mul\n      add\n      mload\n        /* \"contracts/TicTacToe.sol\":9254:9255  1 */\n      0x01\n        /* \"contracts/TicTacToe.sol\":9244:9256  _board[x][1] */\n      0x03\n      dup2\n      lt\n      tag_204\n      jumpi\n      tag_205\n      tag_59\n      jump\t// in\n    tag_205:\n    tag_204:\n      0x20\n      mul\n      add\n      mload\n        /* \"contracts/TicTacToe.sol\":9228:9256  _board[x][0] == _board[x][1] */\n      0xff\n      and\n        /* \"contracts/TicTacToe.sol\":9228:9234  _board */\n      dup4\n        /* \"contracts/TicTacToe.sol\":9235:9236  x */\n      dup3\n        /* \"contracts/TicTacToe.sol\":9228:9237  _board[x] */\n      0xff\n      and\n      0x03\n      dup2\n      lt\n      tag_206\n      jumpi\n      tag_207\n      tag_59\n      jump\t// in\n    tag_207:\n    tag_206:\n      0x20\n      mul\n      add\n      mload\n        /* \"contracts/TicTacToe.sol\":9238:9239  0 */\n      0x00\n        /* \"contracts/TicTacToe.sol\":9228:9240  _board[x][0] */\n      0x03\n      dup2\n      lt\n      tag_208\n      jumpi\n      tag_209\n      tag_59\n      jump\t// in\n    tag_209:\n    tag_208:\n      0x20\n      mul\n      add\n      mload\n        /* \"contracts/TicTacToe.sol\":9228:9256  _board[x][0] == _board[x][1] */\n      0xff\n      and\n      eq\n        /* \"contracts/TicTacToe.sol\":9167:9256  (_board[x][0] == 1 || _board[x][0] == 2) ... */\n    tag_201:\n        /* \"contracts/TicTacToe.sol\":9167:9305  (_board[x][0] == 1 || _board[x][0] == 2) ... */\n      dup1\n      iszero\n      tag_210\n      jumpi\n      pop\n        /* \"contracts/TicTacToe.sol\":9293:9299  _board */\n      dup3\n        /* \"contracts/TicTacToe.sol\":9300:9301  x */\n      dup2\n        /* \"contracts/TicTacToe.sol\":9293:9302  _board[x] */\n      0xff\n      and\n      0x03\n      dup2\n      lt\n      tag_211\n      jumpi\n      tag_212\n      tag_59\n      jump\t// in\n    tag_212:\n    tag_211:\n      0x20\n      mul\n      add\n      mload\n        /* \"contracts/TicTacToe.sol\":9303:9304  2 */\n      0x02\n        /* \"contracts/TicTacToe.sol\":9293:9305  _board[x][2] */\n      0x03\n      dup2\n      lt\n      tag_213\n      jumpi\n      tag_214\n      tag_59\n      jump\t// in\n    tag_214:\n    tag_213:\n      0x20\n      mul\n      add\n      mload\n        /* \"contracts/TicTacToe.sol\":9276:9305  _board[x][1]  == _board[x][2] */\n      0xff\n      and\n        /* \"contracts/TicTacToe.sol\":9276:9282  _board */\n      dup4\n        /* \"contracts/TicTacToe.sol\":9283:9284  x */\n      dup3\n        /* \"contracts/TicTacToe.sol\":9276:9285  _board[x] */\n      0xff\n      and\n      0x03\n      dup2\n      lt\n      tag_215\n      jumpi\n      tag_216\n      tag_59\n      jump\t// in\n    tag_216:\n    tag_215:\n      0x20\n      mul\n      add\n      mload\n        /* \"contracts/TicTacToe.sol\":9286:9287  1 */\n      0x01\n        /* \"contracts/TicTacToe.sol\":9276:9288  _board[x][1] */\n      0x03\n      dup2\n      lt\n      tag_217\n      jumpi\n      tag_218\n      tag_59\n      jump\t// in\n    tag_218:\n    tag_217:\n      0x20\n      mul\n      add\n      mload\n        /* \"contracts/TicTacToe.sol\":9276:9305  _board[x][1]  == _board[x][2] */\n      0xff\n      and\n      eq\n        /* \"contracts/TicTacToe.sol\":9167:9305  (_board[x][0] == 1 || _board[x][0] == 2) ... */\n    tag_210:\n        /* \"contracts/TicTacToe.sol\":9146:9417  if (... */\n      iszero\n      tag_219\n      jumpi\n        /* \"contracts/TicTacToe.sol\":9361:9362  1 */\n      0x01\n        /* \"contracts/TicTacToe.sol\":9345:9351  _board */\n      dup4\n        /* \"contracts/TicTacToe.sol\":9352:9353  x */\n      dup3\n        /* \"contracts/TicTacToe.sol\":9345:9354  _board[x] */\n      0xff\n      and\n      0x03\n      dup2\n      lt\n      tag_220\n      jumpi\n      tag_221\n      tag_59\n      jump\t// in\n    tag_221:\n    tag_220:\n      0x20\n      mul\n      add\n      mload\n        /* \"contracts/TicTacToe.sol\":9355:9356  0 */\n      0x00\n        /* \"contracts/TicTacToe.sol\":9345:9357  _board[x][0] */\n      0x03\n      dup2\n      lt\n      tag_222\n      jumpi\n      tag_223\n      tag_59\n      jump\t// in\n    tag_223:\n    tag_222:\n      0x20\n      mul\n      add\n      mload\n        /* \"contracts/TicTacToe.sol\":9345:9362  _board[x][0] == 1 */\n      0xff\n      and\n      eq\n        /* \"contracts/TicTacToe.sol\":9345:9402  _board[x][0] == 1 ? Players.PlayerOne : Players.PlayerTwo */\n      tag_224\n      jumpi\n        /* \"contracts/TicTacToe.sol\":9385:9402  Players.PlayerTwo */\n      0x02\n        /* \"contracts/TicTacToe.sol\":9345:9402  _board[x][0] == 1 ? Players.PlayerOne : Players.PlayerTwo */\n      jump(tag_225)\n    tag_224:\n        /* \"contracts/TicTacToe.sol\":9365:9382  Players.PlayerOne */\n      0x01\n        /* \"contracts/TicTacToe.sol\":9345:9402  _board[x][0] == 1 ? Players.PlayerOne : Players.PlayerTwo */\n    tag_225:\n        /* \"contracts/TicTacToe.sol\":9338:9402  return _board[x][0] == 1 ? Players.PlayerOne : Players.PlayerTwo */\n      swap2\n      pop\n      pop\n      jump(tag_188)\n        /* \"contracts/TicTacToe.sol\":9146:9417  if (... */\n    tag_219:\n        /* \"contracts/TicTacToe.sol\":9127:9130  x++ */\n      dup1\n      dup1\n      tag_226\n      swap1\n      tag_227\n      jump\t// in\n    tag_226:\n      swap2\n      pop\n      pop\n        /* \"contracts/TicTacToe.sol\":9102:9427  for (uint8 x = 0; x < 3; x++) {... */\n      jump(tag_189)\n    tag_190:\n      pop\n        /* \"contracts/TicTacToe.sol\":9444:9456  Players.None */\n      0x00\n        /* \"contracts/TicTacToe.sol\":9437:9456  return Players.None */\n      swap1\n      pop\n        /* \"contracts/TicTacToe.sol\":9006:9463  function winnerInRow(uint8[3][3] memory _board) private pure returns (Players winner) {... */\n    tag_188:\n      swap2\n      swap1\n      pop\n      jump\t// out\n        /* \"contracts/TicTacToe.sol\":9671:10129  function winnerInColumn(uint8[3][3] memory _board) private pure returns (Players winner) {... */\n    tag_151:\n        /* \"contracts/TicTacToe.sol\":9744:9758  Players winner */\n      0x00\n        /* \"contracts/TicTacToe.sol\":9775:9782  uint8 y */\n      dup1\n        /* \"contracts/TicTacToe.sol\":9785:9786  0 */\n      0x00\n        /* \"contracts/TicTacToe.sol\":9775:9786  uint8 y = 0 */\n      swap1\n      pop\n        /* \"contracts/TicTacToe.sol\":9770:10093  for (uint8 y = 0; y < 3; y++) {... */\n    tag_229:\n        /* \"contracts/TicTacToe.sol\":9792:9793  3 */\n      0x03\n        /* \"contracts/TicTacToe.sol\":9788:9789  y */\n      dup2\n        /* \"contracts/TicTacToe.sol\":9788:9793  y < 3 */\n      0xff\n      and\n      lt\n        /* \"contracts/TicTacToe.sol\":9770:10093  for (uint8 y = 0; y < 3; y++) {... */\n      iszero\n      tag_230\n      jumpi\n        /* \"contracts/TicTacToe.sol\":9852:9853  1 */\n      0x01\n        /* \"contracts/TicTacToe.sol\":9836:9842  _board */\n      dup4\n        /* \"contracts/TicTacToe.sol\":9843:9844  0 */\n      0x00\n        /* \"contracts/TicTacToe.sol\":9836:9845  _board[0] */\n      0x03\n      dup2\n      lt\n      tag_232\n      jumpi\n      tag_233\n      tag_59\n      jump\t// in\n    tag_233:\n    tag_232:\n      0x20\n      mul\n      add\n      mload\n        /* \"contracts/TicTacToe.sol\":9846:9847  y */\n      dup3\n        /* \"contracts/TicTacToe.sol\":9836:9848  _board[0][y] */\n      0xff\n      and\n      0x03\n      dup2\n      lt\n      tag_234\n      jumpi\n      tag_235\n      tag_59\n      jump\t// in\n    tag_235:\n    tag_234:\n      0x20\n      mul\n      add\n      mload\n        /* \"contracts/TicTacToe.sol\":9836:9853  _board[0][y] == 1 */\n      0xff\n      and\n      eq\n        /* \"contracts/TicTacToe.sol\":9836:9874  _board[0][y] == 1 || _board[0][y] == 2 */\n      dup1\n      tag_236\n      jumpi\n      pop\n        /* \"contracts/TicTacToe.sol\":9873:9874  2 */\n      0x02\n        /* \"contracts/TicTacToe.sol\":9857:9863  _board */\n      dup4\n        /* \"contracts/TicTacToe.sol\":9864:9865  0 */\n      0x00\n        /* \"contracts/TicTacToe.sol\":9857:9866  _board[0] */\n      0x03\n      dup2\n      lt\n      tag_237\n      jumpi\n      tag_238\n      tag_59\n      jump\t// in\n    tag_238:\n    tag_237:\n      0x20\n      mul\n      add\n      mload\n        /* \"contracts/TicTacToe.sol\":9867:9868  y */\n      dup3\n        /* \"contracts/TicTacToe.sol\":9857:9869  _board[0][y] */\n      0xff\n      and\n      0x03\n      dup2\n      lt\n      tag_239\n      jumpi\n      tag_240\n      tag_59\n      jump\t// in\n    tag_240:\n    tag_239:\n      0x20\n      mul\n      add\n      mload\n        /* \"contracts/TicTacToe.sol\":9857:9874  _board[0][y] == 2 */\n      0xff\n      and\n      eq\n        /* \"contracts/TicTacToe.sol\":9836:9874  _board[0][y] == 1 || _board[0][y] == 2 */\n    tag_236:\n        /* \"contracts/TicTacToe.sol\":9835:9923  (_board[0][y] == 1 || _board[0][y] == 2)... */\n      dup1\n      iszero\n      tag_241\n      jumpi\n      pop\n        /* \"contracts/TicTacToe.sol\":9911:9917  _board */\n      dup3\n        /* \"contracts/TicTacToe.sol\":9918:9919  1 */\n      0x01\n        /* \"contracts/TicTacToe.sol\":9911:9920  _board[1] */\n      0x03\n      dup2\n      lt\n      tag_242\n      jumpi\n      tag_243\n      tag_59\n      jump\t// in\n    tag_243:\n    tag_242:\n      0x20\n      mul\n      add\n      mload\n        /* \"contracts/TicTacToe.sol\":9921:9922  y */\n      dup2\n        /* \"contracts/TicTacToe.sol\":9911:9923  _board[1][y] */\n      0xff\n      and\n      0x03\n      dup2\n      lt\n      tag_244\n      jumpi\n      tag_245\n      tag_59\n      jump\t// in\n    tag_245:\n    tag_244:\n      0x20\n      mul\n      add\n      mload\n        /* \"contracts/TicTacToe.sol\":9895:9923  _board[0][y] == _board[1][y] */\n      0xff\n      and\n        /* \"contracts/TicTacToe.sol\":9895:9901  _board */\n      dup4\n        /* \"contracts/TicTacToe.sol\":9902:9903  0 */\n      0x00\n        /* \"contracts/TicTacToe.sol\":9895:9904  _board[0] */\n      0x03\n      dup2\n      lt\n      tag_246\n      jumpi\n      tag_247\n      tag_59\n      jump\t// in\n    tag_247:\n    tag_246:\n      0x20\n      mul\n      add\n      mload\n        /* \"contracts/TicTacToe.sol\":9905:9906  y */\n      dup3\n        /* \"contracts/TicTacToe.sol\":9895:9907  _board[0][y] */\n      0xff\n      and\n      0x03\n      dup2\n      lt\n      tag_248\n      jumpi\n      tag_249\n      tag_59\n      jump\t// in\n    tag_249:\n    tag_248:\n      0x20\n      mul\n      add\n      mload\n        /* \"contracts/TicTacToe.sol\":9895:9923  _board[0][y] == _board[1][y] */\n      0xff\n      and\n      eq\n        /* \"contracts/TicTacToe.sol\":9835:9923  (_board[0][y] == 1 || _board[0][y] == 2)... */\n    tag_241:\n        /* \"contracts/TicTacToe.sol\":9835:9971  (_board[0][y] == 1 || _board[0][y] == 2)... */\n      dup1\n      iszero\n      tag_250\n      jumpi\n      pop\n        /* \"contracts/TicTacToe.sol\":9959:9965  _board */\n      dup3\n        /* \"contracts/TicTacToe.sol\":9966:9967  2 */\n      0x02\n        /* \"contracts/TicTacToe.sol\":9959:9968  _board[2] */\n      0x03\n      dup2\n      lt\n      tag_251\n      jumpi\n      tag_252\n      tag_59\n      jump\t// in\n    tag_252:\n    tag_251:\n      0x20\n      mul\n      add\n      mload\n        /* \"contracts/TicTacToe.sol\":9969:9970  y */\n      dup2\n        /* \"contracts/TicTacToe.sol\":9959:9971  _board[2][y] */\n      0xff\n      and\n      0x03\n      dup2\n      lt\n      tag_253\n      jumpi\n      tag_254\n      tag_59\n      jump\t// in\n    tag_254:\n    tag_253:\n      0x20\n      mul\n      add\n      mload\n        /* \"contracts/TicTacToe.sol\":9943:9971  _board[1][y] == _board[2][y] */\n      0xff\n      and\n        /* \"contracts/TicTacToe.sol\":9943:9949  _board */\n      dup4\n        /* \"contracts/TicTacToe.sol\":9950:9951  1 */\n      0x01\n        /* \"contracts/TicTacToe.sol\":9943:9952  _board[1] */\n      0x03\n      dup2\n      lt\n      tag_255\n      jumpi\n      tag_256\n      tag_59\n      jump\t// in\n    tag_256:\n    tag_255:\n      0x20\n      mul\n      add\n      mload\n        /* \"contracts/TicTacToe.sol\":9953:9954  y */\n      dup3\n        /* \"contracts/TicTacToe.sol\":9943:9955  _board[1][y] */\n      0xff\n      and\n      0x03\n      dup2\n      lt\n      tag_257\n      jumpi\n      tag_258\n      tag_59\n      jump\t// in\n    tag_258:\n    tag_257:\n      0x20\n      mul\n      add\n      mload\n        /* \"contracts/TicTacToe.sol\":9943:9971  _board[1][y] == _board[2][y] */\n      0xff\n      and\n      eq\n        /* \"contracts/TicTacToe.sol\":9835:9971  (_board[0][y] == 1 || _board[0][y] == 2)... */\n    tag_250:\n        /* \"contracts/TicTacToe.sol\":9814:10083  if (... */\n      iszero\n      tag_259\n      jumpi\n        /* \"contracts/TicTacToe.sol\":10027:10028  1 */\n      0x01\n        /* \"contracts/TicTacToe.sol\":10011:10017  _board */\n      dup4\n        /* \"contracts/TicTacToe.sol\":10018:10019  0 */\n      0x00\n        /* \"contracts/TicTacToe.sol\":10011:10020  _board[0] */\n      0x03\n      dup2\n      lt\n      tag_260\n      jumpi\n      tag_261\n      tag_59\n      jump\t// in\n    tag_261:\n    tag_260:\n      0x20\n      mul\n      add\n      mload\n        /* \"contracts/TicTacToe.sol\":10021:10022  y */\n      dup3\n        /* \"contracts/TicTacToe.sol\":10011:10023  _board[0][y] */\n      0xff\n      and\n      0x03\n      dup2\n      lt\n      tag_262\n      jumpi\n      tag_263\n      tag_59\n      jump\t// in\n    tag_263:\n    tag_262:\n      0x20\n      mul\n      add\n      mload\n        /* \"contracts/TicTacToe.sol\":10011:10028  _board[0][y] == 1 */\n      0xff\n      and\n      eq\n        /* \"contracts/TicTacToe.sol\":10011:10068  _board[0][y] == 1 ? Players.PlayerOne : Players.PlayerTwo */\n      tag_264\n      jumpi\n        /* \"contracts/TicTacToe.sol\":10051:10068  Players.PlayerTwo */\n      0x02\n        /* \"contracts/TicTacToe.sol\":10011:10068  _board[0][y] == 1 ? Players.PlayerOne : Players.PlayerTwo */\n      jump(tag_265)\n    tag_264:\n        /* \"contracts/TicTacToe.sol\":10031:10048  Players.PlayerOne */\n      0x01\n        /* \"contracts/TicTacToe.sol\":10011:10068  _board[0][y] == 1 ? Players.PlayerOne : Players.PlayerTwo */\n    tag_265:\n        /* \"contracts/TicTacToe.sol\":10004:10068  return _board[0][y] == 1 ? Players.PlayerOne : Players.PlayerTwo */\n      swap2\n      pop\n      pop\n      jump(tag_228)\n        /* \"contracts/TicTacToe.sol\":9814:10083  if (... */\n    tag_259:\n        /* \"contracts/TicTacToe.sol\":9795:9798  y++ */\n      dup1\n      dup1\n      tag_266\n      swap1\n      tag_227\n      jump\t// in\n    tag_266:\n      swap2\n      pop\n      pop\n        /* \"contracts/TicTacToe.sol\":9770:10093  for (uint8 y = 0; y < 3; y++) {... */\n      jump(tag_229)\n    tag_230:\n      pop\n        /* \"contracts/TicTacToe.sol\":10110:10122  Players.None */\n      0x00\n        /* \"contracts/TicTacToe.sol\":10103:10122  return Players.None */\n      swap1\n      pop\n        /* \"contracts/TicTacToe.sol\":9671:10129  function winnerInColumn(uint8[3][3] memory _board) private pure returns (Players winner) {... */\n    tag_228:\n      swap2\n      swap1\n      pop\n      jump\t// out\n        /* \"contracts/TicTacToe.sol\":10346:10983  function winnerInDiagonal(uint8[3][3] memory _board) private pure returns (Players winner) {... */\n    tag_163:\n        /* \"contracts/TicTacToe.sol\":10421:10435  Players winner */\n      0x00\n        /* \"contracts/TicTacToe.sol\":10481:10482  1 */\n      0x01\n        /* \"contracts/TicTacToe.sol\":10465:10471  _board */\n      dup3\n        /* \"contracts/TicTacToe.sol\":10472:10473  0 */\n      0x00\n        /* \"contracts/TicTacToe.sol\":10465:10474  _board[0] */\n      0x03\n      dup2\n      lt\n      tag_268\n      jumpi\n      tag_269\n      tag_59\n      jump\t// in\n    tag_269:\n    tag_268:\n      0x20\n      mul\n      add\n      mload\n        /* \"contracts/TicTacToe.sol\":10475:10476  0 */\n      0x00\n        /* \"contracts/TicTacToe.sol\":10465:10477  _board[0][0] */\n      0x03\n      dup2\n      lt\n      tag_270\n      jumpi\n      tag_271\n      tag_59\n      jump\t// in\n    tag_271:\n    tag_270:\n      0x20\n      mul\n      add\n      mload\n        /* \"contracts/TicTacToe.sol\":10465:10482  _board[0][0] == 1 */\n      0xff\n      and\n      eq\n        /* \"contracts/TicTacToe.sol\":10465:10503  _board[0][0] == 1 || _board[0][0] == 2 */\n      dup1\n      tag_272\n      jumpi\n      pop\n        /* \"contracts/TicTacToe.sol\":10502:10503  2 */\n      0x02\n        /* \"contracts/TicTacToe.sol\":10486:10492  _board */\n      dup3\n        /* \"contracts/TicTacToe.sol\":10493:10494  0 */\n      0x00\n        /* \"contracts/TicTacToe.sol\":10486:10495  _board[0] */\n      0x03\n      dup2\n      lt\n      tag_273\n      jumpi\n      tag_274\n      tag_59\n      jump\t// in\n    tag_274:\n    tag_273:\n      0x20\n      mul\n      add\n      mload\n        /* \"contracts/TicTacToe.sol\":10496:10497  0 */\n      0x00\n        /* \"contracts/TicTacToe.sol\":10486:10498  _board[0][0] */\n      0x03\n      dup2\n      lt\n      tag_275\n      jumpi\n      tag_276\n      tag_59\n      jump\t// in\n    tag_276:\n    tag_275:\n      0x20\n      mul\n      add\n      mload\n        /* \"contracts/TicTacToe.sol\":10486:10503  _board[0][0] == 2 */\n      0xff\n      and\n      eq\n        /* \"contracts/TicTacToe.sol\":10465:10503  _board[0][0] == 1 || _board[0][0] == 2 */\n    tag_272:\n        /* \"contracts/TicTacToe.sol\":10464:10548  (_board[0][0] == 1 || _board[0][0] == 2)... */\n      dup1\n      iszero\n      tag_277\n      jumpi\n      pop\n        /* \"contracts/TicTacToe.sol\":10536:10542  _board */\n      dup2\n        /* \"contracts/TicTacToe.sol\":10543:10544  1 */\n      0x01\n        /* \"contracts/TicTacToe.sol\":10536:10545  _board[1] */\n      0x03\n      dup2\n      lt\n      tag_278\n      jumpi\n      tag_279\n      tag_59\n      jump\t// in\n    tag_279:\n    tag_278:\n      0x20\n      mul\n      add\n      mload\n        /* \"contracts/TicTacToe.sol\":10546:10547  1 */\n      0x01\n        /* \"contracts/TicTacToe.sol\":10536:10548  _board[1][1] */\n      0x03\n      dup2\n      lt\n      tag_280\n      jumpi\n      tag_281\n      tag_59\n      jump\t// in\n    tag_281:\n    tag_280:\n      0x20\n      mul\n      add\n      mload\n        /* \"contracts/TicTacToe.sol\":10520:10548  _board[0][0] == _board[1][1] */\n      0xff\n      and\n        /* \"contracts/TicTacToe.sol\":10520:10526  _board */\n      dup3\n        /* \"contracts/TicTacToe.sol\":10527:10528  0 */\n      0x00\n        /* \"contracts/TicTacToe.sol\":10520:10529  _board[0] */\n      0x03\n      dup2\n      lt\n      tag_282\n      jumpi\n      tag_283\n      tag_59\n      jump\t// in\n    tag_283:\n    tag_282:\n      0x20\n      mul\n      add\n      mload\n        /* \"contracts/TicTacToe.sol\":10530:10531  0 */\n      0x00\n        /* \"contracts/TicTacToe.sol\":10520:10532  _board[0][0] */\n      0x03\n      dup2\n      lt\n      tag_284\n      jumpi\n      tag_285\n      tag_59\n      jump\t// in\n    tag_285:\n    tag_284:\n      0x20\n      mul\n      add\n      mload\n        /* \"contracts/TicTacToe.sol\":10520:10548  _board[0][0] == _board[1][1] */\n      0xff\n      and\n      eq\n        /* \"contracts/TicTacToe.sol\":10464:10548  (_board[0][0] == 1 || _board[0][0] == 2)... */\n    tag_277:\n        /* \"contracts/TicTacToe.sol\":10464:10592  (_board[0][0] == 1 || _board[0][0] == 2)... */\n      dup1\n      iszero\n      tag_286\n      jumpi\n      pop\n        /* \"contracts/TicTacToe.sol\":10580:10586  _board */\n      dup2\n        /* \"contracts/TicTacToe.sol\":10587:10588  2 */\n      0x02\n        /* \"contracts/TicTacToe.sol\":10580:10589  _board[2] */\n      0x03\n      dup2\n      lt\n      tag_287\n      jumpi\n      tag_288\n      tag_59\n      jump\t// in\n    tag_288:\n    tag_287:\n      0x20\n      mul\n      add\n      mload\n        /* \"contracts/TicTacToe.sol\":10590:10591  2 */\n      0x02\n        /* \"contracts/TicTacToe.sol\":10580:10592  _board[2][2] */\n      0x03\n      dup2\n      lt\n      tag_289\n      jumpi\n      tag_290\n      tag_59\n      jump\t// in\n    tag_290:\n    tag_289:\n      0x20\n      mul\n      add\n      mload\n        /* \"contracts/TicTacToe.sol\":10564:10592  _board[1][1] == _board[2][2] */\n      0xff\n      and\n        /* \"contracts/TicTacToe.sol\":10564:10570  _board */\n      dup3\n        /* \"contracts/TicTacToe.sol\":10571:10572  1 */\n      0x01\n        /* \"contracts/TicTacToe.sol\":10564:10573  _board[1] */\n      0x03\n      dup2\n      lt\n      tag_291\n      jumpi\n      tag_292\n      tag_59\n      jump\t// in\n    tag_292:\n    tag_291:\n      0x20\n      mul\n      add\n      mload\n        /* \"contracts/TicTacToe.sol\":10574:10575  1 */\n      0x01\n        /* \"contracts/TicTacToe.sol\":10564:10576  _board[1][1] */\n      0x03\n      dup2\n      lt\n      tag_293\n      jumpi\n      tag_294\n      tag_59\n      jump\t// in\n    tag_294:\n    tag_293:\n      0x20\n      mul\n      add\n      mload\n        /* \"contracts/TicTacToe.sol\":10564:10592  _board[1][1] == _board[2][2] */\n      0xff\n      and\n      eq\n        /* \"contracts/TicTacToe.sol\":10464:10592  (_board[0][0] == 1 || _board[0][0] == 2)... */\n    tag_286:\n        /* \"contracts/TicTacToe.sol\":10447:10692  if (... */\n      iszero\n      tag_295\n      jumpi\n        /* \"contracts/TicTacToe.sol\":10640:10641  1 */\n      0x01\n        /* \"contracts/TicTacToe.sol\":10624:10630  _board */\n      dup3\n        /* \"contracts/TicTacToe.sol\":10631:10632  0 */\n      0x00\n        /* \"contracts/TicTacToe.sol\":10624:10633  _board[0] */\n      0x03\n      dup2\n      lt\n      tag_296\n      jumpi\n      tag_297\n      tag_59\n      jump\t// in\n    tag_297:\n    tag_296:\n      0x20\n      mul\n      add\n      mload\n        /* \"contracts/TicTacToe.sol\":10634:10635  0 */\n      0x00\n        /* \"contracts/TicTacToe.sol\":10624:10636  _board[0][0] */\n      0x03\n      dup2\n      lt\n      tag_298\n      jumpi\n      tag_299\n      tag_59\n      jump\t// in\n    tag_299:\n    tag_298:\n      0x20\n      mul\n      add\n      mload\n        /* \"contracts/TicTacToe.sol\":10624:10641  _board[0][0] == 1 */\n      0xff\n      and\n      eq\n        /* \"contracts/TicTacToe.sol\":10624:10681  _board[0][0] == 1 ? Players.PlayerOne : Players.PlayerTwo */\n      tag_300\n      jumpi\n        /* \"contracts/TicTacToe.sol\":10664:10681  Players.PlayerTwo */\n      0x02\n        /* \"contracts/TicTacToe.sol\":10624:10681  _board[0][0] == 1 ? Players.PlayerOne : Players.PlayerTwo */\n      jump(tag_301)\n    tag_300:\n        /* \"contracts/TicTacToe.sol\":10644:10661  Players.PlayerOne */\n      0x01\n        /* \"contracts/TicTacToe.sol\":10624:10681  _board[0][0] == 1 ? Players.PlayerOne : Players.PlayerTwo */\n    tag_301:\n        /* \"contracts/TicTacToe.sol\":10617:10681  return _board[0][0] == 1 ? Players.PlayerOne : Players.PlayerTwo */\n      swap1\n      pop\n      jump(tag_267)\n        /* \"contracts/TicTacToe.sol\":10447:10692  if (... */\n    tag_295:\n        /* \"contracts/TicTacToe.sol\":10736:10737  1 */\n      0x01\n        /* \"contracts/TicTacToe.sol\":10720:10726  _board */\n      dup3\n        /* \"contracts/TicTacToe.sol\":10727:10728  0 */\n      0x00\n        /* \"contracts/TicTacToe.sol\":10720:10729  _board[0] */\n      0x03\n      dup2\n      lt\n      tag_302\n      jumpi\n      tag_303\n      tag_59\n      jump\t// in\n    tag_303:\n    tag_302:\n      0x20\n      mul\n      add\n      mload\n        /* \"contracts/TicTacToe.sol\":10730:10731  2 */\n      0x02\n        /* \"contracts/TicTacToe.sol\":10720:10732  _board[0][2] */\n      0x03\n      dup2\n      lt\n      tag_304\n      jumpi\n      tag_305\n      tag_59\n      jump\t// in\n    tag_305:\n    tag_304:\n      0x20\n      mul\n      add\n      mload\n        /* \"contracts/TicTacToe.sol\":10720:10737  _board[0][2] == 1 */\n      0xff\n      and\n      eq\n        /* \"contracts/TicTacToe.sol\":10720:10758  _board[0][2] == 1 || _board[0][2] == 2 */\n      dup1\n      tag_306\n      jumpi\n      pop\n        /* \"contracts/TicTacToe.sol\":10757:10758  2 */\n      0x02\n        /* \"contracts/TicTacToe.sol\":10741:10747  _board */\n      dup3\n        /* \"contracts/TicTacToe.sol\":10748:10749  0 */\n      0x00\n        /* \"contracts/TicTacToe.sol\":10741:10750  _board[0] */\n      0x03\n      dup2\n      lt\n      tag_307\n      jumpi\n      tag_308\n      tag_59\n      jump\t// in\n    tag_308:\n    tag_307:\n      0x20\n      mul\n      add\n      mload\n        /* \"contracts/TicTacToe.sol\":10751:10752  2 */\n      0x02\n        /* \"contracts/TicTacToe.sol\":10741:10753  _board[0][2] */\n      0x03\n      dup2\n      lt\n      tag_309\n      jumpi\n      tag_310\n      tag_59\n      jump\t// in\n    tag_310:\n    tag_309:\n      0x20\n      mul\n      add\n      mload\n        /* \"contracts/TicTacToe.sol\":10741:10758  _board[0][2] == 2 */\n      0xff\n      and\n      eq\n        /* \"contracts/TicTacToe.sol\":10720:10758  _board[0][2] == 1 || _board[0][2] == 2 */\n    tag_306:\n        /* \"contracts/TicTacToe.sol\":10719:10803  (_board[0][2] == 1 || _board[0][2] == 2)... */\n      dup1\n      iszero\n      tag_311\n      jumpi\n      pop\n        /* \"contracts/TicTacToe.sol\":10791:10797  _board */\n      dup2\n        /* \"contracts/TicTacToe.sol\":10798:10799  1 */\n      0x01\n        /* \"contracts/TicTacToe.sol\":10791:10800  _board[1] */\n      0x03\n      dup2\n      lt\n      tag_312\n      jumpi\n      tag_313\n      tag_59\n      jump\t// in\n    tag_313:\n    tag_312:\n      0x20\n      mul\n      add\n      mload\n        /* \"contracts/TicTacToe.sol\":10801:10802  1 */\n      0x01\n        /* \"contracts/TicTacToe.sol\":10791:10803  _board[1][1] */\n      0x03\n      dup2\n      lt\n      tag_314\n      jumpi\n      tag_315\n      tag_59\n      jump\t// in\n    tag_315:\n    tag_314:\n      0x20\n      mul\n      add\n      mload\n        /* \"contracts/TicTacToe.sol\":10775:10803  _board[0][2] == _board[1][1] */\n      0xff\n      and\n        /* \"contracts/TicTacToe.sol\":10775:10781  _board */\n      dup3\n        /* \"contracts/TicTacToe.sol\":10782:10783  0 */\n      0x00\n        /* \"contracts/TicTacToe.sol\":10775:10784  _board[0] */\n      0x03\n      dup2\n      lt\n      tag_316\n      jumpi\n      tag_317\n      tag_59\n      jump\t// in\n    tag_317:\n    tag_316:\n      0x20\n      mul\n      add\n      mload\n        /* \"contracts/TicTacToe.sol\":10785:10786  2 */\n      0x02\n        /* \"contracts/TicTacToe.sol\":10775:10787  _board[0][2] */\n      0x03\n      dup2\n      lt\n      tag_318\n      jumpi\n      tag_319\n      tag_59\n      jump\t// in\n    tag_319:\n    tag_318:\n      0x20\n      mul\n      add\n      mload\n        /* \"contracts/TicTacToe.sol\":10775:10803  _board[0][2] == _board[1][1] */\n      0xff\n      and\n      eq\n        /* \"contracts/TicTacToe.sol\":10719:10803  (_board[0][2] == 1 || _board[0][2] == 2)... */\n    tag_311:\n        /* \"contracts/TicTacToe.sol\":10719:10847  (_board[0][2] == 1 || _board[0][2] == 2)... */\n      dup1\n      iszero\n      tag_320\n      jumpi\n      pop\n        /* \"contracts/TicTacToe.sol\":10835:10841  _board */\n      dup2\n        /* \"contracts/TicTacToe.sol\":10842:10843  2 */\n      0x02\n        /* \"contracts/TicTacToe.sol\":10835:10844  _board[2] */\n      0x03\n      dup2\n      lt\n      tag_321\n      jumpi\n      tag_322\n      tag_59\n      jump\t// in\n    tag_322:\n    tag_321:\n      0x20\n      mul\n      add\n      mload\n        /* \"contracts/TicTacToe.sol\":10845:10846  0 */\n      0x00\n        /* \"contracts/TicTacToe.sol\":10835:10847  _board[2][0] */\n      0x03\n      dup2\n      lt\n      tag_323\n      jumpi\n      tag_324\n      tag_59\n      jump\t// in\n    tag_324:\n    tag_323:\n      0x20\n      mul\n      add\n      mload\n        /* \"contracts/TicTacToe.sol\":10819:10847  _board[1][1] == _board[2][0] */\n      0xff\n      and\n        /* \"contracts/TicTacToe.sol\":10819:10825  _board */\n      dup3\n        /* \"contracts/TicTacToe.sol\":10826:10827  1 */\n      0x01\n        /* \"contracts/TicTacToe.sol\":10819:10828  _board[1] */\n      0x03\n      dup2\n      lt\n      tag_325\n      jumpi\n      tag_326\n      tag_59\n      jump\t// in\n    tag_326:\n    tag_325:\n      0x20\n      mul\n      add\n      mload\n        /* \"contracts/TicTacToe.sol\":10829:10830  1 */\n      0x01\n        /* \"contracts/TicTacToe.sol\":10819:10831  _board[1][1] */\n      0x03\n      dup2\n      lt\n      tag_327\n      jumpi\n      tag_328\n      tag_59\n      jump\t// in\n    tag_328:\n    tag_327:\n      0x20\n      mul\n      add\n      mload\n        /* \"contracts/TicTacToe.sol\":10819:10847  _board[1][1] == _board[2][0] */\n      0xff\n      and\n      eq\n        /* \"contracts/TicTacToe.sol\":10719:10847  (_board[0][2] == 1 || _board[0][2] == 2)... */\n    tag_320:\n        /* \"contracts/TicTacToe.sol\":10702:10947  if (... */\n      iszero\n      tag_329\n      jumpi\n        /* \"contracts/TicTacToe.sol\":10895:10896  1 */\n      0x01\n        /* \"contracts/TicTacToe.sol\":10879:10885  _board */\n      dup3\n        /* \"contracts/TicTacToe.sol\":10886:10887  0 */\n      0x00\n        /* \"contracts/TicTacToe.sol\":10879:10888  _board[0] */\n      0x03\n      dup2\n      lt\n      tag_330\n      jumpi\n      tag_331\n      tag_59\n      jump\t// in\n    tag_331:\n    tag_330:\n      0x20\n      mul\n      add\n      mload\n        /* \"contracts/TicTacToe.sol\":10889:10890  2 */\n      0x02\n        /* \"contracts/TicTacToe.sol\":10879:10891  _board[0][2] */\n      0x03\n      dup2\n      lt\n      tag_332\n      jumpi\n      tag_333\n      tag_59\n      jump\t// in\n    tag_333:\n    tag_332:\n      0x20\n      mul\n      add\n      mload\n        /* \"contracts/TicTacToe.sol\":10879:10896  _board[0][2] == 1 */\n      0xff\n      and\n      eq\n        /* \"contracts/TicTacToe.sol\":10879:10936  _board[0][2] == 1 ? Players.PlayerOne : Players.PlayerTwo */\n      tag_334\n      jumpi\n        /* \"contracts/TicTacToe.sol\":10919:10936  Players.PlayerTwo */\n      0x02\n        /* \"contracts/TicTacToe.sol\":10879:10936  _board[0][2] == 1 ? Players.PlayerOne : Players.PlayerTwo */\n      jump(tag_335)\n    tag_334:\n        /* \"contracts/TicTacToe.sol\":10899:10916  Players.PlayerOne */\n      0x01\n        /* \"contracts/TicTacToe.sol\":10879:10936  _board[0][2] == 1 ? Players.PlayerOne : Players.PlayerTwo */\n    tag_335:\n        /* \"contracts/TicTacToe.sol\":10872:10936  return _board[0][2] == 1 ? Players.PlayerOne : Players.PlayerTwo */\n      swap1\n      pop\n      jump(tag_267)\n        /* \"contracts/TicTacToe.sol\":10702:10947  if (... */\n    tag_329:\n        /* \"contracts/TicTacToe.sol\":10964:10976  Players.None */\n      0x00\n        /* \"contracts/TicTacToe.sol\":10957:10976  return Players.None */\n      swap1\n      pop\n        /* \"contracts/TicTacToe.sol\":10346:10983  function winnerInDiagonal(uint8[3][3] memory _board) private pure returns (Players winner) {... */\n    tag_267:\n      swap2\n      swap1\n      pop\n      jump\t// out\n        /* \"contracts/TicTacToe.sol\":11092:11426  function isBoardFull(uint8[3][3] memory _board) private pure returns (bool isFull) {... */\n    tag_175:\n        /* \"contracts/TicTacToe.sol\":11162:11173  bool isFull */\n      0x00\n        /* \"contracts/TicTacToe.sol\":11190:11197  uint8 x */\n      dup1\n        /* \"contracts/TicTacToe.sol\":11200:11201  0 */\n      0x00\n        /* \"contracts/TicTacToe.sol\":11190:11201  uint8 x = 0 */\n      swap1\n      pop\n        /* \"contracts/TicTacToe.sol\":11185:11398  for (uint8 x = 0; x < 3; x++) {... */\n    tag_337:\n        /* \"contracts/TicTacToe.sol\":11207:11208  3 */\n      0x03\n        /* \"contracts/TicTacToe.sol\":11203:11204  x */\n      dup2\n        /* \"contracts/TicTacToe.sol\":11203:11208  x < 3 */\n      0xff\n      and\n      lt\n        /* \"contracts/TicTacToe.sol\":11185:11398  for (uint8 x = 0; x < 3; x++) {... */\n      iszero\n      tag_338\n      jumpi\n        /* \"contracts/TicTacToe.sol\":11234:11241  uint8 y */\n      0x00\n        /* \"contracts/TicTacToe.sol\":11229:11388  for (uint8 y = 0; y < 3; y++) {... */\n    tag_340:\n        /* \"contracts/TicTacToe.sol\":11251:11252  3 */\n      0x03\n        /* \"contracts/TicTacToe.sol\":11247:11248  y */\n      dup2\n        /* \"contracts/TicTacToe.sol\":11247:11252  y < 3 */\n      0xff\n      and\n      lt\n        /* \"contracts/TicTacToe.sol\":11229:11388  for (uint8 y = 0; y < 3; y++) {... */\n      iszero\n      tag_341\n      jumpi\n        /* \"contracts/TicTacToe.sol\":11297:11298  1 */\n      0x01\n        /* \"contracts/TicTacToe.sol\":11281:11287  _board */\n      dup5\n        /* \"contracts/TicTacToe.sol\":11288:11289  x */\n      dup4\n        /* \"contracts/TicTacToe.sol\":11281:11290  _board[x] */\n      0xff\n      and\n      0x03\n      dup2\n      lt\n      tag_343\n      jumpi\n      tag_344\n      tag_59\n      jump\t// in\n    tag_344:\n    tag_343:\n      0x20\n      mul\n      add\n      mload\n        /* \"contracts/TicTacToe.sol\":11291:11292  y */\n      dup3\n        /* \"contracts/TicTacToe.sol\":11281:11293  _board[x][y] */\n      0xff\n      and\n      0x03\n      dup2\n      lt\n      tag_345\n      jumpi\n      tag_346\n      tag_59\n      jump\t// in\n    tag_346:\n    tag_345:\n      0x20\n      mul\n      add\n      mload\n        /* \"contracts/TicTacToe.sol\":11281:11298  _board[x][y] != 1 */\n      0xff\n      and\n      eq\n      iszero\n        /* \"contracts/TicTacToe.sol\":11281:11319  _board[x][y] != 1 && _board[x][y] != 2 */\n      dup1\n      iszero\n      tag_347\n      jumpi\n      pop\n        /* \"contracts/TicTacToe.sol\":11318:11319  2 */\n      0x02\n        /* \"contracts/TicTacToe.sol\":11302:11308  _board */\n      dup5\n        /* \"contracts/TicTacToe.sol\":11309:11310  x */\n      dup4\n        /* \"contracts/TicTacToe.sol\":11302:11311  _board[x] */\n      0xff\n      and\n      0x03\n      dup2\n      lt\n      tag_348\n      jumpi\n      tag_349\n      tag_59\n      jump\t// in\n    tag_349:\n    tag_348:\n      0x20\n      mul\n      add\n      mload\n        /* \"contracts/TicTacToe.sol\":11312:11313  y */\n      dup3\n        /* \"contracts/TicTacToe.sol\":11302:11314  _board[x][y] */\n      0xff\n      and\n      0x03\n      dup2\n      lt\n      tag_350\n      jumpi\n      tag_351\n      tag_59\n      jump\t// in\n    tag_351:\n    tag_350:\n      0x20\n      mul\n      add\n      mload\n        /* \"contracts/TicTacToe.sol\":11302:11319  _board[x][y] != 2 */\n      0xff\n      and\n      eq\n      iszero\n        /* \"contracts/TicTacToe.sol\":11281:11319  _board[x][y] != 1 && _board[x][y] != 2 */\n    tag_347:\n        /* \"contracts/TicTacToe.sol\":11277:11374  if (_board[x][y] != 1 && _board[x][y] != 2) {... */\n      iszero\n      tag_352\n      jumpi\n        /* \"contracts/TicTacToe.sol\":11350:11355  false */\n      0x00\n        /* \"contracts/TicTacToe.sol\":11343:11355  return false */\n      swap3\n      pop\n      pop\n      pop\n      jump(tag_336)\n        /* \"contracts/TicTacToe.sol\":11277:11374  if (_board[x][y] != 1 && _board[x][y] != 2) {... */\n    tag_352:\n        /* \"contracts/TicTacToe.sol\":11254:11257  y++ */\n      dup1\n      dup1\n      tag_353\n      swap1\n      tag_227\n      jump\t// in\n    tag_353:\n      swap2\n      pop\n      pop\n        /* \"contracts/TicTacToe.sol\":11229:11388  for (uint8 y = 0; y < 3; y++) {... */\n      jump(tag_340)\n    tag_341:\n      pop\n        /* \"contracts/TicTacToe.sol\":11210:11213  x++ */\n      dup1\n      dup1\n      tag_354\n      swap1\n      tag_227\n      jump\t// in\n    tag_354:\n      swap2\n      pop\n      pop\n        /* \"contracts/TicTacToe.sol\":11185:11398  for (uint8 x = 0; x < 3; x++) {... */\n      jump(tag_337)\n    tag_338:\n      pop\n        /* \"contracts/TicTacToe.sol\":11415:11419  true */\n      0x01\n        /* \"contracts/TicTacToe.sol\":11408:11419  return true */\n      swap1\n      pop\n        /* \"contracts/TicTacToe.sol\":11092:11426  function isBoardFull(uint8[3][3] memory _board) private pure returns (bool isFull) {... */\n    tag_336:\n      swap2\n      swap1\n      pop\n      jump\t// out\n    tag_23:\n      mload(0x40)\n      dup1\n      0xa0\n      add\n      0x40\n      mstore\n      dup1\n      and(0xffffffffffffffffffffffffffffffffffffffff, 0x00)\n      dup2\n      mstore\n      0x20\n      add\n      and(0xffffffffffffffffffffffffffffffffffffffff, 0x00)\n      dup2\n      mstore\n      0x20\n      add\n      0x00\n      0x03\n      dup2\n      gt\n      iszero\n      tag_355\n      jumpi\n      tag_356\n      tag_26\n      jump\t// in\n    tag_356:\n    tag_355:\n      dup2\n      mstore\n      0x20\n      add\n      0x00\n      0x02\n      dup2\n      gt\n      iszero\n      tag_357\n      jumpi\n      tag_358\n      tag_26\n      jump\t// in\n    tag_358:\n    tag_357:\n      dup2\n      mstore\n      0x20\n      add\n      tag_359\n      tag_360\n      jump\t// in\n    tag_359:\n      dup2\n      mstore\n      pop\n      swap1\n      jump\t// out\n    tag_36:\n      dup3\n      0x03\n      dup2\n      add\n      swap3\n      dup3\n      iszero\n      tag_361\n      jumpi\n      swap2\n      0x20\n      mul\n      dup3\n      add\n    tag_362:\n      dup3\n      dup2\n      gt\n      iszero\n      tag_363\n      jumpi\n      dup3\n      mload\n      dup3\n      swap1\n      0x03\n      tag_364\n      swap3\n      swap2\n      swap1\n      tag_365\n      jump\t// in\n    tag_364:\n      pop\n      swap2\n      0x20\n      add\n      swap2\n      swap1\n      0x01\n      add\n      swap1\n      jump(tag_362)\n    tag_363:\n    tag_361:\n      pop\n      swap1\n      pop\n      tag_366\n      swap2\n      swap1\n      tag_367\n      jump\t// in\n    tag_366:\n      pop\n      swap1\n      jump\t// out\n    tag_360:\n      mload(0x40)\n      dup1\n      0x60\n      add\n      0x40\n      mstore\n      dup1\n      0x03\n      swap1\n    tag_368:\n      tag_369\n      tag_370\n      jump\t// in\n    tag_369:\n      dup2\n      mstore\n      0x20\n      add\n      swap1\n      0x01\n      swap1\n      sub\n      swap1\n      dup2\n      tag_368\n      jumpi\n      swap1\n      pop\n      pop\n      swap1\n      jump\t// out\n    tag_365:\n      dup3\n      add(0x1f, 0x03)\n      0x20\n      swap1\n      div\n      dup2\n      add\n      swap3\n      dup3\n      iszero\n      tag_371\n      jumpi\n      swap2\n      0x20\n      mul\n      dup3\n      add\n      0x00\n    tag_372:\n      dup4\n      dup3\n      gt\n      iszero\n      tag_373\n      jumpi\n      dup4\n      mload\n      dup4\n      dup3\n      0x0100\n      exp\n      dup2\n      sload\n      dup2\n      0xff\n      mul\n      not\n      and\n      swap1\n      dup4\n      0xff\n      and\n      mul\n      or\n      swap1\n      sstore\n      pop\n      swap3\n      0x20\n      add\n      swap3\n      0x01\n      add\n      0x20\n      dup2\n      0x00\n      add\n      div\n      swap3\n      dup4\n      add\n      swap3\n      0x01\n      sub\n      mul\n      jump(tag_372)\n    tag_373:\n      dup1\n      iszero\n      tag_374\n      jumpi\n      dup3\n      dup2\n      0x0100\n      exp\n      dup2\n      sload\n      swap1\n      0xff\n      mul\n      not\n      and\n      swap1\n      sstore\n      0x01\n      add\n      0x20\n      dup2\n      0x00\n      add\n      div\n      swap3\n      dup4\n      add\n      swap3\n      0x01\n      sub\n      mul\n      jump(tag_373)\n    tag_374:\n      pop\n    tag_371:\n      pop\n      swap1\n      pop\n      tag_375\n      swap2\n      swap1\n      tag_376\n      jump\t// in\n    tag_375:\n      pop\n      swap1\n      jump\t// out\n    tag_367:\n    tag_377:\n      dup1\n      dup3\n      gt\n      iszero\n      tag_378\n      jumpi\n      0x00\n      dup2\n      dup2\n      tag_379\n      swap2\n      swap1\n      tag_380\n      jump\t// in\n    tag_379:\n      pop\n      0x01\n      add\n      jump(tag_377)\n    tag_378:\n      pop\n      swap1\n      jump\t// out\n    tag_370:\n      mload(0x40)\n      dup1\n      0x60\n      add\n      0x40\n      mstore\n      dup1\n      0x03\n      swap1\n      0x20\n      dup3\n      mul\n      dup1\n      calldatasize\n      dup4\n      calldatacopy\n      dup1\n      dup3\n      add\n      swap2\n      pop\n      pop\n      swap1\n      pop\n      pop\n      swap1\n      jump\t// out\n    tag_376:\n    tag_381:\n      dup1\n      dup3\n      gt\n      iszero\n      tag_382\n      jumpi\n      0x00\n      dup2\n      0x00\n      swap1\n      sstore\n      pop\n      0x01\n      add\n      jump(tag_381)\n    tag_382:\n      pop\n      swap1\n      jump\t// out\n    tag_380:\n      pop\n      0x00\n      swap1\n      sstore\n      jump\t// out\n        /* \"#utility.yul\":7:146   */\n    tag_384:\n        /* \"#utility.yul\":53:58   */\n      0x00\n        /* \"#utility.yul\":91:97   */\n      dup2\n        /* \"#utility.yul\":78:98   */\n      calldataload\n        /* \"#utility.yul\":69:98   */\n      swap1\n      pop\n        /* \"#utility.yul\":107:140   */\n      tag_386\n        /* \"#utility.yul\":134:139   */\n      dup2\n        /* \"#utility.yul\":107:140   */\n      tag_387\n      jump\t// in\n    tag_386:\n        /* \"#utility.yul\":7:146   */\n      swap3\n      swap2\n      pop\n      pop\n      jump\t// out\n        /* \"#utility.yul\":152:481   */\n    tag_18:\n        /* \"#utility.yul\":211:217   */\n      0x00\n        /* \"#utility.yul\":260:262   */\n      0x20\n        /* \"#utility.yul\":248:257   */\n      dup3\n        /* \"#utility.yul\":239:246   */\n      dup5\n        /* \"#utility.yul\":235:258   */\n      sub\n        /* \"#utility.yul\":231:263   */\n      slt\n        /* \"#utility.yul\":228:347   */\n      iszero\n      tag_389\n      jumpi\n        /* \"#utility.yul\":266:345   */\n      tag_390\n      tag_391\n      jump\t// in\n    tag_390:\n        /* \"#utility.yul\":228:347   */\n    tag_389:\n        /* \"#utility.yul\":386:387   */\n      0x00\n        /* \"#utility.yul\":411:464   */\n      tag_392\n        /* \"#utility.yul\":456:463   */\n      dup5\n        /* \"#utility.yul\":447:453   */\n      dup3\n        /* \"#utility.yul\":436:445   */\n      dup6\n        /* \"#utility.yul\":432:454   */\n      add\n        /* \"#utility.yul\":411:464   */\n      tag_384\n      jump\t// in\n    tag_392:\n        /* \"#utility.yul\":401:464   */\n      swap2\n      pop\n        /* \"#utility.yul\":357:474   */\n      pop\n        /* \"#utility.yul\":152:481   */\n      swap3\n      swap2\n      pop\n      pop\n      jump\t// out\n        /* \"#utility.yul\":487:1106   */\n    tag_12:\n        /* \"#utility.yul\":564:570   */\n      0x00\n        /* \"#utility.yul\":572:578   */\n      dup1\n        /* \"#utility.yul\":580:586   */\n      0x00\n        /* \"#utility.yul\":629:631   */\n      0x60\n        /* \"#utility.yul\":617:626   */\n      dup5\n        /* \"#utility.yul\":608:615   */\n      dup7\n        /* \"#utility.yul\":604:627   */\n      sub\n        /* \"#utility.yul\":600:632   */\n      slt\n        /* \"#utility.yul\":597:716   */\n      iszero\n      tag_394\n      jumpi\n        /* \"#utility.yul\":635:714   */\n      tag_395\n      tag_391\n      jump\t// in\n    tag_395:\n        /* \"#utility.yul\":597:716   */\n    tag_394:\n        /* \"#utility.yul\":755:756   */\n      0x00\n        /* \"#utility.yul\":780:833   */\n      tag_396\n        /* \"#utility.yul\":825:832   */\n      dup7\n        /* \"#utility.yul\":816:822   */\n      dup3\n        /* \"#utility.yul\":805:814   */\n      dup8\n        /* \"#utility.yul\":801:823   */\n      add\n        /* \"#utility.yul\":780:833   */\n      tag_384\n      jump\t// in\n    tag_396:\n        /* \"#utility.yul\":770:833   */\n      swap4\n      pop\n        /* \"#utility.yul\":726:843   */\n      pop\n        /* \"#utility.yul\":882:884   */\n      0x20\n        /* \"#utility.yul\":908:961   */\n      tag_397\n        /* \"#utility.yul\":953:960   */\n      dup7\n        /* \"#utility.yul\":944:950   */\n      dup3\n        /* \"#utility.yul\":933:942   */\n      dup8\n        /* \"#utility.yul\":929:951   */\n      add\n        /* \"#utility.yul\":908:961   */\n      tag_384\n      jump\t// in\n    tag_397:\n        /* \"#utility.yul\":898:961   */\n      swap3\n      pop\n        /* \"#utility.yul\":853:971   */\n      pop\n        /* \"#utility.yul\":1010:1012   */\n      0x40\n        /* \"#utility.yul\":1036:1089   */\n      tag_398\n        /* \"#utility.yul\":1081:1088   */\n      dup7\n        /* \"#utility.yul\":1072:1078   */\n      dup3\n        /* \"#utility.yul\":1061:1070   */\n      dup8\n        /* \"#utility.yul\":1057:1079   */\n      add\n        /* \"#utility.yul\":1036:1089   */\n      tag_384\n      jump\t// in\n    tag_398:\n        /* \"#utility.yul\":1026:1089   */\n      swap2\n      pop\n        /* \"#utility.yul\":981:1099   */\n      pop\n        /* \"#utility.yul\":487:1106   */\n      swap3\n      pop\n      swap3\n      pop\n      swap3\n      jump\t// out\n        /* \"#utility.yul\":1112:1230   */\n    tag_399:\n        /* \"#utility.yul\":1199:1223   */\n      tag_401\n        /* \"#utility.yul\":1217:1222   */\n      dup2\n        /* \"#utility.yul\":1199:1223   */\n      tag_402\n      jump\t// in\n    tag_401:\n        /* \"#utility.yul\":1194:1197   */\n      dup3\n        /* \"#utility.yul\":1187:1224   */\n      mstore\n        /* \"#utility.yul\":1112:1230   */\n      pop\n      pop\n      jump\t// out\n        /* \"#utility.yul\":1236:1345   */\n    tag_403:\n        /* \"#utility.yul\":1317:1338   */\n      tag_405\n        /* \"#utility.yul\":1332:1337   */\n      dup2\n        /* \"#utility.yul\":1317:1338   */\n      tag_406\n      jump\t// in\n    tag_405:\n        /* \"#utility.yul\":1312:1315   */\n      dup3\n        /* \"#utility.yul\":1305:1339   */\n      mstore\n        /* \"#utility.yul\":1236:1345   */\n      pop\n      pop\n      jump\t// out\n        /* \"#utility.yul\":1351:1498   */\n    tag_407:\n        /* \"#utility.yul\":1446:1491   */\n      tag_409\n        /* \"#utility.yul\":1485:1490   */\n      dup2\n        /* \"#utility.yul\":1446:1491   */\n      tag_410\n      jump\t// in\n    tag_409:\n        /* \"#utility.yul\":1441:1444   */\n      dup3\n        /* \"#utility.yul\":1434:1492   */\n      mstore\n        /* \"#utility.yul\":1351:1498   */\n      pop\n      pop\n      jump\t// out\n        /* \"#utility.yul\":1504:1868   */\n    tag_411:\n        /* \"#utility.yul\":1592:1595   */\n      0x00\n        /* \"#utility.yul\":1620:1659   */\n      tag_413\n        /* \"#utility.yul\":1653:1658   */\n      dup3\n        /* \"#utility.yul\":1620:1659   */\n      tag_414\n      jump\t// in\n    tag_413:\n        /* \"#utility.yul\":1675:1746   */\n      tag_415\n        /* \"#utility.yul\":1739:1745   */\n      dup2\n        /* \"#utility.yul\":1734:1737   */\n      dup6\n        /* \"#utility.yul\":1675:1746   */\n      tag_416\n      jump\t// in\n    tag_415:\n        /* \"#utility.yul\":1668:1746   */\n      swap4\n      pop\n        /* \"#utility.yul\":1755:1807   */\n      tag_417\n        /* \"#utility.yul\":1800:1806   */\n      dup2\n        /* \"#utility.yul\":1795:1798   */\n      dup6\n        /* \"#utility.yul\":1788:1792   */\n      0x20\n        /* \"#utility.yul\":1781:1786   */\n      dup7\n        /* \"#utility.yul\":1777:1793   */\n      add\n        /* \"#utility.yul\":1755:1807   */\n      tag_418\n      jump\t// in\n    tag_417:\n        /* \"#utility.yul\":1832:1861   */\n      tag_419\n        /* \"#utility.yul\":1854:1860   */\n      dup2\n        /* \"#utility.yul\":1832:1861   */\n      tag_420\n      jump\t// in\n    tag_419:\n        /* \"#utility.yul\":1827:1830   */\n      dup5\n        /* \"#utility.yul\":1823:1862   */\n      add\n        /* \"#utility.yul\":1816:1862   */\n      swap2\n      pop\n        /* \"#utility.yul\":1596:1868   */\n      pop\n        /* \"#utility.yul\":1504:1868   */\n      swap3\n      swap2\n      pop\n      pop\n      jump\t// out\n        /* \"#utility.yul\":1874:1992   */\n    tag_421:\n        /* \"#utility.yul\":1961:1985   */\n      tag_423\n        /* \"#utility.yul\":1979:1984   */\n      dup2\n        /* \"#utility.yul\":1961:1985   */\n      tag_424\n      jump\t// in\n    tag_423:\n        /* \"#utility.yul\":1956:1959   */\n      dup3\n        /* \"#utility.yul\":1949:1986   */\n      mstore\n        /* \"#utility.yul\":1874:1992   */\n      pop\n      pop\n      jump\t// out\n        /* \"#utility.yul\":1998:2110   */\n    tag_425:\n        /* \"#utility.yul\":2081:2103   */\n      tag_427\n        /* \"#utility.yul\":2097:2102   */\n      dup2\n        /* \"#utility.yul\":2081:2103   */\n      tag_428\n      jump\t// in\n    tag_427:\n        /* \"#utility.yul\":2076:2079   */\n      dup3\n        /* \"#utility.yul\":2069:2104   */\n      mstore\n        /* \"#utility.yul\":1998:2110   */\n      pop\n      pop\n      jump\t// out\n        /* \"#utility.yul\":2116:2527   */\n    tag_15:\n        /* \"#utility.yul\":2251:2255   */\n      0x00\n        /* \"#utility.yul\":2289:2291   */\n      0x40\n        /* \"#utility.yul\":2278:2287   */\n      dup3\n        /* \"#utility.yul\":2274:2292   */\n      add\n        /* \"#utility.yul\":2266:2292   */\n      swap1\n      pop\n        /* \"#utility.yul\":2302:2367   */\n      tag_430\n        /* \"#utility.yul\":2364:2365   */\n      0x00\n        /* \"#utility.yul\":2353:2362   */\n      dup4\n        /* \"#utility.yul\":2349:2366   */\n      add\n        /* \"#utility.yul\":2340:2346   */\n      dup6\n        /* \"#utility.yul\":2302:2367   */\n      tag_403\n      jump\t// in\n    tag_430:\n        /* \"#utility.yul\":2414:2423   */\n      dup2\n        /* \"#utility.yul\":2408:2412   */\n      dup2\n        /* \"#utility.yul\":2404:2424   */\n      sub\n        /* \"#utility.yul\":2399:2401   */\n      0x20\n        /* \"#utility.yul\":2388:2397   */\n      dup4\n        /* \"#utility.yul\":2384:2402   */\n      add\n        /* \"#utility.yul\":2377:2425   */\n      mstore\n        /* \"#utility.yul\":2442:2520   */\n      tag_431\n        /* \"#utility.yul\":2515:2519   */\n      dup2\n        /* \"#utility.yul\":2506:2512   */\n      dup5\n        /* \"#utility.yul\":2442:2520   */\n      tag_411\n      jump\t// in\n    tag_431:\n        /* \"#utility.yul\":2434:2520   */\n      swap1\n      pop\n        /* \"#utility.yul\":2116:2527   */\n      swap4\n      swap3\n      pop\n      pop\n      pop\n      jump\t// out\n        /* \"#utility.yul\":2533:2755   */\n    tag_9:\n        /* \"#utility.yul\":2626:2630   */\n      0x00\n        /* \"#utility.yul\":2664:2666   */\n      0x20\n        /* \"#utility.yul\":2653:2662   */\n      dup3\n        /* \"#utility.yul\":2649:2667   */\n      add\n        /* \"#utility.yul\":2641:2667   */\n      swap1\n      pop\n        /* \"#utility.yul\":2677:2748   */\n      tag_433\n        /* \"#utility.yul\":2745:2746   */\n      0x00\n        /* \"#utility.yul\":2734:2743   */\n      dup4\n        /* \"#utility.yul\":2730:2747   */\n      add\n        /* \"#utility.yul\":2721:2727   */\n      dup5\n        /* \"#utility.yul\":2677:2748   */\n      tag_421\n      jump\t// in\n    tag_433:\n        /* \"#utility.yul\":2533:2755   */\n      swap3\n      swap2\n      pop\n      pop\n      jump\t// out\n        /* \"#utility.yul\":2761:3093   */\n    tag_38:\n        /* \"#utility.yul\":2882:2886   */\n      0x00\n        /* \"#utility.yul\":2920:2922   */\n      0x40\n        /* \"#utility.yul\":2909:2918   */\n      dup3\n        /* \"#utility.yul\":2905:2923   */\n      add\n        /* \"#utility.yul\":2897:2923   */\n      swap1\n      pop\n        /* \"#utility.yul\":2933:3004   */\n      tag_435\n        /* \"#utility.yul\":3001:3002   */\n      0x00\n        /* \"#utility.yul\":2990:2999   */\n      dup4\n        /* \"#utility.yul\":2986:3003   */\n      add\n        /* \"#utility.yul\":2977:2983   */\n      dup6\n        /* \"#utility.yul\":2933:3004   */\n      tag_421\n      jump\t// in\n    tag_435:\n        /* \"#utility.yul\":3014:3086   */\n      tag_436\n        /* \"#utility.yul\":3082:3084   */\n      0x20\n        /* \"#utility.yul\":3071:3080   */\n      dup4\n        /* \"#utility.yul\":3067:3085   */\n      add\n        /* \"#utility.yul\":3058:3064   */\n      dup5\n        /* \"#utility.yul\":3014:3086   */\n      tag_399\n      jump\t// in\n    tag_436:\n        /* \"#utility.yul\":2761:3093   */\n      swap4\n      swap3\n      pop\n      pop\n      pop\n      jump\t// out\n        /* \"#utility.yul\":3099:3652   */\n    tag_85:\n        /* \"#utility.yul\":3276:3280   */\n      0x00\n        /* \"#utility.yul\":3314:3317   */\n      0x80\n        /* \"#utility.yul\":3303:3312   */\n      dup3\n        /* \"#utility.yul\":3299:3318   */\n      add\n        /* \"#utility.yul\":3291:3318   */\n      swap1\n      pop\n        /* \"#utility.yul\":3328:3399   */\n      tag_438\n        /* \"#utility.yul\":3396:3397   */\n      0x00\n        /* \"#utility.yul\":3385:3394   */\n      dup4\n        /* \"#utility.yul\":3381:3398   */\n      add\n        /* \"#utility.yul\":3372:3378   */\n      dup8\n        /* \"#utility.yul\":3328:3399   */\n      tag_421\n      jump\t// in\n    tag_438:\n        /* \"#utility.yul\":3409:3481   */\n      tag_439\n        /* \"#utility.yul\":3477:3479   */\n      0x20\n        /* \"#utility.yul\":3466:3475   */\n      dup4\n        /* \"#utility.yul\":3462:3480   */\n      add\n        /* \"#utility.yul\":3453:3459   */\n      dup7\n        /* \"#utility.yul\":3409:3481   */\n      tag_399\n      jump\t// in\n    tag_439:\n        /* \"#utility.yul\":3491:3563   */\n      tag_440\n        /* \"#utility.yul\":3559:3561   */\n      0x40\n        /* \"#utility.yul\":3548:3557   */\n      dup4\n        /* \"#utility.yul\":3544:3562   */\n      add\n        /* \"#utility.yul\":3535:3541   */\n      dup6\n        /* \"#utility.yul\":3491:3563   */\n      tag_421\n      jump\t// in\n    tag_440:\n        /* \"#utility.yul\":3573:3645   */\n      tag_441\n        /* \"#utility.yul\":3641:3643   */\n      0x60\n        /* \"#utility.yul\":3630:3639   */\n      dup4\n        /* \"#utility.yul\":3626:3644   */\n      add\n        /* \"#utility.yul\":3617:3623   */\n      dup5\n        /* \"#utility.yul\":3573:3645   */\n      tag_421\n      jump\t// in\n    tag_441:\n        /* \"#utility.yul\":3099:3652   */\n      swap6\n      swap5\n      pop\n      pop\n      pop\n      pop\n      pop\n      jump\t// out\n        /* \"#utility.yul\":3658:4092   */\n    tag_115:\n        /* \"#utility.yul\":3803:3807   */\n      0x00\n        /* \"#utility.yul\":3841:3843   */\n      0x60\n        /* \"#utility.yul\":3830:3839   */\n      dup3\n        /* \"#utility.yul\":3826:3844   */\n      add\n        /* \"#utility.yul\":3818:3844   */\n      swap1\n      pop\n        /* \"#utility.yul\":3854:3925   */\n      tag_443\n        /* \"#utility.yul\":3922:3923   */\n      0x00\n        /* \"#utility.yul\":3911:3920   */\n      dup4\n        /* \"#utility.yul\":3907:3924   */\n      add\n        /* \"#utility.yul\":3898:3904   */\n      dup7\n        /* \"#utility.yul\":3854:3925   */\n      tag_421\n      jump\t// in\n    tag_443:\n        /* \"#utility.yul\":3935:4007   */\n      tag_444\n        /* \"#utility.yul\":4003:4005   */\n      0x20\n        /* \"#utility.yul\":3992:4001   */\n      dup4\n        /* \"#utility.yul\":3988:4006   */\n      add\n        /* \"#utility.yul\":3979:3985   */\n      dup6\n        /* \"#utility.yul\":3935:4007   */\n      tag_399\n      jump\t// in\n    tag_444:\n        /* \"#utility.yul\":4017:4085   */\n      tag_445\n        /* \"#utility.yul\":4081:4083   */\n      0x40\n        /* \"#utility.yul\":4070:4079   */\n      dup4\n        /* \"#utility.yul\":4066:4084   */\n      add\n        /* \"#utility.yul\":4057:4063   */\n      dup5\n        /* \"#utility.yul\":4017:4085   */\n      tag_425\n      jump\t// in\n    tag_445:\n        /* \"#utility.yul\":3658:4092   */\n      swap5\n      swap4\n      pop\n      pop\n      pop\n      pop\n      jump\t// out\n        /* \"#utility.yul\":4098:4446   */\n    tag_101:\n        /* \"#utility.yul\":4227:4231   */\n      0x00\n        /* \"#utility.yul\":4265:4267   */\n      0x40\n        /* \"#utility.yul\":4254:4263   */\n      dup3\n        /* \"#utility.yul\":4250:4268   */\n      add\n        /* \"#utility.yul\":4242:4268   */\n      swap1\n      pop\n        /* \"#utility.yul\":4278:4349   */\n      tag_447\n        /* \"#utility.yul\":4346:4347   */\n      0x00\n        /* \"#utility.yul\":4335:4344   */\n      dup4\n        /* \"#utility.yul\":4331:4348   */\n      add\n        /* \"#utility.yul\":4322:4328   */\n      dup6\n        /* \"#utility.yul\":4278:4349   */\n      tag_421\n      jump\t// in\n    tag_447:\n        /* \"#utility.yul\":4359:4439   */\n      tag_448\n        /* \"#utility.yul\":4435:4437   */\n      0x20\n        /* \"#utility.yul\":4424:4433   */\n      dup4\n        /* \"#utility.yul\":4420:4438   */\n      add\n        /* \"#utility.yul\":4411:4417   */\n      dup5\n        /* \"#utility.yul\":4359:4439   */\n      tag_407\n      jump\t// in\n    tag_448:\n        /* \"#utility.yul\":4098:4446   */\n      swap4\n      swap3\n      pop\n      pop\n      pop\n      jump\t// out\n        /* \"#utility.yul\":4533:4632   */\n    tag_414:\n        /* \"#utility.yul\":4585:4591   */\n      0x00\n        /* \"#utility.yul\":4619:4624   */\n      dup2\n        /* \"#utility.yul\":4613:4625   */\n      mload\n        /* \"#utility.yul\":4603:4625   */\n      swap1\n      pop\n        /* \"#utility.yul\":4533:4632   */\n      swap2\n      swap1\n      pop\n      jump\t// out\n        /* \"#utility.yul\":4638:4807   */\n    tag_416:\n        /* \"#utility.yul\":4722:4733   */\n      0x00\n        /* \"#utility.yul\":4756:4762   */\n      dup3\n        /* \"#utility.yul\":4751:4754   */\n      dup3\n        /* \"#utility.yul\":4744:4763   */\n      mstore\n        /* \"#utility.yul\":4796:4800   */\n      0x20\n        /* \"#utility.yul\":4791:4794   */\n      dup3\n        /* \"#utility.yul\":4787:4801   */\n      add\n        /* \"#utility.yul\":4772:4801   */\n      swap1\n      pop\n        /* \"#utility.yul\":4638:4807   */\n      swap3\n      swap2\n      pop\n      pop\n      jump\t// out\n        /* \"#utility.yul\":4813:4909   */\n    tag_402:\n        /* \"#utility.yul\":4850:4857   */\n      0x00\n        /* \"#utility.yul\":4879:4903   */\n      tag_454\n        /* \"#utility.yul\":4897:4902   */\n      dup3\n        /* \"#utility.yul\":4879:4903   */\n      tag_455\n      jump\t// in\n    tag_454:\n        /* \"#utility.yul\":4868:4903   */\n      swap1\n      pop\n        /* \"#utility.yul\":4813:4909   */\n      swap2\n      swap1\n      pop\n      jump\t// out\n        /* \"#utility.yul\":4915:5005   */\n    tag_406:\n        /* \"#utility.yul\":4949:4956   */\n      0x00\n        /* \"#utility.yul\":4992:4997   */\n      dup2\n        /* \"#utility.yul\":4985:4998   */\n      iszero\n        /* \"#utility.yul\":4978:4999   */\n      iszero\n        /* \"#utility.yul\":4967:4999   */\n      swap1\n      pop\n        /* \"#utility.yul\":4915:5005   */\n      swap2\n      swap1\n      pop\n      jump\t// out\n        /* \"#utility.yul\":5011:5142   */\n    tag_457:\n        /* \"#utility.yul\":5058:5065   */\n      0x00\n        /* \"#utility.yul\":5087:5092   */\n      dup2\n        /* \"#utility.yul\":5076:5092   */\n      swap1\n      pop\n        /* \"#utility.yul\":5093:5136   */\n      tag_459\n        /* \"#utility.yul\":5130:5135   */\n      dup3\n        /* \"#utility.yul\":5093:5136   */\n      tag_460\n      jump\t// in\n    tag_459:\n        /* \"#utility.yul\":5011:5142   */\n      swap2\n      swap1\n      pop\n      jump\t// out\n        /* \"#utility.yul\":5148:5274   */\n    tag_455:\n        /* \"#utility.yul\":5185:5192   */\n      0x00\n        /* \"#utility.yul\":5225:5267   */\n      0xffffffffffffffffffffffffffffffffffffffff\n        /* \"#utility.yul\":5218:5223   */\n      dup3\n        /* \"#utility.yul\":5214:5268   */\n      and\n        /* \"#utility.yul\":5203:5268   */\n      swap1\n      pop\n        /* \"#utility.yul\":5148:5274   */\n      swap2\n      swap1\n      pop\n      jump\t// out\n        /* \"#utility.yul\":5280:5357   */\n    tag_424:\n        /* \"#utility.yul\":5317:5324   */\n      0x00\n        /* \"#utility.yul\":5346:5351   */\n      dup2\n        /* \"#utility.yul\":5335:5351   */\n      swap1\n      pop\n        /* \"#utility.yul\":5280:5357   */\n      swap2\n      swap1\n      pop\n      jump\t// out\n        /* \"#utility.yul\":5363:5449   */\n    tag_428:\n        /* \"#utility.yul\":5398:5405   */\n      0x00\n        /* \"#utility.yul\":5438:5442   */\n      0xff\n        /* \"#utility.yul\":5431:5436   */\n      dup3\n        /* \"#utility.yul\":5427:5443   */\n      and\n        /* \"#utility.yul\":5416:5443   */\n      swap1\n      pop\n        /* \"#utility.yul\":5363:5449   */\n      swap2\n      swap1\n      pop\n      jump\t// out\n        /* \"#utility.yul\":5455:5586   */\n    tag_410:\n        /* \"#utility.yul\":5513:5522   */\n      0x00\n        /* \"#utility.yul\":5546:5580   */\n      tag_465\n        /* \"#utility.yul\":5574:5579   */\n      dup3\n        /* \"#utility.yul\":5546:5580   */\n      tag_457\n      jump\t// in\n    tag_465:\n        /* \"#utility.yul\":5533:5580   */\n      swap1\n      pop\n        /* \"#utility.yul\":5455:5586   */\n      swap2\n      swap1\n      pop\n      jump\t// out\n        /* \"#utility.yul\":5592:5899   */\n    tag_418:\n        /* \"#utility.yul\":5660:5661   */\n      0x00\n        /* \"#utility.yul\":5670:5783   */\n    tag_467:\n        /* \"#utility.yul\":5684:5690   */\n      dup4\n        /* \"#utility.yul\":5681:5682   */\n      dup2\n        /* \"#utility.yul\":5678:5691   */\n      lt\n        /* \"#utility.yul\":5670:5783   */\n      iszero\n      tag_469\n      jumpi\n        /* \"#utility.yul\":5769:5770   */\n      dup1\n        /* \"#utility.yul\":5764:5767   */\n      dup3\n        /* \"#utility.yul\":5760:5771   */\n      add\n        /* \"#utility.yul\":5754:5772   */\n      mload\n        /* \"#utility.yul\":5750:5751   */\n      dup2\n        /* \"#utility.yul\":5745:5748   */\n      dup5\n        /* \"#utility.yul\":5741:5752   */\n      add\n        /* \"#utility.yul\":5734:5773   */\n      mstore\n        /* \"#utility.yul\":5706:5708   */\n      0x20\n        /* \"#utility.yul\":5703:5704   */\n      dup2\n        /* \"#utility.yul\":5699:5709   */\n      add\n        /* \"#utility.yul\":5694:5709   */\n      swap1\n      pop\n        /* \"#utility.yul\":5670:5783   */\n      jump(tag_467)\n    tag_469:\n        /* \"#utility.yul\":5801:5807   */\n      dup4\n        /* \"#utility.yul\":5798:5799   */\n      dup2\n        /* \"#utility.yul\":5795:5808   */\n      gt\n        /* \"#utility.yul\":5792:5893   */\n      iszero\n      tag_470\n      jumpi\n        /* \"#utility.yul\":5881:5882   */\n      0x00\n        /* \"#utility.yul\":5872:5878   */\n      dup5\n        /* \"#utility.yul\":5867:5870   */\n      dup5\n        /* \"#utility.yul\":5863:5879   */\n      add\n        /* \"#utility.yul\":5856:5883   */\n      mstore\n        /* \"#utility.yul\":5792:5893   */\n    tag_470:\n        /* \"#utility.yul\":5641:5899   */\n      pop\n        /* \"#utility.yul\":5592:5899   */\n      pop\n      pop\n      pop\n      jump\t// out\n        /* \"#utility.yul\":5905:6138   */\n    tag_30:\n        /* \"#utility.yul\":5944:5947   */\n      0x00\n        /* \"#utility.yul\":5967:5991   */\n      tag_472\n        /* \"#utility.yul\":5985:5990   */\n      dup3\n        /* \"#utility.yul\":5967:5991   */\n      tag_424\n      jump\t// in\n    tag_472:\n        /* \"#utility.yul\":5958:5991   */\n      swap2\n      pop\n        /* \"#utility.yul\":6013:6079   */\n      0xffffffffffffffffffffffffffffffffffffffffffffffffffffffffffffffff\n        /* \"#utility.yul\":6006:6011   */\n      dup3\n        /* \"#utility.yul\":6003:6080   */\n      eq\n        /* \"#utility.yul\":6000:6103   */\n      iszero\n      tag_473\n      jumpi\n        /* \"#utility.yul\":6083:6101   */\n      tag_474\n      tag_475\n      jump\t// in\n    tag_474:\n        /* \"#utility.yul\":6000:6103   */\n    tag_473:\n        /* \"#utility.yul\":6130:6131   */\n      0x01\n        /* \"#utility.yul\":6123:6128   */\n      dup3\n        /* \"#utility.yul\":6119:6132   */\n      add\n        /* \"#utility.yul\":6112:6132   */\n      swap1\n      pop\n        /* \"#utility.yul\":5905:6138   */\n      swap2\n      swap1\n      pop\n      jump\t// out\n        /* \"#utility.yul\":6144:6311   */\n    tag_227:\n        /* \"#utility.yul\":6181:6184   */\n      0x00\n        /* \"#utility.yul\":6204:6226   */\n      tag_477\n        /* \"#utility.yul\":6220:6225   */\n      dup3\n        /* \"#utility.yul\":6204:6226   */\n      tag_428\n      jump\t// in\n    tag_477:\n        /* \"#utility.yul\":6195:6226   */\n      swap2\n      pop\n        /* \"#utility.yul\":6248:6252   */\n      0xff\n        /* \"#utility.yul\":6241:6246   */\n      dup3\n        /* \"#utility.yul\":6238:6253   */\n      eq\n        /* \"#utility.yul\":6235:6276   */\n      iszero\n      tag_478\n      jumpi\n        /* \"#utility.yul\":6256:6274   */\n      tag_479\n      tag_475\n      jump\t// in\n    tag_479:\n        /* \"#utility.yul\":6235:6276   */\n    tag_478:\n        /* \"#utility.yul\":6303:6304   */\n      0x01\n        /* \"#utility.yul\":6296:6301   */\n      dup3\n        /* \"#utility.yul\":6292:6305   */\n      add\n        /* \"#utility.yul\":6285:6305   */\n      swap1\n      pop\n        /* \"#utility.yul\":6144:6311   */\n      swap2\n      swap1\n      pop\n      jump\t// out\n        /* \"#utility.yul\":6317:6497   */\n    tag_475:\n        /* \"#utility.yul\":6365:6442   */\n      0x4e487b7100000000000000000000000000000000000000000000000000000000\n        /* \"#utility.yul\":6362:6363   */\n      0x00\n        /* \"#utility.yul\":6355:6443   */\n      mstore\n        /* \"#utility.yul\":6462:6466   */\n      0x11\n        /* \"#utility.yul\":6459:6460   */\n      0x04\n        /* \"#utility.yul\":6452:6467   */\n      mstore\n        /* \"#utility.yul\":6486:6490   */\n      0x24\n        /* \"#utility.yul\":6483:6484   */\n      0x00\n        /* \"#utility.yul\":6476:6491   */\n      revert\n        /* \"#utility.yul\":6503:6683   */\n    tag_26:\n        /* \"#utility.yul\":6551:6628   */\n      0x4e487b7100000000000000000000000000000000000000000000000000000000\n        /* \"#utility.yul\":6548:6549   */\n      0x00\n        /* \"#utility.yul\":6541:6629   */\n      mstore\n        /* \"#utility.yul\":6648:6652   */\n      0x21\n        /* \"#utility.yul\":6645:6646   */\n      0x04\n        /* \"#utility.yul\":6638:6653   */\n      mstore\n        /* \"#utility.yul\":6672:6676   */\n      0x24\n        /* \"#utility.yul\":6669:6670   */\n      0x00\n        /* \"#utility.yul\":6662:6677   */\n      revert\n        /* \"#utility.yul\":6689:6869   */\n    tag_59:\n        /* \"#utility.yul\":6737:6814   */\n      0x4e487b7100000000000000000000000000000000000000000000000000000000\n        /* \"#utility.yul\":6734:6735   */\n      0x00\n        /* \"#utility.yul\":6727:6815   */\n      mstore\n        /* \"#utility.yul\":6834:6838   */\n      0x32\n        /* \"#utility.yul\":6831:6832   */\n      0x04\n        /* \"#utility.yul\":6824:6839   */\n      mstore\n        /* \"#utility.yul\":6858:6862   */\n      0x24\n        /* \"#utility.yul\":6855:6856   */\n      0x00\n        /* \"#utility.yul\":6848:6863   */\n      revert\n        /* \"#utility.yul\":6998:7115   */\n    tag_391:\n        /* \"#utility.yul\":7107:7108   */\n      0x00\n        /* \"#utility.yul\":7104:7105   */\n      dup1\n        /* \"#utility.yul\":7097:7109   */\n      revert\n        /* \"#utility.yul\":7121:7223   */\n    tag_420:\n        /* \"#utility.yul\":7162:7168   */\n      0x00\n        /* \"#utility.yul\":7213:7215   */\n      0x1f\n        /* \"#utility.yul\":7209:7216   */\n      not\n        /* \"#utility.yul\":7204:7206   */\n      0x1f\n        /* \"#utility.yul\":7197:7202   */\n      dup4\n        /* \"#utility.yul\":7193:7207   */\n      add\n        /* \"#utility.yul\":7189:7217   */\n      and\n        /* \"#utility.yul\":7179:7217   */\n      swap1\n      pop\n        /* \"#utility.yul\":7121:7223   */\n      swap2\n      swap1\n      pop\n      jump\t// out\n        /* \"#utility.yul\":7229:7344   */\n    tag_460:\n        /* \"#utility.yul\":7312:7313   */\n      0x04\n        /* \"#utility.yul\":7305:7310   */\n      dup2\n        /* \"#utility.yul\":7302:7314   */\n      lt\n        /* \"#utility.yul\":7292:7338   */\n      tag_488\n      jumpi\n        /* \"#utility.yul\":7318:7336   */\n      tag_489\n      tag_26\n      jump\t// in\n    tag_489:\n        /* \"#utility.yul\":7292:7338   */\n    tag_488:\n        /* \"#utility.yul\":7229:7344   */\n      pop\n      jump\t// out\n        /* \"#utility.yul\":7350:7472   */\n    tag_387:\n        /* \"#utility.yul\":7423:7447   */\n      tag_491\n        /* \"#utility.yul\":7441:7446   */\n      dup2\n        /* \"#utility.yul\":7423:7447   */\n      tag_424\n      jump\t// in\n    tag_491:\n        /* \"#utility.yul\":7416:7421   */\n      dup2\n        /* \"#utility.yul\":7413:7448   */\n      eq\n        /* \"#utility.yul\":7403:7466   */\n      tag_492\n      jumpi\n        /* \"#utility.yul\":7462:7463   */\n      0x00\n        /* \"#utility.yul\":7459:7460   */\n      dup1\n        /* \"#utility.yul\":7452:7464   */\n      revert\n        /* \"#utility.yul\":7403:7466   */\n    tag_492:\n        /* \"#utility.yul\":7350:7472   */\n      pop\n      jump\t// out\n    stop\n    data_024d23689c7c0d36b0295c402b03cbbb30a16b10831d85b0a50598b30664ffd5 546865726520697320616c72656164792061206d61726b2061742074686520676976656e20636f6f7264696e617465732e\n    data_1dec2345cf2c9904d4bfc97b685b7aceb7535b3c20b581cfcd1a8aad6e3c0022 4a6f696e656420617320706c6179657220312e2047616d65206861736e27742073746172746564207965742e\n    data_2307c6cecb6cdd4358fafc00b91c477d19bbf696b7e2882ab8bda9a452fbe182 4a6f696e656420617320706c6179657220312e20506c61796572203220616c7265616479206578697374732e20506c6179657220312063616e206d616b6520746865206669727374206d6f76652e\n    data_476d10d052133a3cad173f786601a80ea3fb2cf99f87880757d5b4e323ffaa9b 4a6f696e656420617320706c6179657220322e20506c6179657220312063616e206d616b6520746865206669727374206d6f76652e\n    data_54a12ab040607f091841913999c9806ab3bf0ebbc1cf1cdac8686e31b8bf9155 4a6f696e656420617320706c6179657220322e2047616d65206861736e27742073746172746564207965742e\n    data_cd1c82b9c97f6de04235118f1b9fb732f775ca593a234137657e86aa65a28d62 546869732067616d6520646f65736e277420686176652074776f20706c6179657273207965742e\n\n    auxdata: 0xa264697066735822122002d43cb9a531289a6a1327cb030b72294051b4279f241aa4673f9adb945a446c64736f6c63430008070033\n}\n",
				"bytecode": {
					"linkReferences": {},
					"object": "608060405234801561001057600080fd5b506120f3806100206000396000f3fe608060405234801561001057600080fd5b50600436106100415760003560e01c80637d03f5f314610046578063cfc2f5ff14610064578063efaa55a014610095575b600080fd5b61004e6100c6565b60405161005b9190611c97565b60405180910390f35b61007e60048036038101906100799190611b90565b61027b565b60405161008c929190611c67565b60405180910390f35b6100af60048036038101906100aa9190611b63565b610986565b6040516100bd929190611c67565b60405180910390f35b60006100d061194a565b6001816060019060028111156100e9576100e8611eeb565b5b908160028111156100fd576100fc611eeb565b5b815250506001600081548092919061011490611e49565b919050555080600080600154815260200190815260200160002060008201518160000160006101000a81548173ffffffffffffffffffffffffffffffffffffffff021916908373ffffffffffffffffffffffffffffffffffffffff16021790555060208201518160010160006101000a81548173ffffffffffffffffffffffffffffffffffffffff021916908373ffffffffffffffffffffffffffffffffffffffff16021790555060408201518160010160146101000a81548160ff021916908360038111156101e7576101e6611eeb565b5b021790555060608201518160010160156101000a81548160ff0219169083600281111561021757610216611eeb565b5b02179055506080820151816002019060036102339291906119cf565b509050507fc3e0f84839dc888c892a013d10c8f9d6dc05a21a879d0ce468ca558013e9121c6001543360405161026a929190611cb2565b60405180910390a160015491505090565b6000606060015485118061035d5750600073ffffffffffffffffffffffffffffffffffffffff1660008087815260200190815260200160002060000160009054906101000a900473ffffffffffffffffffffffffffffffffffffffff1673ffffffffffffffffffffffffffffffffffffffff1614801561035c5750600073ffffffffffffffffffffffffffffffffffffffff1660008087815260200190815260200160002060010160009054906101000a900473ffffffffffffffffffffffffffffffffffffffff1673ffffffffffffffffffffffffffffffffffffffff16145b5b156103a35760006040518060400160405280601481526020017f4e6f20737563682067616d65206578697374732e0000000000000000000000008152509150915061097e565b60008410806103b25750600284115b156103f85760006040518060400160405280601f81526020017f496e76616c696420696e70757420666f7220782d636f6f7264696e6174652e008152509150915061097e565b60008310806104075750600283115b1561044d5760006040518060400160405280601f81526020017f496e76616c696420696e70757420666f7220792d636f6f7264696e6174652e008152509150915061097e565b600073ffffffffffffffffffffffffffffffffffffffff1660008087815260200190815260200160002060000160009054906101000a900473ffffffffffffffffffffffffffffffffffffffff1673ffffffffffffffffffffffffffffffffffffffff16148061051e5750600073ffffffffffffffffffffffffffffffffffffffff1660008087815260200190815260200160002060010160009054906101000a900473ffffffffffffffffffffffffffffffffffffffff1673ffffffffffffffffffffffffffffffffffffffff16145b15610547576000604051806060016040528060278152602001612097602791399150915061097e565b600080600087815260200190815260200160002090506000600381111561057157610570611eeb565b5b8160010160149054906101000a900460ff16600381111561059557610594611eeb565b5b146105dc5760006040518060400160405280601b81526020017f5468652067616d652068617320616c726561647920656e6465642e0000000000815250925092505061097e565b6105e581610e29565b73ffffffffffffffffffffffffffffffffffffffff163373ffffffffffffffffffffffffffffffffffffffff16146106595760006040518060400160405280601481526020017f4974206973206e6f7420796f7572207475726e2e000000000000000000000000815250925092505061097e565b600181600201866003811061067157610670611f1a565b5b01856003811061068457610683611f1a565b5b602091828204019190069054906101000a900460ff1660ff1614806106ea575060028160020186600381106106bc576106bb611f1a565b5b0185600381106106cf576106ce611f1a565b5b602091828204019190069054906101000a900460ff1660ff16145b15610714576000604051806060016040528060318152602001611f8b60319139925092505061097e565b6001600281111561072857610727611eeb565b5b8160010160159054906101000a900460ff16600281111561074c5761074b611eeb565b5b1461075857600261075b565b60015b81600201866003811061077157610770611f1a565b5b01856003811061078457610783611f1a565b5b602091828204019190066101000a81548160ff021916908360ff1602179055507faa03b0eb53c70f6640eba4234ad2c58782c8927e7abf7d3a6e2c45d07ca9d583863387876040516107d99493929190611cdb565b60405180910390a1600061088682600201600380602002604051908101604052809291906000905b8282101561087d57838201600380602002604051908101604052809291908260038015610869576020028201916000905b82829054906101000a900460ff1660ff16815260200190600101906020826000010492830192600103820291508084116108325790505b505050505081526020019060010190610801565b50505050610f08565b90506000600381111561089c5761089b611eeb565b5b8160038111156108af576108ae611eeb565b5b1461095c57808260010160146101000a81548160ff021916908360038111156108db576108da611eeb565b5b02179055507f132b564c6f96092065580fd28989d181dfbbfe4aa2fb7fb1eda8af68ba3073e08782604051610911929190611d57565b60405180910390a160016040518060400160405280601181526020017f5468652067616d65206973206f7665722e00000000000000000000000000000081525093509350505061097e565b61096582611096565b6001604051806020016040528060008152509350935050505b935093915050565b600060606001548311156109d55760006040518060400160405280601481526020017f4e6f20737563682067616d65206578697374732e00000000000000000000000081525091509150610e24565b60003390506000806000868152602001908152602001600020905060006003811115610a0457610a03611eeb565b5b8160010160149054906101000a900460ff166003811115610a2857610a27611eeb565b5b14610a705760006040518060400160405280601e81526020017f546869732067616d6520697320616c726561647920636f6d706c6574652e0000815250935093505050610e24565b600073ffffffffffffffffffffffffffffffffffffffff168160000160009054906101000a900473ffffffffffffffffffffffffffffffffffffffff1673ffffffffffffffffffffffffffffffffffffffff161415610c2b57818160000160006101000a81548173ffffffffffffffffffffffffffffffffffffffff021916908373ffffffffffffffffffffffffffffffffffffffff1602179055507f8f5866c09e99941481e2be79d3a7698371543fe3ad3387b903553fd6043e8550858360016002811115610b4357610b42611eeb565b5b604051610b5293929190611d20565b60405180910390a1600073ffffffffffffffffffffffffffffffffffffffff168160010160009054906101000a900473ffffffffffffffffffffffffffffffffffffffff1673ffffffffffffffffffffffffffffffffffffffff1614610c055760018160010160156101000a81548160ff02191690836002811115610bda57610bd9611eeb565b5b021790555060016040518060800160405280604e8152602001611fe8604e9139935093505050610e24565b60016040518060600160405280602c8152602001611fbc602c9139935093505050610e24565b600073ffffffffffffffffffffffffffffffffffffffff168160010160009054906101000a900473ffffffffffffffffffffffffffffffffffffffff1673ffffffffffffffffffffffffffffffffffffffff161415610de557818160010160006101000a81548173ffffffffffffffffffffffffffffffffffffffff021916908373ffffffffffffffffffffffffffffffffffffffff1602179055507f8f5866c09e99941481e2be79d3a7698371543fe3ad3387b903553fd6043e85508583600280811115610cfd57610cfc611eeb565b5b604051610d0c93929190611d20565b60405180910390a1600073ffffffffffffffffffffffffffffffffffffffff168160000160009054906101000a900473ffffffffffffffffffffffffffffffffffffffff1673ffffffffffffffffffffffffffffffffffffffff1614610dbf5760018160010160156101000a81548160ff02191690836002811115610d9457610d93611eeb565b5b0217905550600160405180606001604052806035815260200161203660359139935093505050610e24565b60016040518060600160405280602c815260200161206b602c9139935093505050610e24565b60006040518060400160405280602081526020017f546869732067616d6520616c726561647920686173203220706c61796572732e8152509350935050505b915091565b600060016002811115610e3f57610e3e611eeb565b5b8260010160159054906101000a900460ff166002811115610e6357610e62611eeb565b5b1415610e95578160000160009054906101000a900473ffffffffffffffffffffffffffffffffffffffff169050610f03565b600280811115610ea857610ea7611eeb565b5b8260010160159054906101000a900460ff166002811115610ecc57610ecb611eeb565b5b1415610efe578160010160009054906101000a900473ffffffffffffffffffffffffffffffffffffffff169050610f03565b600090505b919050565b600080610f1483611137565b905060016002811115610f2a57610f29611eeb565b5b816002811115610f3d57610f3c611eeb565b5b1415610f4d576001915050611091565b600280811115610f6057610f5f611eeb565b5b816002811115610f7357610f72611eeb565b5b1415610f83576002915050611091565b610f8c83611320565b905060016002811115610fa257610fa1611eeb565b5b816002811115610fb557610fb4611eeb565b5b1415610fc5576001915050611091565b600280811115610fd857610fd7611eeb565b5b816002811115610feb57610fea611eeb565b5b1415610ffb576002915050611091565b61100483611509565b90506001600281111561101a57611019611eeb565b5b81600281111561102d5761102c611eeb565b5b141561103d576001915050611091565b6002808111156110505761104f611eeb565b5b81600281111561106357611062611eeb565b5b1415611073576002915050611091565b61107c83611865565b1561108b576003915050611091565b60009150505b919050565b600160028111156110aa576110a9611eeb565b5b8160010160159054906101000a900460ff1660028111156110ce576110cd611eeb565b5b14156111065760028160010160156101000a81548160ff021916908360028111156110fc576110fb611eeb565b5b0217905550611134565b60018160010160156101000a81548160ff0219169083600281111561112e5761112d611eeb565b5b02179055505b50565b600080600090505b60038160ff161015611315576001838260ff166003811061116357611162611f1a565b5b602002015160006003811061117b5761117a611f1a565b5b602002015160ff1614806111c457506002838260ff16600381106111a2576111a1611f1a565b5b60200201516000600381106111ba576111b9611f1a565b5b602002015160ff16145b80156112395750828160ff16600381106111e1576111e0611f1a565b5b60200201516001600381106111f9576111f8611f1a565b5b602002015160ff16838260ff166003811061121757611216611f1a565b5b602002015160006003811061122f5761122e611f1a565b5b602002015160ff16145b80156112ae5750828160ff166003811061125657611255611f1a565b5b602002015160026003811061126e5761126d611f1a565b5b602002015160ff16838260ff166003811061128c5761128b611f1a565b5b60200201516001600381106112a4576112a3611f1a565b5b602002015160ff16145b15611302576001838260ff16600381106112cb576112ca611f1a565b5b60200201516000600381106112e3576112e2611f1a565b5b602002015160ff16146112f75760026112fa565b60015b91505061131b565b808061130d90611e92565b91505061113f565b50600090505b919050565b600080600090505b60038160ff1610156114fe5760018360006003811061134a57611349611f1a565b5b60200201518260ff166003811061136457611363611f1a565b5b602002015160ff1614806113ad575060028360006003811061138957611388611f1a565b5b60200201518260ff16600381106113a3576113a2611f1a565b5b602002015160ff16145b80156114225750826001600381106113c8576113c7611f1a565b5b60200201518160ff16600381106113e2576113e1611f1a565b5b602002015160ff16836000600381106113fe576113fd611f1a565b5b60200201518260ff166003811061141857611417611f1a565b5b602002015160ff16145b801561149757508260026003811061143d5761143c611f1a565b5b60200201518160ff166003811061145757611456611f1a565b5b602002015160ff168360016003811061147357611472611f1a565b5b60200201518260ff166003811061148d5761148c611f1a565b5b602002015160ff16145b156114eb576001836000600381106114b2576114b1611f1a565b5b60200201518260ff16600381106114cc576114cb611f1a565b5b602002015160ff16146114e05760026114e3565b60015b915050611504565b80806114f690611e92565b915050611328565b50600090505b919050565b600060018260006003811061152157611520611f1a565b5b602002015160006003811061153957611538611f1a565b5b602002015160ff161480611580575060028260006003811061155e5761155d611f1a565b5b602002015160006003811061157657611575611f1a565b5b602002015160ff16145b80156115f157508160016003811061159b5761159a611f1a565b5b60200201516001600381106115b3576115b2611f1a565b5b602002015160ff16826000600381106115cf576115ce611f1a565b5b60200201516000600381106115e7576115e6611f1a565b5b602002015160ff16145b801561166257508160026003811061160c5761160b611f1a565b5b602002015160026003811061162457611623611f1a565b5b602002015160ff16826001600381106116405761163f611f1a565b5b602002015160016003811061165857611657611f1a565b5b602002015160ff16145b156116b35760018260006003811061167d5761167c611f1a565b5b602002015160006003811061169557611694611f1a565b5b602002015160ff16146116a95760026116ac565b60015b9050611860565b6001826000600381106116c9576116c8611f1a565b5b60200201516002600381106116e1576116e0611f1a565b5b602002015160ff161480611728575060028260006003811061170657611705611f1a565b5b602002015160026003811061171e5761171d611f1a565b5b602002015160ff16145b801561179957508160016003811061174357611742611f1a565b5b602002015160016003811061175b5761175a611f1a565b5b602002015160ff168260006003811061177757611776611f1a565b5b602002015160026003811061178f5761178e611f1a565b5b602002015160ff16145b801561180a5750816002600381106117b4576117b3611f1a565b5b60200201516000600381106117cc576117cb611f1a565b5b602002015160ff16826001600381106117e8576117e7611f1a565b5b6020020151600160038110611800576117ff611f1a565b5b602002015160ff16145b1561185b5760018260006003811061182557611824611f1a565b5b602002015160026003811061183d5761183c611f1a565b5b602002015160ff1614611851576002611854565b60015b9050611860565b600090505b919050565b600080600090505b60038160ff16101561193f5760005b60038160ff16101561192b576001848360ff16600381106118a05761189f611f1a565b5b60200201518260ff16600381106118ba576118b9611f1a565b5b602002015160ff161415801561190857506002848360ff16600381106118e3576118e2611f1a565b5b60200201518260ff16600381106118fd576118fc611f1a565b5b602002015160ff1614155b1561191857600092505050611945565b808061192390611e92565b91505061187c565b50808061193790611e92565b91505061186d565b50600190505b919050565b6040518060a00160405280600073ffffffffffffffffffffffffffffffffffffffff168152602001600073ffffffffffffffffffffffffffffffffffffffff168152602001600060038111156119a3576119a2611eeb565b5b8152602001600060028111156119bc576119bb611eeb565b5b81526020016119c9611a1d565b81525090565b8260038101928215611a0c579160200282015b82811115611a0b578251829060036119fb929190611a4a565b50916020019190600101906119e2565b5b509050611a199190611ae4565b5090565b60405180606001604052806003905b611a34611b08565b815260200190600190039081611a2c5790505090565b826003601f01602090048101928215611ad35791602002820160005b83821115611aa457835183826101000a81548160ff021916908360ff1602179055509260200192600101602081600001049283019260010302611a66565b8015611ad15782816101000a81549060ff0219169055600101602081600001049283019260010302611aa4565b505b509050611ae09190611b2a565b5090565b5b80821115611b045760008181611afb9190611b47565b50600101611ae5565b5090565b6040518060600160405280600390602082028036833780820191505090505090565b5b80821115611b43576000816000905550600101611b2b565b5090565b5060009055565b600081359050611b5d81611f73565b92915050565b600060208284031215611b7957611b78611f49565b5b6000611b8784828501611b4e565b91505092915050565b600080600060608486031215611ba957611ba8611f49565b5b6000611bb786828701611b4e565b9350506020611bc886828701611b4e565b9250506040611bd986828701611b4e565b9150509250925092565b611bec81611d9c565b82525050565b611bfb81611dae565b82525050565b611c0a81611e04565b82525050565b6000611c1b82611d80565b611c258185611d8b565b9350611c35818560208601611e16565b611c3e81611f4e565b840191505092915050565b611c5281611ded565b82525050565b611c6181611df7565b82525050565b6000604082019050611c7c6000830185611bf2565b8181036020830152611c8e8184611c10565b90509392505050565b6000602082019050611cac6000830184611c49565b92915050565b6000604082019050611cc76000830185611c49565b611cd46020830184611be3565b9392505050565b6000608082019050611cf06000830187611c49565b611cfd6020830186611be3565b611d0a6040830185611c49565b611d176060830184611c49565b95945050505050565b6000606082019050611d356000830186611c49565b611d426020830185611be3565b611d4f6040830184611c58565b949350505050565b6000604082019050611d6c6000830185611c49565b611d796020830184611c01565b9392505050565b600081519050919050565b600082825260208201905092915050565b6000611da782611dcd565b9050919050565b60008115159050919050565b6000819050611dc882611f5f565b919050565b600073ffffffffffffffffffffffffffffffffffffffff82169050919050565b6000819050919050565b600060ff82169050919050565b6000611e0f82611dba565b9050919050565b60005b83811015611e34578082015181840152602081019050611e19565b83811115611e43576000848401525b50505050565b6000611e5482611ded565b91507fffffffffffffffffffffffffffffffffffffffffffffffffffffffffffffffff821415611e8757611e86611ebc565b5b600182019050919050565b6000611e9d82611df7565b915060ff821415611eb157611eb0611ebc565b5b600182019050919050565b7f4e487b7100000000000000000000000000000000000000000000000000000000600052601160045260246000fd5b7f4e487b7100000000000000000000000000000000000000000000000000000000600052602160045260246000fd5b7f4e487b7100000000000000000000000000000000000000000000000000000000600052603260045260246000fd5b600080fd5b6000601f19601f8301169050919050565b60048110611f7057611f6f611eeb565b5b50565b611f7c81611ded565b8114611f8757600080fd5b5056fe546865726520697320616c72656164792061206d61726b2061742074686520676976656e20636f6f7264696e617465732e4a6f696e656420617320706c6179657220312e2047616d65206861736e27742073746172746564207965742e4a6f696e656420617320706c6179657220312e20506c61796572203220616c7265616479206578697374732e20506c6179657220312063616e206d616b6520746865206669727374206d6f76652e4a6f696e656420617320706c6179657220322e20506c6179657220312063616e206d616b6520746865206669727374206d6f76652e4a6f696e656420617320706c6179657220322e2047616d65206861736e27742073746172746564207965742e546869732067616d6520646f65736e277420686176652074776f20706c6179657273207965742ea264697066735822122002d43cb9a531289a6a1327cb030b72294051b4279f241aa4673f9adb945a446c64736f6c63430008070033",
					"opcodes": "PUSH1 0x80 PUSH1 0x40 MSTORE CALLVALUE DUP1 ISZERO PUSH2 0x10 JUMPI PUSH1 0x0 DUP1 REVERT JUMPDEST POP PUSH2 0x20F3 DUP1 PUSH2 0x20 PUSH1 0x0 CODECOPY PUSH1 0x0 RETURN INVALID PUSH1 0x80 PUSH1 0x40 MSTORE CALLVALUE DUP1 ISZERO PUSH2 0x10 JUMPI PUSH1 0x0 DUP1 REVERT JUMPDEST POP PUSH1 0x4 CALLDATASIZE LT PUSH2 0x41 JUMPI PUSH1 0x0 CALLDATALOAD PUSH1 0xE0 SHR DUP1 PUSH4 0x7D03F5F3 EQ PUSH2 0x46 JUMPI DUP1 PUSH4 0xCFC2F5FF EQ PUSH2 0x64 JUMPI DUP1 PUSH4 0xEFAA55A0 EQ PUSH2 0x95 JUMPI JUMPDEST PUSH1 0x0 DUP1 REVERT JUMPDEST PUSH2 0x4E PUSH2 0xC6 JUMP JUMPDEST PUSH1 0x40 MLOAD PUSH2 0x5B SWAP2 SWAP1 PUSH2 0x1C97 JUMP JUMPDEST PUSH1 0x40 MLOAD DUP1 SWAP2 SUB SWAP1 RETURN JUMPDEST PUSH2 0x7E PUSH1 0x4 DUP1 CALLDATASIZE SUB DUP2 ADD SWAP1 PUSH2 0x79 SWAP2 SWAP1 PUSH2 0x1B90 JUMP JUMPDEST PUSH2 0x27B JUMP JUMPDEST PUSH1 0x40 MLOAD PUSH2 0x8C SWAP3 SWAP2 SWAP1 PUSH2 0x1C67 JUMP JUMPDEST PUSH1 0x40 MLOAD DUP1 SWAP2 SUB SWAP1 RETURN JUMPDEST PUSH2 0xAF PUSH1 0x4 DUP1 CALLDATASIZE SUB DUP2 ADD SWAP1 PUSH2 0xAA SWAP2 SWAP1 PUSH2 0x1B63 JUMP JUMPDEST PUSH2 0x986 JUMP JUMPDEST PUSH1 0x40 MLOAD PUSH2 0xBD SWAP3 SWAP2 SWAP1 PUSH2 0x1C67 JUMP JUMPDEST PUSH1 0x40 MLOAD DUP1 SWAP2 SUB SWAP1 RETURN JUMPDEST PUSH1 0x0 PUSH2 0xD0 PUSH2 0x194A JUMP JUMPDEST PUSH1 0x1 DUP2 PUSH1 0x60 ADD SWAP1 PUSH1 0x2 DUP2 GT ISZERO PUSH2 0xE9 JUMPI PUSH2 0xE8 PUSH2 0x1EEB JUMP JUMPDEST JUMPDEST SWAP1 DUP2 PUSH1 0x2 DUP2 GT ISZERO PUSH2 0xFD JUMPI PUSH2 0xFC PUSH2 0x1EEB JUMP JUMPDEST JUMPDEST DUP2 MSTORE POP POP PUSH1 0x1 PUSH1 0x0 DUP2 SLOAD DUP1 SWAP3 SWAP2 SWAP1 PUSH2 0x114 SWAP1 PUSH2 0x1E49 JUMP JUMPDEST SWAP2 SWAP1 POP SSTORE POP DUP1 PUSH1 0x0 DUP1 PUSH1 0x1 SLOAD DUP2 MSTORE PUSH1 0x20 ADD SWAP1 DUP2 MSTORE PUSH1 0x20 ADD PUSH1 0x0 KECCAK256 PUSH1 0x0 DUP3 ADD MLOAD DUP2 PUSH1 0x0 ADD PUSH1 0x0 PUSH2 0x100 EXP DUP2 SLOAD DUP2 PUSH20 0xFFFFFFFFFFFFFFFFFFFFFFFFFFFFFFFFFFFFFFFF MUL NOT AND SWAP1 DUP4 PUSH20 0xFFFFFFFFFFFFFFFFFFFFFFFFFFFFFFFFFFFFFFFF AND MUL OR SWAP1 SSTORE POP PUSH1 0x20 DUP3 ADD MLOAD DUP2 PUSH1 0x1 ADD PUSH1 0x0 PUSH2 0x100 EXP DUP2 SLOAD DUP2 PUSH20 0xFFFFFFFFFFFFFFFFFFFFFFFFFFFFFFFFFFFFFFFF MUL NOT AND SWAP1 DUP4 PUSH20 0xFFFFFFFFFFFFFFFFFFFFFFFFFFFFFFFFFFFFFFFF AND MUL OR SWAP1 SSTORE POP PUSH1 0x40 DUP3 ADD MLOAD DUP2 PUSH1 0x1 ADD PUSH1 0x14 PUSH2 0x100 EXP DUP2 SLOAD DUP2 PUSH1 0xFF MUL NOT AND SWAP1 DUP4 PUSH1 0x3 DUP2 GT ISZERO PUSH2 0x1E7 JUMPI PUSH2 0x1E6 PUSH2 0x1EEB JUMP JUMPDEST JUMPDEST MUL OR SWAP1 SSTORE POP PUSH1 0x60 DUP3 ADD MLOAD DUP2 PUSH1 0x1 ADD PUSH1 0x15 PUSH2 0x100 EXP DUP2 SLOAD DUP2 PUSH1 0xFF MUL NOT AND SWAP1 DUP4 PUSH1 0x2 DUP2 GT ISZERO PUSH2 0x217 JUMPI PUSH2 0x216 PUSH2 0x1EEB JUMP JUMPDEST JUMPDEST MUL OR SWAP1 SSTORE POP PUSH1 0x80 DUP3 ADD MLOAD DUP2 PUSH1 0x2 ADD SWAP1 PUSH1 0x3 PUSH2 0x233 SWAP3 SWAP2 SWAP1 PUSH2 0x19CF JUMP JUMPDEST POP SWAP1 POP POP PUSH32 0xC3E0F84839DC888C892A013D10C8F9D6DC05A21A879D0CE468CA558013E9121C PUSH1 0x1 SLOAD CALLER PUSH1 0x40 MLOAD PUSH2 0x26A SWAP3 SWAP2 SWAP1 PUSH2 0x1CB2 JUMP JUMPDEST PUSH1 0x40 MLOAD DUP1 SWAP2 SUB SWAP1 LOG1 PUSH1 0x1 SLOAD SWAP2 POP POP SWAP1 JUMP JUMPDEST PUSH1 0x0 PUSH1 0x60 PUSH1 0x1 SLOAD DUP6 GT DUP1 PUSH2 0x35D JUMPI POP PUSH1 0x0 PUSH20 0xFFFFFFFFFFFFFFFFFFFFFFFFFFFFFFFFFFFFFFFF AND PUSH1 0x0 DUP1 DUP8 DUP2 MSTORE PUSH1 0x20 ADD SWAP1 DUP2 MSTORE PUSH1 0x20 ADD PUSH1 0x0 KECCAK256 PUSH1 0x0 ADD PUSH1 0x0 SWAP1 SLOAD SWAP1 PUSH2 0x100 EXP SWAP1 DIV PUSH20 0xFFFFFFFFFFFFFFFFFFFFFFFFFFFFFFFFFFFFFFFF AND PUSH20 0xFFFFFFFFFFFFFFFFFFFFFFFFFFFFFFFFFFFFFFFF AND EQ DUP1 ISZERO PUSH2 0x35C JUMPI POP PUSH1 0x0 PUSH20 0xFFFFFFFFFFFFFFFFFFFFFFFFFFFFFFFFFFFFFFFF AND PUSH1 0x0 DUP1 DUP8 DUP2 MSTORE PUSH1 0x20 ADD SWAP1 DUP2 MSTORE PUSH1 0x20 ADD PUSH1 0x0 KECCAK256 PUSH1 0x1 ADD PUSH1 0x0 SWAP1 SLOAD SWAP1 PUSH2 0x100 EXP SWAP1 DIV PUSH20 0xFFFFFFFFFFFFFFFFFFFFFFFFFFFFFFFFFFFFFFFF AND PUSH20 0xFFFFFFFFFFFFFFFFFFFFFFFFFFFFFFFFFFFFFFFF AND EQ JUMPDEST JUMPDEST ISZERO PUSH2 0x3A3 JUMPI PUSH1 0x0 PUSH1 0x40 MLOAD DUP1 PUSH1 0x40 ADD PUSH1 0x40 MSTORE DUP1 PUSH1 0x14 DUP2 MSTORE PUSH1 0x20 ADD PUSH32 0x4E6F20737563682067616D65206578697374732E000000000000000000000000 DUP2 MSTORE POP SWAP2 POP SWAP2 POP PUSH2 0x97E JUMP JUMPDEST PUSH1 0x0 DUP5 LT DUP1 PUSH2 0x3B2 JUMPI POP PUSH1 0x2 DUP5 GT JUMPDEST ISZERO PUSH2 0x3F8 JUMPI PUSH1 0x0 PUSH1 0x40 MLOAD DUP1 PUSH1 0x40 ADD PUSH1 0x40 MSTORE DUP1 PUSH1 0x1F DUP2 MSTORE PUSH1 0x20 ADD PUSH32 0x496E76616C696420696E70757420666F7220782D636F6F7264696E6174652E00 DUP2 MSTORE POP SWAP2 POP SWAP2 POP PUSH2 0x97E JUMP JUMPDEST PUSH1 0x0 DUP4 LT DUP1 PUSH2 0x407 JUMPI POP PUSH1 0x2 DUP4 GT JUMPDEST ISZERO PUSH2 0x44D JUMPI PUSH1 0x0 PUSH1 0x40 MLOAD DUP1 PUSH1 0x40 ADD PUSH1 0x40 MSTORE DUP1 PUSH1 0x1F DUP2 MSTORE PUSH1 0x20 ADD PUSH32 0x496E76616C696420696E70757420666F7220792D636F6F7264696E6174652E00 DUP2 MSTORE POP SWAP2 POP SWAP2 POP PUSH2 0x97E JUMP JUMPDEST PUSH1 0x0 PUSH20 0xFFFFFFFFFFFFFFFFFFFFFFFFFFFFFFFFFFFFFFFF AND PUSH1 0x0 DUP1 DUP8 DUP2 MSTORE PUSH1 0x20 ADD SWAP1 DUP2 MSTORE PUSH1 0x20 ADD PUSH1 0x0 KECCAK256 PUSH1 0x0 ADD PUSH1 0x0 SWAP1 SLOAD SWAP1 PUSH2 0x100 EXP SWAP1 DIV PUSH20 0xFFFFFFFFFFFFFFFFFFFFFFFFFFFFFFFFFFFFFFFF AND PUSH20 0xFFFFFFFFFFFFFFFFFFFFFFFFFFFFFFFFFFFFFFFF AND EQ DUP1 PUSH2 0x51E JUMPI POP PUSH1 0x0 PUSH20 0xFFFFFFFFFFFFFFFFFFFFFFFFFFFFFFFFFFFFFFFF AND PUSH1 0x0 DUP1 DUP8 DUP2 MSTORE PUSH1 0x20 ADD SWAP1 DUP2 MSTORE PUSH1 0x20 ADD PUSH1 0x0 KECCAK256 PUSH1 0x1 ADD PUSH1 0x0 SWAP1 SLOAD SWAP1 PUSH2 0x100 EXP SWAP1 DIV PUSH20 0xFFFFFFFFFFFFFFFFFFFFFFFFFFFFFFFFFFFFFFFF AND PUSH20 0xFFFFFFFFFFFFFFFFFFFFFFFFFFFFFFFFFFFFFFFF AND EQ JUMPDEST ISZERO PUSH2 0x547 JUMPI PUSH1 0x0 PUSH1 0x40 MLOAD DUP1 PUSH1 0x60 ADD PUSH1 0x40 MSTORE DUP1 PUSH1 0x27 DUP2 MSTORE PUSH1 0x20 ADD PUSH2 0x2097 PUSH1 0x27 SWAP2 CODECOPY SWAP2 POP SWAP2 POP PUSH2 0x97E JUMP JUMPDEST PUSH1 0x0 DUP1 PUSH1 0x0 DUP8 DUP2 MSTORE PUSH1 0x20 ADD SWAP1 DUP2 MSTORE PUSH1 0x20 ADD PUSH1 0x0 KECCAK256 SWAP1 POP PUSH1 0x0 PUSH1 0x3 DUP2 GT ISZERO PUSH2 0x571 JUMPI PUSH2 0x570 PUSH2 0x1EEB JUMP JUMPDEST JUMPDEST DUP2 PUSH1 0x1 ADD PUSH1 0x14 SWAP1 SLOAD SWAP1 PUSH2 0x100 EXP SWAP1 DIV PUSH1 0xFF AND PUSH1 0x3 DUP2 GT ISZERO PUSH2 0x595 JUMPI PUSH2 0x594 PUSH2 0x1EEB JUMP JUMPDEST JUMPDEST EQ PUSH2 0x5DC JUMPI PUSH1 0x0 PUSH1 0x40 MLOAD DUP1 PUSH1 0x40 ADD PUSH1 0x40 MSTORE DUP1 PUSH1 0x1B DUP2 MSTORE PUSH1 0x20 ADD PUSH32 0x5468652067616D652068617320616C726561647920656E6465642E0000000000 DUP2 MSTORE POP SWAP3 POP SWAP3 POP POP PUSH2 0x97E JUMP JUMPDEST PUSH2 0x5E5 DUP2 PUSH2 0xE29 JUMP JUMPDEST PUSH20 0xFFFFFFFFFFFFFFFFFFFFFFFFFFFFFFFFFFFFFFFF AND CALLER PUSH20 0xFFFFFFFFFFFFFFFFFFFFFFFFFFFFFFFFFFFFFFFF AND EQ PUSH2 0x659 JUMPI PUSH1 0x0 PUSH1 0x40 MLOAD DUP1 PUSH1 0x40 ADD PUSH1 0x40 MSTORE DUP1 PUSH1 0x14 DUP2 MSTORE PUSH1 0x20 ADD PUSH32 0x4974206973206E6F7420796F7572207475726E2E000000000000000000000000 DUP2 MSTORE POP SWAP3 POP SWAP3 POP POP PUSH2 0x97E JUMP JUMPDEST PUSH1 0x1 DUP2 PUSH1 0x2 ADD DUP7 PUSH1 0x3 DUP2 LT PUSH2 0x671 JUMPI PUSH2 0x670 PUSH2 0x1F1A JUMP JUMPDEST JUMPDEST ADD DUP6 PUSH1 0x3 DUP2 LT PUSH2 0x684 JUMPI PUSH2 0x683 PUSH2 0x1F1A JUMP JUMPDEST JUMPDEST PUSH1 0x20 SWAP2 DUP3 DUP3 DIV ADD SWAP2 SWAP1 MOD SWAP1 SLOAD SWAP1 PUSH2 0x100 EXP SWAP1 DIV PUSH1 0xFF AND PUSH1 0xFF AND EQ DUP1 PUSH2 0x6EA JUMPI POP PUSH1 0x2 DUP2 PUSH1 0x2 ADD DUP7 PUSH1 0x3 DUP2 LT PUSH2 0x6BC JUMPI PUSH2 0x6BB PUSH2 0x1F1A JUMP JUMPDEST JUMPDEST ADD DUP6 PUSH1 0x3 DUP2 LT PUSH2 0x6CF JUMPI PUSH2 0x6CE PUSH2 0x1F1A JUMP JUMPDEST JUMPDEST PUSH1 0x20 SWAP2 DUP3 DUP3 DIV ADD SWAP2 SWAP1 MOD SWAP1 SLOAD SWAP1 PUSH2 0x100 EXP SWAP1 DIV PUSH1 0xFF AND PUSH1 0xFF AND EQ JUMPDEST ISZERO PUSH2 0x714 JUMPI PUSH1 0x0 PUSH1 0x40 MLOAD DUP1 PUSH1 0x60 ADD PUSH1 0x40 MSTORE DUP1 PUSH1 0x31 DUP2 MSTORE PUSH1 0x20 ADD PUSH2 0x1F8B PUSH1 0x31 SWAP2 CODECOPY SWAP3 POP SWAP3 POP POP PUSH2 0x97E JUMP JUMPDEST PUSH1 0x1 PUSH1 0x2 DUP2 GT ISZERO PUSH2 0x728 JUMPI PUSH2 0x727 PUSH2 0x1EEB JUMP JUMPDEST JUMPDEST DUP2 PUSH1 0x1 ADD PUSH1 0x15 SWAP1 SLOAD SWAP1 PUSH2 0x100 EXP SWAP1 DIV PUSH1 0xFF AND PUSH1 0x2 DUP2 GT ISZERO PUSH2 0x74C JUMPI PUSH2 0x74B PUSH2 0x1EEB JUMP JUMPDEST JUMPDEST EQ PUSH2 0x758 JUMPI PUSH1 0x2 PUSH2 0x75B JUMP JUMPDEST PUSH1 0x1 JUMPDEST DUP2 PUSH1 0x2 ADD DUP7 PUSH1 0x3 DUP2 LT PUSH2 0x771 JUMPI PUSH2 0x770 PUSH2 0x1F1A JUMP JUMPDEST JUMPDEST ADD DUP6 PUSH1 0x3 DUP2 LT PUSH2 0x784 JUMPI PUSH2 0x783 PUSH2 0x1F1A JUMP JUMPDEST JUMPDEST PUSH1 0x20 SWAP2 DUP3 DUP3 DIV ADD SWAP2 SWAP1 MOD PUSH2 0x100 EXP DUP2 SLOAD DUP2 PUSH1 0xFF MUL NOT AND SWAP1 DUP4 PUSH1 0xFF AND MUL OR SWAP1 SSTORE POP PUSH32 0xAA03B0EB53C70F6640EBA4234AD2C58782C8927E7ABF7D3A6E2C45D07CA9D583 DUP7 CALLER DUP8 DUP8 PUSH1 0x40 MLOAD PUSH2 0x7D9 SWAP5 SWAP4 SWAP3 SWAP2 SWAP1 PUSH2 0x1CDB JUMP JUMPDEST PUSH1 0x40 MLOAD DUP1 SWAP2 SUB SWAP1 LOG1 PUSH1 0x0 PUSH2 0x886 DUP3 PUSH1 0x2 ADD PUSH1 0x3 DUP1 PUSH1 0x20 MUL PUSH1 0x40 MLOAD SWAP1 DUP2 ADD PUSH1 0x40 MSTORE DUP1 SWAP3 SWAP2 SWAP1 PUSH1 0x0 SWAP1 JUMPDEST DUP3 DUP3 LT ISZERO PUSH2 0x87D JUMPI DUP4 DUP3 ADD PUSH1 0x3 DUP1 PUSH1 0x20 MUL PUSH1 0x40 MLOAD SWAP1 DUP2 ADD PUSH1 0x40 MSTORE DUP1 SWAP3 SWAP2 SWAP1 DUP3 PUSH1 0x3 DUP1 ISZERO PUSH2 0x869 JUMPI PUSH1 0x20 MUL DUP3 ADD SWAP2 PUSH1 0x0 SWAP1 JUMPDEST DUP3 DUP3 SWAP1 SLOAD SWAP1 PUSH2 0x100 EXP SWAP1 DIV PUSH1 0xFF AND PUSH1 0xFF AND DUP2 MSTORE PUSH1 0x20 ADD SWAP1 PUSH1 0x1 ADD SWAP1 PUSH1 0x20 DUP3 PUSH1 0x0 ADD DIV SWAP3 DUP4 ADD SWAP3 PUSH1 0x1 SUB DUP3 MUL SWAP2 POP DUP1 DUP5 GT PUSH2 0x832 JUMPI SWAP1 POP JUMPDEST POP POP POP POP POP DUP2 MSTORE PUSH1 0x20 ADD SWAP1 PUSH1 0x1 ADD SWAP1 PUSH2 0x801 JUMP JUMPDEST POP POP POP POP PUSH2 0xF08 JUMP JUMPDEST SWAP1 POP PUSH1 0x0 PUSH1 0x3 DUP2 GT ISZERO PUSH2 0x89C JUMPI PUSH2 0x89B PUSH2 0x1EEB JUMP JUMPDEST JUMPDEST DUP2 PUSH1 0x3 DUP2 GT ISZERO PUSH2 0x8AF JUMPI PUSH2 0x8AE PUSH2 0x1EEB JUMP JUMPDEST JUMPDEST EQ PUSH2 0x95C JUMPI DUP1 DUP3 PUSH1 0x1 ADD PUSH1 0x14 PUSH2 0x100 EXP DUP2 SLOAD DUP2 PUSH1 0xFF MUL NOT AND SWAP1 DUP4 PUSH1 0x3 DUP2 GT ISZERO PUSH2 0x8DB JUMPI PUSH2 0x8DA PUSH2 0x1EEB JUMP JUMPDEST JUMPDEST MUL OR SWAP1 SSTORE POP PUSH32 0x132B564C6F96092065580FD28989D181DFBBFE4AA2FB7FB1EDA8AF68BA3073E0 DUP8 DUP3 PUSH1 0x40 MLOAD PUSH2 0x911 SWAP3 SWAP2 SWAP1 PUSH2 0x1D57 JUMP JUMPDEST PUSH1 0x40 MLOAD DUP1 SWAP2 SUB SWAP1 LOG1 PUSH1 0x1 PUSH1 0x40 MLOAD DUP1 PUSH1 0x40 ADD PUSH1 0x40 MSTORE DUP1 PUSH1 0x11 DUP2 MSTORE PUSH1 0x20 ADD PUSH32 0x5468652067616D65206973206F7665722E000000000000000000000000000000 DUP2 MSTORE POP SWAP4 POP SWAP4 POP POP POP PUSH2 0x97E JUMP JUMPDEST PUSH2 0x965 DUP3 PUSH2 0x1096 JUMP JUMPDEST PUSH1 0x1 PUSH1 0x40 MLOAD DUP1 PUSH1 0x20 ADD PUSH1 0x40 MSTORE DUP1 PUSH1 0x0 DUP2 MSTORE POP SWAP4 POP SWAP4 POP POP POP JUMPDEST SWAP4 POP SWAP4 SWAP2 POP POP JUMP JUMPDEST PUSH1 0x0 PUSH1 0x60 PUSH1 0x1 SLOAD DUP4 GT ISZERO PUSH2 0x9D5 JUMPI PUSH1 0x0 PUSH1 0x40 MLOAD DUP1 PUSH1 0x40 ADD PUSH1 0x40 MSTORE DUP1 PUSH1 0x14 DUP2 MSTORE PUSH1 0x20 ADD PUSH32 0x4E6F20737563682067616D65206578697374732E000000000000000000000000 DUP2 MSTORE POP SWAP2 POP SWAP2 POP PUSH2 0xE24 JUMP JUMPDEST PUSH1 0x0 CALLER SWAP1 POP PUSH1 0x0 DUP1 PUSH1 0x0 DUP7 DUP2 MSTORE PUSH1 0x20 ADD SWAP1 DUP2 MSTORE PUSH1 0x20 ADD PUSH1 0x0 KECCAK256 SWAP1 POP PUSH1 0x0 PUSH1 0x3 DUP2 GT ISZERO PUSH2 0xA04 JUMPI PUSH2 0xA03 PUSH2 0x1EEB JUMP JUMPDEST JUMPDEST DUP2 PUSH1 0x1 ADD PUSH1 0x14 SWAP1 SLOAD SWAP1 PUSH2 0x100 EXP SWAP1 DIV PUSH1 0xFF AND PUSH1 0x3 DUP2 GT ISZERO PUSH2 0xA28 JUMPI PUSH2 0xA27 PUSH2 0x1EEB JUMP JUMPDEST JUMPDEST EQ PUSH2 0xA70 JUMPI PUSH1 0x0 PUSH1 0x40 MLOAD DUP1 PUSH1 0x40 ADD PUSH1 0x40 MSTORE DUP1 PUSH1 0x1E DUP2 MSTORE PUSH1 0x20 ADD PUSH32 0x546869732067616D6520697320616C726561647920636F6D706C6574652E0000 DUP2 MSTORE POP SWAP4 POP SWAP4 POP POP POP PUSH2 0xE24 JUMP JUMPDEST PUSH1 0x0 PUSH20 0xFFFFFFFFFFFFFFFFFFFFFFFFFFFFFFFFFFFFFFFF AND DUP2 PUSH1 0x0 ADD PUSH1 0x0 SWAP1 SLOAD SWAP1 PUSH2 0x100 EXP SWAP1 DIV PUSH20 0xFFFFFFFFFFFFFFFFFFFFFFFFFFFFFFFFFFFFFFFF AND PUSH20 0xFFFFFFFFFFFFFFFFFFFFFFFFFFFFFFFFFFFFFFFF AND EQ ISZERO PUSH2 0xC2B JUMPI DUP2 DUP2 PUSH1 0x0 ADD PUSH1 0x0 PUSH2 0x100 EXP DUP2 SLOAD DUP2 PUSH20 0xFFFFFFFFFFFFFFFFFFFFFFFFFFFFFFFFFFFFFFFF MUL NOT AND SWAP1 DUP4 PUSH20 0xFFFFFFFFFFFFFFFFFFFFFFFFFFFFFFFFFFFFFFFF AND MUL OR SWAP1 SSTORE POP PUSH32 0x8F5866C09E99941481E2BE79D3A7698371543FE3AD3387B903553FD6043E8550 DUP6 DUP4 PUSH1 0x1 PUSH1 0x2 DUP2 GT ISZERO PUSH2 0xB43 JUMPI PUSH2 0xB42 PUSH2 0x1EEB JUMP JUMPDEST JUMPDEST PUSH1 0x40 MLOAD PUSH2 0xB52 SWAP4 SWAP3 SWAP2 SWAP1 PUSH2 0x1D20 JUMP JUMPDEST PUSH1 0x40 MLOAD DUP1 SWAP2 SUB SWAP1 LOG1 PUSH1 0x0 PUSH20 0xFFFFFFFFFFFFFFFFFFFFFFFFFFFFFFFFFFFFFFFF AND DUP2 PUSH1 0x1 ADD PUSH1 0x0 SWAP1 SLOAD SWAP1 PUSH2 0x100 EXP SWAP1 DIV PUSH20 0xFFFFFFFFFFFFFFFFFFFFFFFFFFFFFFFFFFFFFFFF AND PUSH20 0xFFFFFFFFFFFFFFFFFFFFFFFFFFFFFFFFFFFFFFFF AND EQ PUSH2 0xC05 JUMPI PUSH1 0x1 DUP2 PUSH1 0x1 ADD PUSH1 0x15 PUSH2 0x100 EXP DUP2 SLOAD DUP2 PUSH1 0xFF MUL NOT AND SWAP1 DUP4 PUSH1 0x2 DUP2 GT ISZERO PUSH2 0xBDA JUMPI PUSH2 0xBD9 PUSH2 0x1EEB JUMP JUMPDEST JUMPDEST MUL OR SWAP1 SSTORE POP PUSH1 0x1 PUSH1 0x40 MLOAD DUP1 PUSH1 0x80 ADD PUSH1 0x40 MSTORE DUP1 PUSH1 0x4E DUP2 MSTORE PUSH1 0x20 ADD PUSH2 0x1FE8 PUSH1 0x4E SWAP2 CODECOPY SWAP4 POP SWAP4 POP POP POP PUSH2 0xE24 JUMP JUMPDEST PUSH1 0x1 PUSH1 0x40 MLOAD DUP1 PUSH1 0x60 ADD PUSH1 0x40 MSTORE DUP1 PUSH1 0x2C DUP2 MSTORE PUSH1 0x20 ADD PUSH2 0x1FBC PUSH1 0x2C SWAP2 CODECOPY SWAP4 POP SWAP4 POP POP POP PUSH2 0xE24 JUMP JUMPDEST PUSH1 0x0 PUSH20 0xFFFFFFFFFFFFFFFFFFFFFFFFFFFFFFFFFFFFFFFF AND DUP2 PUSH1 0x1 ADD PUSH1 0x0 SWAP1 SLOAD SWAP1 PUSH2 0x100 EXP SWAP1 DIV PUSH20 0xFFFFFFFFFFFFFFFFFFFFFFFFFFFFFFFFFFFFFFFF AND PUSH20 0xFFFFFFFFFFFFFFFFFFFFFFFFFFFFFFFFFFFFFFFF AND EQ ISZERO PUSH2 0xDE5 JUMPI DUP2 DUP2 PUSH1 0x1 ADD PUSH1 0x0 PUSH2 0x100 EXP DUP2 SLOAD DUP2 PUSH20 0xFFFFFFFFFFFFFFFFFFFFFFFFFFFFFFFFFFFFFFFF MUL NOT AND SWAP1 DUP4 PUSH20 0xFFFFFFFFFFFFFFFFFFFFFFFFFFFFFFFFFFFFFFFF AND MUL OR SWAP1 SSTORE POP PUSH32 0x8F5866C09E99941481E2BE79D3A7698371543FE3AD3387B903553FD6043E8550 DUP6 DUP4 PUSH1 0x2 DUP1 DUP2 GT ISZERO PUSH2 0xCFD JUMPI PUSH2 0xCFC PUSH2 0x1EEB JUMP JUMPDEST JUMPDEST PUSH1 0x40 MLOAD PUSH2 0xD0C SWAP4 SWAP3 SWAP2 SWAP1 PUSH2 0x1D20 JUMP JUMPDEST PUSH1 0x40 MLOAD DUP1 SWAP2 SUB SWAP1 LOG1 PUSH1 0x0 PUSH20 0xFFFFFFFFFFFFFFFFFFFFFFFFFFFFFFFFFFFFFFFF AND DUP2 PUSH1 0x0 ADD PUSH1 0x0 SWAP1 SLOAD SWAP1 PUSH2 0x100 EXP SWAP1 DIV PUSH20 0xFFFFFFFFFFFFFFFFFFFFFFFFFFFFFFFFFFFFFFFF AND PUSH20 0xFFFFFFFFFFFFFFFFFFFFFFFFFFFFFFFFFFFFFFFF AND EQ PUSH2 0xDBF JUMPI PUSH1 0x1 DUP2 PUSH1 0x1 ADD PUSH1 0x15 PUSH2 0x100 EXP DUP2 SLOAD DUP2 PUSH1 0xFF MUL NOT AND SWAP1 DUP4 PUSH1 0x2 DUP2 GT ISZERO PUSH2 0xD94 JUMPI PUSH2 0xD93 PUSH2 0x1EEB JUMP JUMPDEST JUMPDEST MUL OR SWAP1 SSTORE POP PUSH1 0x1 PUSH1 0x40 MLOAD DUP1 PUSH1 0x60 ADD PUSH1 0x40 MSTORE DUP1 PUSH1 0x35 DUP2 MSTORE PUSH1 0x20 ADD PUSH2 0x2036 PUSH1 0x35 SWAP2 CODECOPY SWAP4 POP SWAP4 POP POP POP PUSH2 0xE24 JUMP JUMPDEST PUSH1 0x1 PUSH1 0x40 MLOAD DUP1 PUSH1 0x60 ADD PUSH1 0x40 MSTORE DUP1 PUSH1 0x2C DUP2 MSTORE PUSH1 0x20 ADD PUSH2 0x206B PUSH1 0x2C SWAP2 CODECOPY SWAP4 POP SWAP4 POP POP POP PUSH2 0xE24 JUMP JUMPDEST PUSH1 0x0 PUSH1 0x40 MLOAD DUP1 PUSH1 0x40 ADD PUSH1 0x40 MSTORE DUP1 PUSH1 0x20 DUP2 MSTORE PUSH1 0x20 ADD PUSH32 0x546869732067616D6520616C726561647920686173203220706C61796572732E DUP2 MSTORE POP SWAP4 POP SWAP4 POP POP POP JUMPDEST SWAP2 POP SWAP2 JUMP JUMPDEST PUSH1 0x0 PUSH1 0x1 PUSH1 0x2 DUP2 GT ISZERO PUSH2 0xE3F JUMPI PUSH2 0xE3E PUSH2 0x1EEB JUMP JUMPDEST JUMPDEST DUP3 PUSH1 0x1 ADD PUSH1 0x15 SWAP1 SLOAD SWAP1 PUSH2 0x100 EXP SWAP1 DIV PUSH1 0xFF AND PUSH1 0x2 DUP2 GT ISZERO PUSH2 0xE63 JUMPI PUSH2 0xE62 PUSH2 0x1EEB JUMP JUMPDEST JUMPDEST EQ ISZERO PUSH2 0xE95 JUMPI DUP2 PUSH1 0x0 ADD PUSH1 0x0 SWAP1 SLOAD SWAP1 PUSH2 0x100 EXP SWAP1 DIV PUSH20 0xFFFFFFFFFFFFFFFFFFFFFFFFFFFFFFFFFFFFFFFF AND SWAP1 POP PUSH2 0xF03 JUMP JUMPDEST PUSH1 0x2 DUP1 DUP2 GT ISZERO PUSH2 0xEA8 JUMPI PUSH2 0xEA7 PUSH2 0x1EEB JUMP JUMPDEST JUMPDEST DUP3 PUSH1 0x1 ADD PUSH1 0x15 SWAP1 SLOAD SWAP1 PUSH2 0x100 EXP SWAP1 DIV PUSH1 0xFF AND PUSH1 0x2 DUP2 GT ISZERO PUSH2 0xECC JUMPI PUSH2 0xECB PUSH2 0x1EEB JUMP JUMPDEST JUMPDEST EQ ISZERO PUSH2 0xEFE JUMPI DUP2 PUSH1 0x1 ADD PUSH1 0x0 SWAP1 SLOAD SWAP1 PUSH2 0x100 EXP SWAP1 DIV PUSH20 0xFFFFFFFFFFFFFFFFFFFFFFFFFFFFFFFFFFFFFFFF AND SWAP1 POP PUSH2 0xF03 JUMP JUMPDEST PUSH1 0x0 SWAP1 POP JUMPDEST SWAP2 SWAP1 POP JUMP JUMPDEST PUSH1 0x0 DUP1 PUSH2 0xF14 DUP4 PUSH2 0x1137 JUMP JUMPDEST SWAP1 POP PUSH1 0x1 PUSH1 0x2 DUP2 GT ISZERO PUSH2 0xF2A JUMPI PUSH2 0xF29 PUSH2 0x1EEB JUMP JUMPDEST JUMPDEST DUP2 PUSH1 0x2 DUP2 GT ISZERO PUSH2 0xF3D JUMPI PUSH2 0xF3C PUSH2 0x1EEB JUMP JUMPDEST JUMPDEST EQ ISZERO PUSH2 0xF4D JUMPI PUSH1 0x1 SWAP2 POP POP PUSH2 0x1091 JUMP JUMPDEST PUSH1 0x2 DUP1 DUP2 GT ISZERO PUSH2 0xF60 JUMPI PUSH2 0xF5F PUSH2 0x1EEB JUMP JUMPDEST JUMPDEST DUP2 PUSH1 0x2 DUP2 GT ISZERO PUSH2 0xF73 JUMPI PUSH2 0xF72 PUSH2 0x1EEB JUMP JUMPDEST JUMPDEST EQ ISZERO PUSH2 0xF83 JUMPI PUSH1 0x2 SWAP2 POP POP PUSH2 0x1091 JUMP JUMPDEST PUSH2 0xF8C DUP4 PUSH2 0x1320 JUMP JUMPDEST SWAP1 POP PUSH1 0x1 PUSH1 0x2 DUP2 GT ISZERO PUSH2 0xFA2 JUMPI PUSH2 0xFA1 PUSH2 0x1EEB JUMP JUMPDEST JUMPDEST DUP2 PUSH1 0x2 DUP2 GT ISZERO PUSH2 0xFB5 JUMPI PUSH2 0xFB4 PUSH2 0x1EEB JUMP JUMPDEST JUMPDEST EQ ISZERO PUSH2 0xFC5 JUMPI PUSH1 0x1 SWAP2 POP POP PUSH2 0x1091 JUMP JUMPDEST PUSH1 0x2 DUP1 DUP2 GT ISZERO PUSH2 0xFD8 JUMPI PUSH2 0xFD7 PUSH2 0x1EEB JUMP JUMPDEST JUMPDEST DUP2 PUSH1 0x2 DUP2 GT ISZERO PUSH2 0xFEB JUMPI PUSH2 0xFEA PUSH2 0x1EEB JUMP JUMPDEST JUMPDEST EQ ISZERO PUSH2 0xFFB JUMPI PUSH1 0x2 SWAP2 POP POP PUSH2 0x1091 JUMP JUMPDEST PUSH2 0x1004 DUP4 PUSH2 0x1509 JUMP JUMPDEST SWAP1 POP PUSH1 0x1 PUSH1 0x2 DUP2 GT ISZERO PUSH2 0x101A JUMPI PUSH2 0x1019 PUSH2 0x1EEB JUMP JUMPDEST JUMPDEST DUP2 PUSH1 0x2 DUP2 GT ISZERO PUSH2 0x102D JUMPI PUSH2 0x102C PUSH2 0x1EEB JUMP JUMPDEST JUMPDEST EQ ISZERO PUSH2 0x103D JUMPI PUSH1 0x1 SWAP2 POP POP PUSH2 0x1091 JUMP JUMPDEST PUSH1 0x2 DUP1 DUP2 GT ISZERO PUSH2 0x1050 JUMPI PUSH2 0x104F PUSH2 0x1EEB JUMP JUMPDEST JUMPDEST DUP2 PUSH1 0x2 DUP2 GT ISZERO PUSH2 0x1063 JUMPI PUSH2 0x1062 PUSH2 0x1EEB JUMP JUMPDEST JUMPDEST EQ ISZERO PUSH2 0x1073 JUMPI PUSH1 0x2 SWAP2 POP POP PUSH2 0x1091 JUMP JUMPDEST PUSH2 0x107C DUP4 PUSH2 0x1865 JUMP JUMPDEST ISZERO PUSH2 0x108B JUMPI PUSH1 0x3 SWAP2 POP POP PUSH2 0x1091 JUMP JUMPDEST PUSH1 0x0 SWAP2 POP POP JUMPDEST SWAP2 SWAP1 POP JUMP JUMPDEST PUSH1 0x1 PUSH1 0x2 DUP2 GT ISZERO PUSH2 0x10AA JUMPI PUSH2 0x10A9 PUSH2 0x1EEB JUMP JUMPDEST JUMPDEST DUP2 PUSH1 0x1 ADD PUSH1 0x15 SWAP1 SLOAD SWAP1 PUSH2 0x100 EXP SWAP1 DIV PUSH1 0xFF AND PUSH1 0x2 DUP2 GT ISZERO PUSH2 0x10CE JUMPI PUSH2 0x10CD PUSH2 0x1EEB JUMP JUMPDEST JUMPDEST EQ ISZERO PUSH2 0x1106 JUMPI PUSH1 0x2 DUP2 PUSH1 0x1 ADD PUSH1 0x15 PUSH2 0x100 EXP DUP2 SLOAD DUP2 PUSH1 0xFF MUL NOT AND SWAP1 DUP4 PUSH1 0x2 DUP2 GT ISZERO PUSH2 0x10FC JUMPI PUSH2 0x10FB PUSH2 0x1EEB JUMP JUMPDEST JUMPDEST MUL OR SWAP1 SSTORE POP PUSH2 0x1134 JUMP JUMPDEST PUSH1 0x1 DUP2 PUSH1 0x1 ADD PUSH1 0x15 PUSH2 0x100 EXP DUP2 SLOAD DUP2 PUSH1 0xFF MUL NOT AND SWAP1 DUP4 PUSH1 0x2 DUP2 GT ISZERO PUSH2 0x112E JUMPI PUSH2 0x112D PUSH2 0x1EEB JUMP JUMPDEST JUMPDEST MUL OR SWAP1 SSTORE POP JUMPDEST POP JUMP JUMPDEST PUSH1 0x0 DUP1 PUSH1 0x0 SWAP1 POP JUMPDEST PUSH1 0x3 DUP2 PUSH1 0xFF AND LT ISZERO PUSH2 0x1315 JUMPI PUSH1 0x1 DUP4 DUP3 PUSH1 0xFF AND PUSH1 0x3 DUP2 LT PUSH2 0x1163 JUMPI PUSH2 0x1162 PUSH2 0x1F1A JUMP JUMPDEST JUMPDEST PUSH1 0x20 MUL ADD MLOAD PUSH1 0x0 PUSH1 0x3 DUP2 LT PUSH2 0x117B JUMPI PUSH2 0x117A PUSH2 0x1F1A JUMP JUMPDEST JUMPDEST PUSH1 0x20 MUL ADD MLOAD PUSH1 0xFF AND EQ DUP1 PUSH2 0x11C4 JUMPI POP PUSH1 0x2 DUP4 DUP3 PUSH1 0xFF AND PUSH1 0x3 DUP2 LT PUSH2 0x11A2 JUMPI PUSH2 0x11A1 PUSH2 0x1F1A JUMP JUMPDEST JUMPDEST PUSH1 0x20 MUL ADD MLOAD PUSH1 0x0 PUSH1 0x3 DUP2 LT PUSH2 0x11BA JUMPI PUSH2 0x11B9 PUSH2 0x1F1A JUMP JUMPDEST JUMPDEST PUSH1 0x20 MUL ADD MLOAD PUSH1 0xFF AND EQ JUMPDEST DUP1 ISZERO PUSH2 0x1239 JUMPI POP DUP3 DUP2 PUSH1 0xFF AND PUSH1 0x3 DUP2 LT PUSH2 0x11E1 JUMPI PUSH2 0x11E0 PUSH2 0x1F1A JUMP JUMPDEST JUMPDEST PUSH1 0x20 MUL ADD MLOAD PUSH1 0x1 PUSH1 0x3 DUP2 LT PUSH2 0x11F9 JUMPI PUSH2 0x11F8 PUSH2 0x1F1A JUMP JUMPDEST JUMPDEST PUSH1 0x20 MUL ADD MLOAD PUSH1 0xFF AND DUP4 DUP3 PUSH1 0xFF AND PUSH1 0x3 DUP2 LT PUSH2 0x1217 JUMPI PUSH2 0x1216 PUSH2 0x1F1A JUMP JUMPDEST JUMPDEST PUSH1 0x20 MUL ADD MLOAD PUSH1 0x0 PUSH1 0x3 DUP2 LT PUSH2 0x122F JUMPI PUSH2 0x122E PUSH2 0x1F1A JUMP JUMPDEST JUMPDEST PUSH1 0x20 MUL ADD MLOAD PUSH1 0xFF AND EQ JUMPDEST DUP1 ISZERO PUSH2 0x12AE JUMPI POP DUP3 DUP2 PUSH1 0xFF AND PUSH1 0x3 DUP2 LT PUSH2 0x1256 JUMPI PUSH2 0x1255 PUSH2 0x1F1A JUMP JUMPDEST JUMPDEST PUSH1 0x20 MUL ADD MLOAD PUSH1 0x2 PUSH1 0x3 DUP2 LT PUSH2 0x126E JUMPI PUSH2 0x126D PUSH2 0x1F1A JUMP JUMPDEST JUMPDEST PUSH1 0x20 MUL ADD MLOAD PUSH1 0xFF AND DUP4 DUP3 PUSH1 0xFF AND PUSH1 0x3 DUP2 LT PUSH2 0x128C JUMPI PUSH2 0x128B PUSH2 0x1F1A JUMP JUMPDEST JUMPDEST PUSH1 0x20 MUL ADD MLOAD PUSH1 0x1 PUSH1 0x3 DUP2 LT PUSH2 0x12A4 JUMPI PUSH2 0x12A3 PUSH2 0x1F1A JUMP JUMPDEST JUMPDEST PUSH1 0x20 MUL ADD MLOAD PUSH1 0xFF AND EQ JUMPDEST ISZERO PUSH2 0x1302 JUMPI PUSH1 0x1 DUP4 DUP3 PUSH1 0xFF AND PUSH1 0x3 DUP2 LT PUSH2 0x12CB JUMPI PUSH2 0x12CA PUSH2 0x1F1A JUMP JUMPDEST JUMPDEST PUSH1 0x20 MUL ADD MLOAD PUSH1 0x0 PUSH1 0x3 DUP2 LT PUSH2 0x12E3 JUMPI PUSH2 0x12E2 PUSH2 0x1F1A JUMP JUMPDEST JUMPDEST PUSH1 0x20 MUL ADD MLOAD PUSH1 0xFF AND EQ PUSH2 0x12F7 JUMPI PUSH1 0x2 PUSH2 0x12FA JUMP JUMPDEST PUSH1 0x1 JUMPDEST SWAP2 POP POP PUSH2 0x131B JUMP JUMPDEST DUP1 DUP1 PUSH2 0x130D SWAP1 PUSH2 0x1E92 JUMP JUMPDEST SWAP2 POP POP PUSH2 0x113F JUMP JUMPDEST POP PUSH1 0x0 SWAP1 POP JUMPDEST SWAP2 SWAP1 POP JUMP JUMPDEST PUSH1 0x0 DUP1 PUSH1 0x0 SWAP1 POP JUMPDEST PUSH1 0x3 DUP2 PUSH1 0xFF AND LT ISZERO PUSH2 0x14FE JUMPI PUSH1 0x1 DUP4 PUSH1 0x0 PUSH1 0x3 DUP2 LT PUSH2 0x134A JUMPI PUSH2 0x1349 PUSH2 0x1F1A JUMP JUMPDEST JUMPDEST PUSH1 0x20 MUL ADD MLOAD DUP3 PUSH1 0xFF AND PUSH1 0x3 DUP2 LT PUSH2 0x1364 JUMPI PUSH2 0x1363 PUSH2 0x1F1A JUMP JUMPDEST JUMPDEST PUSH1 0x20 MUL ADD MLOAD PUSH1 0xFF AND EQ DUP1 PUSH2 0x13AD JUMPI POP PUSH1 0x2 DUP4 PUSH1 0x0 PUSH1 0x3 DUP2 LT PUSH2 0x1389 JUMPI PUSH2 0x1388 PUSH2 0x1F1A JUMP JUMPDEST JUMPDEST PUSH1 0x20 MUL ADD MLOAD DUP3 PUSH1 0xFF AND PUSH1 0x3 DUP2 LT PUSH2 0x13A3 JUMPI PUSH2 0x13A2 PUSH2 0x1F1A JUMP JUMPDEST JUMPDEST PUSH1 0x20 MUL ADD MLOAD PUSH1 0xFF AND EQ JUMPDEST DUP1 ISZERO PUSH2 0x1422 JUMPI POP DUP3 PUSH1 0x1 PUSH1 0x3 DUP2 LT PUSH2 0x13C8 JUMPI PUSH2 0x13C7 PUSH2 0x1F1A JUMP JUMPDEST JUMPDEST PUSH1 0x20 MUL ADD MLOAD DUP2 PUSH1 0xFF AND PUSH1 0x3 DUP2 LT PUSH2 0x13E2 JUMPI PUSH2 0x13E1 PUSH2 0x1F1A JUMP JUMPDEST JUMPDEST PUSH1 0x20 MUL ADD MLOAD PUSH1 0xFF AND DUP4 PUSH1 0x0 PUSH1 0x3 DUP2 LT PUSH2 0x13FE JUMPI PUSH2 0x13FD PUSH2 0x1F1A JUMP JUMPDEST JUMPDEST PUSH1 0x20 MUL ADD MLOAD DUP3 PUSH1 0xFF AND PUSH1 0x3 DUP2 LT PUSH2 0x1418 JUMPI PUSH2 0x1417 PUSH2 0x1F1A JUMP JUMPDEST JUMPDEST PUSH1 0x20 MUL ADD MLOAD PUSH1 0xFF AND EQ JUMPDEST DUP1 ISZERO PUSH2 0x1497 JUMPI POP DUP3 PUSH1 0x2 PUSH1 0x3 DUP2 LT PUSH2 0x143D JUMPI PUSH2 0x143C PUSH2 0x1F1A JUMP JUMPDEST JUMPDEST PUSH1 0x20 MUL ADD MLOAD DUP2 PUSH1 0xFF AND PUSH1 0x3 DUP2 LT PUSH2 0x1457 JUMPI PUSH2 0x1456 PUSH2 0x1F1A JUMP JUMPDEST JUMPDEST PUSH1 0x20 MUL ADD MLOAD PUSH1 0xFF AND DUP4 PUSH1 0x1 PUSH1 0x3 DUP2 LT PUSH2 0x1473 JUMPI PUSH2 0x1472 PUSH2 0x1F1A JUMP JUMPDEST JUMPDEST PUSH1 0x20 MUL ADD MLOAD DUP3 PUSH1 0xFF AND PUSH1 0x3 DUP2 LT PUSH2 0x148D JUMPI PUSH2 0x148C PUSH2 0x1F1A JUMP JUMPDEST JUMPDEST PUSH1 0x20 MUL ADD MLOAD PUSH1 0xFF AND EQ JUMPDEST ISZERO PUSH2 0x14EB JUMPI PUSH1 0x1 DUP4 PUSH1 0x0 PUSH1 0x3 DUP2 LT PUSH2 0x14B2 JUMPI PUSH2 0x14B1 PUSH2 0x1F1A JUMP JUMPDEST JUMPDEST PUSH1 0x20 MUL ADD MLOAD DUP3 PUSH1 0xFF AND PUSH1 0x3 DUP2 LT PUSH2 0x14CC JUMPI PUSH2 0x14CB PUSH2 0x1F1A JUMP JUMPDEST JUMPDEST PUSH1 0x20 MUL ADD MLOAD PUSH1 0xFF AND EQ PUSH2 0x14E0 JUMPI PUSH1 0x2 PUSH2 0x14E3 JUMP JUMPDEST PUSH1 0x1 JUMPDEST SWAP2 POP POP PUSH2 0x1504 JUMP JUMPDEST DUP1 DUP1 PUSH2 0x14F6 SWAP1 PUSH2 0x1E92 JUMP JUMPDEST SWAP2 POP POP PUSH2 0x1328 JUMP JUMPDEST POP PUSH1 0x0 SWAP1 POP JUMPDEST SWAP2 SWAP1 POP JUMP JUMPDEST PUSH1 0x0 PUSH1 0x1 DUP3 PUSH1 0x0 PUSH1 0x3 DUP2 LT PUSH2 0x1521 JUMPI PUSH2 0x1520 PUSH2 0x1F1A JUMP JUMPDEST JUMPDEST PUSH1 0x20 MUL ADD MLOAD PUSH1 0x0 PUSH1 0x3 DUP2 LT PUSH2 0x1539 JUMPI PUSH2 0x1538 PUSH2 0x1F1A JUMP JUMPDEST JUMPDEST PUSH1 0x20 MUL ADD MLOAD PUSH1 0xFF AND EQ DUP1 PUSH2 0x1580 JUMPI POP PUSH1 0x2 DUP3 PUSH1 0x0 PUSH1 0x3 DUP2 LT PUSH2 0x155E JUMPI PUSH2 0x155D PUSH2 0x1F1A JUMP JUMPDEST JUMPDEST PUSH1 0x20 MUL ADD MLOAD PUSH1 0x0 PUSH1 0x3 DUP2 LT PUSH2 0x1576 JUMPI PUSH2 0x1575 PUSH2 0x1F1A JUMP JUMPDEST JUMPDEST PUSH1 0x20 MUL ADD MLOAD PUSH1 0xFF AND EQ JUMPDEST DUP1 ISZERO PUSH2 0x15F1 JUMPI POP DUP2 PUSH1 0x1 PUSH1 0x3 DUP2 LT PUSH2 0x159B JUMPI PUSH2 0x159A PUSH2 0x1F1A JUMP JUMPDEST JUMPDEST PUSH1 0x20 MUL ADD MLOAD PUSH1 0x1 PUSH1 0x3 DUP2 LT PUSH2 0x15B3 JUMPI PUSH2 0x15B2 PUSH2 0x1F1A JUMP JUMPDEST JUMPDEST PUSH1 0x20 MUL ADD MLOAD PUSH1 0xFF AND DUP3 PUSH1 0x0 PUSH1 0x3 DUP2 LT PUSH2 0x15CF JUMPI PUSH2 0x15CE PUSH2 0x1F1A JUMP JUMPDEST JUMPDEST PUSH1 0x20 MUL ADD MLOAD PUSH1 0x0 PUSH1 0x3 DUP2 LT PUSH2 0x15E7 JUMPI PUSH2 0x15E6 PUSH2 0x1F1A JUMP JUMPDEST JUMPDEST PUSH1 0x20 MUL ADD MLOAD PUSH1 0xFF AND EQ JUMPDEST DUP1 ISZERO PUSH2 0x1662 JUMPI POP DUP2 PUSH1 0x2 PUSH1 0x3 DUP2 LT PUSH2 0x160C JUMPI PUSH2 0x160B PUSH2 0x1F1A JUMP JUMPDEST JUMPDEST PUSH1 0x20 MUL ADD MLOAD PUSH1 0x2 PUSH1 0x3 DUP2 LT PUSH2 0x1624 JUMPI PUSH2 0x1623 PUSH2 0x1F1A JUMP JUMPDEST JUMPDEST PUSH1 0x20 MUL ADD MLOAD PUSH1 0xFF AND DUP3 PUSH1 0x1 PUSH1 0x3 DUP2 LT PUSH2 0x1640 JUMPI PUSH2 0x163F PUSH2 0x1F1A JUMP JUMPDEST JUMPDEST PUSH1 0x20 MUL ADD MLOAD PUSH1 0x1 PUSH1 0x3 DUP2 LT PUSH2 0x1658 JUMPI PUSH2 0x1657 PUSH2 0x1F1A JUMP JUMPDEST JUMPDEST PUSH1 0x20 MUL ADD MLOAD PUSH1 0xFF AND EQ JUMPDEST ISZERO PUSH2 0x16B3 JUMPI PUSH1 0x1 DUP3 PUSH1 0x0 PUSH1 0x3 DUP2 LT PUSH2 0x167D JUMPI PUSH2 0x167C PUSH2 0x1F1A JUMP JUMPDEST JUMPDEST PUSH1 0x20 MUL ADD MLOAD PUSH1 0x0 PUSH1 0x3 DUP2 LT PUSH2 0x1695 JUMPI PUSH2 0x1694 PUSH2 0x1F1A JUMP JUMPDEST JUMPDEST PUSH1 0x20 MUL ADD MLOAD PUSH1 0xFF AND EQ PUSH2 0x16A9 JUMPI PUSH1 0x2 PUSH2 0x16AC JUMP JUMPDEST PUSH1 0x1 JUMPDEST SWAP1 POP PUSH2 0x1860 JUMP JUMPDEST PUSH1 0x1 DUP3 PUSH1 0x0 PUSH1 0x3 DUP2 LT PUSH2 0x16C9 JUMPI PUSH2 0x16C8 PUSH2 0x1F1A JUMP JUMPDEST JUMPDEST PUSH1 0x20 MUL ADD MLOAD PUSH1 0x2 PUSH1 0x3 DUP2 LT PUSH2 0x16E1 JUMPI PUSH2 0x16E0 PUSH2 0x1F1A JUMP JUMPDEST JUMPDEST PUSH1 0x20 MUL ADD MLOAD PUSH1 0xFF AND EQ DUP1 PUSH2 0x1728 JUMPI POP PUSH1 0x2 DUP3 PUSH1 0x0 PUSH1 0x3 DUP2 LT PUSH2 0x1706 JUMPI PUSH2 0x1705 PUSH2 0x1F1A JUMP JUMPDEST JUMPDEST PUSH1 0x20 MUL ADD MLOAD PUSH1 0x2 PUSH1 0x3 DUP2 LT PUSH2 0x171E JUMPI PUSH2 0x171D PUSH2 0x1F1A JUMP JUMPDEST JUMPDEST PUSH1 0x20 MUL ADD MLOAD PUSH1 0xFF AND EQ JUMPDEST DUP1 ISZERO PUSH2 0x1799 JUMPI POP DUP2 PUSH1 0x1 PUSH1 0x3 DUP2 LT PUSH2 0x1743 JUMPI PUSH2 0x1742 PUSH2 0x1F1A JUMP JUMPDEST JUMPDEST PUSH1 0x20 MUL ADD MLOAD PUSH1 0x1 PUSH1 0x3 DUP2 LT PUSH2 0x175B JUMPI PUSH2 0x175A PUSH2 0x1F1A JUMP JUMPDEST JUMPDEST PUSH1 0x20 MUL ADD MLOAD PUSH1 0xFF AND DUP3 PUSH1 0x0 PUSH1 0x3 DUP2 LT PUSH2 0x1777 JUMPI PUSH2 0x1776 PUSH2 0x1F1A JUMP JUMPDEST JUMPDEST PUSH1 0x20 MUL ADD MLOAD PUSH1 0x2 PUSH1 0x3 DUP2 LT PUSH2 0x178F JUMPI PUSH2 0x178E PUSH2 0x1F1A JUMP JUMPDEST JUMPDEST PUSH1 0x20 MUL ADD MLOAD PUSH1 0xFF AND EQ JUMPDEST DUP1 ISZERO PUSH2 0x180A JUMPI POP DUP2 PUSH1 0x2 PUSH1 0x3 DUP2 LT PUSH2 0x17B4 JUMPI PUSH2 0x17B3 PUSH2 0x1F1A JUMP JUMPDEST JUMPDEST PUSH1 0x20 MUL ADD MLOAD PUSH1 0x0 PUSH1 0x3 DUP2 LT PUSH2 0x17CC JUMPI PUSH2 0x17CB PUSH2 0x1F1A JUMP JUMPDEST JUMPDEST PUSH1 0x20 MUL ADD MLOAD PUSH1 0xFF AND DUP3 PUSH1 0x1 PUSH1 0x3 DUP2 LT PUSH2 0x17E8 JUMPI PUSH2 0x17E7 PUSH2 0x1F1A JUMP JUMPDEST JUMPDEST PUSH1 0x20 MUL ADD MLOAD PUSH1 0x1 PUSH1 0x3 DUP2 LT PUSH2 0x1800 JUMPI PUSH2 0x17FF PUSH2 0x1F1A JUMP JUMPDEST JUMPDEST PUSH1 0x20 MUL ADD MLOAD PUSH1 0xFF AND EQ JUMPDEST ISZERO PUSH2 0x185B JUMPI PUSH1 0x1 DUP3 PUSH1 0x0 PUSH1 0x3 DUP2 LT PUSH2 0x1825 JUMPI PUSH2 0x1824 PUSH2 0x1F1A JUMP JUMPDEST JUMPDEST PUSH1 0x20 MUL ADD MLOAD PUSH1 0x2 PUSH1 0x3 DUP2 LT PUSH2 0x183D JUMPI PUSH2 0x183C PUSH2 0x1F1A JUMP JUMPDEST JUMPDEST PUSH1 0x20 MUL ADD MLOAD PUSH1 0xFF AND EQ PUSH2 0x1851 JUMPI PUSH1 0x2 PUSH2 0x1854 JUMP JUMPDEST PUSH1 0x1 JUMPDEST SWAP1 POP PUSH2 0x1860 JUMP JUMPDEST PUSH1 0x0 SWAP1 POP JUMPDEST SWAP2 SWAP1 POP JUMP JUMPDEST PUSH1 0x0 DUP1 PUSH1 0x0 SWAP1 POP JUMPDEST PUSH1 0x3 DUP2 PUSH1 0xFF AND LT ISZERO PUSH2 0x193F JUMPI PUSH1 0x0 JUMPDEST PUSH1 0x3 DUP2 PUSH1 0xFF AND LT ISZERO PUSH2 0x192B JUMPI PUSH1 0x1 DUP5 DUP4 PUSH1 0xFF AND PUSH1 0x3 DUP2 LT PUSH2 0x18A0 JUMPI PUSH2 0x189F PUSH2 0x1F1A JUMP JUMPDEST JUMPDEST PUSH1 0x20 MUL ADD MLOAD DUP3 PUSH1 0xFF AND PUSH1 0x3 DUP2 LT PUSH2 0x18BA JUMPI PUSH2 0x18B9 PUSH2 0x1F1A JUMP JUMPDEST JUMPDEST PUSH1 0x20 MUL ADD MLOAD PUSH1 0xFF AND EQ ISZERO DUP1 ISZERO PUSH2 0x1908 JUMPI POP PUSH1 0x2 DUP5 DUP4 PUSH1 0xFF AND PUSH1 0x3 DUP2 LT PUSH2 0x18E3 JUMPI PUSH2 0x18E2 PUSH2 0x1F1A JUMP JUMPDEST JUMPDEST PUSH1 0x20 MUL ADD MLOAD DUP3 PUSH1 0xFF AND PUSH1 0x3 DUP2 LT PUSH2 0x18FD JUMPI PUSH2 0x18FC PUSH2 0x1F1A JUMP JUMPDEST JUMPDEST PUSH1 0x20 MUL ADD MLOAD PUSH1 0xFF AND EQ ISZERO JUMPDEST ISZERO PUSH2 0x1918 JUMPI PUSH1 0x0 SWAP3 POP POP POP PUSH2 0x1945 JUMP JUMPDEST DUP1 DUP1 PUSH2 0x1923 SWAP1 PUSH2 0x1E92 JUMP JUMPDEST SWAP2 POP POP PUSH2 0x187C JUMP JUMPDEST POP DUP1 DUP1 PUSH2 0x1937 SWAP1 PUSH2 0x1E92 JUMP JUMPDEST SWAP2 POP POP PUSH2 0x186D JUMP JUMPDEST POP PUSH1 0x1 SWAP1 POP JUMPDEST SWAP2 SWAP1 POP JUMP JUMPDEST PUSH1 0x40 MLOAD DUP1 PUSH1 0xA0 ADD PUSH1 0x40 MSTORE DUP1 PUSH1 0x0 PUSH20 0xFFFFFFFFFFFFFFFFFFFFFFFFFFFFFFFFFFFFFFFF AND DUP2 MSTORE PUSH1 0x20 ADD PUSH1 0x0 PUSH20 0xFFFFFFFFFFFFFFFFFFFFFFFFFFFFFFFFFFFFFFFF AND DUP2 MSTORE PUSH1 0x20 ADD PUSH1 0x0 PUSH1 0x3 DUP2 GT ISZERO PUSH2 0x19A3 JUMPI PUSH2 0x19A2 PUSH2 0x1EEB JUMP JUMPDEST JUMPDEST DUP2 MSTORE PUSH1 0x20 ADD PUSH1 0x0 PUSH1 0x2 DUP2 GT ISZERO PUSH2 0x19BC JUMPI PUSH2 0x19BB PUSH2 0x1EEB JUMP JUMPDEST JUMPDEST DUP2 MSTORE PUSH1 0x20 ADD PUSH2 0x19C9 PUSH2 0x1A1D JUMP JUMPDEST DUP2 MSTORE POP SWAP1 JUMP JUMPDEST DUP3 PUSH1 0x3 DUP2 ADD SWAP3 DUP3 ISZERO PUSH2 0x1A0C JUMPI SWAP2 PUSH1 0x20 MUL DUP3 ADD JUMPDEST DUP3 DUP2 GT ISZERO PUSH2 0x1A0B JUMPI DUP3 MLOAD DUP3 SWAP1 PUSH1 0x3 PUSH2 0x19FB SWAP3 SWAP2 SWAP1 PUSH2 0x1A4A JUMP JUMPDEST POP SWAP2 PUSH1 0x20 ADD SWAP2 SWAP1 PUSH1 0x1 ADD SWAP1 PUSH2 0x19E2 JUMP JUMPDEST JUMPDEST POP SWAP1 POP PUSH2 0x1A19 SWAP2 SWAP1 PUSH2 0x1AE4 JUMP JUMPDEST POP SWAP1 JUMP JUMPDEST PUSH1 0x40 MLOAD DUP1 PUSH1 0x60 ADD PUSH1 0x40 MSTORE DUP1 PUSH1 0x3 SWAP1 JUMPDEST PUSH2 0x1A34 PUSH2 0x1B08 JUMP JUMPDEST DUP2 MSTORE PUSH1 0x20 ADD SWAP1 PUSH1 0x1 SWAP1 SUB SWAP1 DUP2 PUSH2 0x1A2C JUMPI SWAP1 POP POP SWAP1 JUMP JUMPDEST DUP3 PUSH1 0x3 PUSH1 0x1F ADD PUSH1 0x20 SWAP1 DIV DUP2 ADD SWAP3 DUP3 ISZERO PUSH2 0x1AD3 JUMPI SWAP2 PUSH1 0x20 MUL DUP3 ADD PUSH1 0x0 JUMPDEST DUP4 DUP3 GT ISZERO PUSH2 0x1AA4 JUMPI DUP4 MLOAD DUP4 DUP3 PUSH2 0x100 EXP DUP2 SLOAD DUP2 PUSH1 0xFF MUL NOT AND SWAP1 DUP4 PUSH1 0xFF AND MUL OR SWAP1 SSTORE POP SWAP3 PUSH1 0x20 ADD SWAP3 PUSH1 0x1 ADD PUSH1 0x20 DUP2 PUSH1 0x0 ADD DIV SWAP3 DUP4 ADD SWAP3 PUSH1 0x1 SUB MUL PUSH2 0x1A66 JUMP JUMPDEST DUP1 ISZERO PUSH2 0x1AD1 JUMPI DUP3 DUP2 PUSH2 0x100 EXP DUP2 SLOAD SWAP1 PUSH1 0xFF MUL NOT AND SWAP1 SSTORE PUSH1 0x1 ADD PUSH1 0x20 DUP2 PUSH1 0x0 ADD DIV SWAP3 DUP4 ADD SWAP3 PUSH1 0x1 SUB MUL PUSH2 0x1AA4 JUMP JUMPDEST POP JUMPDEST POP SWAP1 POP PUSH2 0x1AE0 SWAP2 SWAP1 PUSH2 0x1B2A JUMP JUMPDEST POP SWAP1 JUMP JUMPDEST JUMPDEST DUP1 DUP3 GT ISZERO PUSH2 0x1B04 JUMPI PUSH1 0x0 DUP2 DUP2 PUSH2 0x1AFB SWAP2 SWAP1 PUSH2 0x1B47 JUMP JUMPDEST POP PUSH1 0x1 ADD PUSH2 0x1AE5 JUMP JUMPDEST POP SWAP1 JUMP JUMPDEST PUSH1 0x40 MLOAD DUP1 PUSH1 0x60 ADD PUSH1 0x40 MSTORE DUP1 PUSH1 0x3 SWAP1 PUSH1 0x20 DUP3 MUL DUP1 CALLDATASIZE DUP4 CALLDATACOPY DUP1 DUP3 ADD SWAP2 POP POP SWAP1 POP POP SWAP1 JUMP JUMPDEST JUMPDEST DUP1 DUP3 GT ISZERO PUSH2 0x1B43 JUMPI PUSH1 0x0 DUP2 PUSH1 0x0 SWAP1 SSTORE POP PUSH1 0x1 ADD PUSH2 0x1B2B JUMP JUMPDEST POP SWAP1 JUMP JUMPDEST POP PUSH1 0x0 SWAP1 SSTORE JUMP JUMPDEST PUSH1 0x0 DUP2 CALLDATALOAD SWAP1 POP PUSH2 0x1B5D DUP2 PUSH2 0x1F73 JUMP JUMPDEST SWAP3 SWAP2 POP POP JUMP JUMPDEST PUSH1 0x0 PUSH1 0x20 DUP3 DUP5 SUB SLT ISZERO PUSH2 0x1B79 JUMPI PUSH2 0x1B78 PUSH2 0x1F49 JUMP JUMPDEST JUMPDEST PUSH1 0x0 PUSH2 0x1B87 DUP5 DUP3 DUP6 ADD PUSH2 0x1B4E JUMP JUMPDEST SWAP2 POP POP SWAP3 SWAP2 POP POP JUMP JUMPDEST PUSH1 0x0 DUP1 PUSH1 0x0 PUSH1 0x60 DUP5 DUP7 SUB SLT ISZERO PUSH2 0x1BA9 JUMPI PUSH2 0x1BA8 PUSH2 0x1F49 JUMP JUMPDEST JUMPDEST PUSH1 0x0 PUSH2 0x1BB7 DUP7 DUP3 DUP8 ADD PUSH2 0x1B4E JUMP JUMPDEST SWAP4 POP POP PUSH1 0x20 PUSH2 0x1BC8 DUP7 DUP3 DUP8 ADD PUSH2 0x1B4E JUMP JUMPDEST SWAP3 POP POP PUSH1 0x40 PUSH2 0x1BD9 DUP7 DUP3 DUP8 ADD PUSH2 0x1B4E JUMP JUMPDEST SWAP2 POP POP SWAP3 POP SWAP3 POP SWAP3 JUMP JUMPDEST PUSH2 0x1BEC DUP2 PUSH2 0x1D9C JUMP JUMPDEST DUP3 MSTORE POP POP JUMP JUMPDEST PUSH2 0x1BFB DUP2 PUSH2 0x1DAE JUMP JUMPDEST DUP3 MSTORE POP POP JUMP JUMPDEST PUSH2 0x1C0A DUP2 PUSH2 0x1E04 JUMP JUMPDEST DUP3 MSTORE POP POP JUMP JUMPDEST PUSH1 0x0 PUSH2 0x1C1B DUP3 PUSH2 0x1D80 JUMP JUMPDEST PUSH2 0x1C25 DUP2 DUP6 PUSH2 0x1D8B JUMP JUMPDEST SWAP4 POP PUSH2 0x1C35 DUP2 DUP6 PUSH1 0x20 DUP7 ADD PUSH2 0x1E16 JUMP JUMPDEST PUSH2 0x1C3E DUP2 PUSH2 0x1F4E JUMP JUMPDEST DUP5 ADD SWAP2 POP POP SWAP3 SWAP2 POP POP JUMP JUMPDEST PUSH2 0x1C52 DUP2 PUSH2 0x1DED JUMP JUMPDEST DUP3 MSTORE POP POP JUMP JUMPDEST PUSH2 0x1C61 DUP2 PUSH2 0x1DF7 JUMP JUMPDEST DUP3 MSTORE POP POP JUMP JUMPDEST PUSH1 0x0 PUSH1 0x40 DUP3 ADD SWAP1 POP PUSH2 0x1C7C PUSH1 0x0 DUP4 ADD DUP6 PUSH2 0x1BF2 JUMP JUMPDEST DUP2 DUP2 SUB PUSH1 0x20 DUP4 ADD MSTORE PUSH2 0x1C8E DUP2 DUP5 PUSH2 0x1C10 JUMP JUMPDEST SWAP1 POP SWAP4 SWAP3 POP POP POP JUMP JUMPDEST PUSH1 0x0 PUSH1 0x20 DUP3 ADD SWAP1 POP PUSH2 0x1CAC PUSH1 0x0 DUP4 ADD DUP5 PUSH2 0x1C49 JUMP JUMPDEST SWAP3 SWAP2 POP POP JUMP JUMPDEST PUSH1 0x0 PUSH1 0x40 DUP3 ADD SWAP1 POP PUSH2 0x1CC7 PUSH1 0x0 DUP4 ADD DUP6 PUSH2 0x1C49 JUMP JUMPDEST PUSH2 0x1CD4 PUSH1 0x20 DUP4 ADD DUP5 PUSH2 0x1BE3 JUMP JUMPDEST SWAP4 SWAP3 POP POP POP JUMP JUMPDEST PUSH1 0x0 PUSH1 0x80 DUP3 ADD SWAP1 POP PUSH2 0x1CF0 PUSH1 0x0 DUP4 ADD DUP8 PUSH2 0x1C49 JUMP JUMPDEST PUSH2 0x1CFD PUSH1 0x20 DUP4 ADD DUP7 PUSH2 0x1BE3 JUMP JUMPDEST PUSH2 0x1D0A PUSH1 0x40 DUP4 ADD DUP6 PUSH2 0x1C49 JUMP JUMPDEST PUSH2 0x1D17 PUSH1 0x60 DUP4 ADD DUP5 PUSH2 0x1C49 JUMP JUMPDEST SWAP6 SWAP5 POP POP POP POP POP JUMP JUMPDEST PUSH1 0x0 PUSH1 0x60 DUP3 ADD SWAP1 POP PUSH2 0x1D35 PUSH1 0x0 DUP4 ADD DUP7 PUSH2 0x1C49 JUMP JUMPDEST PUSH2 0x1D42 PUSH1 0x20 DUP4 ADD DUP6 PUSH2 0x1BE3 JUMP JUMPDEST PUSH2 0x1D4F PUSH1 0x40 DUP4 ADD DUP5 PUSH2 0x1C58 JUMP JUMPDEST SWAP5 SWAP4 POP POP POP POP JUMP JUMPDEST PUSH1 0x0 PUSH1 0x40 DUP3 ADD SWAP1 POP PUSH2 0x1D6C PUSH1 0x0 DUP4 ADD DUP6 PUSH2 0x1C49 JUMP JUMPDEST PUSH2 0x1D79 PUSH1 0x20 DUP4 ADD DUP5 PUSH2 0x1C01 JUMP JUMPDEST SWAP4 SWAP3 POP POP POP JUMP JUMPDEST PUSH1 0x0 DUP2 MLOAD SWAP1 POP SWAP2 SWAP1 POP JUMP JUMPDEST PUSH1 0x0 DUP3 DUP3 MSTORE PUSH1 0x20 DUP3 ADD SWAP1 POP SWAP3 SWAP2 POP POP JUMP JUMPDEST PUSH1 0x0 PUSH2 0x1DA7 DUP3 PUSH2 0x1DCD JUMP JUMPDEST SWAP1 POP SWAP2 SWAP1 POP JUMP JUMPDEST PUSH1 0x0 DUP2 ISZERO ISZERO SWAP1 POP SWAP2 SWAP1 POP JUMP JUMPDEST PUSH1 0x0 DUP2 SWAP1 POP PUSH2 0x1DC8 DUP3 PUSH2 0x1F5F JUMP JUMPDEST SWAP2 SWAP1 POP JUMP JUMPDEST PUSH1 0x0 PUSH20 0xFFFFFFFFFFFFFFFFFFFFFFFFFFFFFFFFFFFFFFFF DUP3 AND SWAP1 POP SWAP2 SWAP1 POP JUMP JUMPDEST PUSH1 0x0 DUP2 SWAP1 POP SWAP2 SWAP1 POP JUMP JUMPDEST PUSH1 0x0 PUSH1 0xFF DUP3 AND SWAP1 POP SWAP2 SWAP1 POP JUMP JUMPDEST PUSH1 0x0 PUSH2 0x1E0F DUP3 PUSH2 0x1DBA JUMP JUMPDEST SWAP1 POP SWAP2 SWAP1 POP JUMP JUMPDEST PUSH1 0x0 JUMPDEST DUP4 DUP2 LT ISZERO PUSH2 0x1E34 JUMPI DUP1 DUP3 ADD MLOAD DUP2 DUP5 ADD MSTORE PUSH1 0x20 DUP2 ADD SWAP1 POP PUSH2 0x1E19 JUMP JUMPDEST DUP4 DUP2 GT ISZERO PUSH2 0x1E43 JUMPI PUSH1 0x0 DUP5 DUP5 ADD MSTORE JUMPDEST POP POP POP POP JUMP JUMPDEST PUSH1 0x0 PUSH2 0x1E54 DUP3 PUSH2 0x1DED JUMP JUMPDEST SWAP2 POP PUSH32 0xFFFFFFFFFFFFFFFFFFFFFFFFFFFFFFFFFFFFFFFFFFFFFFFFFFFFFFFFFFFFFFFF DUP3 EQ ISZERO PUSH2 0x1E87 JUMPI PUSH2 0x1E86 PUSH2 0x1EBC JUMP JUMPDEST JUMPDEST PUSH1 0x1 DUP3 ADD SWAP1 POP SWAP2 SWAP1 POP JUMP JUMPDEST PUSH1 0x0 PUSH2 0x1E9D DUP3 PUSH2 0x1DF7 JUMP JUMPDEST SWAP2 POP PUSH1 0xFF DUP3 EQ ISZERO PUSH2 0x1EB1 JUMPI PUSH2 0x1EB0 PUSH2 0x1EBC JUMP JUMPDEST JUMPDEST PUSH1 0x1 DUP3 ADD SWAP1 POP SWAP2 SWAP1 POP JUMP JUMPDEST PUSH32 0x4E487B7100000000000000000000000000000000000000000000000000000000 PUSH1 0x0 MSTORE PUSH1 0x11 PUSH1 0x4 MSTORE PUSH1 0x24 PUSH1 0x0 REVERT JUMPDEST PUSH32 0x4E487B7100000000000000000000000000000000000000000000000000000000 PUSH1 0x0 MSTORE PUSH1 0x21 PUSH1 0x4 MSTORE PUSH1 0x24 PUSH1 0x0 REVERT JUMPDEST PUSH32 0x4E487B7100000000000000000000000000000000000000000000000000000000 PUSH1 0x0 MSTORE PUSH1 0x32 PUSH1 0x4 MSTORE PUSH1 0x24 PUSH1 0x0 REVERT JUMPDEST PUSH1 0x0 DUP1 REVERT JUMPDEST PUSH1 0x0 PUSH1 0x1F NOT PUSH1 0x1F DUP4 ADD AND SWAP1 POP SWAP2 SWAP1 POP JUMP JUMPDEST PUSH1 0x4 DUP2 LT PUSH2 0x1F70 JUMPI PUSH2 0x1F6F PUSH2 0x1EEB JUMP JUMPDEST JUMPDEST POP JUMP JUMPDEST PUSH2 0x1F7C DUP2 PUSH2 0x1DED JUMP JUMPDEST DUP2 EQ PUSH2 0x1F87 JUMPI PUSH1 0x0 DUP1 REVERT JUMPDEST POP JUMP INVALID SLOAD PUSH9 0x65726520697320616C PUSH19 0x656164792061206D61726B2061742074686520 PUSH8 0x6976656E20636F6F PUSH19 0x64696E617465732E4A6F696E65642061732070 PUSH13 0x6179657220312E2047616D6520 PUSH9 0x61736E277420737461 PUSH19 0x746564207965742E4A6F696E65642061732070 PUSH13 0x6179657220312E20506C617965 PUSH19 0x203220616C7265616479206578697374732E20 POP PUSH13 0x6179657220312063616E206D61 PUSH12 0x652074686520666972737420 PUSH14 0x6F76652E4A6F696E656420617320 PUSH17 0x6C6179657220322E20506C617965722031 KECCAK256 PUSH4 0x616E206D PUSH2 0x6B65 KECCAK256 PUSH21 0x6865206669727374206D6F76652E4A6F696E656420 PUSH2 0x7320 PUSH17 0x6C6179657220322E2047616D6520686173 PUSH15 0x27742073746172746564207965742E SLOAD PUSH9 0x69732067616D652064 PUSH16 0x65736E277420686176652074776F2070 PUSH13 0x6179657273207965742EA26469 PUSH17 0x66735822122002D43CB9A531289A6A1327 0xCB SUB SIGNEXTEND PUSH19 0x294051B4279F241AA4673F9ADB945A446C6473 PUSH16 0x6C634300080700330000000000000000 "
				},
				"gasEstimates": {
					"creation": {
						"codeDepositCost": "1687000",
						"executionCost": "1771",
						"totalCost": "1688771"
					},
					"external": {
						"joinGame(uint256)": "infinite",
						"makeMove(uint256,uint256,uint256)": "infinite",
						"newGame()": "infinite"
					},
					"internal": {
						"calculateWinner(uint8[3] memory[3] memory)": "infinite",
						"getCurrentPlayer(struct TicTacToe.Game storage pointer)": "6721",
						"isBoardFull(uint8[3] memory[3] memory)": "infinite",
						"nextPlayer(struct TicTacToe.Game storage pointer)": "26635",
						"winnerInColumn(uint8[3] memory[3] memory)": "infinite",
						"winnerInDiagonal(uint8[3] memory[3] memory)": "infinite",
						"winnerInRow(uint8[3] memory[3] memory)": "infinite"
					}
				},
				"methodIdentifiers": {
					"joinGame(uint256)": "efaa55a0",
					"makeMove(uint256,uint256,uint256)": "cfc2f5ff",
					"newGame()": "7d03f5f3"
				}
			},
			"storageLayout": {
				"storage": [
					{
						"astId": 32,
						"contract": "contracts/TicTacToe.sol:TicTacToe",
						"label": "games",
						"offset": 0,
						"slot": "0",
						"type": "t_mapping(t_uint256,t_struct(Game)27_storage)"
					},
					{
						"astId": 34,
						"contract": "contracts/TicTacToe.sol:TicTacToe",
						"label": "nrOfGames",
						"offset": 0,
						"slot": "1",
						"type": "t_uint256"
					}
				],
				"types": {
					"t_address": {
						"encoding": "inplace",
						"label": "address",
						"numberOfBytes": "20"
					},
					"t_array(t_array(t_uint8)3_storage)3_storage": {
						"base": "t_array(t_uint8)3_storage",
						"encoding": "inplace",
						"label": "uint8[3][3]",
						"numberOfBytes": "96"
					},
					"t_array(t_uint8)3_storage": {
						"base": "t_uint8",
						"encoding": "inplace",
						"label": "uint8[3]",
						"numberOfBytes": "32"
					},
					"t_enum(Players)5": {
						"encoding": "inplace",
						"label": "enum TicTacToe.Players",
						"numberOfBytes": "1"
					},
					"t_enum(Winners)10": {
						"encoding": "inplace",
						"label": "enum TicTacToe.Winners",
						"numberOfBytes": "1"
					},
					"t_mapping(t_uint256,t_struct(Game)27_storage)": {
						"encoding": "mapping",
						"key": "t_uint256",
						"label": "mapping(uint256 => struct TicTacToe.Game)",
						"numberOfBytes": "32",
						"value": "t_struct(Game)27_storage"
					},
					"t_struct(Game)27_storage": {
						"encoding": "inplace",
						"label": "struct TicTacToe.Game",
						"members": [
							{
								"astId": 12,
								"contract": "contracts/TicTacToe.sol:TicTacToe",
								"label": "playerOne",
								"offset": 0,
								"slot": "0",
								"type": "t_address"
							},
							{
								"astId": 14,
								"contract": "contracts/TicTacToe.sol:TicTacToe",
								"label": "playerTwo",
								"offset": 0,
								"slot": "1",
								"type": "t_address"
							},
							{
								"astId": 17,
								"contract": "contracts/TicTacToe.sol:TicTacToe",
								"label": "winner",
								"offset": 20,
								"slot": "1",
								"type": "t_enum(Winners)10"
							},
							{
								"astId": 20,
								"contract": "contracts/TicTacToe.sol:TicTacToe",
								"label": "playerTurn",
								"offset": 21,
								"slot": "1",
								"type": "t_enum(Players)5"
							},
							{
								"astId": 26,
								"contract": "contracts/TicTacToe.sol:TicTacToe",
								"label": "board",
								"offset": 0,
								"slot": "2",
								"type": "t_array(t_array(t_uint8)3_storage)3_storage"
							}
						],
						"numberOfBytes": "160"
					},
					"t_uint256": {
						"encoding": "inplace",
						"label": "uint256",
						"numberOfBytes": "32"
					},
					"t_uint8": {
						"encoding": "inplace",
						"label": "uint8",
						"numberOfBytes": "1"
					}
				}
			},
			"userdoc": {
				"kind": "user",
				"methods": {},
				"version": 1
			}
		}
	}
}