{
	"contracts/TicTacToe.sol": {
		"TicTacToe": {
			"abi": [
				{
					"anonymous": false,
					"inputs": [
						{
							"indexed": false,
							"internalType": "uint256",
							"name": "gameId",
							"type": "uint256"
						},
						{
							"indexed": false,
							"internalType": "address",
							"name": "creator",
							"type": "address"
						}
					],
					"name": "GameCreated",
					"type": "event"
				},
				{
					"anonymous": false,
					"inputs": [
						{
							"indexed": false,
							"internalType": "uint256",
							"name": "gameId",
							"type": "uint256"
						},
						{
							"indexed": false,
							"internalType": "enum TicTacToe.Winners",
							"name": "winner",
							"type": "uint8"
						}
					],
					"name": "GameOver",
					"type": "event"
				},
				{
					"anonymous": false,
					"inputs": [
						{
							"indexed": false,
							"internalType": "uint256",
							"name": "gameId",
							"type": "uint256"
						},
						{
							"indexed": false,
							"internalType": "address",
							"name": "player",
							"type": "address"
						},
						{
							"indexed": false,
							"internalType": "uint8",
							"name": "playerNumber",
							"type": "uint8"
						}
					],
					"name": "PlayerJoinedGame",
					"type": "event"
				},
				{
					"anonymous": false,
					"inputs": [
						{
							"indexed": false,
							"internalType": "uint256",
							"name": "gameId",
							"type": "uint256"
						},
						{
							"indexed": false,
							"internalType": "address",
							"name": "player",
							"type": "address"
						},
						{
							"indexed": false,
							"internalType": "uint256",
							"name": "xCoordinate",
							"type": "uint256"
						},
						{
							"indexed": false,
							"internalType": "uint256",
							"name": "yCoordinate",
							"type": "uint256"
						}
					],
					"name": "PlayerMadeMove",
					"type": "event"
				},
				{
					"inputs": [
						{
							"internalType": "uint256",
							"name": "_gameId",
							"type": "uint256"
						}
					],
					"name": "joinGame",
					"outputs": [
						{
							"internalType": "bool",
							"name": "success",
							"type": "bool"
						},
						{
							"internalType": "string",
							"name": "reason",
							"type": "string"
						}
					],
					"stateMutability": "nonpayable",
					"type": "function"
				},
				{
					"inputs": [
						{
							"internalType": "uint256",
							"name": "_gameId",
							"type": "uint256"
						},
						{
							"internalType": "uint256",
							"name": "_xCoordinate",
							"type": "uint256"
						},
						{
							"internalType": "uint256",
							"name": "_yCoordinate",
							"type": "uint256"
						}
					],
					"name": "makeMove",
					"outputs": [
						{
							"internalType": "bool",
							"name": "success",
							"type": "bool"
						},
						{
							"internalType": "string",
							"name": "reason",
							"type": "string"
						}
					],
					"stateMutability": "nonpayable",
					"type": "function"
				},
				{
					"inputs": [],
					"name": "newGame",
					"outputs": [
						{
							"internalType": "uint256",
							"name": "gameId",
							"type": "uint256"
						}
					],
					"stateMutability": "nonpayable",
					"type": "function"
				}
			],
			"devdoc": {
				"kind": "dev",
				"methods": {},
				"version": 1
			},
			"evm": {
				"assembly": "    /* \"contracts/TicTacToe.sol\":212:11777  contract TicTacToe {... */\n  mstore(0x40, 0x80)\n  callvalue\n  dup1\n  iszero\n  tag_1\n  jumpi\n  0x00\n  dup1\n  revert\ntag_1:\n  pop\n  dataSize(sub_0)\n  dup1\n  dataOffset(sub_0)\n  0x00\n  codecopy\n  0x00\n  return\nstop\n\nsub_0: assembly {\n        /* \"contracts/TicTacToe.sol\":212:11777  contract TicTacToe {... */\n      mstore(0x40, 0x80)\n      callvalue\n      dup1\n      iszero\n      tag_1\n      jumpi\n      0x00\n      dup1\n      revert\n    tag_1:\n      pop\n      jumpi(tag_2, lt(calldatasize, 0x04))\n      shr(0xe0, calldataload(0x00))\n      dup1\n      0x7d03f5f3\n      eq\n      tag_3\n      jumpi\n      dup1\n      0xcfc2f5ff\n      eq\n      tag_4\n      jumpi\n      dup1\n      0xefaa55a0\n      eq\n      tag_5\n      jumpi\n    tag_2:\n      0x00\n      dup1\n      revert\n        /* \"contracts/TicTacToe.sol\":2475:2736  function newGame() public returns (uint256 gameId) {... */\n    tag_3:\n      tag_6\n      tag_7\n      jump\t// in\n    tag_6:\n      mload(0x40)\n      tag_8\n      swap2\n      swap1\n      tag_9\n      jump\t// in\n    tag_8:\n      mload(0x40)\n      dup1\n      swap2\n      sub\n      swap1\n      return\n        /* \"contracts/TicTacToe.sol\":4648:7014  function makeMove(uint256 _gameId, uint _xCoordinate, uint _yCoordinate) public returns (bool success, string memory reason) {... */\n    tag_4:\n      tag_10\n      0x04\n      dup1\n      calldatasize\n      sub\n      dup2\n      add\n      swap1\n      tag_11\n      swap2\n      swap1\n      tag_12\n      jump\t// in\n    tag_11:\n      tag_13\n      jump\t// in\n    tag_10:\n      mload(0x40)\n      tag_14\n      swap3\n      swap2\n      swap1\n      tag_15\n      jump\t// in\n    tag_14:\n      mload(0x40)\n      dup1\n      swap2\n      sub\n      swap1\n      return\n        /* \"contracts/TicTacToe.sol\":2988:4528  function joinGame(uint256 _gameId) public returns (bool success, string memory reason) {... */\n    tag_5:\n      tag_16\n      0x04\n      dup1\n      calldatasize\n      sub\n      dup2\n      add\n      swap1\n      tag_17\n      swap2\n      swap1\n      tag_18\n      jump\t// in\n    tag_17:\n      tag_19\n      jump\t// in\n    tag_16:\n      mload(0x40)\n      tag_20\n      swap3\n      swap2\n      swap1\n      tag_15\n      jump\t// in\n    tag_20:\n      mload(0x40)\n      dup1\n      swap2\n      sub\n      swap1\n      return\n        /* \"contracts/TicTacToe.sol\":2475:2736  function newGame() public returns (uint256 gameId) {... */\n    tag_7:\n        /* \"contracts/TicTacToe.sol\":2510:2524  uint256 gameId */\n      0x00\n        /* \"contracts/TicTacToe.sol\":2536:2552  Game memory game */\n      tag_22\n      tag_23\n      jump\t// in\n    tag_22:\n        /* \"contracts/TicTacToe.sol\":2580:2597  Players.PlayerOne */\n      0x01\n        /* \"contracts/TicTacToe.sol\":2562:2566  game */\n      dup2\n        /* \"contracts/TicTacToe.sol\":2562:2577  game.playerTurn */\n      0x60\n      add\n        /* \"contracts/TicTacToe.sol\":2562:2597  game.playerTurn = Players.PlayerOne */\n      swap1\n      0x02\n      dup2\n      gt\n      iszero\n      tag_24\n      jumpi\n      tag_25\n      tag_26\n      jump\t// in\n    tag_25:\n    tag_24:\n      swap1\n      dup2\n      0x02\n      dup2\n      gt\n      iszero\n      tag_27\n      jumpi\n      tag_28\n      tag_26\n      jump\t// in\n    tag_28:\n    tag_27:\n      dup2\n      mstore\n      pop\n      pop\n        /* \"contracts/TicTacToe.sol\":2608:2617  nrOfGames */\n      0x01\n      0x00\n        /* \"contracts/TicTacToe.sol\":2608:2619  nrOfGames++ */\n      dup2\n      sload\n      dup1\n      swap3\n      swap2\n      swap1\n      tag_29\n      swap1\n      tag_30\n      jump\t// in\n    tag_29:\n      swap2\n      swap1\n      pop\n      sstore\n      pop\n        /* \"contracts/TicTacToe.sol\":2648:2652  game */\n      dup1\n        /* \"contracts/TicTacToe.sol\":2629:2634  games */\n      0x00\n        /* \"contracts/TicTacToe.sol\":2629:2645  games[nrOfGames] */\n      dup1\n        /* \"contracts/TicTacToe.sol\":2635:2644  nrOfGames */\n      sload(0x01)\n        /* \"contracts/TicTacToe.sol\":2629:2645  games[nrOfGames] */\n      dup2\n      mstore\n      0x20\n      add\n      swap1\n      dup2\n      mstore\n      0x20\n      add\n      0x00\n      keccak256\n        /* \"contracts/TicTacToe.sol\":2629:2652  games[nrOfGames] = game */\n      0x00\n      dup3\n      add\n      mload\n      dup2\n      0x00\n      add\n      exp(0x0100, 0x00)\n      dup2\n      sload\n      dup2\n      0xffffffffffffffffffffffffffffffffffffffff\n      mul\n      not\n      and\n      swap1\n      dup4\n      0xffffffffffffffffffffffffffffffffffffffff\n      and\n      mul\n      or\n      swap1\n      sstore\n      pop\n      0x20\n      dup3\n      add\n      mload\n      dup2\n      0x01\n      add\n      exp(0x0100, 0x00)\n      dup2\n      sload\n      dup2\n      0xffffffffffffffffffffffffffffffffffffffff\n      mul\n      not\n      and\n      swap1\n      dup4\n      0xffffffffffffffffffffffffffffffffffffffff\n      and\n      mul\n      or\n      swap1\n      sstore\n      pop\n      0x40\n      dup3\n      add\n      mload\n      dup2\n      0x01\n      add\n      exp(0x0100, 0x14)\n      dup2\n      sload\n      dup2\n      0xff\n      mul\n      not\n      and\n      swap1\n      dup4\n      0x03\n      dup2\n      gt\n      iszero\n      tag_31\n      jumpi\n      tag_32\n      tag_26\n      jump\t// in\n    tag_32:\n    tag_31:\n      mul\n      or\n      swap1\n      sstore\n      pop\n      0x60\n      dup3\n      add\n      mload\n      dup2\n      0x01\n      add\n      exp(0x0100, 0x15)\n      dup2\n      sload\n      dup2\n      0xff\n      mul\n      not\n      and\n      swap1\n      dup4\n      0x02\n      dup2\n      gt\n      iszero\n      tag_33\n      jumpi\n      tag_34\n      tag_26\n      jump\t// in\n    tag_34:\n    tag_33:\n      mul\n      or\n      swap1\n      sstore\n      pop\n      0x80\n      dup3\n      add\n      mload\n      dup2\n      0x02\n      add\n      swap1\n      0x03\n      tag_35\n      swap3\n      swap2\n      swap1\n      tag_36\n      jump\t// in\n    tag_35:\n      pop\n      swap1\n      pop\n      pop\n        /* \"contracts/TicTacToe.sol\":2668:2702  GameCreated(nrOfGames, msg.sender) */\n      0xc3e0f84839dc888c892a013d10c8f9d6dc05a21a879d0ce468ca558013e9121c\n        /* \"contracts/TicTacToe.sol\":2680:2689  nrOfGames */\n      sload(0x01)\n        /* \"contracts/TicTacToe.sol\":2691:2701  msg.sender */\n      caller\n        /* \"contracts/TicTacToe.sol\":2668:2702  GameCreated(nrOfGames, msg.sender) */\n      mload(0x40)\n      tag_37\n      swap3\n      swap2\n      swap1\n      tag_38\n      jump\t// in\n    tag_37:\n      mload(0x40)\n      dup1\n      swap2\n      sub\n      swap1\n      log1\n        /* \"contracts/TicTacToe.sol\":2720:2729  nrOfGames */\n      sload(0x01)\n        /* \"contracts/TicTacToe.sol\":2713:2729  return nrOfGames */\n      swap2\n      pop\n      pop\n        /* \"contracts/TicTacToe.sol\":2475:2736  function newGame() public returns (uint256 gameId) {... */\n      swap1\n      jump\t// out\n        /* \"contracts/TicTacToe.sol\":4648:7014  function makeMove(uint256 _gameId, uint _xCoordinate, uint _yCoordinate) public returns (bool success, string memory reason) {... */\n    tag_13:\n        /* \"contracts/TicTacToe.sol\":4737:4749  bool success */\n      0x00\n        /* \"contracts/TicTacToe.sol\":4751:4771  string memory reason */\n      0x60\n        /* \"contracts/TicTacToe.sol\":4797:4806  nrOfGames */\n      sload(0x01)\n        /* \"contracts/TicTacToe.sol\":4787:4794  _gameId */\n      dup6\n        /* \"contracts/TicTacToe.sol\":4787:4806  _gameId > nrOfGames */\n      gt\n        /* \"contracts/TicTacToe.sol\":4787:4892  _gameId > nrOfGames || (games[_gameId].playerOne == address(0) && games[_gameId].playerTwo == address(0)) */\n      dup1\n      tag_40\n      jumpi\n      pop\n        /* \"contracts/TicTacToe.sol\":4847:4848  0 */\n      0x00\n        /* \"contracts/TicTacToe.sol\":4811:4849  games[_gameId].playerOne == address(0) */\n      0xffffffffffffffffffffffffffffffffffffffff\n      and\n        /* \"contracts/TicTacToe.sol\":4811:4816  games */\n      0x00\n        /* \"contracts/TicTacToe.sol\":4811:4825  games[_gameId] */\n      dup1\n        /* \"contracts/TicTacToe.sol\":4817:4824  _gameId */\n      dup8\n        /* \"contracts/TicTacToe.sol\":4811:4825  games[_gameId] */\n      dup2\n      mstore\n      0x20\n      add\n      swap1\n      dup2\n      mstore\n      0x20\n      add\n      0x00\n      keccak256\n        /* \"contracts/TicTacToe.sol\":4811:4835  games[_gameId].playerOne */\n      0x00\n      add\n      0x00\n      swap1\n      sload\n      swap1\n      0x0100\n      exp\n      swap1\n      div\n      0xffffffffffffffffffffffffffffffffffffffff\n      and\n        /* \"contracts/TicTacToe.sol\":4811:4849  games[_gameId].playerOne == address(0) */\n      0xffffffffffffffffffffffffffffffffffffffff\n      and\n      eq\n        /* \"contracts/TicTacToe.sol\":4811:4891  games[_gameId].playerOne == address(0) && games[_gameId].playerTwo == address(0) */\n      dup1\n      iszero\n      tag_41\n      jumpi\n      pop\n        /* \"contracts/TicTacToe.sol\":4889:4890  0 */\n      0x00\n        /* \"contracts/TicTacToe.sol\":4853:4891  games[_gameId].playerTwo == address(0) */\n      0xffffffffffffffffffffffffffffffffffffffff\n      and\n        /* \"contracts/TicTacToe.sol\":4853:4858  games */\n      0x00\n        /* \"contracts/TicTacToe.sol\":4853:4867  games[_gameId] */\n      dup1\n        /* \"contracts/TicTacToe.sol\":4859:4866  _gameId */\n      dup8\n        /* \"contracts/TicTacToe.sol\":4853:4867  games[_gameId] */\n      dup2\n      mstore\n      0x20\n      add\n      swap1\n      dup2\n      mstore\n      0x20\n      add\n      0x00\n      keccak256\n        /* \"contracts/TicTacToe.sol\":4853:4877  games[_gameId].playerTwo */\n      0x01\n      add\n      0x00\n      swap1\n      sload\n      swap1\n      0x0100\n      exp\n      swap1\n      div\n      0xffffffffffffffffffffffffffffffffffffffff\n      and\n        /* \"contracts/TicTacToe.sol\":4853:4891  games[_gameId].playerTwo == address(0) */\n      0xffffffffffffffffffffffffffffffffffffffff\n      and\n      eq\n        /* \"contracts/TicTacToe.sol\":4811:4891  games[_gameId].playerOne == address(0) && games[_gameId].playerTwo == address(0) */\n    tag_41:\n        /* \"contracts/TicTacToe.sol\":4787:4892  _gameId > nrOfGames || (games[_gameId].playerOne == address(0) && games[_gameId].playerTwo == address(0)) */\n    tag_40:\n        /* \"contracts/TicTacToe.sol\":4783:4957  if (_gameId > nrOfGames || (games[_gameId].playerOne == address(0) && games[_gameId].playerTwo == address(0))) {... */\n      iszero\n      tag_42\n      jumpi\n        /* \"contracts/TicTacToe.sol\":4916:4921  false */\n      0x00\n        /* \"contracts/TicTacToe.sol\":4908:4946  return (false, \"No such game exists.\") */\n      mload(0x40)\n      dup1\n      0x40\n      add\n      0x40\n      mstore\n      dup1\n      0x14\n      dup2\n      mstore\n      0x20\n      add\n      0x4e6f20737563682067616d65206578697374732e000000000000000000000000\n      dup2\n      mstore\n      pop\n      swap2\n      pop\n      swap2\n      pop\n      jump(tag_39)\n        /* \"contracts/TicTacToe.sol\":4783:4957  if (_gameId > nrOfGames || (games[_gameId].playerOne == address(0) && games[_gameId].playerTwo == address(0))) {... */\n    tag_42:\n        /* \"contracts/TicTacToe.sol\":4985:4986  0 */\n      0x00\n        /* \"contracts/TicTacToe.sol\":4970:4982  _xCoordinate */\n      dup5\n        /* \"contracts/TicTacToe.sol\":4970:4986  _xCoordinate < 0 */\n      lt\n        /* \"contracts/TicTacToe.sol\":4970:5006  _xCoordinate < 0 || _xCoordinate > 2 */\n      dup1\n      tag_43\n      jumpi\n      pop\n        /* \"contracts/TicTacToe.sol\":5005:5006  2 */\n      0x02\n        /* \"contracts/TicTacToe.sol\":4990:5002  _xCoordinate */\n      dup5\n        /* \"contracts/TicTacToe.sol\":4990:5006  _xCoordinate > 2 */\n      gt\n        /* \"contracts/TicTacToe.sol\":4970:5006  _xCoordinate < 0 || _xCoordinate > 2 */\n    tag_43:\n        /* \"contracts/TicTacToe.sol\":4967:5082  if(_xCoordinate < 0 || _xCoordinate > 2) { ... */\n      iszero\n      tag_44\n      jumpi\n        /* \"contracts/TicTacToe.sol\":5030:5035  false */\n      0x00\n        /* \"contracts/TicTacToe.sol\":5023:5071  return(false, \"Invalid input for x-coordinate.\") */\n      mload(0x40)\n      dup1\n      0x40\n      add\n      0x40\n      mstore\n      dup1\n      0x1f\n      dup2\n      mstore\n      0x20\n      add\n      0x496e76616c696420696e70757420666f7220782d636f6f7264696e6174652e00\n      dup2\n      mstore\n      pop\n      swap2\n      pop\n      swap2\n      pop\n      jump(tag_39)\n        /* \"contracts/TicTacToe.sol\":4967:5082  if(_xCoordinate < 0 || _xCoordinate > 2) { ... */\n    tag_44:\n        /* \"contracts/TicTacToe.sol\":5109:5110  0 */\n      0x00\n        /* \"contracts/TicTacToe.sol\":5094:5106  _yCoordinate */\n      dup4\n        /* \"contracts/TicTacToe.sol\":5094:5110  _yCoordinate < 0 */\n      lt\n        /* \"contracts/TicTacToe.sol\":5094:5130  _yCoordinate < 0 || _yCoordinate > 2 */\n      dup1\n      tag_45\n      jumpi\n      pop\n        /* \"contracts/TicTacToe.sol\":5129:5130  2 */\n      0x02\n        /* \"contracts/TicTacToe.sol\":5114:5126  _yCoordinate */\n      dup4\n        /* \"contracts/TicTacToe.sol\":5114:5130  _yCoordinate > 2 */\n      gt\n        /* \"contracts/TicTacToe.sol\":5094:5130  _yCoordinate < 0 || _yCoordinate > 2 */\n    tag_45:\n        /* \"contracts/TicTacToe.sol\":5091:5206  if(_yCoordinate < 0 || _yCoordinate > 2) { ... */\n      iszero\n      tag_46\n      jumpi\n        /* \"contracts/TicTacToe.sol\":5154:5159  false */\n      0x00\n        /* \"contracts/TicTacToe.sol\":5147:5195  return(false, \"Invalid input for y-coordinate.\") */\n      mload(0x40)\n      dup1\n      0x40\n      add\n      0x40\n      mstore\n      dup1\n      0x1f\n      dup2\n      mstore\n      0x20\n      add\n      0x496e76616c696420696e70757420666f7220792d636f6f7264696e6174652e00\n      dup2\n      mstore\n      pop\n      swap2\n      pop\n      swap2\n      pop\n      jump(tag_39)\n        /* \"contracts/TicTacToe.sol\":5091:5206  if(_yCoordinate < 0 || _yCoordinate > 2) { ... */\n    tag_46:\n        /* \"contracts/TicTacToe.sol\":5256:5257  0 */\n      0x00\n        /* \"contracts/TicTacToe.sol\":5220:5258  games[_gameId].playerOne == address(0) */\n      0xffffffffffffffffffffffffffffffffffffffff\n      and\n        /* \"contracts/TicTacToe.sol\":5220:5225  games */\n      0x00\n        /* \"contracts/TicTacToe.sol\":5220:5234  games[_gameId] */\n      dup1\n        /* \"contracts/TicTacToe.sol\":5226:5233  _gameId */\n      dup8\n        /* \"contracts/TicTacToe.sol\":5220:5234  games[_gameId] */\n      dup2\n      mstore\n      0x20\n      add\n      swap1\n      dup2\n      mstore\n      0x20\n      add\n      0x00\n      keccak256\n        /* \"contracts/TicTacToe.sol\":5220:5244  games[_gameId].playerOne */\n      0x00\n      add\n      0x00\n      swap1\n      sload\n      swap1\n      0x0100\n      exp\n      swap1\n      div\n      0xffffffffffffffffffffffffffffffffffffffff\n      and\n        /* \"contracts/TicTacToe.sol\":5220:5258  games[_gameId].playerOne == address(0) */\n      0xffffffffffffffffffffffffffffffffffffffff\n      and\n      eq\n        /* \"contracts/TicTacToe.sol\":5220:5300  games[_gameId].playerOne == address(0) || games[_gameId].playerTwo == address(0) */\n      dup1\n      tag_47\n      jumpi\n      pop\n        /* \"contracts/TicTacToe.sol\":5298:5299  0 */\n      0x00\n        /* \"contracts/TicTacToe.sol\":5262:5300  games[_gameId].playerTwo == address(0) */\n      0xffffffffffffffffffffffffffffffffffffffff\n      and\n        /* \"contracts/TicTacToe.sol\":5262:5267  games */\n      0x00\n        /* \"contracts/TicTacToe.sol\":5262:5276  games[_gameId] */\n      dup1\n        /* \"contracts/TicTacToe.sol\":5268:5275  _gameId */\n      dup8\n        /* \"contracts/TicTacToe.sol\":5262:5276  games[_gameId] */\n      dup2\n      mstore\n      0x20\n      add\n      swap1\n      dup2\n      mstore\n      0x20\n      add\n      0x00\n      keccak256\n        /* \"contracts/TicTacToe.sol\":5262:5286  games[_gameId].playerTwo */\n      0x01\n      add\n      0x00\n      swap1\n      sload\n      swap1\n      0x0100\n      exp\n      swap1\n      div\n      0xffffffffffffffffffffffffffffffffffffffff\n      and\n        /* \"contracts/TicTacToe.sol\":5262:5300  games[_gameId].playerTwo == address(0) */\n      0xffffffffffffffffffffffffffffffffffffffff\n      and\n      eq\n        /* \"contracts/TicTacToe.sol\":5220:5300  games[_gameId].playerOne == address(0) || games[_gameId].playerTwo == address(0) */\n    tag_47:\n        /* \"contracts/TicTacToe.sol\":5216:5384  if (games[_gameId].playerOne == address(0) || games[_gameId].playerTwo == address(0)) {... */\n      iszero\n      tag_48\n      jumpi\n        /* \"contracts/TicTacToe.sol\":5324:5329  false */\n      0x00\n        /* \"contracts/TicTacToe.sol\":5316:5373  return (false, \"This game doesn't have two players yet.\") */\n      mload(0x40)\n      dup1\n      0x60\n      add\n      0x40\n      mstore\n      dup1\n      0x27\n      dup2\n      mstore\n      0x20\n      add\n      data_cd1c82b9c97f6de04235118f1b9fb732f775ca593a234137657e86aa65a28d62\n      0x27\n      swap2\n      codecopy\n      swap2\n      pop\n      swap2\n      pop\n      jump(tag_39)\n        /* \"contracts/TicTacToe.sol\":5216:5384  if (games[_gameId].playerOne == address(0) || games[_gameId].playerTwo == address(0)) {... */\n    tag_48:\n        /* \"contracts/TicTacToe.sol\":5394:5410  Game memory game */\n      0x00\n        /* \"contracts/TicTacToe.sol\":5413:5418  games */\n      dup1\n        /* \"contracts/TicTacToe.sol\":5413:5427  games[_gameId] */\n      0x00\n        /* \"contracts/TicTacToe.sol\":5419:5426  _gameId */\n      dup8\n        /* \"contracts/TicTacToe.sol\":5413:5427  games[_gameId] */\n      dup2\n      mstore\n      0x20\n      add\n      swap1\n      dup2\n      mstore\n      0x20\n      add\n      0x00\n      keccak256\n        /* \"contracts/TicTacToe.sol\":5394:5427  Game memory game = games[_gameId] */\n      mload(0x40)\n      dup1\n      0xa0\n      add\n      0x40\n      mstore\n      swap1\n      dup2\n      0x00\n      dup3\n      add\n      0x00\n      swap1\n      sload\n      swap1\n      0x0100\n      exp\n      swap1\n      div\n      0xffffffffffffffffffffffffffffffffffffffff\n      and\n      0xffffffffffffffffffffffffffffffffffffffff\n      and\n      0xffffffffffffffffffffffffffffffffffffffff\n      and\n      dup2\n      mstore\n      0x20\n      add\n      0x01\n      dup3\n      add\n      0x00\n      swap1\n      sload\n      swap1\n      0x0100\n      exp\n      swap1\n      div\n      0xffffffffffffffffffffffffffffffffffffffff\n      and\n      0xffffffffffffffffffffffffffffffffffffffff\n      and\n      0xffffffffffffffffffffffffffffffffffffffff\n      and\n      dup2\n      mstore\n      0x20\n      add\n      0x01\n      dup3\n      add\n      0x14\n      swap1\n      sload\n      swap1\n      0x0100\n      exp\n      swap1\n      div\n      0xff\n      and\n      0x03\n      dup2\n      gt\n      iszero\n      tag_49\n      jumpi\n      tag_50\n      tag_26\n      jump\t// in\n    tag_50:\n    tag_49:\n      0x03\n      dup2\n      gt\n      iszero\n      tag_51\n      jumpi\n      tag_52\n      tag_26\n      jump\t// in\n    tag_52:\n    tag_51:\n      dup2\n      mstore\n      0x20\n      add\n      0x01\n      dup3\n      add\n      0x15\n      swap1\n      sload\n      swap1\n      0x0100\n      exp\n      swap1\n      div\n      0xff\n      and\n      0x02\n      dup2\n      gt\n      iszero\n      tag_53\n      jumpi\n      tag_54\n      tag_26\n      jump\t// in\n    tag_54:\n    tag_53:\n      0x02\n      dup2\n      gt\n      iszero\n      tag_55\n      jumpi\n      tag_56\n      tag_26\n      jump\t// in\n    tag_56:\n    tag_55:\n      dup2\n      mstore\n      0x20\n      add\n      0x02\n      dup3\n      add\n      0x03\n      dup1\n      0x20\n      mul\n      mload(0x40)\n      swap1\n      dup2\n      add\n      0x40\n      mstore\n      dup1\n      swap3\n      swap2\n      swap1\n      0x00\n      swap1\n    tag_57:\n      dup3\n      dup3\n      lt\n      iszero\n      tag_58\n      jumpi\n      dup4\n      dup3\n      add\n      0x03\n      dup1\n      0x20\n      mul\n      mload(0x40)\n      swap1\n      dup2\n      add\n      0x40\n      mstore\n      dup1\n      swap3\n      swap2\n      swap1\n      dup3\n      0x03\n      dup1\n      iszero\n      tag_60\n      jumpi\n      0x20\n      mul\n      dup3\n      add\n      swap2\n      0x00\n      swap1\n    tag_61:\n      dup3\n      dup3\n      swap1\n      sload\n      swap1\n      0x0100\n      exp\n      swap1\n      div\n      0xff\n      and\n      0xff\n      and\n      dup2\n      mstore\n      0x20\n      add\n      swap1\n      0x01\n      add\n      swap1\n      0x20\n      dup3\n      0x00\n      add\n      div\n      swap3\n      dup4\n      add\n      swap3\n      0x01\n      sub\n      dup3\n      mul\n      swap2\n      pop\n      dup1\n      dup5\n      gt\n      tag_61\n      jumpi\n      swap1\n      pop\n    tag_60:\n      pop\n      pop\n      pop\n      pop\n      pop\n      dup2\n      mstore\n      0x20\n      add\n      swap1\n      0x01\n      add\n      swap1\n      jump(tag_57)\n    tag_58:\n      pop\n      pop\n      pop\n      pop\n      dup2\n      mstore\n      pop\n      pop\n      swap1\n      pop\n        /* \"contracts/TicTacToe.sol\":5535:5547  Winners.None */\n      0x00\n        /* \"contracts/TicTacToe.sol\":5520:5547  game.winner != Winners.None */\n      0x03\n      dup2\n      gt\n      iszero\n      tag_62\n      jumpi\n      tag_63\n      tag_26\n      jump\t// in\n    tag_63:\n    tag_62:\n        /* \"contracts/TicTacToe.sol\":5520:5524  game */\n      dup2\n        /* \"contracts/TicTacToe.sol\":5520:5531  game.winner */\n      0x40\n      add\n      mload\n        /* \"contracts/TicTacToe.sol\":5520:5547  game.winner != Winners.None */\n      0x03\n      dup2\n      gt\n      iszero\n      tag_64\n      jumpi\n      tag_65\n      tag_26\n      jump\t// in\n    tag_65:\n    tag_64:\n      eq\n        /* \"contracts/TicTacToe.sol\":5516:5619  if (game.winner != Winners.None) {... */\n      tag_66\n      jumpi\n        /* \"contracts/TicTacToe.sol\":5571:5576  false */\n      0x00\n        /* \"contracts/TicTacToe.sol\":5563:5608  return (false, \"The game has already ended.\") */\n      mload(0x40)\n      dup1\n      0x40\n      add\n      0x40\n      mstore\n      dup1\n      0x1b\n      dup2\n      mstore\n      0x20\n      add\n      0x5468652067616d652068617320616c726561647920656e6465642e0000000000\n      dup2\n      mstore\n      pop\n      swap3\n      pop\n      swap3\n      pop\n      pop\n      jump(tag_39)\n        /* \"contracts/TicTacToe.sol\":5516:5619  if (game.winner != Winners.None) {... */\n    tag_66:\n        /* \"contracts/TicTacToe.sol\":5708:5730  getCurrentPlayer(game) */\n      tag_67\n        /* \"contracts/TicTacToe.sol\":5725:5729  game */\n      dup2\n        /* \"contracts/TicTacToe.sol\":5708:5724  getCurrentPlayer */\n      tag_68\n        /* \"contracts/TicTacToe.sol\":5708:5730  getCurrentPlayer(game) */\n      jump\t// in\n    tag_67:\n        /* \"contracts/TicTacToe.sol\":5694:5730  msg.sender != getCurrentPlayer(game) */\n      0xffffffffffffffffffffffffffffffffffffffff\n      and\n        /* \"contracts/TicTacToe.sol\":5694:5704  msg.sender */\n      caller\n        /* \"contracts/TicTacToe.sol\":5694:5730  msg.sender != getCurrentPlayer(game) */\n      0xffffffffffffffffffffffffffffffffffffffff\n      and\n      eq\n        /* \"contracts/TicTacToe.sol\":5690:5870  if (msg.sender != getCurrentPlayer(game)) {... */\n      tag_69\n      jumpi\n        /* \"contracts/TicTacToe.sol\":5829:5834  false */\n      0x00\n        /* \"contracts/TicTacToe.sol\":5821:5859  return (false, \"It is not your turn.\") */\n      mload(0x40)\n      dup1\n      0x40\n      add\n      0x40\n      mstore\n      dup1\n      0x14\n      dup2\n      mstore\n      0x20\n      add\n      0x4974206973206e6f7420796f7572207475726e2e000000000000000000000000\n      dup2\n      mstore\n      pop\n      swap3\n      pop\n      swap3\n      pop\n      pop\n      jump(tag_39)\n        /* \"contracts/TicTacToe.sol\":5690:5870  if (msg.sender != getCurrentPlayer(game)) {... */\n    tag_69:\n        /* \"contracts/TicTacToe.sol\":6021:6022  1 */\n      0x01\n        /* \"contracts/TicTacToe.sol\":5979:5983  game */\n      dup2\n        /* \"contracts/TicTacToe.sol\":5979:5989  game.board */\n      0x80\n      add\n      mload\n        /* \"contracts/TicTacToe.sol\":5990:6002  _xCoordinate */\n      dup7\n        /* \"contracts/TicTacToe.sol\":5979:6003  game.board[_xCoordinate] */\n      0x03\n      dup2\n      lt\n      tag_70\n      jumpi\n      tag_71\n      tag_72\n      jump\t// in\n    tag_71:\n    tag_70:\n      0x20\n      mul\n      add\n      mload\n        /* \"contracts/TicTacToe.sol\":6004:6016  _yCoordinate */\n      dup6\n        /* \"contracts/TicTacToe.sol\":5979:6017  game.board[_xCoordinate][_yCoordinate] */\n      0x03\n      dup2\n      lt\n      tag_73\n      jumpi\n      tag_74\n      tag_72\n      jump\t// in\n    tag_74:\n    tag_73:\n      0x20\n      mul\n      add\n      mload\n        /* \"contracts/TicTacToe.sol\":5979:6022  game.board[_xCoordinate][_yCoordinate] == 1 */\n      0xff\n      and\n      eq\n        /* \"contracts/TicTacToe.sol\":5979:6069  game.board[_xCoordinate][_yCoordinate] == 1 || game.board[_xCoordinate][_yCoordinate] == 2 */\n      dup1\n      tag_75\n      jumpi\n      pop\n        /* \"contracts/TicTacToe.sol\":6068:6069  2 */\n      0x02\n        /* \"contracts/TicTacToe.sol\":6026:6030  game */\n      dup2\n        /* \"contracts/TicTacToe.sol\":6026:6036  game.board */\n      0x80\n      add\n      mload\n        /* \"contracts/TicTacToe.sol\":6037:6049  _xCoordinate */\n      dup7\n        /* \"contracts/TicTacToe.sol\":6026:6050  game.board[_xCoordinate] */\n      0x03\n      dup2\n      lt\n      tag_76\n      jumpi\n      tag_77\n      tag_72\n      jump\t// in\n    tag_77:\n    tag_76:\n      0x20\n      mul\n      add\n      mload\n        /* \"contracts/TicTacToe.sol\":6051:6063  _yCoordinate */\n      dup6\n        /* \"contracts/TicTacToe.sol\":6026:6064  game.board[_xCoordinate][_yCoordinate] */\n      0x03\n      dup2\n      lt\n      tag_78\n      jumpi\n      tag_79\n      tag_72\n      jump\t// in\n    tag_79:\n    tag_78:\n      0x20\n      mul\n      add\n      mload\n        /* \"contracts/TicTacToe.sol\":6026:6069  game.board[_xCoordinate][_yCoordinate] == 2 */\n      0xff\n      and\n      eq\n        /* \"contracts/TicTacToe.sol\":5979:6069  game.board[_xCoordinate][_yCoordinate] == 1 || game.board[_xCoordinate][_yCoordinate] == 2 */\n    tag_75:\n        /* \"contracts/TicTacToe.sol\":5975:6163  if (game.board[_xCoordinate][_yCoordinate] == 1 || game.board[_xCoordinate][_yCoordinate] == 2) {... */\n      iszero\n      tag_80\n      jumpi\n        /* \"contracts/TicTacToe.sol\":6093:6098  false */\n      0x00\n        /* \"contracts/TicTacToe.sol\":6085:6152  return (false, \"There is already a mark at the given coordinates.\") */\n      mload(0x40)\n      dup1\n      0x60\n      add\n      0x40\n      mstore\n      dup1\n      0x31\n      dup2\n      mstore\n      0x20\n      add\n      data_024d23689c7c0d36b0295c402b03cbbb30a16b10831d85b0a50598b30664ffd5\n      0x31\n      swap2\n      codecopy\n      swap3\n      pop\n      swap3\n      pop\n      pop\n      jump(tag_39)\n        /* \"contracts/TicTacToe.sol\":5975:6163  if (game.board[_xCoordinate][_yCoordinate] == 1 || game.board[_xCoordinate][_yCoordinate] == 2) {... */\n    tag_80:\n        /* \"contracts/TicTacToe.sol\":6302:6319  Players.PlayerOne */\n      0x01\n        /* \"contracts/TicTacToe.sol\":6283:6319  game.playerTurn == Players.PlayerOne */\n      0x02\n      dup2\n      gt\n      iszero\n      tag_81\n      jumpi\n      tag_82\n      tag_26\n      jump\t// in\n    tag_82:\n    tag_81:\n        /* \"contracts/TicTacToe.sol\":6283:6287  game */\n      dup2\n        /* \"contracts/TicTacToe.sol\":6283:6298  game.playerTurn */\n      0x60\n      add\n      mload\n        /* \"contracts/TicTacToe.sol\":6283:6319  game.playerTurn == Players.PlayerOne */\n      0x02\n      dup2\n      gt\n      iszero\n      tag_83\n      jumpi\n      tag_84\n      tag_26\n      jump\t// in\n    tag_84:\n    tag_83:\n      eq\n        /* \"contracts/TicTacToe.sol\":6283:6327  game.playerTurn == Players.PlayerOne ? 1 : 2 */\n      tag_85\n      jumpi\n        /* \"contracts/TicTacToe.sol\":6326:6327  2 */\n      0x02\n        /* \"contracts/TicTacToe.sol\":6283:6327  game.playerTurn == Players.PlayerOne ? 1 : 2 */\n      jump(tag_86)\n    tag_85:\n        /* \"contracts/TicTacToe.sol\":6322:6323  1 */\n      0x01\n        /* \"contracts/TicTacToe.sol\":6283:6327  game.playerTurn == Players.PlayerOne ? 1 : 2 */\n    tag_86:\n        /* \"contracts/TicTacToe.sol\":6242:6246  game */\n      dup2\n        /* \"contracts/TicTacToe.sol\":6242:6252  game.board */\n      0x80\n      add\n      mload\n        /* \"contracts/TicTacToe.sol\":6253:6265  _xCoordinate */\n      dup7\n        /* \"contracts/TicTacToe.sol\":6242:6266  game.board[_xCoordinate] */\n      0x03\n      dup2\n      lt\n      tag_87\n      jumpi\n      tag_88\n      tag_72\n      jump\t// in\n    tag_88:\n    tag_87:\n      0x20\n      mul\n      add\n      mload\n        /* \"contracts/TicTacToe.sol\":6267:6279  _yCoordinate */\n      dup6\n        /* \"contracts/TicTacToe.sol\":6242:6280  game.board[_xCoordinate][_yCoordinate] */\n      0x03\n      dup2\n      lt\n      tag_89\n      jumpi\n      tag_90\n      tag_72\n      jump\t// in\n    tag_90:\n    tag_89:\n      0x20\n      mul\n      add\n        /* \"contracts/TicTacToe.sol\":6242:6327  game.board[_xCoordinate][_yCoordinate] = game.playerTurn == Players.PlayerOne ? 1 : 2 */\n      swap1\n      0xff\n      and\n      swap1\n      dup2\n      0xff\n      and\n      dup2\n      mstore\n      pop\n      pop\n        /* \"contracts/TicTacToe.sol\":6342:6405  PlayerMadeMove(_gameId, msg.sender, _xCoordinate, _yCoordinate) */\n      0xaa03b0eb53c70f6640eba4234ad2c58782c8927e7abf7d3a6e2c45d07ca9d583\n        /* \"contracts/TicTacToe.sol\":6357:6364  _gameId */\n      dup7\n        /* \"contracts/TicTacToe.sol\":6366:6376  msg.sender */\n      caller\n        /* \"contracts/TicTacToe.sol\":6378:6390  _xCoordinate */\n      dup8\n        /* \"contracts/TicTacToe.sol\":6392:6404  _yCoordinate */\n      dup8\n        /* \"contracts/TicTacToe.sol\":6342:6405  PlayerMadeMove(_gameId, msg.sender, _xCoordinate, _yCoordinate) */\n      mload(0x40)\n      tag_91\n      swap5\n      swap4\n      swap3\n      swap2\n      swap1\n      tag_92\n      jump\t// in\n    tag_91:\n      mload(0x40)\n      dup1\n      swap2\n      sub\n      swap1\n      log1\n        /* \"contracts/TicTacToe.sol\":6483:6497  Winners winner */\n      0x00\n        /* \"contracts/TicTacToe.sol\":6500:6527  calculateWinner(game.board) */\n      tag_93\n        /* \"contracts/TicTacToe.sol\":6516:6520  game */\n      dup3\n        /* \"contracts/TicTacToe.sol\":6516:6526  game.board */\n      0x80\n      add\n      mload\n        /* \"contracts/TicTacToe.sol\":6500:6515  calculateWinner */\n      tag_94\n        /* \"contracts/TicTacToe.sol\":6500:6527  calculateWinner(game.board) */\n      jump\t// in\n    tag_93:\n        /* \"contracts/TicTacToe.sol\":6483:6527  Winners winner = calculateWinner(game.board) */\n      swap1\n      pop\n        /* \"contracts/TicTacToe.sol\":6551:6563  Winners.None */\n      0x00\n        /* \"contracts/TicTacToe.sol\":6541:6563  winner != Winners.None */\n      0x03\n      dup2\n      gt\n      iszero\n      tag_95\n      jumpi\n      tag_96\n      tag_26\n      jump\t// in\n    tag_96:\n    tag_95:\n        /* \"contracts/TicTacToe.sol\":6541:6547  winner */\n      dup2\n        /* \"contracts/TicTacToe.sol\":6541:6563  winner != Winners.None */\n      0x03\n      dup2\n      gt\n      iszero\n      tag_97\n      jumpi\n      tag_98\n      tag_26\n      jump\t// in\n    tag_98:\n    tag_97:\n      eq\n        /* \"contracts/TicTacToe.sol\":6537:6849  if (winner != Winners.None) {... */\n      tag_99\n      jumpi\n        /* \"contracts/TicTacToe.sol\":6739:6745  winner */\n      dup1\n        /* \"contracts/TicTacToe.sol\":6725:6729  game */\n      dup3\n        /* \"contracts/TicTacToe.sol\":6725:6736  game.winner */\n      0x40\n      add\n        /* \"contracts/TicTacToe.sol\":6725:6745  game.winner = winner */\n      swap1\n      0x03\n      dup2\n      gt\n      iszero\n      tag_100\n      jumpi\n      tag_101\n      tag_26\n      jump\t// in\n    tag_101:\n    tag_100:\n      swap1\n      dup2\n      0x03\n      dup2\n      gt\n      iszero\n      tag_102\n      jumpi\n      tag_103\n      tag_26\n      jump\t// in\n    tag_103:\n    tag_102:\n      dup2\n      mstore\n      pop\n      pop\n        /* \"contracts/TicTacToe.sol\":6764:6789  GameOver(_gameId, winner) */\n      0x132b564c6f96092065580fd28989d181dfbbfe4aa2fb7fb1eda8af68ba3073e0\n        /* \"contracts/TicTacToe.sol\":6773:6780  _gameId */\n      dup8\n        /* \"contracts/TicTacToe.sol\":6782:6788  winner */\n      dup3\n        /* \"contracts/TicTacToe.sol\":6764:6789  GameOver(_gameId, winner) */\n      mload(0x40)\n      tag_104\n      swap3\n      swap2\n      swap1\n      tag_105\n      jump\t// in\n    tag_104:\n      mload(0x40)\n      dup1\n      swap2\n      sub\n      swap1\n      log1\n        /* \"contracts/TicTacToe.sol\":6812:6816  true */\n      0x01\n        /* \"contracts/TicTacToe.sol\":6804:6838  return (true, \"The game is over.\") */\n      mload(0x40)\n      dup1\n      0x40\n      add\n      0x40\n      mstore\n      dup1\n      0x11\n      dup2\n      mstore\n      0x20\n      add\n      0x5468652067616d65206973206f7665722e000000000000000000000000000000\n      dup2\n      mstore\n      pop\n      swap4\n      pop\n      swap4\n      pop\n      pop\n      pop\n      jump(tag_39)\n        /* \"contracts/TicTacToe.sol\":6537:6849  if (winner != Winners.None) {... */\n    tag_99:\n        /* \"contracts/TicTacToe.sol\":6963:6979  nextPlayer(game) */\n      tag_106\n        /* \"contracts/TicTacToe.sol\":6974:6978  game */\n      dup3\n        /* \"contracts/TicTacToe.sol\":6963:6973  nextPlayer */\n      tag_107\n        /* \"contracts/TicTacToe.sol\":6963:6979  nextPlayer(game) */\n      jump\t// in\n    tag_106:\n        /* \"contracts/TicTacToe.sol\":6998:7002  true */\n      0x01\n        /* \"contracts/TicTacToe.sol\":6990:7007  return (true, \"\") */\n      mload(0x40)\n      dup1\n      0x20\n      add\n      0x40\n      mstore\n      dup1\n      0x00\n      dup2\n      mstore\n      pop\n      swap4\n      pop\n      swap4\n      pop\n      pop\n      pop\n        /* \"contracts/TicTacToe.sol\":4648:7014  function makeMove(uint256 _gameId, uint _xCoordinate, uint _yCoordinate) public returns (bool success, string memory reason) {... */\n    tag_39:\n      swap4\n      pop\n      swap4\n      swap2\n      pop\n      pop\n      jump\t// out\n        /* \"contracts/TicTacToe.sol\":2988:4528  function joinGame(uint256 _gameId) public returns (bool success, string memory reason) {... */\n    tag_19:\n        /* \"contracts/TicTacToe.sol\":3039:3051  bool success */\n      0x00\n        /* \"contracts/TicTacToe.sol\":3053:3073  string memory reason */\n      0x60\n        /* \"contracts/TicTacToe.sol\":3099:3108  nrOfGames */\n      sload(0x01)\n        /* \"contracts/TicTacToe.sol\":3089:3096  _gameId */\n      dup4\n        /* \"contracts/TicTacToe.sol\":3089:3108  _gameId > nrOfGames */\n      gt\n        /* \"contracts/TicTacToe.sol\":3085:3173  if (_gameId > nrOfGames) {... */\n      iszero\n      tag_109\n      jumpi\n        /* \"contracts/TicTacToe.sol\":3132:3137  false */\n      0x00\n        /* \"contracts/TicTacToe.sol\":3124:3162  return (false, \"No such game exists.\") */\n      mload(0x40)\n      dup1\n      0x40\n      add\n      0x40\n      mstore\n      dup1\n      0x14\n      dup2\n      mstore\n      0x20\n      add\n      0x4e6f20737563682067616d65206578697374732e000000000000000000000000\n      dup2\n      mstore\n      pop\n      swap2\n      pop\n      swap2\n      pop\n      jump(tag_108)\n        /* \"contracts/TicTacToe.sol\":3085:3173  if (_gameId > nrOfGames) {... */\n    tag_109:\n        /* \"contracts/TicTacToe.sol\":3183:3200  address newPlayer */\n      0x00\n        /* \"contracts/TicTacToe.sol\":3203:3213  msg.sender */\n      caller\n        /* \"contracts/TicTacToe.sol\":3183:3213  address newPlayer = msg.sender */\n      swap1\n      pop\n        /* \"contracts/TicTacToe.sol\":3223:3240  Game storage game */\n      0x00\n        /* \"contracts/TicTacToe.sol\":3243:3248  games */\n      dup1\n        /* \"contracts/TicTacToe.sol\":3243:3257  games[_gameId] */\n      0x00\n        /* \"contracts/TicTacToe.sol\":3249:3256  _gameId */\n      dup7\n        /* \"contracts/TicTacToe.sol\":3243:3257  games[_gameId] */\n      dup2\n      mstore\n      0x20\n      add\n      swap1\n      dup2\n      mstore\n      0x20\n      add\n      0x00\n      keccak256\n        /* \"contracts/TicTacToe.sol\":3223:3257  Game storage game = games[_gameId] */\n      swap1\n      pop\n        /* \"contracts/TicTacToe.sol\":3286:3298  Winners.None */\n      0x00\n        /* \"contracts/TicTacToe.sol\":3271:3298  game.winner != Winners.None */\n      0x03\n      dup2\n      gt\n      iszero\n      tag_110\n      jumpi\n      tag_111\n      tag_26\n      jump\t// in\n    tag_111:\n    tag_110:\n        /* \"contracts/TicTacToe.sol\":3271:3275  game */\n      dup2\n        /* \"contracts/TicTacToe.sol\":3271:3282  game.winner */\n      0x01\n      add\n      0x14\n      swap1\n      sload\n      swap1\n      0x0100\n      exp\n      swap1\n      div\n      0xff\n      and\n        /* \"contracts/TicTacToe.sol\":3271:3298  game.winner != Winners.None */\n      0x03\n      dup2\n      gt\n      iszero\n      tag_112\n      jumpi\n      tag_113\n      tag_26\n      jump\t// in\n    tag_113:\n    tag_112:\n      eq\n        /* \"contracts/TicTacToe.sol\":3268:3372  if(game.winner != Winners.None) {... */\n      tag_114\n      jumpi\n        /* \"contracts/TicTacToe.sol\":3321:3326  false */\n      0x00\n        /* \"contracts/TicTacToe.sol\":3314:3361  return(false, \"This game is already complete.\") */\n      mload(0x40)\n      dup1\n      0x40\n      add\n      0x40\n      mstore\n      dup1\n      0x1e\n      dup2\n      mstore\n      0x20\n      add\n      0x546869732067616d6520697320616c726561647920636f6d706c6574652e0000\n      dup2\n      mstore\n      pop\n      swap4\n      pop\n      swap4\n      pop\n      pop\n      pop\n      jump(tag_108)\n        /* \"contracts/TicTacToe.sol\":3268:3372  if(game.winner != Winners.None) {... */\n    tag_114:\n        /* \"contracts/TicTacToe.sol\":3481:3482  0 */\n      0x00\n        /* \"contracts/TicTacToe.sol\":3455:3483  game.playerOne == address(0) */\n      0xffffffffffffffffffffffffffffffffffffffff\n      and\n        /* \"contracts/TicTacToe.sol\":3455:3459  game */\n      dup2\n        /* \"contracts/TicTacToe.sol\":3455:3469  game.playerOne */\n      0x00\n      add\n      0x00\n      swap1\n      sload\n      swap1\n      0x0100\n      exp\n      swap1\n      div\n      0xffffffffffffffffffffffffffffffffffffffff\n      and\n        /* \"contracts/TicTacToe.sol\":3455:3483  game.playerOne == address(0) */\n      0xffffffffffffffffffffffffffffffffffffffff\n      and\n      eq\n        /* \"contracts/TicTacToe.sol\":3451:3919  if (game.playerOne == address(0)) {... */\n      iszero\n      tag_115\n      jumpi\n        /* \"contracts/TicTacToe.sol\":3516:3525  newPlayer */\n      dup2\n        /* \"contracts/TicTacToe.sol\":3499:3503  game */\n      dup2\n        /* \"contracts/TicTacToe.sol\":3499:3513  game.playerOne */\n      0x00\n      add\n      0x00\n        /* \"contracts/TicTacToe.sol\":3499:3525  game.playerOne = newPlayer */\n      0x0100\n      exp\n      dup2\n      sload\n      dup2\n      0xffffffffffffffffffffffffffffffffffffffff\n      mul\n      not\n      and\n      swap1\n      dup4\n      0xffffffffffffffffffffffffffffffffffffffff\n      and\n      mul\n      or\n      swap1\n      sstore\n      pop\n        /* \"contracts/TicTacToe.sol\":3544:3606  PlayerJoinedGame(_gameId, newPlayer, uint8(Players.PlayerOne)) */\n      0x8f5866c09e99941481e2be79d3a7698371543fe3ad3387b903553fd6043e8550\n        /* \"contracts/TicTacToe.sol\":3561:3568  _gameId */\n      dup6\n        /* \"contracts/TicTacToe.sol\":3570:3579  newPlayer */\n      dup4\n        /* \"contracts/TicTacToe.sol\":3587:3604  Players.PlayerOne */\n      0x01\n        /* \"contracts/TicTacToe.sol\":3581:3605  uint8(Players.PlayerOne) */\n      0x02\n      dup2\n      gt\n      iszero\n      tag_116\n      jumpi\n      tag_117\n      tag_26\n      jump\t// in\n    tag_117:\n    tag_116:\n        /* \"contracts/TicTacToe.sol\":3544:3606  PlayerJoinedGame(_gameId, newPlayer, uint8(Players.PlayerOne)) */\n      mload(0x40)\n      tag_118\n      swap4\n      swap3\n      swap2\n      swap1\n      tag_119\n      jump\t// in\n    tag_118:\n      mload(0x40)\n      dup1\n      swap2\n      sub\n      swap1\n      log1\n        /* \"contracts/TicTacToe.sol\":3649:3650  0 */\n      0x00\n        /* \"contracts/TicTacToe.sol\":3623:3651  game.playerTwo != address(0) */\n      0xffffffffffffffffffffffffffffffffffffffff\n      and\n        /* \"contracts/TicTacToe.sol\":3623:3627  game */\n      dup2\n        /* \"contracts/TicTacToe.sol\":3623:3637  game.playerTwo */\n      0x01\n      add\n      0x00\n      swap1\n      sload\n      swap1\n      0x0100\n      exp\n      swap1\n      div\n      0xffffffffffffffffffffffffffffffffffffffff\n      and\n        /* \"contracts/TicTacToe.sol\":3623:3651  game.playerTwo != address(0) */\n      0xffffffffffffffffffffffffffffffffffffffff\n      and\n      eq\n        /* \"contracts/TicTacToe.sol\":3620:3833  if(game.playerTwo != address(0)) {... */\n      tag_120\n      jumpi\n        /* \"contracts/TicTacToe.sol\":3689:3706  Players.PlayerOne */\n      0x01\n        /* \"contracts/TicTacToe.sol\":3671:3675  game */\n      dup2\n        /* \"contracts/TicTacToe.sol\":3671:3686  game.playerTurn */\n      0x01\n      add\n      0x15\n        /* \"contracts/TicTacToe.sol\":3671:3706  game.playerTurn = Players.PlayerOne */\n      0x0100\n      exp\n      dup2\n      sload\n      dup2\n      0xff\n      mul\n      not\n      and\n      swap1\n      dup4\n      0x02\n      dup2\n      gt\n      iszero\n      tag_121\n      jumpi\n      tag_122\n      tag_26\n      jump\t// in\n    tag_122:\n    tag_121:\n      mul\n      or\n      swap1\n      sstore\n      pop\n        /* \"contracts/TicTacToe.sol\":3731:3735  true */\n      0x01\n        /* \"contracts/TicTacToe.sol\":3724:3818  return(true, \"Joined as player 1. Player 2 already exists. Player 1 can make the first move.\") */\n      mload(0x40)\n      dup1\n      0x80\n      add\n      0x40\n      mstore\n      dup1\n      0x4e\n      dup2\n      mstore\n      0x20\n      add\n      data_2307c6cecb6cdd4358fafc00b91c477d19bbf696b7e2882ab8bda9a452fbe182\n      0x4e\n      swap2\n      codecopy\n      swap4\n      pop\n      swap4\n      pop\n      pop\n      pop\n      jump(tag_108)\n        /* \"contracts/TicTacToe.sol\":3620:3833  if(game.playerTwo != address(0)) {... */\n    tag_120:\n        /* \"contracts/TicTacToe.sol\":3855:3859  true */\n      0x01\n        /* \"contracts/TicTacToe.sol\":3847:3908  return (true, \"Joined as player 1. Game hasn't started yet.\") */\n      mload(0x40)\n      dup1\n      0x60\n      add\n      0x40\n      mstore\n      dup1\n      0x2c\n      dup2\n      mstore\n      0x20\n      add\n      data_1dec2345cf2c9904d4bfc97b685b7aceb7535b3c20b581cfcd1a8aad6e3c0022\n      0x2c\n      swap2\n      codecopy\n      swap4\n      pop\n      swap4\n      pop\n      pop\n      pop\n      jump(tag_108)\n        /* \"contracts/TicTacToe.sol\":3451:3919  if (game.playerOne == address(0)) {... */\n    tag_115:\n        /* \"contracts/TicTacToe.sol\":4048:4049  0 */\n      0x00\n        /* \"contracts/TicTacToe.sol\":4022:4050  game.playerTwo == address(0) */\n      0xffffffffffffffffffffffffffffffffffffffff\n      and\n        /* \"contracts/TicTacToe.sol\":4022:4026  game */\n      dup2\n        /* \"contracts/TicTacToe.sol\":4022:4036  game.playerTwo */\n      0x01\n      add\n      0x00\n      swap1\n      sload\n      swap1\n      0x0100\n      exp\n      swap1\n      div\n      0xffffffffffffffffffffffffffffffffffffffff\n      and\n        /* \"contracts/TicTacToe.sol\":4022:4050  game.playerTwo == address(0) */\n      0xffffffffffffffffffffffffffffffffffffffff\n      and\n      eq\n        /* \"contracts/TicTacToe.sol\":4018:4461  if (game.playerTwo == address(0)) {... */\n      iszero\n      tag_123\n      jumpi\n        /* \"contracts/TicTacToe.sol\":4083:4092  newPlayer */\n      dup2\n        /* \"contracts/TicTacToe.sol\":4066:4070  game */\n      dup2\n        /* \"contracts/TicTacToe.sol\":4066:4080  game.playerTwo */\n      0x01\n      add\n      0x00\n        /* \"contracts/TicTacToe.sol\":4066:4092  game.playerTwo = newPlayer */\n      0x0100\n      exp\n      dup2\n      sload\n      dup2\n      0xffffffffffffffffffffffffffffffffffffffff\n      mul\n      not\n      and\n      swap1\n      dup4\n      0xffffffffffffffffffffffffffffffffffffffff\n      and\n      mul\n      or\n      swap1\n      sstore\n      pop\n        /* \"contracts/TicTacToe.sol\":4111:4173  PlayerJoinedGame(_gameId, newPlayer, uint8(Players.PlayerTwo)) */\n      0x8f5866c09e99941481e2be79d3a7698371543fe3ad3387b903553fd6043e8550\n        /* \"contracts/TicTacToe.sol\":4128:4135  _gameId */\n      dup6\n        /* \"contracts/TicTacToe.sol\":4137:4146  newPlayer */\n      dup4\n        /* \"contracts/TicTacToe.sol\":4154:4171  Players.PlayerTwo */\n      0x02\n        /* \"contracts/TicTacToe.sol\":4148:4172  uint8(Players.PlayerTwo) */\n      dup1\n      dup2\n      gt\n      iszero\n      tag_124\n      jumpi\n      tag_125\n      tag_26\n      jump\t// in\n    tag_125:\n    tag_124:\n        /* \"contracts/TicTacToe.sol\":4111:4173  PlayerJoinedGame(_gameId, newPlayer, uint8(Players.PlayerTwo)) */\n      mload(0x40)\n      tag_126\n      swap4\n      swap3\n      swap2\n      swap1\n      tag_119\n      jump\t// in\n    tag_126:\n      mload(0x40)\n      dup1\n      swap2\n      sub\n      swap1\n      log1\n        /* \"contracts/TicTacToe.sol\":4216:4217  0 */\n      0x00\n        /* \"contracts/TicTacToe.sol\":4190:4218  game.playerOne != address(0) */\n      0xffffffffffffffffffffffffffffffffffffffff\n      and\n        /* \"contracts/TicTacToe.sol\":4190:4194  game */\n      dup2\n        /* \"contracts/TicTacToe.sol\":4190:4204  game.playerOne */\n      0x00\n      add\n      0x00\n      swap1\n      sload\n      swap1\n      0x0100\n      exp\n      swap1\n      div\n      0xffffffffffffffffffffffffffffffffffffffff\n      and\n        /* \"contracts/TicTacToe.sol\":4190:4218  game.playerOne != address(0) */\n      0xffffffffffffffffffffffffffffffffffffffff\n      and\n      eq\n        /* \"contracts/TicTacToe.sol\":4187:4376  if(game.playerOne != address(0)) { ... */\n      tag_127\n      jumpi\n        /* \"contracts/TicTacToe.sol\":4257:4274  Players.PlayerOne */\n      0x01\n        /* \"contracts/TicTacToe.sol\":4239:4243  game */\n      dup2\n        /* \"contracts/TicTacToe.sol\":4239:4254  game.playerTurn */\n      0x01\n      add\n      0x15\n        /* \"contracts/TicTacToe.sol\":4239:4274  game.playerTurn = Players.PlayerOne */\n      0x0100\n      exp\n      dup2\n      sload\n      dup2\n      0xff\n      mul\n      not\n      and\n      swap1\n      dup4\n      0x02\n      dup2\n      gt\n      iszero\n      tag_128\n      jumpi\n      tag_129\n      tag_26\n      jump\t// in\n    tag_129:\n    tag_128:\n      mul\n      or\n      swap1\n      sstore\n      pop\n        /* \"contracts/TicTacToe.sol\":4299:4303  true */\n      0x01\n        /* \"contracts/TicTacToe.sol\":4292:4361  return(true, \"Joined as player 2. Player 1 can make the first move.\") */\n      mload(0x40)\n      dup1\n      0x60\n      add\n      0x40\n      mstore\n      dup1\n      0x35\n      dup2\n      mstore\n      0x20\n      add\n      data_476d10d052133a3cad173f786601a80ea3fb2cf99f87880757d5b4e323ffaa9b\n      0x35\n      swap2\n      codecopy\n      swap4\n      pop\n      swap4\n      pop\n      pop\n      pop\n      jump(tag_108)\n        /* \"contracts/TicTacToe.sol\":4187:4376  if(game.playerOne != address(0)) { ... */\n    tag_127:\n        /* \"contracts/TicTacToe.sol\":4397:4401  true */\n      0x01\n        /* \"contracts/TicTacToe.sol\":4389:4450  return (true, \"Joined as player 2. Game hasn't started yet.\") */\n      mload(0x40)\n      dup1\n      0x60\n      add\n      0x40\n      mstore\n      dup1\n      0x2c\n      dup2\n      mstore\n      0x20\n      add\n      data_54a12ab040607f091841913999c9806ab3bf0ebbc1cf1cdac8686e31b8bf9155\n      0x2c\n      swap2\n      codecopy\n      swap4\n      pop\n      swap4\n      pop\n      pop\n      pop\n      jump(tag_108)\n        /* \"contracts/TicTacToe.sol\":4018:4461  if (game.playerTwo == address(0)) {... */\n    tag_123:\n        /* \"contracts/TicTacToe.sol\":4479:4484  false */\n      0x00\n        /* \"contracts/TicTacToe.sol\":4471:4521  return (false, \"This game already has 2 players.\") */\n      mload(0x40)\n      dup1\n      0x40\n      add\n      0x40\n      mstore\n      dup1\n      0x20\n      dup2\n      mstore\n      0x20\n      add\n      0x546869732067616d6520616c726561647920686173203220706c61796572732e\n      dup2\n      mstore\n      pop\n      swap4\n      pop\n      swap4\n      pop\n      pop\n      pop\n        /* \"contracts/TicTacToe.sol\":2988:4528  function joinGame(uint256 _gameId) public returns (bool success, string memory reason) {... */\n    tag_108:\n      swap2\n      pop\n      swap2\n      jump\t// out\n        /* \"contracts/TicTacToe.sol\":7170:7487  function getCurrentPlayer(Game memory _game) private pure returns (address player) {... */\n    tag_68:\n        /* \"contracts/TicTacToe.sol\":7237:7251  address player */\n      0x00\n        /* \"contracts/TicTacToe.sol\":7287:7304  Players.PlayerOne */\n      0x01\n        /* \"contracts/TicTacToe.sol\":7267:7304  _game.playerTurn == Players.PlayerOne */\n      0x02\n      dup2\n      gt\n      iszero\n      tag_131\n      jumpi\n      tag_132\n      tag_26\n      jump\t// in\n    tag_132:\n    tag_131:\n        /* \"contracts/TicTacToe.sol\":7267:7272  _game */\n      dup3\n        /* \"contracts/TicTacToe.sol\":7267:7283  _game.playerTurn */\n      0x60\n      add\n      mload\n        /* \"contracts/TicTacToe.sol\":7267:7304  _game.playerTurn == Players.PlayerOne */\n      0x02\n      dup2\n      gt\n      iszero\n      tag_133\n      jumpi\n      tag_134\n      tag_26\n      jump\t// in\n    tag_134:\n    tag_133:\n      eq\n        /* \"contracts/TicTacToe.sol\":7263:7353  if (_game.playerTurn == Players.PlayerOne) {... */\n      iszero\n      tag_135\n      jumpi\n        /* \"contracts/TicTacToe.sol\":7327:7332  _game */\n      dup2\n        /* \"contracts/TicTacToe.sol\":7327:7342  _game.playerOne */\n      0x00\n      add\n      mload\n        /* \"contracts/TicTacToe.sol\":7320:7342  return _game.playerOne */\n      swap1\n      pop\n      jump(tag_130)\n        /* \"contracts/TicTacToe.sol\":7263:7353  if (_game.playerTurn == Players.PlayerOne) {... */\n    tag_135:\n        /* \"contracts/TicTacToe.sol\":7387:7404  Players.PlayerTwo */\n      0x02\n        /* \"contracts/TicTacToe.sol\":7367:7404  _game.playerTurn == Players.PlayerTwo */\n      dup1\n      dup2\n      gt\n      iszero\n      tag_136\n      jumpi\n      tag_137\n      tag_26\n      jump\t// in\n    tag_137:\n    tag_136:\n        /* \"contracts/TicTacToe.sol\":7367:7372  _game */\n      dup3\n        /* \"contracts/TicTacToe.sol\":7367:7383  _game.playerTurn */\n      0x60\n      add\n      mload\n        /* \"contracts/TicTacToe.sol\":7367:7404  _game.playerTurn == Players.PlayerTwo */\n      0x02\n      dup2\n      gt\n      iszero\n      tag_138\n      jumpi\n      tag_139\n      tag_26\n      jump\t// in\n    tag_139:\n    tag_138:\n      eq\n        /* \"contracts/TicTacToe.sol\":7363:7453  if (_game.playerTurn == Players.PlayerTwo) {... */\n      iszero\n      tag_140\n      jumpi\n        /* \"contracts/TicTacToe.sol\":7427:7432  _game */\n      dup2\n        /* \"contracts/TicTacToe.sol\":7427:7442  _game.playerTwo */\n      0x20\n      add\n      mload\n        /* \"contracts/TicTacToe.sol\":7420:7442  return _game.playerTwo */\n      swap1\n      pop\n      jump(tag_130)\n        /* \"contracts/TicTacToe.sol\":7363:7453  if (_game.playerTurn == Players.PlayerTwo) {... */\n    tag_140:\n        /* \"contracts/TicTacToe.sol\":7478:7479  0 */\n      0x00\n        /* \"contracts/TicTacToe.sol\":7463:7480  return address(0) */\n      swap1\n      pop\n        /* \"contracts/TicTacToe.sol\":7170:7487  function getCurrentPlayer(Game memory _game) private pure returns (address player) {... */\n    tag_130:\n      swap2\n      swap1\n      pop\n      jump\t// out\n        /* \"contracts/TicTacToe.sol\":7642:8848  function calculateWinner(uint8[3][3] memory _board) private pure returns (Winners winner) {... */\n    tag_94:\n        /* \"contracts/TicTacToe.sol\":7716:7730  Winners winner */\n      0x00\n        /* \"contracts/TicTacToe.sol\":7938:7952  Players player */\n      dup1\n        /* \"contracts/TicTacToe.sol\":7955:7974  winnerInRow(_board) */\n      tag_142\n        /* \"contracts/TicTacToe.sol\":7967:7973  _board */\n      dup4\n        /* \"contracts/TicTacToe.sol\":7955:7966  winnerInRow */\n      tag_143\n        /* \"contracts/TicTacToe.sol\":7955:7974  winnerInRow(_board) */\n      jump\t// in\n    tag_142:\n        /* \"contracts/TicTacToe.sol\":7938:7974  Players player = winnerInRow(_board) */\n      swap1\n      pop\n        /* \"contracts/TicTacToe.sol\":7998:8015  Players.PlayerOne */\n      0x01\n        /* \"contracts/TicTacToe.sol\":7988:8015  player == Players.PlayerOne */\n      0x02\n      dup2\n      gt\n      iszero\n      tag_144\n      jumpi\n      tag_145\n      tag_26\n      jump\t// in\n    tag_145:\n    tag_144:\n        /* \"contracts/TicTacToe.sol\":7988:7994  player */\n      dup2\n        /* \"contracts/TicTacToe.sol\":7988:8015  player == Players.PlayerOne */\n      0x02\n      dup2\n      gt\n      iszero\n      tag_146\n      jumpi\n      tag_147\n      tag_26\n      jump\t// in\n    tag_147:\n    tag_146:\n      eq\n        /* \"contracts/TicTacToe.sol\":7984:8066  if (player == Players.PlayerOne) {... */\n      iszero\n      tag_148\n      jumpi\n        /* \"contracts/TicTacToe.sol\":8038:8055  Winners.PlayerOne */\n      0x01\n        /* \"contracts/TicTacToe.sol\":8031:8055  return Winners.PlayerOne */\n      swap2\n      pop\n      pop\n      jump(tag_141)\n        /* \"contracts/TicTacToe.sol\":7984:8066  if (player == Players.PlayerOne) {... */\n    tag_148:\n        /* \"contracts/TicTacToe.sol\":8089:8106  Players.PlayerTwo */\n      0x02\n        /* \"contracts/TicTacToe.sol\":8079:8106  player == Players.PlayerTwo */\n      dup1\n      dup2\n      gt\n      iszero\n      tag_149\n      jumpi\n      tag_150\n      tag_26\n      jump\t// in\n    tag_150:\n    tag_149:\n        /* \"contracts/TicTacToe.sol\":8079:8085  player */\n      dup2\n        /* \"contracts/TicTacToe.sol\":8079:8106  player == Players.PlayerTwo */\n      0x02\n      dup2\n      gt\n      iszero\n      tag_151\n      jumpi\n      tag_152\n      tag_26\n      jump\t// in\n    tag_152:\n    tag_151:\n      eq\n        /* \"contracts/TicTacToe.sol\":8075:8157  if (player == Players.PlayerTwo) {... */\n      iszero\n      tag_153\n      jumpi\n        /* \"contracts/TicTacToe.sol\":8129:8146  Winners.PlayerTwo */\n      0x02\n        /* \"contracts/TicTacToe.sol\":8122:8146  return Winners.PlayerTwo */\n      swap2\n      pop\n      pop\n      jump(tag_141)\n        /* \"contracts/TicTacToe.sol\":8075:8157  if (player == Players.PlayerTwo) {... */\n    tag_153:\n        /* \"contracts/TicTacToe.sol\":8200:8222  winnerInColumn(_board) */\n      tag_154\n        /* \"contracts/TicTacToe.sol\":8215:8221  _board */\n      dup4\n        /* \"contracts/TicTacToe.sol\":8200:8214  winnerInColumn */\n      tag_155\n        /* \"contracts/TicTacToe.sol\":8200:8222  winnerInColumn(_board) */\n      jump\t// in\n    tag_154:\n        /* \"contracts/TicTacToe.sol\":8191:8222  player = winnerInColumn(_board) */\n      swap1\n      pop\n        /* \"contracts/TicTacToe.sol\":8246:8263  Players.PlayerOne */\n      0x01\n        /* \"contracts/TicTacToe.sol\":8236:8263  player == Players.PlayerOne */\n      0x02\n      dup2\n      gt\n      iszero\n      tag_156\n      jumpi\n      tag_157\n      tag_26\n      jump\t// in\n    tag_157:\n    tag_156:\n        /* \"contracts/TicTacToe.sol\":8236:8242  player */\n      dup2\n        /* \"contracts/TicTacToe.sol\":8236:8263  player == Players.PlayerOne */\n      0x02\n      dup2\n      gt\n      iszero\n      tag_158\n      jumpi\n      tag_159\n      tag_26\n      jump\t// in\n    tag_159:\n    tag_158:\n      eq\n        /* \"contracts/TicTacToe.sol\":8232:8314  if (player == Players.PlayerOne) {... */\n      iszero\n      tag_160\n      jumpi\n        /* \"contracts/TicTacToe.sol\":8286:8303  Winners.PlayerOne */\n      0x01\n        /* \"contracts/TicTacToe.sol\":8279:8303  return Winners.PlayerOne */\n      swap2\n      pop\n      pop\n      jump(tag_141)\n        /* \"contracts/TicTacToe.sol\":8232:8314  if (player == Players.PlayerOne) {... */\n    tag_160:\n        /* \"contracts/TicTacToe.sol\":8337:8354  Players.PlayerTwo */\n      0x02\n        /* \"contracts/TicTacToe.sol\":8327:8354  player == Players.PlayerTwo */\n      dup1\n      dup2\n      gt\n      iszero\n      tag_161\n      jumpi\n      tag_162\n      tag_26\n      jump\t// in\n    tag_162:\n    tag_161:\n        /* \"contracts/TicTacToe.sol\":8327:8333  player */\n      dup2\n        /* \"contracts/TicTacToe.sol\":8327:8354  player == Players.PlayerTwo */\n      0x02\n      dup2\n      gt\n      iszero\n      tag_163\n      jumpi\n      tag_164\n      tag_26\n      jump\t// in\n    tag_164:\n    tag_163:\n      eq\n        /* \"contracts/TicTacToe.sol\":8323:8405  if (player == Players.PlayerTwo) {... */\n      iszero\n      tag_165\n      jumpi\n        /* \"contracts/TicTacToe.sol\":8377:8394  Winners.PlayerTwo */\n      0x02\n        /* \"contracts/TicTacToe.sol\":8370:8394  return Winners.PlayerTwo */\n      swap2\n      pop\n      pop\n      jump(tag_141)\n        /* \"contracts/TicTacToe.sol\":8323:8405  if (player == Players.PlayerTwo) {... */\n    tag_165:\n        /* \"contracts/TicTacToe.sol\":8450:8474  winnerInDiagonal(_board) */\n      tag_166\n        /* \"contracts/TicTacToe.sol\":8467:8473  _board */\n      dup4\n        /* \"contracts/TicTacToe.sol\":8450:8466  winnerInDiagonal */\n      tag_167\n        /* \"contracts/TicTacToe.sol\":8450:8474  winnerInDiagonal(_board) */\n      jump\t// in\n    tag_166:\n        /* \"contracts/TicTacToe.sol\":8441:8474  player = winnerInDiagonal(_board) */\n      swap1\n      pop\n        /* \"contracts/TicTacToe.sol\":8498:8515  Players.PlayerOne */\n      0x01\n        /* \"contracts/TicTacToe.sol\":8488:8515  player == Players.PlayerOne */\n      0x02\n      dup2\n      gt\n      iszero\n      tag_168\n      jumpi\n      tag_169\n      tag_26\n      jump\t// in\n    tag_169:\n    tag_168:\n        /* \"contracts/TicTacToe.sol\":8488:8494  player */\n      dup2\n        /* \"contracts/TicTacToe.sol\":8488:8515  player == Players.PlayerOne */\n      0x02\n      dup2\n      gt\n      iszero\n      tag_170\n      jumpi\n      tag_171\n      tag_26\n      jump\t// in\n    tag_171:\n    tag_170:\n      eq\n        /* \"contracts/TicTacToe.sol\":8484:8566  if (player == Players.PlayerOne) {... */\n      iszero\n      tag_172\n      jumpi\n        /* \"contracts/TicTacToe.sol\":8538:8555  Winners.PlayerOne */\n      0x01\n        /* \"contracts/TicTacToe.sol\":8531:8555  return Winners.PlayerOne */\n      swap2\n      pop\n      pop\n      jump(tag_141)\n        /* \"contracts/TicTacToe.sol\":8484:8566  if (player == Players.PlayerOne) {... */\n    tag_172:\n        /* \"contracts/TicTacToe.sol\":8589:8606  Players.PlayerTwo */\n      0x02\n        /* \"contracts/TicTacToe.sol\":8579:8606  player == Players.PlayerTwo */\n      dup1\n      dup2\n      gt\n      iszero\n      tag_173\n      jumpi\n      tag_174\n      tag_26\n      jump\t// in\n    tag_174:\n    tag_173:\n        /* \"contracts/TicTacToe.sol\":8579:8585  player */\n      dup2\n        /* \"contracts/TicTacToe.sol\":8579:8606  player == Players.PlayerTwo */\n      0x02\n      dup2\n      gt\n      iszero\n      tag_175\n      jumpi\n      tag_176\n      tag_26\n      jump\t// in\n    tag_176:\n    tag_175:\n      eq\n        /* \"contracts/TicTacToe.sol\":8575:8657  if (player == Players.PlayerTwo) {... */\n      iszero\n      tag_177\n      jumpi\n        /* \"contracts/TicTacToe.sol\":8629:8646  Winners.PlayerTwo */\n      0x02\n        /* \"contracts/TicTacToe.sol\":8622:8646  return Winners.PlayerTwo */\n      swap2\n      pop\n      pop\n      jump(tag_141)\n        /* \"contracts/TicTacToe.sol\":8575:8657  if (player == Players.PlayerTwo) {... */\n    tag_177:\n        /* \"contracts/TicTacToe.sol\":8747:8766  isBoardFull(_board) */\n      tag_178\n        /* \"contracts/TicTacToe.sol\":8759:8765  _board */\n      dup4\n        /* \"contracts/TicTacToe.sol\":8747:8758  isBoardFull */\n      tag_179\n        /* \"contracts/TicTacToe.sol\":8747:8766  isBoardFull(_board) */\n      jump\t// in\n    tag_178:\n        /* \"contracts/TicTacToe.sol\":8743:8812  if (isBoardFull(_board)) {... */\n      iszero\n      tag_180\n      jumpi\n        /* \"contracts/TicTacToe.sol\":8789:8801  Winners.Draw */\n      0x03\n        /* \"contracts/TicTacToe.sol\":8782:8801  return Winners.Draw */\n      swap2\n      pop\n      pop\n      jump(tag_141)\n        /* \"contracts/TicTacToe.sol\":8743:8812  if (isBoardFull(_board)) {... */\n    tag_180:\n        /* \"contracts/TicTacToe.sol\":8829:8841  Winners.None */\n      0x00\n        /* \"contracts/TicTacToe.sol\":8822:8841  return Winners.None */\n      swap2\n      pop\n      pop\n        /* \"contracts/TicTacToe.sol\":7642:8848  function calculateWinner(uint8[3][3] memory _board) private pure returns (Winners winner) {... */\n    tag_141:\n      swap2\n      swap1\n      pop\n      jump\t// out\n        /* \"contracts/TicTacToe.sol\":11536:11775  function nextPlayer(Game memory _game) private pure {... */\n    tag_107:\n        /* \"contracts/TicTacToe.sol\":11622:11639  Players.PlayerOne */\n      0x01\n        /* \"contracts/TicTacToe.sol\":11602:11639  _game.playerTurn == Players.PlayerOne */\n      0x02\n      dup2\n      gt\n      iszero\n      tag_182\n      jumpi\n      tag_183\n      tag_26\n      jump\t// in\n    tag_183:\n    tag_182:\n        /* \"contracts/TicTacToe.sol\":11602:11607  _game */\n      dup2\n        /* \"contracts/TicTacToe.sol\":11602:11618  _game.playerTurn */\n      0x60\n      add\n      mload\n        /* \"contracts/TicTacToe.sol\":11602:11639  _game.playerTurn == Players.PlayerOne */\n      0x02\n      dup2\n      gt\n      iszero\n      tag_184\n      jumpi\n      tag_185\n      tag_26\n      jump\t// in\n    tag_185:\n    tag_184:\n      eq\n        /* \"contracts/TicTacToe.sol\":11598:11769  if (_game.playerTurn == Players.PlayerOne) {... */\n      iszero\n      tag_186\n      jumpi\n        /* \"contracts/TicTacToe.sol\":11674:11691  Players.PlayerTwo */\n      0x02\n        /* \"contracts/TicTacToe.sol\":11655:11660  _game */\n      dup2\n        /* \"contracts/TicTacToe.sol\":11655:11671  _game.playerTurn */\n      0x60\n      add\n        /* \"contracts/TicTacToe.sol\":11655:11691  _game.playerTurn = Players.PlayerTwo */\n      swap1\n      0x02\n      dup2\n      gt\n      iszero\n      tag_187\n      jumpi\n      tag_188\n      tag_26\n      jump\t// in\n    tag_188:\n    tag_187:\n      swap1\n      dup2\n      0x02\n      dup2\n      gt\n      iszero\n      tag_189\n      jumpi\n      tag_190\n      tag_26\n      jump\t// in\n    tag_190:\n    tag_189:\n      dup2\n      mstore\n      pop\n      pop\n        /* \"contracts/TicTacToe.sol\":11598:11769  if (_game.playerTurn == Players.PlayerOne) {... */\n      jump(tag_191)\n    tag_186:\n        /* \"contracts/TicTacToe.sol\":11741:11758  Players.PlayerOne */\n      0x01\n        /* \"contracts/TicTacToe.sol\":11722:11727  _game */\n      dup2\n        /* \"contracts/TicTacToe.sol\":11722:11738  _game.playerTurn */\n      0x60\n      add\n        /* \"contracts/TicTacToe.sol\":11722:11758  _game.playerTurn = Players.PlayerOne */\n      swap1\n      0x02\n      dup2\n      gt\n      iszero\n      tag_192\n      jumpi\n      tag_193\n      tag_26\n      jump\t// in\n    tag_193:\n    tag_192:\n      swap1\n      dup2\n      0x02\n      dup2\n      gt\n      iszero\n      tag_194\n      jumpi\n      tag_195\n      tag_26\n      jump\t// in\n    tag_195:\n    tag_194:\n      dup2\n      mstore\n      pop\n      pop\n        /* \"contracts/TicTacToe.sol\":11598:11769  if (_game.playerTurn == Players.PlayerOne) {... */\n    tag_191:\n        /* \"contracts/TicTacToe.sol\":11536:11775  function nextPlayer(Game memory _game) private pure {... */\n      pop\n      jump\t// out\n        /* \"contracts/TicTacToe.sol\":9044:9501  function winnerInRow(uint8[3][3] memory _board) private pure returns (Players winner) {... */\n    tag_143:\n        /* \"contracts/TicTacToe.sol\":9114:9128  Players winner */\n      0x00\n        /* \"contracts/TicTacToe.sol\":9145:9152  uint8 x */\n      dup1\n        /* \"contracts/TicTacToe.sol\":9155:9156  0 */\n      0x00\n        /* \"contracts/TicTacToe.sol\":9145:9156  uint8 x = 0 */\n      swap1\n      pop\n        /* \"contracts/TicTacToe.sol\":9140:9465  for (uint8 x = 0; x < 3; x++) {... */\n    tag_197:\n        /* \"contracts/TicTacToe.sol\":9162:9163  3 */\n      0x03\n        /* \"contracts/TicTacToe.sol\":9158:9159  x */\n      dup2\n        /* \"contracts/TicTacToe.sol\":9158:9163  x < 3 */\n      0xff\n      and\n      lt\n        /* \"contracts/TicTacToe.sol\":9140:9465  for (uint8 x = 0; x < 3; x++) {... */\n      iszero\n      tag_198\n      jumpi\n        /* \"contracts/TicTacToe.sol\":9222:9223  1 */\n      0x01\n        /* \"contracts/TicTacToe.sol\":9206:9212  _board */\n      dup4\n        /* \"contracts/TicTacToe.sol\":9213:9214  x */\n      dup3\n        /* \"contracts/TicTacToe.sol\":9206:9215  _board[x] */\n      0xff\n      and\n      0x03\n      dup2\n      lt\n      tag_200\n      jumpi\n      tag_201\n      tag_72\n      jump\t// in\n    tag_201:\n    tag_200:\n      0x20\n      mul\n      add\n      mload\n        /* \"contracts/TicTacToe.sol\":9216:9217  0 */\n      0x00\n        /* \"contracts/TicTacToe.sol\":9206:9218  _board[x][0] */\n      0x03\n      dup2\n      lt\n      tag_202\n      jumpi\n      tag_203\n      tag_72\n      jump\t// in\n    tag_203:\n    tag_202:\n      0x20\n      mul\n      add\n      mload\n        /* \"contracts/TicTacToe.sol\":9206:9223  _board[x][0] == 1 */\n      0xff\n      and\n      eq\n        /* \"contracts/TicTacToe.sol\":9206:9244  _board[x][0] == 1 || _board[x][0] == 2 */\n      dup1\n      tag_204\n      jumpi\n      pop\n        /* \"contracts/TicTacToe.sol\":9243:9244  2 */\n      0x02\n        /* \"contracts/TicTacToe.sol\":9227:9233  _board */\n      dup4\n        /* \"contracts/TicTacToe.sol\":9234:9235  x */\n      dup3\n        /* \"contracts/TicTacToe.sol\":9227:9236  _board[x] */\n      0xff\n      and\n      0x03\n      dup2\n      lt\n      tag_205\n      jumpi\n      tag_206\n      tag_72\n      jump\t// in\n    tag_206:\n    tag_205:\n      0x20\n      mul\n      add\n      mload\n        /* \"contracts/TicTacToe.sol\":9237:9238  0 */\n      0x00\n        /* \"contracts/TicTacToe.sol\":9227:9239  _board[x][0] */\n      0x03\n      dup2\n      lt\n      tag_207\n      jumpi\n      tag_208\n      tag_72\n      jump\t// in\n    tag_208:\n    tag_207:\n      0x20\n      mul\n      add\n      mload\n        /* \"contracts/TicTacToe.sol\":9227:9244  _board[x][0] == 2 */\n      0xff\n      and\n      eq\n        /* \"contracts/TicTacToe.sol\":9206:9244  _board[x][0] == 1 || _board[x][0] == 2 */\n    tag_204:\n        /* \"contracts/TicTacToe.sol\":9205:9294  (_board[x][0] == 1 || _board[x][0] == 2) ... */\n      dup1\n      iszero\n      tag_209\n      jumpi\n      pop\n        /* \"contracts/TicTacToe.sol\":9282:9288  _board */\n      dup3\n        /* \"contracts/TicTacToe.sol\":9289:9290  x */\n      dup2\n        /* \"contracts/TicTacToe.sol\":9282:9291  _board[x] */\n      0xff\n      and\n      0x03\n      dup2\n      lt\n      tag_210\n      jumpi\n      tag_211\n      tag_72\n      jump\t// in\n    tag_211:\n    tag_210:\n      0x20\n      mul\n      add\n      mload\n        /* \"contracts/TicTacToe.sol\":9292:9293  1 */\n      0x01\n        /* \"contracts/TicTacToe.sol\":9282:9294  _board[x][1] */\n      0x03\n      dup2\n      lt\n      tag_212\n      jumpi\n      tag_213\n      tag_72\n      jump\t// in\n    tag_213:\n    tag_212:\n      0x20\n      mul\n      add\n      mload\n        /* \"contracts/TicTacToe.sol\":9266:9294  _board[x][0] == _board[x][1] */\n      0xff\n      and\n        /* \"contracts/TicTacToe.sol\":9266:9272  _board */\n      dup4\n        /* \"contracts/TicTacToe.sol\":9273:9274  x */\n      dup3\n        /* \"contracts/TicTacToe.sol\":9266:9275  _board[x] */\n      0xff\n      and\n      0x03\n      dup2\n      lt\n      tag_214\n      jumpi\n      tag_215\n      tag_72\n      jump\t// in\n    tag_215:\n    tag_214:\n      0x20\n      mul\n      add\n      mload\n        /* \"contracts/TicTacToe.sol\":9276:9277  0 */\n      0x00\n        /* \"contracts/TicTacToe.sol\":9266:9278  _board[x][0] */\n      0x03\n      dup2\n      lt\n      tag_216\n      jumpi\n      tag_217\n      tag_72\n      jump\t// in\n    tag_217:\n    tag_216:\n      0x20\n      mul\n      add\n      mload\n        /* \"contracts/TicTacToe.sol\":9266:9294  _board[x][0] == _board[x][1] */\n      0xff\n      and\n      eq\n        /* \"contracts/TicTacToe.sol\":9205:9294  (_board[x][0] == 1 || _board[x][0] == 2) ... */\n    tag_209:\n        /* \"contracts/TicTacToe.sol\":9205:9343  (_board[x][0] == 1 || _board[x][0] == 2) ... */\n      dup1\n      iszero\n      tag_218\n      jumpi\n      pop\n        /* \"contracts/TicTacToe.sol\":9331:9337  _board */\n      dup3\n        /* \"contracts/TicTacToe.sol\":9338:9339  x */\n      dup2\n        /* \"contracts/TicTacToe.sol\":9331:9340  _board[x] */\n      0xff\n      and\n      0x03\n      dup2\n      lt\n      tag_219\n      jumpi\n      tag_220\n      tag_72\n      jump\t// in\n    tag_220:\n    tag_219:\n      0x20\n      mul\n      add\n      mload\n        /* \"contracts/TicTacToe.sol\":9341:9342  2 */\n      0x02\n        /* \"contracts/TicTacToe.sol\":9331:9343  _board[x][2] */\n      0x03\n      dup2\n      lt\n      tag_221\n      jumpi\n      tag_222\n      tag_72\n      jump\t// in\n    tag_222:\n    tag_221:\n      0x20\n      mul\n      add\n      mload\n        /* \"contracts/TicTacToe.sol\":9314:9343  _board[x][1]  == _board[x][2] */\n      0xff\n      and\n        /* \"contracts/TicTacToe.sol\":9314:9320  _board */\n      dup4\n        /* \"contracts/TicTacToe.sol\":9321:9322  x */\n      dup3\n        /* \"contracts/TicTacToe.sol\":9314:9323  _board[x] */\n      0xff\n      and\n      0x03\n      dup2\n      lt\n      tag_223\n      jumpi\n      tag_224\n      tag_72\n      jump\t// in\n    tag_224:\n    tag_223:\n      0x20\n      mul\n      add\n      mload\n        /* \"contracts/TicTacToe.sol\":9324:9325  1 */\n      0x01\n        /* \"contracts/TicTacToe.sol\":9314:9326  _board[x][1] */\n      0x03\n      dup2\n      lt\n      tag_225\n      jumpi\n      tag_226\n      tag_72\n      jump\t// in\n    tag_226:\n    tag_225:\n      0x20\n      mul\n      add\n      mload\n        /* \"contracts/TicTacToe.sol\":9314:9343  _board[x][1]  == _board[x][2] */\n      0xff\n      and\n      eq\n        /* \"contracts/TicTacToe.sol\":9205:9343  (_board[x][0] == 1 || _board[x][0] == 2) ... */\n    tag_218:\n        /* \"contracts/TicTacToe.sol\":9184:9455  if (... */\n      iszero\n      tag_227\n      jumpi\n        /* \"contracts/TicTacToe.sol\":9399:9400  1 */\n      0x01\n        /* \"contracts/TicTacToe.sol\":9383:9389  _board */\n      dup4\n        /* \"contracts/TicTacToe.sol\":9390:9391  x */\n      dup3\n        /* \"contracts/TicTacToe.sol\":9383:9392  _board[x] */\n      0xff\n      and\n      0x03\n      dup2\n      lt\n      tag_228\n      jumpi\n      tag_229\n      tag_72\n      jump\t// in\n    tag_229:\n    tag_228:\n      0x20\n      mul\n      add\n      mload\n        /* \"contracts/TicTacToe.sol\":9393:9394  0 */\n      0x00\n        /* \"contracts/TicTacToe.sol\":9383:9395  _board[x][0] */\n      0x03\n      dup2\n      lt\n      tag_230\n      jumpi\n      tag_231\n      tag_72\n      jump\t// in\n    tag_231:\n    tag_230:\n      0x20\n      mul\n      add\n      mload\n        /* \"contracts/TicTacToe.sol\":9383:9400  _board[x][0] == 1 */\n      0xff\n      and\n      eq\n        /* \"contracts/TicTacToe.sol\":9383:9440  _board[x][0] == 1 ? Players.PlayerOne : Players.PlayerTwo */\n      tag_232\n      jumpi\n        /* \"contracts/TicTacToe.sol\":9423:9440  Players.PlayerTwo */\n      0x02\n        /* \"contracts/TicTacToe.sol\":9383:9440  _board[x][0] == 1 ? Players.PlayerOne : Players.PlayerTwo */\n      jump(tag_233)\n    tag_232:\n        /* \"contracts/TicTacToe.sol\":9403:9420  Players.PlayerOne */\n      0x01\n        /* \"contracts/TicTacToe.sol\":9383:9440  _board[x][0] == 1 ? Players.PlayerOne : Players.PlayerTwo */\n    tag_233:\n        /* \"contracts/TicTacToe.sol\":9376:9440  return _board[x][0] == 1 ? Players.PlayerOne : Players.PlayerTwo */\n      swap2\n      pop\n      pop\n      jump(tag_196)\n        /* \"contracts/TicTacToe.sol\":9184:9455  if (... */\n    tag_227:\n        /* \"contracts/TicTacToe.sol\":9165:9168  x++ */\n      dup1\n      dup1\n      tag_234\n      swap1\n      tag_235\n      jump\t// in\n    tag_234:\n      swap2\n      pop\n      pop\n        /* \"contracts/TicTacToe.sol\":9140:9465  for (uint8 x = 0; x < 3; x++) {... */\n      jump(tag_197)\n    tag_198:\n      pop\n        /* \"contracts/TicTacToe.sol\":9482:9494  Players.None */\n      0x00\n        /* \"contracts/TicTacToe.sol\":9475:9494  return Players.None */\n      swap1\n      pop\n        /* \"contracts/TicTacToe.sol\":9044:9501  function winnerInRow(uint8[3][3] memory _board) private pure returns (Players winner) {... */\n    tag_196:\n      swap2\n      swap1\n      pop\n      jump\t// out\n        /* \"contracts/TicTacToe.sol\":9709:10167  function winnerInColumn(uint8[3][3] memory _board) private pure returns (Players winner) {... */\n    tag_155:\n        /* \"contracts/TicTacToe.sol\":9782:9796  Players winner */\n      0x00\n        /* \"contracts/TicTacToe.sol\":9813:9820  uint8 y */\n      dup1\n        /* \"contracts/TicTacToe.sol\":9823:9824  0 */\n      0x00\n        /* \"contracts/TicTacToe.sol\":9813:9824  uint8 y = 0 */\n      swap1\n      pop\n        /* \"contracts/TicTacToe.sol\":9808:10131  for (uint8 y = 0; y < 3; y++) {... */\n    tag_237:\n        /* \"contracts/TicTacToe.sol\":9830:9831  3 */\n      0x03\n        /* \"contracts/TicTacToe.sol\":9826:9827  y */\n      dup2\n        /* \"contracts/TicTacToe.sol\":9826:9831  y < 3 */\n      0xff\n      and\n      lt\n        /* \"contracts/TicTacToe.sol\":9808:10131  for (uint8 y = 0; y < 3; y++) {... */\n      iszero\n      tag_238\n      jumpi\n        /* \"contracts/TicTacToe.sol\":9890:9891  1 */\n      0x01\n        /* \"contracts/TicTacToe.sol\":9874:9880  _board */\n      dup4\n        /* \"contracts/TicTacToe.sol\":9881:9882  0 */\n      0x00\n        /* \"contracts/TicTacToe.sol\":9874:9883  _board[0] */\n      0x03\n      dup2\n      lt\n      tag_240\n      jumpi\n      tag_241\n      tag_72\n      jump\t// in\n    tag_241:\n    tag_240:\n      0x20\n      mul\n      add\n      mload\n        /* \"contracts/TicTacToe.sol\":9884:9885  y */\n      dup3\n        /* \"contracts/TicTacToe.sol\":9874:9886  _board[0][y] */\n      0xff\n      and\n      0x03\n      dup2\n      lt\n      tag_242\n      jumpi\n      tag_243\n      tag_72\n      jump\t// in\n    tag_243:\n    tag_242:\n      0x20\n      mul\n      add\n      mload\n        /* \"contracts/TicTacToe.sol\":9874:9891  _board[0][y] == 1 */\n      0xff\n      and\n      eq\n        /* \"contracts/TicTacToe.sol\":9874:9912  _board[0][y] == 1 || _board[0][y] == 2 */\n      dup1\n      tag_244\n      jumpi\n      pop\n        /* \"contracts/TicTacToe.sol\":9911:9912  2 */\n      0x02\n        /* \"contracts/TicTacToe.sol\":9895:9901  _board */\n      dup4\n        /* \"contracts/TicTacToe.sol\":9902:9903  0 */\n      0x00\n        /* \"contracts/TicTacToe.sol\":9895:9904  _board[0] */\n      0x03\n      dup2\n      lt\n      tag_245\n      jumpi\n      tag_246\n      tag_72\n      jump\t// in\n    tag_246:\n    tag_245:\n      0x20\n      mul\n      add\n      mload\n        /* \"contracts/TicTacToe.sol\":9905:9906  y */\n      dup3\n        /* \"contracts/TicTacToe.sol\":9895:9907  _board[0][y] */\n      0xff\n      and\n      0x03\n      dup2\n      lt\n      tag_247\n      jumpi\n      tag_248\n      tag_72\n      jump\t// in\n    tag_248:\n    tag_247:\n      0x20\n      mul\n      add\n      mload\n        /* \"contracts/TicTacToe.sol\":9895:9912  _board[0][y] == 2 */\n      0xff\n      and\n      eq\n        /* \"contracts/TicTacToe.sol\":9874:9912  _board[0][y] == 1 || _board[0][y] == 2 */\n    tag_244:\n        /* \"contracts/TicTacToe.sol\":9873:9961  (_board[0][y] == 1 || _board[0][y] == 2)... */\n      dup1\n      iszero\n      tag_249\n      jumpi\n      pop\n        /* \"contracts/TicTacToe.sol\":9949:9955  _board */\n      dup3\n        /* \"contracts/TicTacToe.sol\":9956:9957  1 */\n      0x01\n        /* \"contracts/TicTacToe.sol\":9949:9958  _board[1] */\n      0x03\n      dup2\n      lt\n      tag_250\n      jumpi\n      tag_251\n      tag_72\n      jump\t// in\n    tag_251:\n    tag_250:\n      0x20\n      mul\n      add\n      mload\n        /* \"contracts/TicTacToe.sol\":9959:9960  y */\n      dup2\n        /* \"contracts/TicTacToe.sol\":9949:9961  _board[1][y] */\n      0xff\n      and\n      0x03\n      dup2\n      lt\n      tag_252\n      jumpi\n      tag_253\n      tag_72\n      jump\t// in\n    tag_253:\n    tag_252:\n      0x20\n      mul\n      add\n      mload\n        /* \"contracts/TicTacToe.sol\":9933:9961  _board[0][y] == _board[1][y] */\n      0xff\n      and\n        /* \"contracts/TicTacToe.sol\":9933:9939  _board */\n      dup4\n        /* \"contracts/TicTacToe.sol\":9940:9941  0 */\n      0x00\n        /* \"contracts/TicTacToe.sol\":9933:9942  _board[0] */\n      0x03\n      dup2\n      lt\n      tag_254\n      jumpi\n      tag_255\n      tag_72\n      jump\t// in\n    tag_255:\n    tag_254:\n      0x20\n      mul\n      add\n      mload\n        /* \"contracts/TicTacToe.sol\":9943:9944  y */\n      dup3\n        /* \"contracts/TicTacToe.sol\":9933:9945  _board[0][y] */\n      0xff\n      and\n      0x03\n      dup2\n      lt\n      tag_256\n      jumpi\n      tag_257\n      tag_72\n      jump\t// in\n    tag_257:\n    tag_256:\n      0x20\n      mul\n      add\n      mload\n        /* \"contracts/TicTacToe.sol\":9933:9961  _board[0][y] == _board[1][y] */\n      0xff\n      and\n      eq\n        /* \"contracts/TicTacToe.sol\":9873:9961  (_board[0][y] == 1 || _board[0][y] == 2)... */\n    tag_249:\n        /* \"contracts/TicTacToe.sol\":9873:10009  (_board[0][y] == 1 || _board[0][y] == 2)... */\n      dup1\n      iszero\n      tag_258\n      jumpi\n      pop\n        /* \"contracts/TicTacToe.sol\":9997:10003  _board */\n      dup3\n        /* \"contracts/TicTacToe.sol\":10004:10005  2 */\n      0x02\n        /* \"contracts/TicTacToe.sol\":9997:10006  _board[2] */\n      0x03\n      dup2\n      lt\n      tag_259\n      jumpi\n      tag_260\n      tag_72\n      jump\t// in\n    tag_260:\n    tag_259:\n      0x20\n      mul\n      add\n      mload\n        /* \"contracts/TicTacToe.sol\":10007:10008  y */\n      dup2\n        /* \"contracts/TicTacToe.sol\":9997:10009  _board[2][y] */\n      0xff\n      and\n      0x03\n      dup2\n      lt\n      tag_261\n      jumpi\n      tag_262\n      tag_72\n      jump\t// in\n    tag_262:\n    tag_261:\n      0x20\n      mul\n      add\n      mload\n        /* \"contracts/TicTacToe.sol\":9981:10009  _board[1][y] == _board[2][y] */\n      0xff\n      and\n        /* \"contracts/TicTacToe.sol\":9981:9987  _board */\n      dup4\n        /* \"contracts/TicTacToe.sol\":9988:9989  1 */\n      0x01\n        /* \"contracts/TicTacToe.sol\":9981:9990  _board[1] */\n      0x03\n      dup2\n      lt\n      tag_263\n      jumpi\n      tag_264\n      tag_72\n      jump\t// in\n    tag_264:\n    tag_263:\n      0x20\n      mul\n      add\n      mload\n        /* \"contracts/TicTacToe.sol\":9991:9992  y */\n      dup3\n        /* \"contracts/TicTacToe.sol\":9981:9993  _board[1][y] */\n      0xff\n      and\n      0x03\n      dup2\n      lt\n      tag_265\n      jumpi\n      tag_266\n      tag_72\n      jump\t// in\n    tag_266:\n    tag_265:\n      0x20\n      mul\n      add\n      mload\n        /* \"contracts/TicTacToe.sol\":9981:10009  _board[1][y] == _board[2][y] */\n      0xff\n      and\n      eq\n        /* \"contracts/TicTacToe.sol\":9873:10009  (_board[0][y] == 1 || _board[0][y] == 2)... */\n    tag_258:\n        /* \"contracts/TicTacToe.sol\":9852:10121  if (... */\n      iszero\n      tag_267\n      jumpi\n        /* \"contracts/TicTacToe.sol\":10065:10066  1 */\n      0x01\n        /* \"contracts/TicTacToe.sol\":10049:10055  _board */\n      dup4\n        /* \"contracts/TicTacToe.sol\":10056:10057  0 */\n      0x00\n        /* \"contracts/TicTacToe.sol\":10049:10058  _board[0] */\n      0x03\n      dup2\n      lt\n      tag_268\n      jumpi\n      tag_269\n      tag_72\n      jump\t// in\n    tag_269:\n    tag_268:\n      0x20\n      mul\n      add\n      mload\n        /* \"contracts/TicTacToe.sol\":10059:10060  y */\n      dup3\n        /* \"contracts/TicTacToe.sol\":10049:10061  _board[0][y] */\n      0xff\n      and\n      0x03\n      dup2\n      lt\n      tag_270\n      jumpi\n      tag_271\n      tag_72\n      jump\t// in\n    tag_271:\n    tag_270:\n      0x20\n      mul\n      add\n      mload\n        /* \"contracts/TicTacToe.sol\":10049:10066  _board[0][y] == 1 */\n      0xff\n      and\n      eq\n        /* \"contracts/TicTacToe.sol\":10049:10106  _board[0][y] == 1 ? Players.PlayerOne : Players.PlayerTwo */\n      tag_272\n      jumpi\n        /* \"contracts/TicTacToe.sol\":10089:10106  Players.PlayerTwo */\n      0x02\n        /* \"contracts/TicTacToe.sol\":10049:10106  _board[0][y] == 1 ? Players.PlayerOne : Players.PlayerTwo */\n      jump(tag_273)\n    tag_272:\n        /* \"contracts/TicTacToe.sol\":10069:10086  Players.PlayerOne */\n      0x01\n        /* \"contracts/TicTacToe.sol\":10049:10106  _board[0][y] == 1 ? Players.PlayerOne : Players.PlayerTwo */\n    tag_273:\n        /* \"contracts/TicTacToe.sol\":10042:10106  return _board[0][y] == 1 ? Players.PlayerOne : Players.PlayerTwo */\n      swap2\n      pop\n      pop\n      jump(tag_236)\n        /* \"contracts/TicTacToe.sol\":9852:10121  if (... */\n    tag_267:\n        /* \"contracts/TicTacToe.sol\":9833:9836  y++ */\n      dup1\n      dup1\n      tag_274\n      swap1\n      tag_235\n      jump\t// in\n    tag_274:\n      swap2\n      pop\n      pop\n        /* \"contracts/TicTacToe.sol\":9808:10131  for (uint8 y = 0; y < 3; y++) {... */\n      jump(tag_237)\n    tag_238:\n      pop\n        /* \"contracts/TicTacToe.sol\":10148:10160  Players.None */\n      0x00\n        /* \"contracts/TicTacToe.sol\":10141:10160  return Players.None */\n      swap1\n      pop\n        /* \"contracts/TicTacToe.sol\":9709:10167  function winnerInColumn(uint8[3][3] memory _board) private pure returns (Players winner) {... */\n    tag_236:\n      swap2\n      swap1\n      pop\n      jump\t// out\n        /* \"contracts/TicTacToe.sol\":10384:11021  function winnerInDiagonal(uint8[3][3] memory _board) private pure returns (Players winner) {... */\n    tag_167:\n        /* \"contracts/TicTacToe.sol\":10459:10473  Players winner */\n      0x00\n        /* \"contracts/TicTacToe.sol\":10519:10520  1 */\n      0x01\n        /* \"contracts/TicTacToe.sol\":10503:10509  _board */\n      dup3\n        /* \"contracts/TicTacToe.sol\":10510:10511  0 */\n      0x00\n        /* \"contracts/TicTacToe.sol\":10503:10512  _board[0] */\n      0x03\n      dup2\n      lt\n      tag_276\n      jumpi\n      tag_277\n      tag_72\n      jump\t// in\n    tag_277:\n    tag_276:\n      0x20\n      mul\n      add\n      mload\n        /* \"contracts/TicTacToe.sol\":10513:10514  0 */\n      0x00\n        /* \"contracts/TicTacToe.sol\":10503:10515  _board[0][0] */\n      0x03\n      dup2\n      lt\n      tag_278\n      jumpi\n      tag_279\n      tag_72\n      jump\t// in\n    tag_279:\n    tag_278:\n      0x20\n      mul\n      add\n      mload\n        /* \"contracts/TicTacToe.sol\":10503:10520  _board[0][0] == 1 */\n      0xff\n      and\n      eq\n        /* \"contracts/TicTacToe.sol\":10503:10541  _board[0][0] == 1 || _board[0][0] == 2 */\n      dup1\n      tag_280\n      jumpi\n      pop\n        /* \"contracts/TicTacToe.sol\":10540:10541  2 */\n      0x02\n        /* \"contracts/TicTacToe.sol\":10524:10530  _board */\n      dup3\n        /* \"contracts/TicTacToe.sol\":10531:10532  0 */\n      0x00\n        /* \"contracts/TicTacToe.sol\":10524:10533  _board[0] */\n      0x03\n      dup2\n      lt\n      tag_281\n      jumpi\n      tag_282\n      tag_72\n      jump\t// in\n    tag_282:\n    tag_281:\n      0x20\n      mul\n      add\n      mload\n        /* \"contracts/TicTacToe.sol\":10534:10535  0 */\n      0x00\n        /* \"contracts/TicTacToe.sol\":10524:10536  _board[0][0] */\n      0x03\n      dup2\n      lt\n      tag_283\n      jumpi\n      tag_284\n      tag_72\n      jump\t// in\n    tag_284:\n    tag_283:\n      0x20\n      mul\n      add\n      mload\n        /* \"contracts/TicTacToe.sol\":10524:10541  _board[0][0] == 2 */\n      0xff\n      and\n      eq\n        /* \"contracts/TicTacToe.sol\":10503:10541  _board[0][0] == 1 || _board[0][0] == 2 */\n    tag_280:\n        /* \"contracts/TicTacToe.sol\":10502:10586  (_board[0][0] == 1 || _board[0][0] == 2)... */\n      dup1\n      iszero\n      tag_285\n      jumpi\n      pop\n        /* \"contracts/TicTacToe.sol\":10574:10580  _board */\n      dup2\n        /* \"contracts/TicTacToe.sol\":10581:10582  1 */\n      0x01\n        /* \"contracts/TicTacToe.sol\":10574:10583  _board[1] */\n      0x03\n      dup2\n      lt\n      tag_286\n      jumpi\n      tag_287\n      tag_72\n      jump\t// in\n    tag_287:\n    tag_286:\n      0x20\n      mul\n      add\n      mload\n        /* \"contracts/TicTacToe.sol\":10584:10585  1 */\n      0x01\n        /* \"contracts/TicTacToe.sol\":10574:10586  _board[1][1] */\n      0x03\n      dup2\n      lt\n      tag_288\n      jumpi\n      tag_289\n      tag_72\n      jump\t// in\n    tag_289:\n    tag_288:\n      0x20\n      mul\n      add\n      mload\n        /* \"contracts/TicTacToe.sol\":10558:10586  _board[0][0] == _board[1][1] */\n      0xff\n      and\n        /* \"contracts/TicTacToe.sol\":10558:10564  _board */\n      dup3\n        /* \"contracts/TicTacToe.sol\":10565:10566  0 */\n      0x00\n        /* \"contracts/TicTacToe.sol\":10558:10567  _board[0] */\n      0x03\n      dup2\n      lt\n      tag_290\n      jumpi\n      tag_291\n      tag_72\n      jump\t// in\n    tag_291:\n    tag_290:\n      0x20\n      mul\n      add\n      mload\n        /* \"contracts/TicTacToe.sol\":10568:10569  0 */\n      0x00\n        /* \"contracts/TicTacToe.sol\":10558:10570  _board[0][0] */\n      0x03\n      dup2\n      lt\n      tag_292\n      jumpi\n      tag_293\n      tag_72\n      jump\t// in\n    tag_293:\n    tag_292:\n      0x20\n      mul\n      add\n      mload\n        /* \"contracts/TicTacToe.sol\":10558:10586  _board[0][0] == _board[1][1] */\n      0xff\n      and\n      eq\n        /* \"contracts/TicTacToe.sol\":10502:10586  (_board[0][0] == 1 || _board[0][0] == 2)... */\n    tag_285:\n        /* \"contracts/TicTacToe.sol\":10502:10630  (_board[0][0] == 1 || _board[0][0] == 2)... */\n      dup1\n      iszero\n      tag_294\n      jumpi\n      pop\n        /* \"contracts/TicTacToe.sol\":10618:10624  _board */\n      dup2\n        /* \"contracts/TicTacToe.sol\":10625:10626  2 */\n      0x02\n        /* \"contracts/TicTacToe.sol\":10618:10627  _board[2] */\n      0x03\n      dup2\n      lt\n      tag_295\n      jumpi\n      tag_296\n      tag_72\n      jump\t// in\n    tag_296:\n    tag_295:\n      0x20\n      mul\n      add\n      mload\n        /* \"contracts/TicTacToe.sol\":10628:10629  2 */\n      0x02\n        /* \"contracts/TicTacToe.sol\":10618:10630  _board[2][2] */\n      0x03\n      dup2\n      lt\n      tag_297\n      jumpi\n      tag_298\n      tag_72\n      jump\t// in\n    tag_298:\n    tag_297:\n      0x20\n      mul\n      add\n      mload\n        /* \"contracts/TicTacToe.sol\":10602:10630  _board[1][1] == _board[2][2] */\n      0xff\n      and\n        /* \"contracts/TicTacToe.sol\":10602:10608  _board */\n      dup3\n        /* \"contracts/TicTacToe.sol\":10609:10610  1 */\n      0x01\n        /* \"contracts/TicTacToe.sol\":10602:10611  _board[1] */\n      0x03\n      dup2\n      lt\n      tag_299\n      jumpi\n      tag_300\n      tag_72\n      jump\t// in\n    tag_300:\n    tag_299:\n      0x20\n      mul\n      add\n      mload\n        /* \"contracts/TicTacToe.sol\":10612:10613  1 */\n      0x01\n        /* \"contracts/TicTacToe.sol\":10602:10614  _board[1][1] */\n      0x03\n      dup2\n      lt\n      tag_301\n      jumpi\n      tag_302\n      tag_72\n      jump\t// in\n    tag_302:\n    tag_301:\n      0x20\n      mul\n      add\n      mload\n        /* \"contracts/TicTacToe.sol\":10602:10630  _board[1][1] == _board[2][2] */\n      0xff\n      and\n      eq\n        /* \"contracts/TicTacToe.sol\":10502:10630  (_board[0][0] == 1 || _board[0][0] == 2)... */\n    tag_294:\n        /* \"contracts/TicTacToe.sol\":10485:10730  if (... */\n      iszero\n      tag_303\n      jumpi\n        /* \"contracts/TicTacToe.sol\":10678:10679  1 */\n      0x01\n        /* \"contracts/TicTacToe.sol\":10662:10668  _board */\n      dup3\n        /* \"contracts/TicTacToe.sol\":10669:10670  0 */\n      0x00\n        /* \"contracts/TicTacToe.sol\":10662:10671  _board[0] */\n      0x03\n      dup2\n      lt\n      tag_304\n      jumpi\n      tag_305\n      tag_72\n      jump\t// in\n    tag_305:\n    tag_304:\n      0x20\n      mul\n      add\n      mload\n        /* \"contracts/TicTacToe.sol\":10672:10673  0 */\n      0x00\n        /* \"contracts/TicTacToe.sol\":10662:10674  _board[0][0] */\n      0x03\n      dup2\n      lt\n      tag_306\n      jumpi\n      tag_307\n      tag_72\n      jump\t// in\n    tag_307:\n    tag_306:\n      0x20\n      mul\n      add\n      mload\n        /* \"contracts/TicTacToe.sol\":10662:10679  _board[0][0] == 1 */\n      0xff\n      and\n      eq\n        /* \"contracts/TicTacToe.sol\":10662:10719  _board[0][0] == 1 ? Players.PlayerOne : Players.PlayerTwo */\n      tag_308\n      jumpi\n        /* \"contracts/TicTacToe.sol\":10702:10719  Players.PlayerTwo */\n      0x02\n        /* \"contracts/TicTacToe.sol\":10662:10719  _board[0][0] == 1 ? Players.PlayerOne : Players.PlayerTwo */\n      jump(tag_309)\n    tag_308:\n        /* \"contracts/TicTacToe.sol\":10682:10699  Players.PlayerOne */\n      0x01\n        /* \"contracts/TicTacToe.sol\":10662:10719  _board[0][0] == 1 ? Players.PlayerOne : Players.PlayerTwo */\n    tag_309:\n        /* \"contracts/TicTacToe.sol\":10655:10719  return _board[0][0] == 1 ? Players.PlayerOne : Players.PlayerTwo */\n      swap1\n      pop\n      jump(tag_275)\n        /* \"contracts/TicTacToe.sol\":10485:10730  if (... */\n    tag_303:\n        /* \"contracts/TicTacToe.sol\":10774:10775  1 */\n      0x01\n        /* \"contracts/TicTacToe.sol\":10758:10764  _board */\n      dup3\n        /* \"contracts/TicTacToe.sol\":10765:10766  0 */\n      0x00\n        /* \"contracts/TicTacToe.sol\":10758:10767  _board[0] */\n      0x03\n      dup2\n      lt\n      tag_310\n      jumpi\n      tag_311\n      tag_72\n      jump\t// in\n    tag_311:\n    tag_310:\n      0x20\n      mul\n      add\n      mload\n        /* \"contracts/TicTacToe.sol\":10768:10769  2 */\n      0x02\n        /* \"contracts/TicTacToe.sol\":10758:10770  _board[0][2] */\n      0x03\n      dup2\n      lt\n      tag_312\n      jumpi\n      tag_313\n      tag_72\n      jump\t// in\n    tag_313:\n    tag_312:\n      0x20\n      mul\n      add\n      mload\n        /* \"contracts/TicTacToe.sol\":10758:10775  _board[0][2] == 1 */\n      0xff\n      and\n      eq\n        /* \"contracts/TicTacToe.sol\":10758:10796  _board[0][2] == 1 || _board[0][2] == 2 */\n      dup1\n      tag_314\n      jumpi\n      pop\n        /* \"contracts/TicTacToe.sol\":10795:10796  2 */\n      0x02\n        /* \"contracts/TicTacToe.sol\":10779:10785  _board */\n      dup3\n        /* \"contracts/TicTacToe.sol\":10786:10787  0 */\n      0x00\n        /* \"contracts/TicTacToe.sol\":10779:10788  _board[0] */\n      0x03\n      dup2\n      lt\n      tag_315\n      jumpi\n      tag_316\n      tag_72\n      jump\t// in\n    tag_316:\n    tag_315:\n      0x20\n      mul\n      add\n      mload\n        /* \"contracts/TicTacToe.sol\":10789:10790  2 */\n      0x02\n        /* \"contracts/TicTacToe.sol\":10779:10791  _board[0][2] */\n      0x03\n      dup2\n      lt\n      tag_317\n      jumpi\n      tag_318\n      tag_72\n      jump\t// in\n    tag_318:\n    tag_317:\n      0x20\n      mul\n      add\n      mload\n        /* \"contracts/TicTacToe.sol\":10779:10796  _board[0][2] == 2 */\n      0xff\n      and\n      eq\n        /* \"contracts/TicTacToe.sol\":10758:10796  _board[0][2] == 1 || _board[0][2] == 2 */\n    tag_314:\n        /* \"contracts/TicTacToe.sol\":10757:10841  (_board[0][2] == 1 || _board[0][2] == 2)... */\n      dup1\n      iszero\n      tag_319\n      jumpi\n      pop\n        /* \"contracts/TicTacToe.sol\":10829:10835  _board */\n      dup2\n        /* \"contracts/TicTacToe.sol\":10836:10837  1 */\n      0x01\n        /* \"contracts/TicTacToe.sol\":10829:10838  _board[1] */\n      0x03\n      dup2\n      lt\n      tag_320\n      jumpi\n      tag_321\n      tag_72\n      jump\t// in\n    tag_321:\n    tag_320:\n      0x20\n      mul\n      add\n      mload\n        /* \"contracts/TicTacToe.sol\":10839:10840  1 */\n      0x01\n        /* \"contracts/TicTacToe.sol\":10829:10841  _board[1][1] */\n      0x03\n      dup2\n      lt\n      tag_322\n      jumpi\n      tag_323\n      tag_72\n      jump\t// in\n    tag_323:\n    tag_322:\n      0x20\n      mul\n      add\n      mload\n        /* \"contracts/TicTacToe.sol\":10813:10841  _board[0][2] == _board[1][1] */\n      0xff\n      and\n        /* \"contracts/TicTacToe.sol\":10813:10819  _board */\n      dup3\n        /* \"contracts/TicTacToe.sol\":10820:10821  0 */\n      0x00\n        /* \"contracts/TicTacToe.sol\":10813:10822  _board[0] */\n      0x03\n      dup2\n      lt\n      tag_324\n      jumpi\n      tag_325\n      tag_72\n      jump\t// in\n    tag_325:\n    tag_324:\n      0x20\n      mul\n      add\n      mload\n        /* \"contracts/TicTacToe.sol\":10823:10824  2 */\n      0x02\n        /* \"contracts/TicTacToe.sol\":10813:10825  _board[0][2] */\n      0x03\n      dup2\n      lt\n      tag_326\n      jumpi\n      tag_327\n      tag_72\n      jump\t// in\n    tag_327:\n    tag_326:\n      0x20\n      mul\n      add\n      mload\n        /* \"contracts/TicTacToe.sol\":10813:10841  _board[0][2] == _board[1][1] */\n      0xff\n      and\n      eq\n        /* \"contracts/TicTacToe.sol\":10757:10841  (_board[0][2] == 1 || _board[0][2] == 2)... */\n    tag_319:\n        /* \"contracts/TicTacToe.sol\":10757:10885  (_board[0][2] == 1 || _board[0][2] == 2)... */\n      dup1\n      iszero\n      tag_328\n      jumpi\n      pop\n        /* \"contracts/TicTacToe.sol\":10873:10879  _board */\n      dup2\n        /* \"contracts/TicTacToe.sol\":10880:10881  2 */\n      0x02\n        /* \"contracts/TicTacToe.sol\":10873:10882  _board[2] */\n      0x03\n      dup2\n      lt\n      tag_329\n      jumpi\n      tag_330\n      tag_72\n      jump\t// in\n    tag_330:\n    tag_329:\n      0x20\n      mul\n      add\n      mload\n        /* \"contracts/TicTacToe.sol\":10883:10884  0 */\n      0x00\n        /* \"contracts/TicTacToe.sol\":10873:10885  _board[2][0] */\n      0x03\n      dup2\n      lt\n      tag_331\n      jumpi\n      tag_332\n      tag_72\n      jump\t// in\n    tag_332:\n    tag_331:\n      0x20\n      mul\n      add\n      mload\n        /* \"contracts/TicTacToe.sol\":10857:10885  _board[1][1] == _board[2][0] */\n      0xff\n      and\n        /* \"contracts/TicTacToe.sol\":10857:10863  _board */\n      dup3\n        /* \"contracts/TicTacToe.sol\":10864:10865  1 */\n      0x01\n        /* \"contracts/TicTacToe.sol\":10857:10866  _board[1] */\n      0x03\n      dup2\n      lt\n      tag_333\n      jumpi\n      tag_334\n      tag_72\n      jump\t// in\n    tag_334:\n    tag_333:\n      0x20\n      mul\n      add\n      mload\n        /* \"contracts/TicTacToe.sol\":10867:10868  1 */\n      0x01\n        /* \"contracts/TicTacToe.sol\":10857:10869  _board[1][1] */\n      0x03\n      dup2\n      lt\n      tag_335\n      jumpi\n      tag_336\n      tag_72\n      jump\t// in\n    tag_336:\n    tag_335:\n      0x20\n      mul\n      add\n      mload\n        /* \"contracts/TicTacToe.sol\":10857:10885  _board[1][1] == _board[2][0] */\n      0xff\n      and\n      eq\n        /* \"contracts/TicTacToe.sol\":10757:10885  (_board[0][2] == 1 || _board[0][2] == 2)... */\n    tag_328:\n        /* \"contracts/TicTacToe.sol\":10740:10985  if (... */\n      iszero\n      tag_337\n      jumpi\n        /* \"contracts/TicTacToe.sol\":10933:10934  1 */\n      0x01\n        /* \"contracts/TicTacToe.sol\":10917:10923  _board */\n      dup3\n        /* \"contracts/TicTacToe.sol\":10924:10925  0 */\n      0x00\n        /* \"contracts/TicTacToe.sol\":10917:10926  _board[0] */\n      0x03\n      dup2\n      lt\n      tag_338\n      jumpi\n      tag_339\n      tag_72\n      jump\t// in\n    tag_339:\n    tag_338:\n      0x20\n      mul\n      add\n      mload\n        /* \"contracts/TicTacToe.sol\":10927:10928  2 */\n      0x02\n        /* \"contracts/TicTacToe.sol\":10917:10929  _board[0][2] */\n      0x03\n      dup2\n      lt\n      tag_340\n      jumpi\n      tag_341\n      tag_72\n      jump\t// in\n    tag_341:\n    tag_340:\n      0x20\n      mul\n      add\n      mload\n        /* \"contracts/TicTacToe.sol\":10917:10934  _board[0][2] == 1 */\n      0xff\n      and\n      eq\n        /* \"contracts/TicTacToe.sol\":10917:10974  _board[0][2] == 1 ? Players.PlayerOne : Players.PlayerTwo */\n      tag_342\n      jumpi\n        /* \"contracts/TicTacToe.sol\":10957:10974  Players.PlayerTwo */\n      0x02\n        /* \"contracts/TicTacToe.sol\":10917:10974  _board[0][2] == 1 ? Players.PlayerOne : Players.PlayerTwo */\n      jump(tag_343)\n    tag_342:\n        /* \"contracts/TicTacToe.sol\":10937:10954  Players.PlayerOne */\n      0x01\n        /* \"contracts/TicTacToe.sol\":10917:10974  _board[0][2] == 1 ? Players.PlayerOne : Players.PlayerTwo */\n    tag_343:\n        /* \"contracts/TicTacToe.sol\":10910:10974  return _board[0][2] == 1 ? Players.PlayerOne : Players.PlayerTwo */\n      swap1\n      pop\n      jump(tag_275)\n        /* \"contracts/TicTacToe.sol\":10740:10985  if (... */\n    tag_337:\n        /* \"contracts/TicTacToe.sol\":11002:11014  Players.None */\n      0x00\n        /* \"contracts/TicTacToe.sol\":10995:11014  return Players.None */\n      swap1\n      pop\n        /* \"contracts/TicTacToe.sol\":10384:11021  function winnerInDiagonal(uint8[3][3] memory _board) private pure returns (Players winner) {... */\n    tag_275:\n      swap2\n      swap1\n      pop\n      jump\t// out\n        /* \"contracts/TicTacToe.sol\":11130:11464  function isBoardFull(uint8[3][3] memory _board) private pure returns (bool isFull) {... */\n    tag_179:\n        /* \"contracts/TicTacToe.sol\":11200:11211  bool isFull */\n      0x00\n        /* \"contracts/TicTacToe.sol\":11228:11235  uint8 x */\n      dup1\n        /* \"contracts/TicTacToe.sol\":11238:11239  0 */\n      0x00\n        /* \"contracts/TicTacToe.sol\":11228:11239  uint8 x = 0 */\n      swap1\n      pop\n        /* \"contracts/TicTacToe.sol\":11223:11436  for (uint8 x = 0; x < 3; x++) {... */\n    tag_345:\n        /* \"contracts/TicTacToe.sol\":11245:11246  3 */\n      0x03\n        /* \"contracts/TicTacToe.sol\":11241:11242  x */\n      dup2\n        /* \"contracts/TicTacToe.sol\":11241:11246  x < 3 */\n      0xff\n      and\n      lt\n        /* \"contracts/TicTacToe.sol\":11223:11436  for (uint8 x = 0; x < 3; x++) {... */\n      iszero\n      tag_346\n      jumpi\n        /* \"contracts/TicTacToe.sol\":11272:11279  uint8 y */\n      0x00\n        /* \"contracts/TicTacToe.sol\":11267:11426  for (uint8 y = 0; y < 3; y++) {... */\n    tag_348:\n        /* \"contracts/TicTacToe.sol\":11289:11290  3 */\n      0x03\n        /* \"contracts/TicTacToe.sol\":11285:11286  y */\n      dup2\n        /* \"contracts/TicTacToe.sol\":11285:11290  y < 3 */\n      0xff\n      and\n      lt\n        /* \"contracts/TicTacToe.sol\":11267:11426  for (uint8 y = 0; y < 3; y++) {... */\n      iszero\n      tag_349\n      jumpi\n        /* \"contracts/TicTacToe.sol\":11335:11336  1 */\n      0x01\n        /* \"contracts/TicTacToe.sol\":11319:11325  _board */\n      dup5\n        /* \"contracts/TicTacToe.sol\":11326:11327  x */\n      dup4\n        /* \"contracts/TicTacToe.sol\":11319:11328  _board[x] */\n      0xff\n      and\n      0x03\n      dup2\n      lt\n      tag_351\n      jumpi\n      tag_352\n      tag_72\n      jump\t// in\n    tag_352:\n    tag_351:\n      0x20\n      mul\n      add\n      mload\n        /* \"contracts/TicTacToe.sol\":11329:11330  y */\n      dup3\n        /* \"contracts/TicTacToe.sol\":11319:11331  _board[x][y] */\n      0xff\n      and\n      0x03\n      dup2\n      lt\n      tag_353\n      jumpi\n      tag_354\n      tag_72\n      jump\t// in\n    tag_354:\n    tag_353:\n      0x20\n      mul\n      add\n      mload\n        /* \"contracts/TicTacToe.sol\":11319:11336  _board[x][y] != 1 */\n      0xff\n      and\n      eq\n      iszero\n        /* \"contracts/TicTacToe.sol\":11319:11357  _board[x][y] != 1 && _board[x][y] != 2 */\n      dup1\n      iszero\n      tag_355\n      jumpi\n      pop\n        /* \"contracts/TicTacToe.sol\":11356:11357  2 */\n      0x02\n        /* \"contracts/TicTacToe.sol\":11340:11346  _board */\n      dup5\n        /* \"contracts/TicTacToe.sol\":11347:11348  x */\n      dup4\n        /* \"contracts/TicTacToe.sol\":11340:11349  _board[x] */\n      0xff\n      and\n      0x03\n      dup2\n      lt\n      tag_356\n      jumpi\n      tag_357\n      tag_72\n      jump\t// in\n    tag_357:\n    tag_356:\n      0x20\n      mul\n      add\n      mload\n        /* \"contracts/TicTacToe.sol\":11350:11351  y */\n      dup3\n        /* \"contracts/TicTacToe.sol\":11340:11352  _board[x][y] */\n      0xff\n      and\n      0x03\n      dup2\n      lt\n      tag_358\n      jumpi\n      tag_359\n      tag_72\n      jump\t// in\n    tag_359:\n    tag_358:\n      0x20\n      mul\n      add\n      mload\n        /* \"contracts/TicTacToe.sol\":11340:11357  _board[x][y] != 2 */\n      0xff\n      and\n      eq\n      iszero\n        /* \"contracts/TicTacToe.sol\":11319:11357  _board[x][y] != 1 && _board[x][y] != 2 */\n    tag_355:\n        /* \"contracts/TicTacToe.sol\":11315:11412  if (_board[x][y] != 1 && _board[x][y] != 2) {... */\n      iszero\n      tag_360\n      jumpi\n        /* \"contracts/TicTacToe.sol\":11388:11393  false */\n      0x00\n        /* \"contracts/TicTacToe.sol\":11381:11393  return false */\n      swap3\n      pop\n      pop\n      pop\n      jump(tag_344)\n        /* \"contracts/TicTacToe.sol\":11315:11412  if (_board[x][y] != 1 && _board[x][y] != 2) {... */\n    tag_360:\n        /* \"contracts/TicTacToe.sol\":11292:11295  y++ */\n      dup1\n      dup1\n      tag_361\n      swap1\n      tag_235\n      jump\t// in\n    tag_361:\n      swap2\n      pop\n      pop\n        /* \"contracts/TicTacToe.sol\":11267:11426  for (uint8 y = 0; y < 3; y++) {... */\n      jump(tag_348)\n    tag_349:\n      pop\n        /* \"contracts/TicTacToe.sol\":11248:11251  x++ */\n      dup1\n      dup1\n      tag_362\n      swap1\n      tag_235\n      jump\t// in\n    tag_362:\n      swap2\n      pop\n      pop\n        /* \"contracts/TicTacToe.sol\":11223:11436  for (uint8 x = 0; x < 3; x++) {... */\n      jump(tag_345)\n    tag_346:\n      pop\n        /* \"contracts/TicTacToe.sol\":11453:11457  true */\n      0x01\n        /* \"contracts/TicTacToe.sol\":11446:11457  return true */\n      swap1\n      pop\n        /* \"contracts/TicTacToe.sol\":11130:11464  function isBoardFull(uint8[3][3] memory _board) private pure returns (bool isFull) {... */\n    tag_344:\n      swap2\n      swap1\n      pop\n      jump\t// out\n    tag_23:\n      mload(0x40)\n      dup1\n      0xa0\n      add\n      0x40\n      mstore\n      dup1\n      and(0xffffffffffffffffffffffffffffffffffffffff, 0x00)\n      dup2\n      mstore\n      0x20\n      add\n      and(0xffffffffffffffffffffffffffffffffffffffff, 0x00)\n      dup2\n      mstore\n      0x20\n      add\n      0x00\n      0x03\n      dup2\n      gt\n      iszero\n      tag_363\n      jumpi\n      tag_364\n      tag_26\n      jump\t// in\n    tag_364:\n    tag_363:\n      dup2\n      mstore\n      0x20\n      add\n      0x00\n      0x02\n      dup2\n      gt\n      iszero\n      tag_365\n      jumpi\n      tag_366\n      tag_26\n      jump\t// in\n    tag_366:\n    tag_365:\n      dup2\n      mstore\n      0x20\n      add\n      tag_367\n      tag_368\n      jump\t// in\n    tag_367:\n      dup2\n      mstore\n      pop\n      swap1\n      jump\t// out\n    tag_36:\n      dup3\n      0x03\n      dup2\n      add\n      swap3\n      dup3\n      iszero\n      tag_369\n      jumpi\n      swap2\n      0x20\n      mul\n      dup3\n      add\n    tag_370:\n      dup3\n      dup2\n      gt\n      iszero\n      tag_371\n      jumpi\n      dup3\n      mload\n      dup3\n      swap1\n      0x03\n      tag_372\n      swap3\n      swap2\n      swap1\n      tag_373\n      jump\t// in\n    tag_372:\n      pop\n      swap2\n      0x20\n      add\n      swap2\n      swap1\n      0x01\n      add\n      swap1\n      jump(tag_370)\n    tag_371:\n    tag_369:\n      pop\n      swap1\n      pop\n      tag_374\n      swap2\n      swap1\n      tag_375\n      jump\t// in\n    tag_374:\n      pop\n      swap1\n      jump\t// out\n    tag_368:\n      mload(0x40)\n      dup1\n      0x60\n      add\n      0x40\n      mstore\n      dup1\n      0x03\n      swap1\n    tag_376:\n      tag_377\n      tag_378\n      jump\t// in\n    tag_377:\n      dup2\n      mstore\n      0x20\n      add\n      swap1\n      0x01\n      swap1\n      sub\n      swap1\n      dup2\n      tag_376\n      jumpi\n      swap1\n      pop\n      pop\n      swap1\n      jump\t// out\n    tag_373:\n      dup3\n      add(0x1f, 0x03)\n      0x20\n      swap1\n      div\n      dup2\n      add\n      swap3\n      dup3\n      iszero\n      tag_379\n      jumpi\n      swap2\n      0x20\n      mul\n      dup3\n      add\n      0x00\n    tag_380:\n      dup4\n      dup3\n      gt\n      iszero\n      tag_381\n      jumpi\n      dup4\n      mload\n      dup4\n      dup3\n      0x0100\n      exp\n      dup2\n      sload\n      dup2\n      0xff\n      mul\n      not\n      and\n      swap1\n      dup4\n      0xff\n      and\n      mul\n      or\n      swap1\n      sstore\n      pop\n      swap3\n      0x20\n      add\n      swap3\n      0x01\n      add\n      0x20\n      dup2\n      0x00\n      add\n      div\n      swap3\n      dup4\n      add\n      swap3\n      0x01\n      sub\n      mul\n      jump(tag_380)\n    tag_381:\n      dup1\n      iszero\n      tag_382\n      jumpi\n      dup3\n      dup2\n      0x0100\n      exp\n      dup2\n      sload\n      swap1\n      0xff\n      mul\n      not\n      and\n      swap1\n      sstore\n      0x01\n      add\n      0x20\n      dup2\n      0x00\n      add\n      div\n      swap3\n      dup4\n      add\n      swap3\n      0x01\n      sub\n      mul\n      jump(tag_381)\n    tag_382:\n      pop\n    tag_379:\n      pop\n      swap1\n      pop\n      tag_383\n      swap2\n      swap1\n      tag_384\n      jump\t// in\n    tag_383:\n      pop\n      swap1\n      jump\t// out\n    tag_375:\n    tag_385:\n      dup1\n      dup3\n      gt\n      iszero\n      tag_386\n      jumpi\n      0x00\n      dup2\n      dup2\n      tag_387\n      swap2\n      swap1\n      tag_388\n      jump\t// in\n    tag_387:\n      pop\n      0x01\n      add\n      jump(tag_385)\n    tag_386:\n      pop\n      swap1\n      jump\t// out\n    tag_378:\n      mload(0x40)\n      dup1\n      0x60\n      add\n      0x40\n      mstore\n      dup1\n      0x03\n      swap1\n      0x20\n      dup3\n      mul\n      dup1\n      calldatasize\n      dup4\n      calldatacopy\n      dup1\n      dup3\n      add\n      swap2\n      pop\n      pop\n      swap1\n      pop\n      pop\n      swap1\n      jump\t// out\n    tag_384:\n    tag_389:\n      dup1\n      dup3\n      gt\n      iszero\n      tag_390\n      jumpi\n      0x00\n      dup2\n      0x00\n      swap1\n      sstore\n      pop\n      0x01\n      add\n      jump(tag_389)\n    tag_390:\n      pop\n      swap1\n      jump\t// out\n    tag_388:\n      pop\n      0x00\n      swap1\n      sstore\n      jump\t// out\n        /* \"#utility.yul\":7:146   */\n    tag_392:\n        /* \"#utility.yul\":53:58   */\n      0x00\n        /* \"#utility.yul\":91:97   */\n      dup2\n        /* \"#utility.yul\":78:98   */\n      calldataload\n        /* \"#utility.yul\":69:98   */\n      swap1\n      pop\n        /* \"#utility.yul\":107:140   */\n      tag_394\n        /* \"#utility.yul\":134:139   */\n      dup2\n        /* \"#utility.yul\":107:140   */\n      tag_395\n      jump\t// in\n    tag_394:\n        /* \"#utility.yul\":7:146   */\n      swap3\n      swap2\n      pop\n      pop\n      jump\t// out\n        /* \"#utility.yul\":152:481   */\n    tag_18:\n        /* \"#utility.yul\":211:217   */\n      0x00\n        /* \"#utility.yul\":260:262   */\n      0x20\n        /* \"#utility.yul\":248:257   */\n      dup3\n        /* \"#utility.yul\":239:246   */\n      dup5\n        /* \"#utility.yul\":235:258   */\n      sub\n        /* \"#utility.yul\":231:263   */\n      slt\n        /* \"#utility.yul\":228:347   */\n      iszero\n      tag_397\n      jumpi\n        /* \"#utility.yul\":266:345   */\n      tag_398\n      tag_399\n      jump\t// in\n    tag_398:\n        /* \"#utility.yul\":228:347   */\n    tag_397:\n        /* \"#utility.yul\":386:387   */\n      0x00\n        /* \"#utility.yul\":411:464   */\n      tag_400\n        /* \"#utility.yul\":456:463   */\n      dup5\n        /* \"#utility.yul\":447:453   */\n      dup3\n        /* \"#utility.yul\":436:445   */\n      dup6\n        /* \"#utility.yul\":432:454   */\n      add\n        /* \"#utility.yul\":411:464   */\n      tag_392\n      jump\t// in\n    tag_400:\n        /* \"#utility.yul\":401:464   */\n      swap2\n      pop\n        /* \"#utility.yul\":357:474   */\n      pop\n        /* \"#utility.yul\":152:481   */\n      swap3\n      swap2\n      pop\n      pop\n      jump\t// out\n        /* \"#utility.yul\":487:1106   */\n    tag_12:\n        /* \"#utility.yul\":564:570   */\n      0x00\n        /* \"#utility.yul\":572:578   */\n      dup1\n        /* \"#utility.yul\":580:586   */\n      0x00\n        /* \"#utility.yul\":629:631   */\n      0x60\n        /* \"#utility.yul\":617:626   */\n      dup5\n        /* \"#utility.yul\":608:615   */\n      dup7\n        /* \"#utility.yul\":604:627   */\n      sub\n        /* \"#utility.yul\":600:632   */\n      slt\n        /* \"#utility.yul\":597:716   */\n      iszero\n      tag_402\n      jumpi\n        /* \"#utility.yul\":635:714   */\n      tag_403\n      tag_399\n      jump\t// in\n    tag_403:\n        /* \"#utility.yul\":597:716   */\n    tag_402:\n        /* \"#utility.yul\":755:756   */\n      0x00\n        /* \"#utility.yul\":780:833   */\n      tag_404\n        /* \"#utility.yul\":825:832   */\n      dup7\n        /* \"#utility.yul\":816:822   */\n      dup3\n        /* \"#utility.yul\":805:814   */\n      dup8\n        /* \"#utility.yul\":801:823   */\n      add\n        /* \"#utility.yul\":780:833   */\n      tag_392\n      jump\t// in\n    tag_404:\n        /* \"#utility.yul\":770:833   */\n      swap4\n      pop\n        /* \"#utility.yul\":726:843   */\n      pop\n        /* \"#utility.yul\":882:884   */\n      0x20\n        /* \"#utility.yul\":908:961   */\n      tag_405\n        /* \"#utility.yul\":953:960   */\n      dup7\n        /* \"#utility.yul\":944:950   */\n      dup3\n        /* \"#utility.yul\":933:942   */\n      dup8\n        /* \"#utility.yul\":929:951   */\n      add\n        /* \"#utility.yul\":908:961   */\n      tag_392\n      jump\t// in\n    tag_405:\n        /* \"#utility.yul\":898:961   */\n      swap3\n      pop\n        /* \"#utility.yul\":853:971   */\n      pop\n        /* \"#utility.yul\":1010:1012   */\n      0x40\n        /* \"#utility.yul\":1036:1089   */\n      tag_406\n        /* \"#utility.yul\":1081:1088   */\n      dup7\n        /* \"#utility.yul\":1072:1078   */\n      dup3\n        /* \"#utility.yul\":1061:1070   */\n      dup8\n        /* \"#utility.yul\":1057:1079   */\n      add\n        /* \"#utility.yul\":1036:1089   */\n      tag_392\n      jump\t// in\n    tag_406:\n        /* \"#utility.yul\":1026:1089   */\n      swap2\n      pop\n        /* \"#utility.yul\":981:1099   */\n      pop\n        /* \"#utility.yul\":487:1106   */\n      swap3\n      pop\n      swap3\n      pop\n      swap3\n      jump\t// out\n        /* \"#utility.yul\":1112:1230   */\n    tag_407:\n        /* \"#utility.yul\":1199:1223   */\n      tag_409\n        /* \"#utility.yul\":1217:1222   */\n      dup2\n        /* \"#utility.yul\":1199:1223   */\n      tag_410\n      jump\t// in\n    tag_409:\n        /* \"#utility.yul\":1194:1197   */\n      dup3\n        /* \"#utility.yul\":1187:1224   */\n      mstore\n        /* \"#utility.yul\":1112:1230   */\n      pop\n      pop\n      jump\t// out\n        /* \"#utility.yul\":1236:1345   */\n    tag_411:\n        /* \"#utility.yul\":1317:1338   */\n      tag_413\n        /* \"#utility.yul\":1332:1337   */\n      dup2\n        /* \"#utility.yul\":1317:1338   */\n      tag_414\n      jump\t// in\n    tag_413:\n        /* \"#utility.yul\":1312:1315   */\n      dup3\n        /* \"#utility.yul\":1305:1339   */\n      mstore\n        /* \"#utility.yul\":1236:1345   */\n      pop\n      pop\n      jump\t// out\n        /* \"#utility.yul\":1351:1498   */\n    tag_415:\n        /* \"#utility.yul\":1446:1491   */\n      tag_417\n        /* \"#utility.yul\":1485:1490   */\n      dup2\n        /* \"#utility.yul\":1446:1491   */\n      tag_418\n      jump\t// in\n    tag_417:\n        /* \"#utility.yul\":1441:1444   */\n      dup3\n        /* \"#utility.yul\":1434:1492   */\n      mstore\n        /* \"#utility.yul\":1351:1498   */\n      pop\n      pop\n      jump\t// out\n        /* \"#utility.yul\":1504:1868   */\n    tag_419:\n        /* \"#utility.yul\":1592:1595   */\n      0x00\n        /* \"#utility.yul\":1620:1659   */\n      tag_421\n        /* \"#utility.yul\":1653:1658   */\n      dup3\n        /* \"#utility.yul\":1620:1659   */\n      tag_422\n      jump\t// in\n    tag_421:\n        /* \"#utility.yul\":1675:1746   */\n      tag_423\n        /* \"#utility.yul\":1739:1745   */\n      dup2\n        /* \"#utility.yul\":1734:1737   */\n      dup6\n        /* \"#utility.yul\":1675:1746   */\n      tag_424\n      jump\t// in\n    tag_423:\n        /* \"#utility.yul\":1668:1746   */\n      swap4\n      pop\n        /* \"#utility.yul\":1755:1807   */\n      tag_425\n        /* \"#utility.yul\":1800:1806   */\n      dup2\n        /* \"#utility.yul\":1795:1798   */\n      dup6\n        /* \"#utility.yul\":1788:1792   */\n      0x20\n        /* \"#utility.yul\":1781:1786   */\n      dup7\n        /* \"#utility.yul\":1777:1793   */\n      add\n        /* \"#utility.yul\":1755:1807   */\n      tag_426\n      jump\t// in\n    tag_425:\n        /* \"#utility.yul\":1832:1861   */\n      tag_427\n        /* \"#utility.yul\":1854:1860   */\n      dup2\n        /* \"#utility.yul\":1832:1861   */\n      tag_428\n      jump\t// in\n    tag_427:\n        /* \"#utility.yul\":1827:1830   */\n      dup5\n        /* \"#utility.yul\":1823:1862   */\n      add\n        /* \"#utility.yul\":1816:1862   */\n      swap2\n      pop\n        /* \"#utility.yul\":1596:1868   */\n      pop\n        /* \"#utility.yul\":1504:1868   */\n      swap3\n      swap2\n      pop\n      pop\n      jump\t// out\n        /* \"#utility.yul\":1874:1992   */\n    tag_429:\n        /* \"#utility.yul\":1961:1985   */\n      tag_431\n        /* \"#utility.yul\":1979:1984   */\n      dup2\n        /* \"#utility.yul\":1961:1985   */\n      tag_432\n      jump\t// in\n    tag_431:\n        /* \"#utility.yul\":1956:1959   */\n      dup3\n        /* \"#utility.yul\":1949:1986   */\n      mstore\n        /* \"#utility.yul\":1874:1992   */\n      pop\n      pop\n      jump\t// out\n        /* \"#utility.yul\":1998:2110   */\n    tag_433:\n        /* \"#utility.yul\":2081:2103   */\n      tag_435\n        /* \"#utility.yul\":2097:2102   */\n      dup2\n        /* \"#utility.yul\":2081:2103   */\n      tag_436\n      jump\t// in\n    tag_435:\n        /* \"#utility.yul\":2076:2079   */\n      dup3\n        /* \"#utility.yul\":2069:2104   */\n      mstore\n        /* \"#utility.yul\":1998:2110   */\n      pop\n      pop\n      jump\t// out\n        /* \"#utility.yul\":2116:2527   */\n    tag_15:\n        /* \"#utility.yul\":2251:2255   */\n      0x00\n        /* \"#utility.yul\":2289:2291   */\n      0x40\n        /* \"#utility.yul\":2278:2287   */\n      dup3\n        /* \"#utility.yul\":2274:2292   */\n      add\n        /* \"#utility.yul\":2266:2292   */\n      swap1\n      pop\n        /* \"#utility.yul\":2302:2367   */\n      tag_438\n        /* \"#utility.yul\":2364:2365   */\n      0x00\n        /* \"#utility.yul\":2353:2362   */\n      dup4\n        /* \"#utility.yul\":2349:2366   */\n      add\n        /* \"#utility.yul\":2340:2346   */\n      dup6\n        /* \"#utility.yul\":2302:2367   */\n      tag_411\n      jump\t// in\n    tag_438:\n        /* \"#utility.yul\":2414:2423   */\n      dup2\n        /* \"#utility.yul\":2408:2412   */\n      dup2\n        /* \"#utility.yul\":2404:2424   */\n      sub\n        /* \"#utility.yul\":2399:2401   */\n      0x20\n        /* \"#utility.yul\":2388:2397   */\n      dup4\n        /* \"#utility.yul\":2384:2402   */\n      add\n        /* \"#utility.yul\":2377:2425   */\n      mstore\n        /* \"#utility.yul\":2442:2520   */\n      tag_439\n        /* \"#utility.yul\":2515:2519   */\n      dup2\n        /* \"#utility.yul\":2506:2512   */\n      dup5\n        /* \"#utility.yul\":2442:2520   */\n      tag_419\n      jump\t// in\n    tag_439:\n        /* \"#utility.yul\":2434:2520   */\n      swap1\n      pop\n        /* \"#utility.yul\":2116:2527   */\n      swap4\n      swap3\n      pop\n      pop\n      pop\n      jump\t// out\n        /* \"#utility.yul\":2533:2755   */\n    tag_9:\n        /* \"#utility.yul\":2626:2630   */\n      0x00\n        /* \"#utility.yul\":2664:2666   */\n      0x20\n        /* \"#utility.yul\":2653:2662   */\n      dup3\n        /* \"#utility.yul\":2649:2667   */\n      add\n        /* \"#utility.yul\":2641:2667   */\n      swap1\n      pop\n        /* \"#utility.yul\":2677:2748   */\n      tag_441\n        /* \"#utility.yul\":2745:2746   */\n      0x00\n        /* \"#utility.yul\":2734:2743   */\n      dup4\n        /* \"#utility.yul\":2730:2747   */\n      add\n        /* \"#utility.yul\":2721:2727   */\n      dup5\n        /* \"#utility.yul\":2677:2748   */\n      tag_429\n      jump\t// in\n    tag_441:\n        /* \"#utility.yul\":2533:2755   */\n      swap3\n      swap2\n      pop\n      pop\n      jump\t// out\n        /* \"#utility.yul\":2761:3093   */\n    tag_38:\n        /* \"#utility.yul\":2882:2886   */\n      0x00\n        /* \"#utility.yul\":2920:2922   */\n      0x40\n        /* \"#utility.yul\":2909:2918   */\n      dup3\n        /* \"#utility.yul\":2905:2923   */\n      add\n        /* \"#utility.yul\":2897:2923   */\n      swap1\n      pop\n        /* \"#utility.yul\":2933:3004   */\n      tag_443\n        /* \"#utility.yul\":3001:3002   */\n      0x00\n        /* \"#utility.yul\":2990:2999   */\n      dup4\n        /* \"#utility.yul\":2986:3003   */\n      add\n        /* \"#utility.yul\":2977:2983   */\n      dup6\n        /* \"#utility.yul\":2933:3004   */\n      tag_429\n      jump\t// in\n    tag_443:\n        /* \"#utility.yul\":3014:3086   */\n      tag_444\n        /* \"#utility.yul\":3082:3084   */\n      0x20\n        /* \"#utility.yul\":3071:3080   */\n      dup4\n        /* \"#utility.yul\":3067:3085   */\n      add\n        /* \"#utility.yul\":3058:3064   */\n      dup5\n        /* \"#utility.yul\":3014:3086   */\n      tag_407\n      jump\t// in\n    tag_444:\n        /* \"#utility.yul\":2761:3093   */\n      swap4\n      swap3\n      pop\n      pop\n      pop\n      jump\t// out\n        /* \"#utility.yul\":3099:3652   */\n    tag_92:\n        /* \"#utility.yul\":3276:3280   */\n      0x00\n        /* \"#utility.yul\":3314:3317   */\n      0x80\n        /* \"#utility.yul\":3303:3312   */\n      dup3\n        /* \"#utility.yul\":3299:3318   */\n      add\n        /* \"#utility.yul\":3291:3318   */\n      swap1\n      pop\n        /* \"#utility.yul\":3328:3399   */\n      tag_446\n        /* \"#utility.yul\":3396:3397   */\n      0x00\n        /* \"#utility.yul\":3385:3394   */\n      dup4\n        /* \"#utility.yul\":3381:3398   */\n      add\n        /* \"#utility.yul\":3372:3378   */\n      dup8\n        /* \"#utility.yul\":3328:3399   */\n      tag_429\n      jump\t// in\n    tag_446:\n        /* \"#utility.yul\":3409:3481   */\n      tag_447\n        /* \"#utility.yul\":3477:3479   */\n      0x20\n        /* \"#utility.yul\":3466:3475   */\n      dup4\n        /* \"#utility.yul\":3462:3480   */\n      add\n        /* \"#utility.yul\":3453:3459   */\n      dup7\n        /* \"#utility.yul\":3409:3481   */\n      tag_407\n      jump\t// in\n    tag_447:\n        /* \"#utility.yul\":3491:3563   */\n      tag_448\n        /* \"#utility.yul\":3559:3561   */\n      0x40\n        /* \"#utility.yul\":3548:3557   */\n      dup4\n        /* \"#utility.yul\":3544:3562   */\n      add\n        /* \"#utility.yul\":3535:3541   */\n      dup6\n        /* \"#utility.yul\":3491:3563   */\n      tag_429\n      jump\t// in\n    tag_448:\n        /* \"#utility.yul\":3573:3645   */\n      tag_449\n        /* \"#utility.yul\":3641:3643   */\n      0x60\n        /* \"#utility.yul\":3630:3639   */\n      dup4\n        /* \"#utility.yul\":3626:3644   */\n      add\n        /* \"#utility.yul\":3617:3623   */\n      dup5\n        /* \"#utility.yul\":3573:3645   */\n      tag_429\n      jump\t// in\n    tag_449:\n        /* \"#utility.yul\":3099:3652   */\n      swap6\n      swap5\n      pop\n      pop\n      pop\n      pop\n      pop\n      jump\t// out\n        /* \"#utility.yul\":3658:4092   */\n    tag_119:\n        /* \"#utility.yul\":3803:3807   */\n      0x00\n        /* \"#utility.yul\":3841:3843   */\n      0x60\n        /* \"#utility.yul\":3830:3839   */\n      dup3\n        /* \"#utility.yul\":3826:3844   */\n      add\n        /* \"#utility.yul\":3818:3844   */\n      swap1\n      pop\n        /* \"#utility.yul\":3854:3925   */\n      tag_451\n        /* \"#utility.yul\":3922:3923   */\n      0x00\n        /* \"#utility.yul\":3911:3920   */\n      dup4\n        /* \"#utility.yul\":3907:3924   */\n      add\n        /* \"#utility.yul\":3898:3904   */\n      dup7\n        /* \"#utility.yul\":3854:3925   */\n      tag_429\n      jump\t// in\n    tag_451:\n        /* \"#utility.yul\":3935:4007   */\n      tag_452\n        /* \"#utility.yul\":4003:4005   */\n      0x20\n        /* \"#utility.yul\":3992:4001   */\n      dup4\n        /* \"#utility.yul\":3988:4006   */\n      add\n        /* \"#utility.yul\":3979:3985   */\n      dup6\n        /* \"#utility.yul\":3935:4007   */\n      tag_407\n      jump\t// in\n    tag_452:\n        /* \"#utility.yul\":4017:4085   */\n      tag_453\n        /* \"#utility.yul\":4081:4083   */\n      0x40\n        /* \"#utility.yul\":4070:4079   */\n      dup4\n        /* \"#utility.yul\":4066:4084   */\n      add\n        /* \"#utility.yul\":4057:4063   */\n      dup5\n        /* \"#utility.yul\":4017:4085   */\n      tag_433\n      jump\t// in\n    tag_453:\n        /* \"#utility.yul\":3658:4092   */\n      swap5\n      swap4\n      pop\n      pop\n      pop\n      pop\n      jump\t// out\n        /* \"#utility.yul\":4098:4446   */\n    tag_105:\n        /* \"#utility.yul\":4227:4231   */\n      0x00\n        /* \"#utility.yul\":4265:4267   */\n      0x40\n        /* \"#utility.yul\":4254:4263   */\n      dup3\n        /* \"#utility.yul\":4250:4268   */\n      add\n        /* \"#utility.yul\":4242:4268   */\n      swap1\n      pop\n        /* \"#utility.yul\":4278:4349   */\n      tag_455\n        /* \"#utility.yul\":4346:4347   */\n      0x00\n        /* \"#utility.yul\":4335:4344   */\n      dup4\n        /* \"#utility.yul\":4331:4348   */\n      add\n        /* \"#utility.yul\":4322:4328   */\n      dup6\n        /* \"#utility.yul\":4278:4349   */\n      tag_429\n      jump\t// in\n    tag_455:\n        /* \"#utility.yul\":4359:4439   */\n      tag_456\n        /* \"#utility.yul\":4435:4437   */\n      0x20\n        /* \"#utility.yul\":4424:4433   */\n      dup4\n        /* \"#utility.yul\":4420:4438   */\n      add\n        /* \"#utility.yul\":4411:4417   */\n      dup5\n        /* \"#utility.yul\":4359:4439   */\n      tag_415\n      jump\t// in\n    tag_456:\n        /* \"#utility.yul\":4098:4446   */\n      swap4\n      swap3\n      pop\n      pop\n      pop\n      jump\t// out\n        /* \"#utility.yul\":4533:4632   */\n    tag_422:\n        /* \"#utility.yul\":4585:4591   */\n      0x00\n        /* \"#utility.yul\":4619:4624   */\n      dup2\n        /* \"#utility.yul\":4613:4625   */\n      mload\n        /* \"#utility.yul\":4603:4625   */\n      swap1\n      pop\n        /* \"#utility.yul\":4533:4632   */\n      swap2\n      swap1\n      pop\n      jump\t// out\n        /* \"#utility.yul\":4638:4807   */\n    tag_424:\n        /* \"#utility.yul\":4722:4733   */\n      0x00\n        /* \"#utility.yul\":4756:4762   */\n      dup3\n        /* \"#utility.yul\":4751:4754   */\n      dup3\n        /* \"#utility.yul\":4744:4763   */\n      mstore\n        /* \"#utility.yul\":4796:4800   */\n      0x20\n        /* \"#utility.yul\":4791:4794   */\n      dup3\n        /* \"#utility.yul\":4787:4801   */\n      add\n        /* \"#utility.yul\":4772:4801   */\n      swap1\n      pop\n        /* \"#utility.yul\":4638:4807   */\n      swap3\n      swap2\n      pop\n      pop\n      jump\t// out\n        /* \"#utility.yul\":4813:4909   */\n    tag_410:\n        /* \"#utility.yul\":4850:4857   */\n      0x00\n        /* \"#utility.yul\":4879:4903   */\n      tag_462\n        /* \"#utility.yul\":4897:4902   */\n      dup3\n        /* \"#utility.yul\":4879:4903   */\n      tag_463\n      jump\t// in\n    tag_462:\n        /* \"#utility.yul\":4868:4903   */\n      swap1\n      pop\n        /* \"#utility.yul\":4813:4909   */\n      swap2\n      swap1\n      pop\n      jump\t// out\n        /* \"#utility.yul\":4915:5005   */\n    tag_414:\n        /* \"#utility.yul\":4949:4956   */\n      0x00\n        /* \"#utility.yul\":4992:4997   */\n      dup2\n        /* \"#utility.yul\":4985:4998   */\n      iszero\n        /* \"#utility.yul\":4978:4999   */\n      iszero\n        /* \"#utility.yul\":4967:4999   */\n      swap1\n      pop\n        /* \"#utility.yul\":4915:5005   */\n      swap2\n      swap1\n      pop\n      jump\t// out\n        /* \"#utility.yul\":5011:5142   */\n    tag_465:\n        /* \"#utility.yul\":5058:5065   */\n      0x00\n        /* \"#utility.yul\":5087:5092   */\n      dup2\n        /* \"#utility.yul\":5076:5092   */\n      swap1\n      pop\n        /* \"#utility.yul\":5093:5136   */\n      tag_467\n        /* \"#utility.yul\":5130:5135   */\n      dup3\n        /* \"#utility.yul\":5093:5136   */\n      tag_468\n      jump\t// in\n    tag_467:\n        /* \"#utility.yul\":5011:5142   */\n      swap2\n      swap1\n      pop\n      jump\t// out\n        /* \"#utility.yul\":5148:5274   */\n    tag_463:\n        /* \"#utility.yul\":5185:5192   */\n      0x00\n        /* \"#utility.yul\":5225:5267   */\n      0xffffffffffffffffffffffffffffffffffffffff\n        /* \"#utility.yul\":5218:5223   */\n      dup3\n        /* \"#utility.yul\":5214:5268   */\n      and\n        /* \"#utility.yul\":5203:5268   */\n      swap1\n      pop\n        /* \"#utility.yul\":5148:5274   */\n      swap2\n      swap1\n      pop\n      jump\t// out\n        /* \"#utility.yul\":5280:5357   */\n    tag_432:\n        /* \"#utility.yul\":5317:5324   */\n      0x00\n        /* \"#utility.yul\":5346:5351   */\n      dup2\n        /* \"#utility.yul\":5335:5351   */\n      swap1\n      pop\n        /* \"#utility.yul\":5280:5357   */\n      swap2\n      swap1\n      pop\n      jump\t// out\n        /* \"#utility.yul\":5363:5449   */\n    tag_436:\n        /* \"#utility.yul\":5398:5405   */\n      0x00\n        /* \"#utility.yul\":5438:5442   */\n      0xff\n        /* \"#utility.yul\":5431:5436   */\n      dup3\n        /* \"#utility.yul\":5427:5443   */\n      and\n        /* \"#utility.yul\":5416:5443   */\n      swap1\n      pop\n        /* \"#utility.yul\":5363:5449   */\n      swap2\n      swap1\n      pop\n      jump\t// out\n        /* \"#utility.yul\":5455:5586   */\n    tag_418:\n        /* \"#utility.yul\":5513:5522   */\n      0x00\n        /* \"#utility.yul\":5546:5580   */\n      tag_473\n        /* \"#utility.yul\":5574:5579   */\n      dup3\n        /* \"#utility.yul\":5546:5580   */\n      tag_465\n      jump\t// in\n    tag_473:\n        /* \"#utility.yul\":5533:5580   */\n      swap1\n      pop\n        /* \"#utility.yul\":5455:5586   */\n      swap2\n      swap1\n      pop\n      jump\t// out\n        /* \"#utility.yul\":5592:5899   */\n    tag_426:\n        /* \"#utility.yul\":5660:5661   */\n      0x00\n        /* \"#utility.yul\":5670:5783   */\n    tag_475:\n        /* \"#utility.yul\":5684:5690   */\n      dup4\n        /* \"#utility.yul\":5681:5682   */\n      dup2\n        /* \"#utility.yul\":5678:5691   */\n      lt\n        /* \"#utility.yul\":5670:5783   */\n      iszero\n      tag_477\n      jumpi\n        /* \"#utility.yul\":5769:5770   */\n      dup1\n        /* \"#utility.yul\":5764:5767   */\n      dup3\n        /* \"#utility.yul\":5760:5771   */\n      add\n        /* \"#utility.yul\":5754:5772   */\n      mload\n        /* \"#utility.yul\":5750:5751   */\n      dup2\n        /* \"#utility.yul\":5745:5748   */\n      dup5\n        /* \"#utility.yul\":5741:5752   */\n      add\n        /* \"#utility.yul\":5734:5773   */\n      mstore\n        /* \"#utility.yul\":5706:5708   */\n      0x20\n        /* \"#utility.yul\":5703:5704   */\n      dup2\n        /* \"#utility.yul\":5699:5709   */\n      add\n        /* \"#utility.yul\":5694:5709   */\n      swap1\n      pop\n        /* \"#utility.yul\":5670:5783   */\n      jump(tag_475)\n    tag_477:\n        /* \"#utility.yul\":5801:5807   */\n      dup4\n        /* \"#utility.yul\":5798:5799   */\n      dup2\n        /* \"#utility.yul\":5795:5808   */\n      gt\n        /* \"#utility.yul\":5792:5893   */\n      iszero\n      tag_478\n      jumpi\n        /* \"#utility.yul\":5881:5882   */\n      0x00\n        /* \"#utility.yul\":5872:5878   */\n      dup5\n        /* \"#utility.yul\":5867:5870   */\n      dup5\n        /* \"#utility.yul\":5863:5879   */\n      add\n        /* \"#utility.yul\":5856:5883   */\n      mstore\n        /* \"#utility.yul\":5792:5893   */\n    tag_478:\n        /* \"#utility.yul\":5641:5899   */\n      pop\n        /* \"#utility.yul\":5592:5899   */\n      pop\n      pop\n      pop\n      jump\t// out\n        /* \"#utility.yul\":5905:6138   */\n    tag_30:\n        /* \"#utility.yul\":5944:5947   */\n      0x00\n        /* \"#utility.yul\":5967:5991   */\n      tag_480\n        /* \"#utility.yul\":5985:5990   */\n      dup3\n        /* \"#utility.yul\":5967:5991   */\n      tag_432\n      jump\t// in\n    tag_480:\n        /* \"#utility.yul\":5958:5991   */\n      swap2\n      pop\n        /* \"#utility.yul\":6013:6079   */\n      0xffffffffffffffffffffffffffffffffffffffffffffffffffffffffffffffff\n        /* \"#utility.yul\":6006:6011   */\n      dup3\n        /* \"#utility.yul\":6003:6080   */\n      eq\n        /* \"#utility.yul\":6000:6103   */\n      iszero\n      tag_481\n      jumpi\n        /* \"#utility.yul\":6083:6101   */\n      tag_482\n      tag_483\n      jump\t// in\n    tag_482:\n        /* \"#utility.yul\":6000:6103   */\n    tag_481:\n        /* \"#utility.yul\":6130:6131   */\n      0x01\n        /* \"#utility.yul\":6123:6128   */\n      dup3\n        /* \"#utility.yul\":6119:6132   */\n      add\n        /* \"#utility.yul\":6112:6132   */\n      swap1\n      pop\n        /* \"#utility.yul\":5905:6138   */\n      swap2\n      swap1\n      pop\n      jump\t// out\n        /* \"#utility.yul\":6144:6311   */\n    tag_235:\n        /* \"#utility.yul\":6181:6184   */\n      0x00\n        /* \"#utility.yul\":6204:6226   */\n      tag_485\n        /* \"#utility.yul\":6220:6225   */\n      dup3\n        /* \"#utility.yul\":6204:6226   */\n      tag_436\n      jump\t// in\n    tag_485:\n        /* \"#utility.yul\":6195:6226   */\n      swap2\n      pop\n        /* \"#utility.yul\":6248:6252   */\n      0xff\n        /* \"#utility.yul\":6241:6246   */\n      dup3\n        /* \"#utility.yul\":6238:6253   */\n      eq\n        /* \"#utility.yul\":6235:6276   */\n      iszero\n      tag_486\n      jumpi\n        /* \"#utility.yul\":6256:6274   */\n      tag_487\n      tag_483\n      jump\t// in\n    tag_487:\n        /* \"#utility.yul\":6235:6276   */\n    tag_486:\n        /* \"#utility.yul\":6303:6304   */\n      0x01\n        /* \"#utility.yul\":6296:6301   */\n      dup3\n        /* \"#utility.yul\":6292:6305   */\n      add\n        /* \"#utility.yul\":6285:6305   */\n      swap1\n      pop\n        /* \"#utility.yul\":6144:6311   */\n      swap2\n      swap1\n      pop\n      jump\t// out\n        /* \"#utility.yul\":6317:6497   */\n    tag_483:\n        /* \"#utility.yul\":6365:6442   */\n      0x4e487b7100000000000000000000000000000000000000000000000000000000\n        /* \"#utility.yul\":6362:6363   */\n      0x00\n        /* \"#utility.yul\":6355:6443   */\n      mstore\n        /* \"#utility.yul\":6462:6466   */\n      0x11\n        /* \"#utility.yul\":6459:6460   */\n      0x04\n        /* \"#utility.yul\":6452:6467   */\n      mstore\n        /* \"#utility.yul\":6486:6490   */\n      0x24\n        /* \"#utility.yul\":6483:6484   */\n      0x00\n        /* \"#utility.yul\":6476:6491   */\n      revert\n        /* \"#utility.yul\":6503:6683   */\n    tag_26:\n        /* \"#utility.yul\":6551:6628   */\n      0x4e487b7100000000000000000000000000000000000000000000000000000000\n        /* \"#utility.yul\":6548:6549   */\n      0x00\n        /* \"#utility.yul\":6541:6629   */\n      mstore\n        /* \"#utility.yul\":6648:6652   */\n      0x21\n        /* \"#utility.yul\":6645:6646   */\n      0x04\n        /* \"#utility.yul\":6638:6653   */\n      mstore\n        /* \"#utility.yul\":6672:6676   */\n      0x24\n        /* \"#utility.yul\":6669:6670   */\n      0x00\n        /* \"#utility.yul\":6662:6677   */\n      revert\n        /* \"#utility.yul\":6689:6869   */\n    tag_72:\n        /* \"#utility.yul\":6737:6814   */\n      0x4e487b7100000000000000000000000000000000000000000000000000000000\n        /* \"#utility.yul\":6734:6735   */\n      0x00\n        /* \"#utility.yul\":6727:6815   */\n      mstore\n        /* \"#utility.yul\":6834:6838   */\n      0x32\n        /* \"#utility.yul\":6831:6832   */\n      0x04\n        /* \"#utility.yul\":6824:6839   */\n      mstore\n        /* \"#utility.yul\":6858:6862   */\n      0x24\n        /* \"#utility.yul\":6855:6856   */\n      0x00\n        /* \"#utility.yul\":6848:6863   */\n      revert\n        /* \"#utility.yul\":6998:7115   */\n    tag_399:\n        /* \"#utility.yul\":7107:7108   */\n      0x00\n        /* \"#utility.yul\":7104:7105   */\n      dup1\n        /* \"#utility.yul\":7097:7109   */\n      revert\n        /* \"#utility.yul\":7121:7223   */\n    tag_428:\n        /* \"#utility.yul\":7162:7168   */\n      0x00\n        /* \"#utility.yul\":7213:7215   */\n      0x1f\n        /* \"#utility.yul\":7209:7216   */\n      not\n        /* \"#utility.yul\":7204:7206   */\n      0x1f\n        /* \"#utility.yul\":7197:7202   */\n      dup4\n        /* \"#utility.yul\":7193:7207   */\n      add\n        /* \"#utility.yul\":7189:7217   */\n      and\n        /* \"#utility.yul\":7179:7217   */\n      swap1\n      pop\n        /* \"#utility.yul\":7121:7223   */\n      swap2\n      swap1\n      pop\n      jump\t// out\n        /* \"#utility.yul\":7229:7344   */\n    tag_468:\n        /* \"#utility.yul\":7312:7313   */\n      0x04\n        /* \"#utility.yul\":7305:7310   */\n      dup2\n        /* \"#utility.yul\":7302:7314   */\n      lt\n        /* \"#utility.yul\":7292:7338   */\n      tag_496\n      jumpi\n        /* \"#utility.yul\":7318:7336   */\n      tag_497\n      tag_26\n      jump\t// in\n    tag_497:\n        /* \"#utility.yul\":7292:7338   */\n    tag_496:\n        /* \"#utility.yul\":7229:7344   */\n      pop\n      jump\t// out\n        /* \"#utility.yul\":7350:7472   */\n    tag_395:\n        /* \"#utility.yul\":7423:7447   */\n      tag_499\n        /* \"#utility.yul\":7441:7446   */\n      dup2\n        /* \"#utility.yul\":7423:7447   */\n      tag_432\n      jump\t// in\n    tag_499:\n        /* \"#utility.yul\":7416:7421   */\n      dup2\n        /* \"#utility.yul\":7413:7448   */\n      eq\n        /* \"#utility.yul\":7403:7466   */\n      tag_500\n      jumpi\n        /* \"#utility.yul\":7462:7463   */\n      0x00\n        /* \"#utility.yul\":7459:7460   */\n      dup1\n        /* \"#utility.yul\":7452:7464   */\n      revert\n        /* \"#utility.yul\":7403:7466   */\n    tag_500:\n        /* \"#utility.yul\":7350:7472   */\n      pop\n      jump\t// out\n    stop\n    data_024d23689c7c0d36b0295c402b03cbbb30a16b10831d85b0a50598b30664ffd5 546865726520697320616c72656164792061206d61726b2061742074686520676976656e20636f6f7264696e617465732e\n    data_1dec2345cf2c9904d4bfc97b685b7aceb7535b3c20b581cfcd1a8aad6e3c0022 4a6f696e656420617320706c6179657220312e2047616d65206861736e27742073746172746564207965742e\n    data_2307c6cecb6cdd4358fafc00b91c477d19bbf696b7e2882ab8bda9a452fbe182 4a6f696e656420617320706c6179657220312e20506c61796572203220616c7265616479206578697374732e20506c6179657220312063616e206d616b6520746865206669727374206d6f76652e\n    data_476d10d052133a3cad173f786601a80ea3fb2cf99f87880757d5b4e323ffaa9b 4a6f696e656420617320706c6179657220322e20506c6179657220312063616e206d616b6520746865206669727374206d6f76652e\n    data_54a12ab040607f091841913999c9806ab3bf0ebbc1cf1cdac8686e31b8bf9155 4a6f696e656420617320706c6179657220322e2047616d65206861736e27742073746172746564207965742e\n    data_cd1c82b9c97f6de04235118f1b9fb732f775ca593a234137657e86aa65a28d62 546869732067616d6520646f65736e277420686176652074776f20706c6179657273207965742e\n\n    auxdata: 0xa26469706673582212208efe1ddb263eaf66ae3bda9d25f1e7c07027a75e4367b60f00f4a57b776a6ce864736f6c63430008070033\n}\n",
				"bytecode": {
					"linkReferences": {},
					"object": "608060405234801561001057600080fd5b50612193806100206000396000f3fe608060405234801561001057600080fd5b50600436106100415760003560e01c80637d03f5f314610046578063cfc2f5ff14610064578063efaa55a014610095575b600080fd5b61004e6100c6565b60405161005b9190611d37565b60405180910390f35b61007e60048036038101906100799190611c30565b61027b565b60405161008c929190611d07565b60405180910390f35b6100af60048036038101906100aa9190611c03565b610a85565b6040516100bd929190611d07565b60405180910390f35b60006100d06119ea565b6001816060019060028111156100e9576100e8611f8b565b5b908160028111156100fd576100fc611f8b565b5b815250506001600081548092919061011490611ee9565b919050555080600080600154815260200190815260200160002060008201518160000160006101000a81548173ffffffffffffffffffffffffffffffffffffffff021916908373ffffffffffffffffffffffffffffffffffffffff16021790555060208201518160010160006101000a81548173ffffffffffffffffffffffffffffffffffffffff021916908373ffffffffffffffffffffffffffffffffffffffff16021790555060408201518160010160146101000a81548160ff021916908360038111156101e7576101e6611f8b565b5b021790555060608201518160010160156101000a81548160ff0219169083600281111561021757610216611f8b565b5b0217905550608082015181600201906003610233929190611a6f565b509050507fc3e0f84839dc888c892a013d10c8f9d6dc05a21a879d0ce468ca558013e9121c6001543360405161026a929190611d52565b60405180910390a160015491505090565b6000606060015485118061035d5750600073ffffffffffffffffffffffffffffffffffffffff1660008087815260200190815260200160002060000160009054906101000a900473ffffffffffffffffffffffffffffffffffffffff1673ffffffffffffffffffffffffffffffffffffffff1614801561035c5750600073ffffffffffffffffffffffffffffffffffffffff1660008087815260200190815260200160002060010160009054906101000a900473ffffffffffffffffffffffffffffffffffffffff1673ffffffffffffffffffffffffffffffffffffffff16145b5b156103a35760006040518060400160405280601481526020017f4e6f20737563682067616d65206578697374732e00000000000000000000000081525091509150610a7d565b60008410806103b25750600284115b156103f85760006040518060400160405280601f81526020017f496e76616c696420696e70757420666f7220782d636f6f7264696e6174652e0081525091509150610a7d565b60008310806104075750600283115b1561044d5760006040518060400160405280601f81526020017f496e76616c696420696e70757420666f7220792d636f6f7264696e6174652e0081525091509150610a7d565b600073ffffffffffffffffffffffffffffffffffffffff1660008087815260200190815260200160002060000160009054906101000a900473ffffffffffffffffffffffffffffffffffffffff1673ffffffffffffffffffffffffffffffffffffffff16148061051e5750600073ffffffffffffffffffffffffffffffffffffffff1660008087815260200190815260200160002060010160009054906101000a900473ffffffffffffffffffffffffffffffffffffffff1673ffffffffffffffffffffffffffffffffffffffff16145b156105475760006040518060600160405280602781526020016121376027913991509150610a7d565b60008060008781526020019081526020016000206040518060a00160405290816000820160009054906101000a900473ffffffffffffffffffffffffffffffffffffffff1673ffffffffffffffffffffffffffffffffffffffff1673ffffffffffffffffffffffffffffffffffffffff1681526020016001820160009054906101000a900473ffffffffffffffffffffffffffffffffffffffff1673ffffffffffffffffffffffffffffffffffffffff1673ffffffffffffffffffffffffffffffffffffffff1681526020016001820160149054906101000a900460ff16600381111561063757610636611f8b565b5b600381111561064957610648611f8b565b5b81526020016001820160159054906101000a900460ff16600281111561067257610671611f8b565b5b600281111561068457610683611f8b565b5b815260200160028201600380602002604051908101604052809291906000905b828210156107205783820160038060200260405190810160405280929190826003801561070c576020028201916000905b82829054906101000a900460ff1660ff16815260200190600101906020826000010492830192600103820291508084116106d55790505b5050505050815260200190600101906106a4565b505050508152505090506000600381111561073e5761073d611f8b565b5b8160400151600381111561075557610754611f8b565b5b1461079c5760006040518060400160405280601b81526020017f5468652067616d652068617320616c726561647920656e6465642e00000000008152509250925050610a7d565b6107a581610f28565b73ffffffffffffffffffffffffffffffffffffffff163373ffffffffffffffffffffffffffffffffffffffff16146108195760006040518060400160405280601481526020017f4974206973206e6f7420796f7572207475726e2e0000000000000000000000008152509250925050610a7d565b60018160800151866003811061083257610831611fba565b5b6020020151856003811061084957610848611fba565b5b602002015160ff161480610892575060028160800151866003811061087157610870611fba565b5b6020020151856003811061088857610887611fba565b5b602002015160ff16145b156108bc57600060405180606001604052806031815260200161202b603191399250925050610a7d565b600160028111156108d0576108cf611f8b565b5b816060015160028111156108e7576108e6611f8b565b5b146108f35760026108f6565b60015b8160800151866003811061090d5761090c611fba565b5b6020020151856003811061092457610923611fba565b5b602002019060ff16908160ff16815250507faa03b0eb53c70f6640eba4234ad2c58782c8927e7abf7d3a6e2c45d07ca9d5838633878760405161096a9493929190611d7b565b60405180910390a160006109818260800151610fad565b90506000600381111561099757610996611f8b565b5b8160038111156109aa576109a9611f8b565b5b14610a5b5780826040019060038111156109c7576109c6611f8b565b5b908160038111156109db576109da611f8b565b5b815250507f132b564c6f96092065580fd28989d181dfbbfe4aa2fb7fb1eda8af68ba3073e08782604051610a10929190611df7565b60405180910390a160016040518060400160405280601181526020017f5468652067616d65206973206f7665722e000000000000000000000000000000815250935093505050610a7d565b610a648261113b565b6001604051806020016040528060008152509350935050505b935093915050565b60006060600154831115610ad45760006040518060400160405280601481526020017f4e6f20737563682067616d65206578697374732e00000000000000000000000081525091509150610f23565b60003390506000806000868152602001908152602001600020905060006003811115610b0357610b02611f8b565b5b8160010160149054906101000a900460ff166003811115610b2757610b26611f8b565b5b14610b6f5760006040518060400160405280601e81526020017f546869732067616d6520697320616c726561647920636f6d706c6574652e0000815250935093505050610f23565b600073ffffffffffffffffffffffffffffffffffffffff168160000160009054906101000a900473ffffffffffffffffffffffffffffffffffffffff1673ffffffffffffffffffffffffffffffffffffffff161415610d2a57818160000160006101000a81548173ffffffffffffffffffffffffffffffffffffffff021916908373ffffffffffffffffffffffffffffffffffffffff1602179055507f8f5866c09e99941481e2be79d3a7698371543fe3ad3387b903553fd6043e8550858360016002811115610c4257610c41611f8b565b5b604051610c5193929190611dc0565b60405180910390a1600073ffffffffffffffffffffffffffffffffffffffff168160010160009054906101000a900473ffffffffffffffffffffffffffffffffffffffff1673ffffffffffffffffffffffffffffffffffffffff1614610d045760018160010160156101000a81548160ff02191690836002811115610cd957610cd8611f8b565b5b021790555060016040518060800160405280604e8152602001612088604e9139935093505050610f23565b60016040518060600160405280602c815260200161205c602c9139935093505050610f23565b600073ffffffffffffffffffffffffffffffffffffffff168160010160009054906101000a900473ffffffffffffffffffffffffffffffffffffffff1673ffffffffffffffffffffffffffffffffffffffff161415610ee457818160010160006101000a81548173ffffffffffffffffffffffffffffffffffffffff021916908373ffffffffffffffffffffffffffffffffffffffff1602179055507f8f5866c09e99941481e2be79d3a7698371543fe3ad3387b903553fd6043e85508583600280811115610dfc57610dfb611f8b565b5b604051610e0b93929190611dc0565b60405180910390a1600073ffffffffffffffffffffffffffffffffffffffff168160000160009054906101000a900473ffffffffffffffffffffffffffffffffffffffff1673ffffffffffffffffffffffffffffffffffffffff1614610ebe5760018160010160156101000a81548160ff02191690836002811115610e9357610e92611f8b565b5b021790555060016040518060600160405280603581526020016120d660359139935093505050610f23565b60016040518060600160405280602c815260200161210b602c9139935093505050610f23565b60006040518060400160405280602081526020017f546869732067616d6520616c726561647920686173203220706c61796572732e8152509350935050505b915091565b600060016002811115610f3e57610f3d611f8b565b5b82606001516002811115610f5557610f54611f8b565b5b1415610f675781600001519050610fa8565b600280811115610f7a57610f79611f8b565b5b82606001516002811115610f9157610f90611f8b565b5b1415610fa35781602001519050610fa8565b600090505b919050565b600080610fb9836111d7565b905060016002811115610fcf57610fce611f8b565b5b816002811115610fe257610fe1611f8b565b5b1415610ff2576001915050611136565b60028081111561100557611004611f8b565b5b81600281111561101857611017611f8b565b5b1415611028576002915050611136565b611031836113c0565b90506001600281111561104757611046611f8b565b5b81600281111561105a57611059611f8b565b5b141561106a576001915050611136565b60028081111561107d5761107c611f8b565b5b8160028111156110905761108f611f8b565b5b14156110a0576002915050611136565b6110a9836115a9565b9050600160028111156110bf576110be611f8b565b5b8160028111156110d2576110d1611f8b565b5b14156110e2576001915050611136565b6002808111156110f5576110f4611f8b565b5b81600281111561110857611107611f8b565b5b1415611118576002915050611136565b61112183611905565b15611130576003915050611136565b60009150505b919050565b6001600281111561114f5761114e611f8b565b5b8160600151600281111561116657611165611f8b565b5b14156111a25760028160600190600281111561118557611184611f8b565b5b9081600281111561119957611198611f8b565b5b815250506111d4565b6001816060019060028111156111bb576111ba611f8b565b5b908160028111156111cf576111ce611f8b565b5b815250505b50565b600080600090505b60038160ff1610156113b5576001838260ff166003811061120357611202611fba565b5b602002015160006003811061121b5761121a611fba565b5b602002015160ff16148061126457506002838260ff166003811061124257611241611fba565b5b602002015160006003811061125a57611259611fba565b5b602002015160ff16145b80156112d95750828160ff166003811061128157611280611fba565b5b602002015160016003811061129957611298611fba565b5b602002015160ff16838260ff16600381106112b7576112b6611fba565b5b60200201516000600381106112cf576112ce611fba565b5b602002015160ff16145b801561134e5750828160ff16600381106112f6576112f5611fba565b5b602002015160026003811061130e5761130d611fba565b5b602002015160ff16838260ff166003811061132c5761132b611fba565b5b602002015160016003811061134457611343611fba565b5b602002015160ff16145b156113a2576001838260ff166003811061136b5761136a611fba565b5b602002015160006003811061138357611382611fba565b5b602002015160ff161461139757600261139a565b60015b9150506113bb565b80806113ad90611f32565b9150506111df565b50600090505b919050565b600080600090505b60038160ff16101561159e576001836000600381106113ea576113e9611fba565b5b60200201518260ff166003811061140457611403611fba565b5b602002015160ff16148061144d575060028360006003811061142957611428611fba565b5b60200201518260ff166003811061144357611442611fba565b5b602002015160ff16145b80156114c257508260016003811061146857611467611fba565b5b60200201518160ff166003811061148257611481611fba565b5b602002015160ff168360006003811061149e5761149d611fba565b5b60200201518260ff16600381106114b8576114b7611fba565b5b602002015160ff16145b80156115375750826002600381106114dd576114dc611fba565b5b60200201518160ff16600381106114f7576114f6611fba565b5b602002015160ff168360016003811061151357611512611fba565b5b60200201518260ff166003811061152d5761152c611fba565b5b602002015160ff16145b1561158b5760018360006003811061155257611551611fba565b5b60200201518260ff166003811061156c5761156b611fba565b5b602002015160ff1614611580576002611583565b60015b9150506115a4565b808061159690611f32565b9150506113c8565b50600090505b919050565b60006001826000600381106115c1576115c0611fba565b5b60200201516000600381106115d9576115d8611fba565b5b602002015160ff16148061162057506002826000600381106115fe576115fd611fba565b5b602002015160006003811061161657611615611fba565b5b602002015160ff16145b801561169157508160016003811061163b5761163a611fba565b5b602002015160016003811061165357611652611fba565b5b602002015160ff168260006003811061166f5761166e611fba565b5b602002015160006003811061168757611686611fba565b5b602002015160ff16145b80156117025750816002600381106116ac576116ab611fba565b5b60200201516002600381106116c4576116c3611fba565b5b602002015160ff16826001600381106116e0576116df611fba565b5b60200201516001600381106116f8576116f7611fba565b5b602002015160ff16145b156117535760018260006003811061171d5761171c611fba565b5b602002015160006003811061173557611734611fba565b5b602002015160ff161461174957600261174c565b60015b9050611900565b60018260006003811061176957611768611fba565b5b602002015160026003811061178157611780611fba565b5b602002015160ff1614806117c857506002826000600381106117a6576117a5611fba565b5b60200201516002600381106117be576117bd611fba565b5b602002015160ff16145b80156118395750816001600381106117e3576117e2611fba565b5b60200201516001600381106117fb576117fa611fba565b5b602002015160ff168260006003811061181757611816611fba565b5b602002015160026003811061182f5761182e611fba565b5b602002015160ff16145b80156118aa57508160026003811061185457611853611fba565b5b602002015160006003811061186c5761186b611fba565b5b602002015160ff168260016003811061188857611887611fba565b5b60200201516001600381106118a05761189f611fba565b5b602002015160ff16145b156118fb576001826000600381106118c5576118c4611fba565b5b60200201516002600381106118dd576118dc611fba565b5b602002015160ff16146118f15760026118f4565b60015b9050611900565b600090505b919050565b600080600090505b60038160ff1610156119df5760005b60038160ff1610156119cb576001848360ff16600381106119405761193f611fba565b5b60200201518260ff166003811061195a57611959611fba565b5b602002015160ff16141580156119a857506002848360ff166003811061198357611982611fba565b5b60200201518260ff166003811061199d5761199c611fba565b5b602002015160ff1614155b156119b8576000925050506119e5565b80806119c390611f32565b91505061191c565b5080806119d790611f32565b91505061190d565b50600190505b919050565b6040518060a00160405280600073ffffffffffffffffffffffffffffffffffffffff168152602001600073ffffffffffffffffffffffffffffffffffffffff16815260200160006003811115611a4357611a42611f8b565b5b815260200160006002811115611a5c57611a5b611f8b565b5b8152602001611a69611abd565b81525090565b8260038101928215611aac579160200282015b82811115611aab57825182906003611a9b929190611aea565b5091602001919060010190611a82565b5b509050611ab99190611b84565b5090565b60405180606001604052806003905b611ad4611ba8565b815260200190600190039081611acc5790505090565b826003601f01602090048101928215611b735791602002820160005b83821115611b4457835183826101000a81548160ff021916908360ff1602179055509260200192600101602081600001049283019260010302611b06565b8015611b715782816101000a81549060ff0219169055600101602081600001049283019260010302611b44565b505b509050611b809190611bca565b5090565b5b80821115611ba45760008181611b9b9190611be7565b50600101611b85565b5090565b6040518060600160405280600390602082028036833780820191505090505090565b5b80821115611be3576000816000905550600101611bcb565b5090565b5060009055565b600081359050611bfd81612013565b92915050565b600060208284031215611c1957611c18611fe9565b5b6000611c2784828501611bee565b91505092915050565b600080600060608486031215611c4957611c48611fe9565b5b6000611c5786828701611bee565b9350506020611c6886828701611bee565b9250506040611c7986828701611bee565b9150509250925092565b611c8c81611e3c565b82525050565b611c9b81611e4e565b82525050565b611caa81611ea4565b82525050565b6000611cbb82611e20565b611cc58185611e2b565b9350611cd5818560208601611eb6565b611cde81611fee565b840191505092915050565b611cf281611e8d565b82525050565b611d0181611e97565b82525050565b6000604082019050611d1c6000830185611c92565b8181036020830152611d2e8184611cb0565b90509392505050565b6000602082019050611d4c6000830184611ce9565b92915050565b6000604082019050611d676000830185611ce9565b611d746020830184611c83565b9392505050565b6000608082019050611d906000830187611ce9565b611d9d6020830186611c83565b611daa6040830185611ce9565b611db76060830184611ce9565b95945050505050565b6000606082019050611dd56000830186611ce9565b611de26020830185611c83565b611def6040830184611cf8565b949350505050565b6000604082019050611e0c6000830185611ce9565b611e196020830184611ca1565b9392505050565b600081519050919050565b600082825260208201905092915050565b6000611e4782611e6d565b9050919050565b60008115159050919050565b6000819050611e6882611fff565b919050565b600073ffffffffffffffffffffffffffffffffffffffff82169050919050565b6000819050919050565b600060ff82169050919050565b6000611eaf82611e5a565b9050919050565b60005b83811015611ed4578082015181840152602081019050611eb9565b83811115611ee3576000848401525b50505050565b6000611ef482611e8d565b91507fffffffffffffffffffffffffffffffffffffffffffffffffffffffffffffffff821415611f2757611f26611f5c565b5b600182019050919050565b6000611f3d82611e97565b915060ff821415611f5157611f50611f5c565b5b600182019050919050565b7f4e487b7100000000000000000000000000000000000000000000000000000000600052601160045260246000fd5b7f4e487b7100000000000000000000000000000000000000000000000000000000600052602160045260246000fd5b7f4e487b7100000000000000000000000000000000000000000000000000000000600052603260045260246000fd5b600080fd5b6000601f19601f8301169050919050565b600481106120105761200f611f8b565b5b50565b61201c81611e8d565b811461202757600080fd5b5056fe546865726520697320616c72656164792061206d61726b2061742074686520676976656e20636f6f7264696e617465732e4a6f696e656420617320706c6179657220312e2047616d65206861736e27742073746172746564207965742e4a6f696e656420617320706c6179657220312e20506c61796572203220616c7265616479206578697374732e20506c6179657220312063616e206d616b6520746865206669727374206d6f76652e4a6f696e656420617320706c6179657220322e20506c6179657220312063616e206d616b6520746865206669727374206d6f76652e4a6f696e656420617320706c6179657220322e2047616d65206861736e27742073746172746564207965742e546869732067616d6520646f65736e277420686176652074776f20706c6179657273207965742ea26469706673582212208efe1ddb263eaf66ae3bda9d25f1e7c07027a75e4367b60f00f4a57b776a6ce864736f6c63430008070033",
					"opcodes": "PUSH1 0x80 PUSH1 0x40 MSTORE CALLVALUE DUP1 ISZERO PUSH2 0x10 JUMPI PUSH1 0x0 DUP1 REVERT JUMPDEST POP PUSH2 0x2193 DUP1 PUSH2 0x20 PUSH1 0x0 CODECOPY PUSH1 0x0 RETURN INVALID PUSH1 0x80 PUSH1 0x40 MSTORE CALLVALUE DUP1 ISZERO PUSH2 0x10 JUMPI PUSH1 0x0 DUP1 REVERT JUMPDEST POP PUSH1 0x4 CALLDATASIZE LT PUSH2 0x41 JUMPI PUSH1 0x0 CALLDATALOAD PUSH1 0xE0 SHR DUP1 PUSH4 0x7D03F5F3 EQ PUSH2 0x46 JUMPI DUP1 PUSH4 0xCFC2F5FF EQ PUSH2 0x64 JUMPI DUP1 PUSH4 0xEFAA55A0 EQ PUSH2 0x95 JUMPI JUMPDEST PUSH1 0x0 DUP1 REVERT JUMPDEST PUSH2 0x4E PUSH2 0xC6 JUMP JUMPDEST PUSH1 0x40 MLOAD PUSH2 0x5B SWAP2 SWAP1 PUSH2 0x1D37 JUMP JUMPDEST PUSH1 0x40 MLOAD DUP1 SWAP2 SUB SWAP1 RETURN JUMPDEST PUSH2 0x7E PUSH1 0x4 DUP1 CALLDATASIZE SUB DUP2 ADD SWAP1 PUSH2 0x79 SWAP2 SWAP1 PUSH2 0x1C30 JUMP JUMPDEST PUSH2 0x27B JUMP JUMPDEST PUSH1 0x40 MLOAD PUSH2 0x8C SWAP3 SWAP2 SWAP1 PUSH2 0x1D07 JUMP JUMPDEST PUSH1 0x40 MLOAD DUP1 SWAP2 SUB SWAP1 RETURN JUMPDEST PUSH2 0xAF PUSH1 0x4 DUP1 CALLDATASIZE SUB DUP2 ADD SWAP1 PUSH2 0xAA SWAP2 SWAP1 PUSH2 0x1C03 JUMP JUMPDEST PUSH2 0xA85 JUMP JUMPDEST PUSH1 0x40 MLOAD PUSH2 0xBD SWAP3 SWAP2 SWAP1 PUSH2 0x1D07 JUMP JUMPDEST PUSH1 0x40 MLOAD DUP1 SWAP2 SUB SWAP1 RETURN JUMPDEST PUSH1 0x0 PUSH2 0xD0 PUSH2 0x19EA JUMP JUMPDEST PUSH1 0x1 DUP2 PUSH1 0x60 ADD SWAP1 PUSH1 0x2 DUP2 GT ISZERO PUSH2 0xE9 JUMPI PUSH2 0xE8 PUSH2 0x1F8B JUMP JUMPDEST JUMPDEST SWAP1 DUP2 PUSH1 0x2 DUP2 GT ISZERO PUSH2 0xFD JUMPI PUSH2 0xFC PUSH2 0x1F8B JUMP JUMPDEST JUMPDEST DUP2 MSTORE POP POP PUSH1 0x1 PUSH1 0x0 DUP2 SLOAD DUP1 SWAP3 SWAP2 SWAP1 PUSH2 0x114 SWAP1 PUSH2 0x1EE9 JUMP JUMPDEST SWAP2 SWAP1 POP SSTORE POP DUP1 PUSH1 0x0 DUP1 PUSH1 0x1 SLOAD DUP2 MSTORE PUSH1 0x20 ADD SWAP1 DUP2 MSTORE PUSH1 0x20 ADD PUSH1 0x0 KECCAK256 PUSH1 0x0 DUP3 ADD MLOAD DUP2 PUSH1 0x0 ADD PUSH1 0x0 PUSH2 0x100 EXP DUP2 SLOAD DUP2 PUSH20 0xFFFFFFFFFFFFFFFFFFFFFFFFFFFFFFFFFFFFFFFF MUL NOT AND SWAP1 DUP4 PUSH20 0xFFFFFFFFFFFFFFFFFFFFFFFFFFFFFFFFFFFFFFFF AND MUL OR SWAP1 SSTORE POP PUSH1 0x20 DUP3 ADD MLOAD DUP2 PUSH1 0x1 ADD PUSH1 0x0 PUSH2 0x100 EXP DUP2 SLOAD DUP2 PUSH20 0xFFFFFFFFFFFFFFFFFFFFFFFFFFFFFFFFFFFFFFFF MUL NOT AND SWAP1 DUP4 PUSH20 0xFFFFFFFFFFFFFFFFFFFFFFFFFFFFFFFFFFFFFFFF AND MUL OR SWAP1 SSTORE POP PUSH1 0x40 DUP3 ADD MLOAD DUP2 PUSH1 0x1 ADD PUSH1 0x14 PUSH2 0x100 EXP DUP2 SLOAD DUP2 PUSH1 0xFF MUL NOT AND SWAP1 DUP4 PUSH1 0x3 DUP2 GT ISZERO PUSH2 0x1E7 JUMPI PUSH2 0x1E6 PUSH2 0x1F8B JUMP JUMPDEST JUMPDEST MUL OR SWAP1 SSTORE POP PUSH1 0x60 DUP3 ADD MLOAD DUP2 PUSH1 0x1 ADD PUSH1 0x15 PUSH2 0x100 EXP DUP2 SLOAD DUP2 PUSH1 0xFF MUL NOT AND SWAP1 DUP4 PUSH1 0x2 DUP2 GT ISZERO PUSH2 0x217 JUMPI PUSH2 0x216 PUSH2 0x1F8B JUMP JUMPDEST JUMPDEST MUL OR SWAP1 SSTORE POP PUSH1 0x80 DUP3 ADD MLOAD DUP2 PUSH1 0x2 ADD SWAP1 PUSH1 0x3 PUSH2 0x233 SWAP3 SWAP2 SWAP1 PUSH2 0x1A6F JUMP JUMPDEST POP SWAP1 POP POP PUSH32 0xC3E0F84839DC888C892A013D10C8F9D6DC05A21A879D0CE468CA558013E9121C PUSH1 0x1 SLOAD CALLER PUSH1 0x40 MLOAD PUSH2 0x26A SWAP3 SWAP2 SWAP1 PUSH2 0x1D52 JUMP JUMPDEST PUSH1 0x40 MLOAD DUP1 SWAP2 SUB SWAP1 LOG1 PUSH1 0x1 SLOAD SWAP2 POP POP SWAP1 JUMP JUMPDEST PUSH1 0x0 PUSH1 0x60 PUSH1 0x1 SLOAD DUP6 GT DUP1 PUSH2 0x35D JUMPI POP PUSH1 0x0 PUSH20 0xFFFFFFFFFFFFFFFFFFFFFFFFFFFFFFFFFFFFFFFF AND PUSH1 0x0 DUP1 DUP8 DUP2 MSTORE PUSH1 0x20 ADD SWAP1 DUP2 MSTORE PUSH1 0x20 ADD PUSH1 0x0 KECCAK256 PUSH1 0x0 ADD PUSH1 0x0 SWAP1 SLOAD SWAP1 PUSH2 0x100 EXP SWAP1 DIV PUSH20 0xFFFFFFFFFFFFFFFFFFFFFFFFFFFFFFFFFFFFFFFF AND PUSH20 0xFFFFFFFFFFFFFFFFFFFFFFFFFFFFFFFFFFFFFFFF AND EQ DUP1 ISZERO PUSH2 0x35C JUMPI POP PUSH1 0x0 PUSH20 0xFFFFFFFFFFFFFFFFFFFFFFFFFFFFFFFFFFFFFFFF AND PUSH1 0x0 DUP1 DUP8 DUP2 MSTORE PUSH1 0x20 ADD SWAP1 DUP2 MSTORE PUSH1 0x20 ADD PUSH1 0x0 KECCAK256 PUSH1 0x1 ADD PUSH1 0x0 SWAP1 SLOAD SWAP1 PUSH2 0x100 EXP SWAP1 DIV PUSH20 0xFFFFFFFFFFFFFFFFFFFFFFFFFFFFFFFFFFFFFFFF AND PUSH20 0xFFFFFFFFFFFFFFFFFFFFFFFFFFFFFFFFFFFFFFFF AND EQ JUMPDEST JUMPDEST ISZERO PUSH2 0x3A3 JUMPI PUSH1 0x0 PUSH1 0x40 MLOAD DUP1 PUSH1 0x40 ADD PUSH1 0x40 MSTORE DUP1 PUSH1 0x14 DUP2 MSTORE PUSH1 0x20 ADD PUSH32 0x4E6F20737563682067616D65206578697374732E000000000000000000000000 DUP2 MSTORE POP SWAP2 POP SWAP2 POP PUSH2 0xA7D JUMP JUMPDEST PUSH1 0x0 DUP5 LT DUP1 PUSH2 0x3B2 JUMPI POP PUSH1 0x2 DUP5 GT JUMPDEST ISZERO PUSH2 0x3F8 JUMPI PUSH1 0x0 PUSH1 0x40 MLOAD DUP1 PUSH1 0x40 ADD PUSH1 0x40 MSTORE DUP1 PUSH1 0x1F DUP2 MSTORE PUSH1 0x20 ADD PUSH32 0x496E76616C696420696E70757420666F7220782D636F6F7264696E6174652E00 DUP2 MSTORE POP SWAP2 POP SWAP2 POP PUSH2 0xA7D JUMP JUMPDEST PUSH1 0x0 DUP4 LT DUP1 PUSH2 0x407 JUMPI POP PUSH1 0x2 DUP4 GT JUMPDEST ISZERO PUSH2 0x44D JUMPI PUSH1 0x0 PUSH1 0x40 MLOAD DUP1 PUSH1 0x40 ADD PUSH1 0x40 MSTORE DUP1 PUSH1 0x1F DUP2 MSTORE PUSH1 0x20 ADD PUSH32 0x496E76616C696420696E70757420666F7220792D636F6F7264696E6174652E00 DUP2 MSTORE POP SWAP2 POP SWAP2 POP PUSH2 0xA7D JUMP JUMPDEST PUSH1 0x0 PUSH20 0xFFFFFFFFFFFFFFFFFFFFFFFFFFFFFFFFFFFFFFFF AND PUSH1 0x0 DUP1 DUP8 DUP2 MSTORE PUSH1 0x20 ADD SWAP1 DUP2 MSTORE PUSH1 0x20 ADD PUSH1 0x0 KECCAK256 PUSH1 0x0 ADD PUSH1 0x0 SWAP1 SLOAD SWAP1 PUSH2 0x100 EXP SWAP1 DIV PUSH20 0xFFFFFFFFFFFFFFFFFFFFFFFFFFFFFFFFFFFFFFFF AND PUSH20 0xFFFFFFFFFFFFFFFFFFFFFFFFFFFFFFFFFFFFFFFF AND EQ DUP1 PUSH2 0x51E JUMPI POP PUSH1 0x0 PUSH20 0xFFFFFFFFFFFFFFFFFFFFFFFFFFFFFFFFFFFFFFFF AND PUSH1 0x0 DUP1 DUP8 DUP2 MSTORE PUSH1 0x20 ADD SWAP1 DUP2 MSTORE PUSH1 0x20 ADD PUSH1 0x0 KECCAK256 PUSH1 0x1 ADD PUSH1 0x0 SWAP1 SLOAD SWAP1 PUSH2 0x100 EXP SWAP1 DIV PUSH20 0xFFFFFFFFFFFFFFFFFFFFFFFFFFFFFFFFFFFFFFFF AND PUSH20 0xFFFFFFFFFFFFFFFFFFFFFFFFFFFFFFFFFFFFFFFF AND EQ JUMPDEST ISZERO PUSH2 0x547 JUMPI PUSH1 0x0 PUSH1 0x40 MLOAD DUP1 PUSH1 0x60 ADD PUSH1 0x40 MSTORE DUP1 PUSH1 0x27 DUP2 MSTORE PUSH1 0x20 ADD PUSH2 0x2137 PUSH1 0x27 SWAP2 CODECOPY SWAP2 POP SWAP2 POP PUSH2 0xA7D JUMP JUMPDEST PUSH1 0x0 DUP1 PUSH1 0x0 DUP8 DUP2 MSTORE PUSH1 0x20 ADD SWAP1 DUP2 MSTORE PUSH1 0x20 ADD PUSH1 0x0 KECCAK256 PUSH1 0x40 MLOAD DUP1 PUSH1 0xA0 ADD PUSH1 0x40 MSTORE SWAP1 DUP2 PUSH1 0x0 DUP3 ADD PUSH1 0x0 SWAP1 SLOAD SWAP1 PUSH2 0x100 EXP SWAP1 DIV PUSH20 0xFFFFFFFFFFFFFFFFFFFFFFFFFFFFFFFFFFFFFFFF AND PUSH20 0xFFFFFFFFFFFFFFFFFFFFFFFFFFFFFFFFFFFFFFFF AND PUSH20 0xFFFFFFFFFFFFFFFFFFFFFFFFFFFFFFFFFFFFFFFF AND DUP2 MSTORE PUSH1 0x20 ADD PUSH1 0x1 DUP3 ADD PUSH1 0x0 SWAP1 SLOAD SWAP1 PUSH2 0x100 EXP SWAP1 DIV PUSH20 0xFFFFFFFFFFFFFFFFFFFFFFFFFFFFFFFFFFFFFFFF AND PUSH20 0xFFFFFFFFFFFFFFFFFFFFFFFFFFFFFFFFFFFFFFFF AND PUSH20 0xFFFFFFFFFFFFFFFFFFFFFFFFFFFFFFFFFFFFFFFF AND DUP2 MSTORE PUSH1 0x20 ADD PUSH1 0x1 DUP3 ADD PUSH1 0x14 SWAP1 SLOAD SWAP1 PUSH2 0x100 EXP SWAP1 DIV PUSH1 0xFF AND PUSH1 0x3 DUP2 GT ISZERO PUSH2 0x637 JUMPI PUSH2 0x636 PUSH2 0x1F8B JUMP JUMPDEST JUMPDEST PUSH1 0x3 DUP2 GT ISZERO PUSH2 0x649 JUMPI PUSH2 0x648 PUSH2 0x1F8B JUMP JUMPDEST JUMPDEST DUP2 MSTORE PUSH1 0x20 ADD PUSH1 0x1 DUP3 ADD PUSH1 0x15 SWAP1 SLOAD SWAP1 PUSH2 0x100 EXP SWAP1 DIV PUSH1 0xFF AND PUSH1 0x2 DUP2 GT ISZERO PUSH2 0x672 JUMPI PUSH2 0x671 PUSH2 0x1F8B JUMP JUMPDEST JUMPDEST PUSH1 0x2 DUP2 GT ISZERO PUSH2 0x684 JUMPI PUSH2 0x683 PUSH2 0x1F8B JUMP JUMPDEST JUMPDEST DUP2 MSTORE PUSH1 0x20 ADD PUSH1 0x2 DUP3 ADD PUSH1 0x3 DUP1 PUSH1 0x20 MUL PUSH1 0x40 MLOAD SWAP1 DUP2 ADD PUSH1 0x40 MSTORE DUP1 SWAP3 SWAP2 SWAP1 PUSH1 0x0 SWAP1 JUMPDEST DUP3 DUP3 LT ISZERO PUSH2 0x720 JUMPI DUP4 DUP3 ADD PUSH1 0x3 DUP1 PUSH1 0x20 MUL PUSH1 0x40 MLOAD SWAP1 DUP2 ADD PUSH1 0x40 MSTORE DUP1 SWAP3 SWAP2 SWAP1 DUP3 PUSH1 0x3 DUP1 ISZERO PUSH2 0x70C JUMPI PUSH1 0x20 MUL DUP3 ADD SWAP2 PUSH1 0x0 SWAP1 JUMPDEST DUP3 DUP3 SWAP1 SLOAD SWAP1 PUSH2 0x100 EXP SWAP1 DIV PUSH1 0xFF AND PUSH1 0xFF AND DUP2 MSTORE PUSH1 0x20 ADD SWAP1 PUSH1 0x1 ADD SWAP1 PUSH1 0x20 DUP3 PUSH1 0x0 ADD DIV SWAP3 DUP4 ADD SWAP3 PUSH1 0x1 SUB DUP3 MUL SWAP2 POP DUP1 DUP5 GT PUSH2 0x6D5 JUMPI SWAP1 POP JUMPDEST POP POP POP POP POP DUP2 MSTORE PUSH1 0x20 ADD SWAP1 PUSH1 0x1 ADD SWAP1 PUSH2 0x6A4 JUMP JUMPDEST POP POP POP POP DUP2 MSTORE POP POP SWAP1 POP PUSH1 0x0 PUSH1 0x3 DUP2 GT ISZERO PUSH2 0x73E JUMPI PUSH2 0x73D PUSH2 0x1F8B JUMP JUMPDEST JUMPDEST DUP2 PUSH1 0x40 ADD MLOAD PUSH1 0x3 DUP2 GT ISZERO PUSH2 0x755 JUMPI PUSH2 0x754 PUSH2 0x1F8B JUMP JUMPDEST JUMPDEST EQ PUSH2 0x79C JUMPI PUSH1 0x0 PUSH1 0x40 MLOAD DUP1 PUSH1 0x40 ADD PUSH1 0x40 MSTORE DUP1 PUSH1 0x1B DUP2 MSTORE PUSH1 0x20 ADD PUSH32 0x5468652067616D652068617320616C726561647920656E6465642E0000000000 DUP2 MSTORE POP SWAP3 POP SWAP3 POP POP PUSH2 0xA7D JUMP JUMPDEST PUSH2 0x7A5 DUP2 PUSH2 0xF28 JUMP JUMPDEST PUSH20 0xFFFFFFFFFFFFFFFFFFFFFFFFFFFFFFFFFFFFFFFF AND CALLER PUSH20 0xFFFFFFFFFFFFFFFFFFFFFFFFFFFFFFFFFFFFFFFF AND EQ PUSH2 0x819 JUMPI PUSH1 0x0 PUSH1 0x40 MLOAD DUP1 PUSH1 0x40 ADD PUSH1 0x40 MSTORE DUP1 PUSH1 0x14 DUP2 MSTORE PUSH1 0x20 ADD PUSH32 0x4974206973206E6F7420796F7572207475726E2E000000000000000000000000 DUP2 MSTORE POP SWAP3 POP SWAP3 POP POP PUSH2 0xA7D JUMP JUMPDEST PUSH1 0x1 DUP2 PUSH1 0x80 ADD MLOAD DUP7 PUSH1 0x3 DUP2 LT PUSH2 0x832 JUMPI PUSH2 0x831 PUSH2 0x1FBA JUMP JUMPDEST JUMPDEST PUSH1 0x20 MUL ADD MLOAD DUP6 PUSH1 0x3 DUP2 LT PUSH2 0x849 JUMPI PUSH2 0x848 PUSH2 0x1FBA JUMP JUMPDEST JUMPDEST PUSH1 0x20 MUL ADD MLOAD PUSH1 0xFF AND EQ DUP1 PUSH2 0x892 JUMPI POP PUSH1 0x2 DUP2 PUSH1 0x80 ADD MLOAD DUP7 PUSH1 0x3 DUP2 LT PUSH2 0x871 JUMPI PUSH2 0x870 PUSH2 0x1FBA JUMP JUMPDEST JUMPDEST PUSH1 0x20 MUL ADD MLOAD DUP6 PUSH1 0x3 DUP2 LT PUSH2 0x888 JUMPI PUSH2 0x887 PUSH2 0x1FBA JUMP JUMPDEST JUMPDEST PUSH1 0x20 MUL ADD MLOAD PUSH1 0xFF AND EQ JUMPDEST ISZERO PUSH2 0x8BC JUMPI PUSH1 0x0 PUSH1 0x40 MLOAD DUP1 PUSH1 0x60 ADD PUSH1 0x40 MSTORE DUP1 PUSH1 0x31 DUP2 MSTORE PUSH1 0x20 ADD PUSH2 0x202B PUSH1 0x31 SWAP2 CODECOPY SWAP3 POP SWAP3 POP POP PUSH2 0xA7D JUMP JUMPDEST PUSH1 0x1 PUSH1 0x2 DUP2 GT ISZERO PUSH2 0x8D0 JUMPI PUSH2 0x8CF PUSH2 0x1F8B JUMP JUMPDEST JUMPDEST DUP2 PUSH1 0x60 ADD MLOAD PUSH1 0x2 DUP2 GT ISZERO PUSH2 0x8E7 JUMPI PUSH2 0x8E6 PUSH2 0x1F8B JUMP JUMPDEST JUMPDEST EQ PUSH2 0x8F3 JUMPI PUSH1 0x2 PUSH2 0x8F6 JUMP JUMPDEST PUSH1 0x1 JUMPDEST DUP2 PUSH1 0x80 ADD MLOAD DUP7 PUSH1 0x3 DUP2 LT PUSH2 0x90D JUMPI PUSH2 0x90C PUSH2 0x1FBA JUMP JUMPDEST JUMPDEST PUSH1 0x20 MUL ADD MLOAD DUP6 PUSH1 0x3 DUP2 LT PUSH2 0x924 JUMPI PUSH2 0x923 PUSH2 0x1FBA JUMP JUMPDEST JUMPDEST PUSH1 0x20 MUL ADD SWAP1 PUSH1 0xFF AND SWAP1 DUP2 PUSH1 0xFF AND DUP2 MSTORE POP POP PUSH32 0xAA03B0EB53C70F6640EBA4234AD2C58782C8927E7ABF7D3A6E2C45D07CA9D583 DUP7 CALLER DUP8 DUP8 PUSH1 0x40 MLOAD PUSH2 0x96A SWAP5 SWAP4 SWAP3 SWAP2 SWAP1 PUSH2 0x1D7B JUMP JUMPDEST PUSH1 0x40 MLOAD DUP1 SWAP2 SUB SWAP1 LOG1 PUSH1 0x0 PUSH2 0x981 DUP3 PUSH1 0x80 ADD MLOAD PUSH2 0xFAD JUMP JUMPDEST SWAP1 POP PUSH1 0x0 PUSH1 0x3 DUP2 GT ISZERO PUSH2 0x997 JUMPI PUSH2 0x996 PUSH2 0x1F8B JUMP JUMPDEST JUMPDEST DUP2 PUSH1 0x3 DUP2 GT ISZERO PUSH2 0x9AA JUMPI PUSH2 0x9A9 PUSH2 0x1F8B JUMP JUMPDEST JUMPDEST EQ PUSH2 0xA5B JUMPI DUP1 DUP3 PUSH1 0x40 ADD SWAP1 PUSH1 0x3 DUP2 GT ISZERO PUSH2 0x9C7 JUMPI PUSH2 0x9C6 PUSH2 0x1F8B JUMP JUMPDEST JUMPDEST SWAP1 DUP2 PUSH1 0x3 DUP2 GT ISZERO PUSH2 0x9DB JUMPI PUSH2 0x9DA PUSH2 0x1F8B JUMP JUMPDEST JUMPDEST DUP2 MSTORE POP POP PUSH32 0x132B564C6F96092065580FD28989D181DFBBFE4AA2FB7FB1EDA8AF68BA3073E0 DUP8 DUP3 PUSH1 0x40 MLOAD PUSH2 0xA10 SWAP3 SWAP2 SWAP1 PUSH2 0x1DF7 JUMP JUMPDEST PUSH1 0x40 MLOAD DUP1 SWAP2 SUB SWAP1 LOG1 PUSH1 0x1 PUSH1 0x40 MLOAD DUP1 PUSH1 0x40 ADD PUSH1 0x40 MSTORE DUP1 PUSH1 0x11 DUP2 MSTORE PUSH1 0x20 ADD PUSH32 0x5468652067616D65206973206F7665722E000000000000000000000000000000 DUP2 MSTORE POP SWAP4 POP SWAP4 POP POP POP PUSH2 0xA7D JUMP JUMPDEST PUSH2 0xA64 DUP3 PUSH2 0x113B JUMP JUMPDEST PUSH1 0x1 PUSH1 0x40 MLOAD DUP1 PUSH1 0x20 ADD PUSH1 0x40 MSTORE DUP1 PUSH1 0x0 DUP2 MSTORE POP SWAP4 POP SWAP4 POP POP POP JUMPDEST SWAP4 POP SWAP4 SWAP2 POP POP JUMP JUMPDEST PUSH1 0x0 PUSH1 0x60 PUSH1 0x1 SLOAD DUP4 GT ISZERO PUSH2 0xAD4 JUMPI PUSH1 0x0 PUSH1 0x40 MLOAD DUP1 PUSH1 0x40 ADD PUSH1 0x40 MSTORE DUP1 PUSH1 0x14 DUP2 MSTORE PUSH1 0x20 ADD PUSH32 0x4E6F20737563682067616D65206578697374732E000000000000000000000000 DUP2 MSTORE POP SWAP2 POP SWAP2 POP PUSH2 0xF23 JUMP JUMPDEST PUSH1 0x0 CALLER SWAP1 POP PUSH1 0x0 DUP1 PUSH1 0x0 DUP7 DUP2 MSTORE PUSH1 0x20 ADD SWAP1 DUP2 MSTORE PUSH1 0x20 ADD PUSH1 0x0 KECCAK256 SWAP1 POP PUSH1 0x0 PUSH1 0x3 DUP2 GT ISZERO PUSH2 0xB03 JUMPI PUSH2 0xB02 PUSH2 0x1F8B JUMP JUMPDEST JUMPDEST DUP2 PUSH1 0x1 ADD PUSH1 0x14 SWAP1 SLOAD SWAP1 PUSH2 0x100 EXP SWAP1 DIV PUSH1 0xFF AND PUSH1 0x3 DUP2 GT ISZERO PUSH2 0xB27 JUMPI PUSH2 0xB26 PUSH2 0x1F8B JUMP JUMPDEST JUMPDEST EQ PUSH2 0xB6F JUMPI PUSH1 0x0 PUSH1 0x40 MLOAD DUP1 PUSH1 0x40 ADD PUSH1 0x40 MSTORE DUP1 PUSH1 0x1E DUP2 MSTORE PUSH1 0x20 ADD PUSH32 0x546869732067616D6520697320616C726561647920636F6D706C6574652E0000 DUP2 MSTORE POP SWAP4 POP SWAP4 POP POP POP PUSH2 0xF23 JUMP JUMPDEST PUSH1 0x0 PUSH20 0xFFFFFFFFFFFFFFFFFFFFFFFFFFFFFFFFFFFFFFFF AND DUP2 PUSH1 0x0 ADD PUSH1 0x0 SWAP1 SLOAD SWAP1 PUSH2 0x100 EXP SWAP1 DIV PUSH20 0xFFFFFFFFFFFFFFFFFFFFFFFFFFFFFFFFFFFFFFFF AND PUSH20 0xFFFFFFFFFFFFFFFFFFFFFFFFFFFFFFFFFFFFFFFF AND EQ ISZERO PUSH2 0xD2A JUMPI DUP2 DUP2 PUSH1 0x0 ADD PUSH1 0x0 PUSH2 0x100 EXP DUP2 SLOAD DUP2 PUSH20 0xFFFFFFFFFFFFFFFFFFFFFFFFFFFFFFFFFFFFFFFF MUL NOT AND SWAP1 DUP4 PUSH20 0xFFFFFFFFFFFFFFFFFFFFFFFFFFFFFFFFFFFFFFFF AND MUL OR SWAP1 SSTORE POP PUSH32 0x8F5866C09E99941481E2BE79D3A7698371543FE3AD3387B903553FD6043E8550 DUP6 DUP4 PUSH1 0x1 PUSH1 0x2 DUP2 GT ISZERO PUSH2 0xC42 JUMPI PUSH2 0xC41 PUSH2 0x1F8B JUMP JUMPDEST JUMPDEST PUSH1 0x40 MLOAD PUSH2 0xC51 SWAP4 SWAP3 SWAP2 SWAP1 PUSH2 0x1DC0 JUMP JUMPDEST PUSH1 0x40 MLOAD DUP1 SWAP2 SUB SWAP1 LOG1 PUSH1 0x0 PUSH20 0xFFFFFFFFFFFFFFFFFFFFFFFFFFFFFFFFFFFFFFFF AND DUP2 PUSH1 0x1 ADD PUSH1 0x0 SWAP1 SLOAD SWAP1 PUSH2 0x100 EXP SWAP1 DIV PUSH20 0xFFFFFFFFFFFFFFFFFFFFFFFFFFFFFFFFFFFFFFFF AND PUSH20 0xFFFFFFFFFFFFFFFFFFFFFFFFFFFFFFFFFFFFFFFF AND EQ PUSH2 0xD04 JUMPI PUSH1 0x1 DUP2 PUSH1 0x1 ADD PUSH1 0x15 PUSH2 0x100 EXP DUP2 SLOAD DUP2 PUSH1 0xFF MUL NOT AND SWAP1 DUP4 PUSH1 0x2 DUP2 GT ISZERO PUSH2 0xCD9 JUMPI PUSH2 0xCD8 PUSH2 0x1F8B JUMP JUMPDEST JUMPDEST MUL OR SWAP1 SSTORE POP PUSH1 0x1 PUSH1 0x40 MLOAD DUP1 PUSH1 0x80 ADD PUSH1 0x40 MSTORE DUP1 PUSH1 0x4E DUP2 MSTORE PUSH1 0x20 ADD PUSH2 0x2088 PUSH1 0x4E SWAP2 CODECOPY SWAP4 POP SWAP4 POP POP POP PUSH2 0xF23 JUMP JUMPDEST PUSH1 0x1 PUSH1 0x40 MLOAD DUP1 PUSH1 0x60 ADD PUSH1 0x40 MSTORE DUP1 PUSH1 0x2C DUP2 MSTORE PUSH1 0x20 ADD PUSH2 0x205C PUSH1 0x2C SWAP2 CODECOPY SWAP4 POP SWAP4 POP POP POP PUSH2 0xF23 JUMP JUMPDEST PUSH1 0x0 PUSH20 0xFFFFFFFFFFFFFFFFFFFFFFFFFFFFFFFFFFFFFFFF AND DUP2 PUSH1 0x1 ADD PUSH1 0x0 SWAP1 SLOAD SWAP1 PUSH2 0x100 EXP SWAP1 DIV PUSH20 0xFFFFFFFFFFFFFFFFFFFFFFFFFFFFFFFFFFFFFFFF AND PUSH20 0xFFFFFFFFFFFFFFFFFFFFFFFFFFFFFFFFFFFFFFFF AND EQ ISZERO PUSH2 0xEE4 JUMPI DUP2 DUP2 PUSH1 0x1 ADD PUSH1 0x0 PUSH2 0x100 EXP DUP2 SLOAD DUP2 PUSH20 0xFFFFFFFFFFFFFFFFFFFFFFFFFFFFFFFFFFFFFFFF MUL NOT AND SWAP1 DUP4 PUSH20 0xFFFFFFFFFFFFFFFFFFFFFFFFFFFFFFFFFFFFFFFF AND MUL OR SWAP1 SSTORE POP PUSH32 0x8F5866C09E99941481E2BE79D3A7698371543FE3AD3387B903553FD6043E8550 DUP6 DUP4 PUSH1 0x2 DUP1 DUP2 GT ISZERO PUSH2 0xDFC JUMPI PUSH2 0xDFB PUSH2 0x1F8B JUMP JUMPDEST JUMPDEST PUSH1 0x40 MLOAD PUSH2 0xE0B SWAP4 SWAP3 SWAP2 SWAP1 PUSH2 0x1DC0 JUMP JUMPDEST PUSH1 0x40 MLOAD DUP1 SWAP2 SUB SWAP1 LOG1 PUSH1 0x0 PUSH20 0xFFFFFFFFFFFFFFFFFFFFFFFFFFFFFFFFFFFFFFFF AND DUP2 PUSH1 0x0 ADD PUSH1 0x0 SWAP1 SLOAD SWAP1 PUSH2 0x100 EXP SWAP1 DIV PUSH20 0xFFFFFFFFFFFFFFFFFFFFFFFFFFFFFFFFFFFFFFFF AND PUSH20 0xFFFFFFFFFFFFFFFFFFFFFFFFFFFFFFFFFFFFFFFF AND EQ PUSH2 0xEBE JUMPI PUSH1 0x1 DUP2 PUSH1 0x1 ADD PUSH1 0x15 PUSH2 0x100 EXP DUP2 SLOAD DUP2 PUSH1 0xFF MUL NOT AND SWAP1 DUP4 PUSH1 0x2 DUP2 GT ISZERO PUSH2 0xE93 JUMPI PUSH2 0xE92 PUSH2 0x1F8B JUMP JUMPDEST JUMPDEST MUL OR SWAP1 SSTORE POP PUSH1 0x1 PUSH1 0x40 MLOAD DUP1 PUSH1 0x60 ADD PUSH1 0x40 MSTORE DUP1 PUSH1 0x35 DUP2 MSTORE PUSH1 0x20 ADD PUSH2 0x20D6 PUSH1 0x35 SWAP2 CODECOPY SWAP4 POP SWAP4 POP POP POP PUSH2 0xF23 JUMP JUMPDEST PUSH1 0x1 PUSH1 0x40 MLOAD DUP1 PUSH1 0x60 ADD PUSH1 0x40 MSTORE DUP1 PUSH1 0x2C DUP2 MSTORE PUSH1 0x20 ADD PUSH2 0x210B PUSH1 0x2C SWAP2 CODECOPY SWAP4 POP SWAP4 POP POP POP PUSH2 0xF23 JUMP JUMPDEST PUSH1 0x0 PUSH1 0x40 MLOAD DUP1 PUSH1 0x40 ADD PUSH1 0x40 MSTORE DUP1 PUSH1 0x20 DUP2 MSTORE PUSH1 0x20 ADD PUSH32 0x546869732067616D6520616C726561647920686173203220706C61796572732E DUP2 MSTORE POP SWAP4 POP SWAP4 POP POP POP JUMPDEST SWAP2 POP SWAP2 JUMP JUMPDEST PUSH1 0x0 PUSH1 0x1 PUSH1 0x2 DUP2 GT ISZERO PUSH2 0xF3E JUMPI PUSH2 0xF3D PUSH2 0x1F8B JUMP JUMPDEST JUMPDEST DUP3 PUSH1 0x60 ADD MLOAD PUSH1 0x2 DUP2 GT ISZERO PUSH2 0xF55 JUMPI PUSH2 0xF54 PUSH2 0x1F8B JUMP JUMPDEST JUMPDEST EQ ISZERO PUSH2 0xF67 JUMPI DUP2 PUSH1 0x0 ADD MLOAD SWAP1 POP PUSH2 0xFA8 JUMP JUMPDEST PUSH1 0x2 DUP1 DUP2 GT ISZERO PUSH2 0xF7A JUMPI PUSH2 0xF79 PUSH2 0x1F8B JUMP JUMPDEST JUMPDEST DUP3 PUSH1 0x60 ADD MLOAD PUSH1 0x2 DUP2 GT ISZERO PUSH2 0xF91 JUMPI PUSH2 0xF90 PUSH2 0x1F8B JUMP JUMPDEST JUMPDEST EQ ISZERO PUSH2 0xFA3 JUMPI DUP2 PUSH1 0x20 ADD MLOAD SWAP1 POP PUSH2 0xFA8 JUMP JUMPDEST PUSH1 0x0 SWAP1 POP JUMPDEST SWAP2 SWAP1 POP JUMP JUMPDEST PUSH1 0x0 DUP1 PUSH2 0xFB9 DUP4 PUSH2 0x11D7 JUMP JUMPDEST SWAP1 POP PUSH1 0x1 PUSH1 0x2 DUP2 GT ISZERO PUSH2 0xFCF JUMPI PUSH2 0xFCE PUSH2 0x1F8B JUMP JUMPDEST JUMPDEST DUP2 PUSH1 0x2 DUP2 GT ISZERO PUSH2 0xFE2 JUMPI PUSH2 0xFE1 PUSH2 0x1F8B JUMP JUMPDEST JUMPDEST EQ ISZERO PUSH2 0xFF2 JUMPI PUSH1 0x1 SWAP2 POP POP PUSH2 0x1136 JUMP JUMPDEST PUSH1 0x2 DUP1 DUP2 GT ISZERO PUSH2 0x1005 JUMPI PUSH2 0x1004 PUSH2 0x1F8B JUMP JUMPDEST JUMPDEST DUP2 PUSH1 0x2 DUP2 GT ISZERO PUSH2 0x1018 JUMPI PUSH2 0x1017 PUSH2 0x1F8B JUMP JUMPDEST JUMPDEST EQ ISZERO PUSH2 0x1028 JUMPI PUSH1 0x2 SWAP2 POP POP PUSH2 0x1136 JUMP JUMPDEST PUSH2 0x1031 DUP4 PUSH2 0x13C0 JUMP JUMPDEST SWAP1 POP PUSH1 0x1 PUSH1 0x2 DUP2 GT ISZERO PUSH2 0x1047 JUMPI PUSH2 0x1046 PUSH2 0x1F8B JUMP JUMPDEST JUMPDEST DUP2 PUSH1 0x2 DUP2 GT ISZERO PUSH2 0x105A JUMPI PUSH2 0x1059 PUSH2 0x1F8B JUMP JUMPDEST JUMPDEST EQ ISZERO PUSH2 0x106A JUMPI PUSH1 0x1 SWAP2 POP POP PUSH2 0x1136 JUMP JUMPDEST PUSH1 0x2 DUP1 DUP2 GT ISZERO PUSH2 0x107D JUMPI PUSH2 0x107C PUSH2 0x1F8B JUMP JUMPDEST JUMPDEST DUP2 PUSH1 0x2 DUP2 GT ISZERO PUSH2 0x1090 JUMPI PUSH2 0x108F PUSH2 0x1F8B JUMP JUMPDEST JUMPDEST EQ ISZERO PUSH2 0x10A0 JUMPI PUSH1 0x2 SWAP2 POP POP PUSH2 0x1136 JUMP JUMPDEST PUSH2 0x10A9 DUP4 PUSH2 0x15A9 JUMP JUMPDEST SWAP1 POP PUSH1 0x1 PUSH1 0x2 DUP2 GT ISZERO PUSH2 0x10BF JUMPI PUSH2 0x10BE PUSH2 0x1F8B JUMP JUMPDEST JUMPDEST DUP2 PUSH1 0x2 DUP2 GT ISZERO PUSH2 0x10D2 JUMPI PUSH2 0x10D1 PUSH2 0x1F8B JUMP JUMPDEST JUMPDEST EQ ISZERO PUSH2 0x10E2 JUMPI PUSH1 0x1 SWAP2 POP POP PUSH2 0x1136 JUMP JUMPDEST PUSH1 0x2 DUP1 DUP2 GT ISZERO PUSH2 0x10F5 JUMPI PUSH2 0x10F4 PUSH2 0x1F8B JUMP JUMPDEST JUMPDEST DUP2 PUSH1 0x2 DUP2 GT ISZERO PUSH2 0x1108 JUMPI PUSH2 0x1107 PUSH2 0x1F8B JUMP JUMPDEST JUMPDEST EQ ISZERO PUSH2 0x1118 JUMPI PUSH1 0x2 SWAP2 POP POP PUSH2 0x1136 JUMP JUMPDEST PUSH2 0x1121 DUP4 PUSH2 0x1905 JUMP JUMPDEST ISZERO PUSH2 0x1130 JUMPI PUSH1 0x3 SWAP2 POP POP PUSH2 0x1136 JUMP JUMPDEST PUSH1 0x0 SWAP2 POP POP JUMPDEST SWAP2 SWAP1 POP JUMP JUMPDEST PUSH1 0x1 PUSH1 0x2 DUP2 GT ISZERO PUSH2 0x114F JUMPI PUSH2 0x114E PUSH2 0x1F8B JUMP JUMPDEST JUMPDEST DUP2 PUSH1 0x60 ADD MLOAD PUSH1 0x2 DUP2 GT ISZERO PUSH2 0x1166 JUMPI PUSH2 0x1165 PUSH2 0x1F8B JUMP JUMPDEST JUMPDEST EQ ISZERO PUSH2 0x11A2 JUMPI PUSH1 0x2 DUP2 PUSH1 0x60 ADD SWAP1 PUSH1 0x2 DUP2 GT ISZERO PUSH2 0x1185 JUMPI PUSH2 0x1184 PUSH2 0x1F8B JUMP JUMPDEST JUMPDEST SWAP1 DUP2 PUSH1 0x2 DUP2 GT ISZERO PUSH2 0x1199 JUMPI PUSH2 0x1198 PUSH2 0x1F8B JUMP JUMPDEST JUMPDEST DUP2 MSTORE POP POP PUSH2 0x11D4 JUMP JUMPDEST PUSH1 0x1 DUP2 PUSH1 0x60 ADD SWAP1 PUSH1 0x2 DUP2 GT ISZERO PUSH2 0x11BB JUMPI PUSH2 0x11BA PUSH2 0x1F8B JUMP JUMPDEST JUMPDEST SWAP1 DUP2 PUSH1 0x2 DUP2 GT ISZERO PUSH2 0x11CF JUMPI PUSH2 0x11CE PUSH2 0x1F8B JUMP JUMPDEST JUMPDEST DUP2 MSTORE POP POP JUMPDEST POP JUMP JUMPDEST PUSH1 0x0 DUP1 PUSH1 0x0 SWAP1 POP JUMPDEST PUSH1 0x3 DUP2 PUSH1 0xFF AND LT ISZERO PUSH2 0x13B5 JUMPI PUSH1 0x1 DUP4 DUP3 PUSH1 0xFF AND PUSH1 0x3 DUP2 LT PUSH2 0x1203 JUMPI PUSH2 0x1202 PUSH2 0x1FBA JUMP JUMPDEST JUMPDEST PUSH1 0x20 MUL ADD MLOAD PUSH1 0x0 PUSH1 0x3 DUP2 LT PUSH2 0x121B JUMPI PUSH2 0x121A PUSH2 0x1FBA JUMP JUMPDEST JUMPDEST PUSH1 0x20 MUL ADD MLOAD PUSH1 0xFF AND EQ DUP1 PUSH2 0x1264 JUMPI POP PUSH1 0x2 DUP4 DUP3 PUSH1 0xFF AND PUSH1 0x3 DUP2 LT PUSH2 0x1242 JUMPI PUSH2 0x1241 PUSH2 0x1FBA JUMP JUMPDEST JUMPDEST PUSH1 0x20 MUL ADD MLOAD PUSH1 0x0 PUSH1 0x3 DUP2 LT PUSH2 0x125A JUMPI PUSH2 0x1259 PUSH2 0x1FBA JUMP JUMPDEST JUMPDEST PUSH1 0x20 MUL ADD MLOAD PUSH1 0xFF AND EQ JUMPDEST DUP1 ISZERO PUSH2 0x12D9 JUMPI POP DUP3 DUP2 PUSH1 0xFF AND PUSH1 0x3 DUP2 LT PUSH2 0x1281 JUMPI PUSH2 0x1280 PUSH2 0x1FBA JUMP JUMPDEST JUMPDEST PUSH1 0x20 MUL ADD MLOAD PUSH1 0x1 PUSH1 0x3 DUP2 LT PUSH2 0x1299 JUMPI PUSH2 0x1298 PUSH2 0x1FBA JUMP JUMPDEST JUMPDEST PUSH1 0x20 MUL ADD MLOAD PUSH1 0xFF AND DUP4 DUP3 PUSH1 0xFF AND PUSH1 0x3 DUP2 LT PUSH2 0x12B7 JUMPI PUSH2 0x12B6 PUSH2 0x1FBA JUMP JUMPDEST JUMPDEST PUSH1 0x20 MUL ADD MLOAD PUSH1 0x0 PUSH1 0x3 DUP2 LT PUSH2 0x12CF JUMPI PUSH2 0x12CE PUSH2 0x1FBA JUMP JUMPDEST JUMPDEST PUSH1 0x20 MUL ADD MLOAD PUSH1 0xFF AND EQ JUMPDEST DUP1 ISZERO PUSH2 0x134E JUMPI POP DUP3 DUP2 PUSH1 0xFF AND PUSH1 0x3 DUP2 LT PUSH2 0x12F6 JUMPI PUSH2 0x12F5 PUSH2 0x1FBA JUMP JUMPDEST JUMPDEST PUSH1 0x20 MUL ADD MLOAD PUSH1 0x2 PUSH1 0x3 DUP2 LT PUSH2 0x130E JUMPI PUSH2 0x130D PUSH2 0x1FBA JUMP JUMPDEST JUMPDEST PUSH1 0x20 MUL ADD MLOAD PUSH1 0xFF AND DUP4 DUP3 PUSH1 0xFF AND PUSH1 0x3 DUP2 LT PUSH2 0x132C JUMPI PUSH2 0x132B PUSH2 0x1FBA JUMP JUMPDEST JUMPDEST PUSH1 0x20 MUL ADD MLOAD PUSH1 0x1 PUSH1 0x3 DUP2 LT PUSH2 0x1344 JUMPI PUSH2 0x1343 PUSH2 0x1FBA JUMP JUMPDEST JUMPDEST PUSH1 0x20 MUL ADD MLOAD PUSH1 0xFF AND EQ JUMPDEST ISZERO PUSH2 0x13A2 JUMPI PUSH1 0x1 DUP4 DUP3 PUSH1 0xFF AND PUSH1 0x3 DUP2 LT PUSH2 0x136B JUMPI PUSH2 0x136A PUSH2 0x1FBA JUMP JUMPDEST JUMPDEST PUSH1 0x20 MUL ADD MLOAD PUSH1 0x0 PUSH1 0x3 DUP2 LT PUSH2 0x1383 JUMPI PUSH2 0x1382 PUSH2 0x1FBA JUMP JUMPDEST JUMPDEST PUSH1 0x20 MUL ADD MLOAD PUSH1 0xFF AND EQ PUSH2 0x1397 JUMPI PUSH1 0x2 PUSH2 0x139A JUMP JUMPDEST PUSH1 0x1 JUMPDEST SWAP2 POP POP PUSH2 0x13BB JUMP JUMPDEST DUP1 DUP1 PUSH2 0x13AD SWAP1 PUSH2 0x1F32 JUMP JUMPDEST SWAP2 POP POP PUSH2 0x11DF JUMP JUMPDEST POP PUSH1 0x0 SWAP1 POP JUMPDEST SWAP2 SWAP1 POP JUMP JUMPDEST PUSH1 0x0 DUP1 PUSH1 0x0 SWAP1 POP JUMPDEST PUSH1 0x3 DUP2 PUSH1 0xFF AND LT ISZERO PUSH2 0x159E JUMPI PUSH1 0x1 DUP4 PUSH1 0x0 PUSH1 0x3 DUP2 LT PUSH2 0x13EA JUMPI PUSH2 0x13E9 PUSH2 0x1FBA JUMP JUMPDEST JUMPDEST PUSH1 0x20 MUL ADD MLOAD DUP3 PUSH1 0xFF AND PUSH1 0x3 DUP2 LT PUSH2 0x1404 JUMPI PUSH2 0x1403 PUSH2 0x1FBA JUMP JUMPDEST JUMPDEST PUSH1 0x20 MUL ADD MLOAD PUSH1 0xFF AND EQ DUP1 PUSH2 0x144D JUMPI POP PUSH1 0x2 DUP4 PUSH1 0x0 PUSH1 0x3 DUP2 LT PUSH2 0x1429 JUMPI PUSH2 0x1428 PUSH2 0x1FBA JUMP JUMPDEST JUMPDEST PUSH1 0x20 MUL ADD MLOAD DUP3 PUSH1 0xFF AND PUSH1 0x3 DUP2 LT PUSH2 0x1443 JUMPI PUSH2 0x1442 PUSH2 0x1FBA JUMP JUMPDEST JUMPDEST PUSH1 0x20 MUL ADD MLOAD PUSH1 0xFF AND EQ JUMPDEST DUP1 ISZERO PUSH2 0x14C2 JUMPI POP DUP3 PUSH1 0x1 PUSH1 0x3 DUP2 LT PUSH2 0x1468 JUMPI PUSH2 0x1467 PUSH2 0x1FBA JUMP JUMPDEST JUMPDEST PUSH1 0x20 MUL ADD MLOAD DUP2 PUSH1 0xFF AND PUSH1 0x3 DUP2 LT PUSH2 0x1482 JUMPI PUSH2 0x1481 PUSH2 0x1FBA JUMP JUMPDEST JUMPDEST PUSH1 0x20 MUL ADD MLOAD PUSH1 0xFF AND DUP4 PUSH1 0x0 PUSH1 0x3 DUP2 LT PUSH2 0x149E JUMPI PUSH2 0x149D PUSH2 0x1FBA JUMP JUMPDEST JUMPDEST PUSH1 0x20 MUL ADD MLOAD DUP3 PUSH1 0xFF AND PUSH1 0x3 DUP2 LT PUSH2 0x14B8 JUMPI PUSH2 0x14B7 PUSH2 0x1FBA JUMP JUMPDEST JUMPDEST PUSH1 0x20 MUL ADD MLOAD PUSH1 0xFF AND EQ JUMPDEST DUP1 ISZERO PUSH2 0x1537 JUMPI POP DUP3 PUSH1 0x2 PUSH1 0x3 DUP2 LT PUSH2 0x14DD JUMPI PUSH2 0x14DC PUSH2 0x1FBA JUMP JUMPDEST JUMPDEST PUSH1 0x20 MUL ADD MLOAD DUP2 PUSH1 0xFF AND PUSH1 0x3 DUP2 LT PUSH2 0x14F7 JUMPI PUSH2 0x14F6 PUSH2 0x1FBA JUMP JUMPDEST JUMPDEST PUSH1 0x20 MUL ADD MLOAD PUSH1 0xFF AND DUP4 PUSH1 0x1 PUSH1 0x3 DUP2 LT PUSH2 0x1513 JUMPI PUSH2 0x1512 PUSH2 0x1FBA JUMP JUMPDEST JUMPDEST PUSH1 0x20 MUL ADD MLOAD DUP3 PUSH1 0xFF AND PUSH1 0x3 DUP2 LT PUSH2 0x152D JUMPI PUSH2 0x152C PUSH2 0x1FBA JUMP JUMPDEST JUMPDEST PUSH1 0x20 MUL ADD MLOAD PUSH1 0xFF AND EQ JUMPDEST ISZERO PUSH2 0x158B JUMPI PUSH1 0x1 DUP4 PUSH1 0x0 PUSH1 0x3 DUP2 LT PUSH2 0x1552 JUMPI PUSH2 0x1551 PUSH2 0x1FBA JUMP JUMPDEST JUMPDEST PUSH1 0x20 MUL ADD MLOAD DUP3 PUSH1 0xFF AND PUSH1 0x3 DUP2 LT PUSH2 0x156C JUMPI PUSH2 0x156B PUSH2 0x1FBA JUMP JUMPDEST JUMPDEST PUSH1 0x20 MUL ADD MLOAD PUSH1 0xFF AND EQ PUSH2 0x1580 JUMPI PUSH1 0x2 PUSH2 0x1583 JUMP JUMPDEST PUSH1 0x1 JUMPDEST SWAP2 POP POP PUSH2 0x15A4 JUMP JUMPDEST DUP1 DUP1 PUSH2 0x1596 SWAP1 PUSH2 0x1F32 JUMP JUMPDEST SWAP2 POP POP PUSH2 0x13C8 JUMP JUMPDEST POP PUSH1 0x0 SWAP1 POP JUMPDEST SWAP2 SWAP1 POP JUMP JUMPDEST PUSH1 0x0 PUSH1 0x1 DUP3 PUSH1 0x0 PUSH1 0x3 DUP2 LT PUSH2 0x15C1 JUMPI PUSH2 0x15C0 PUSH2 0x1FBA JUMP JUMPDEST JUMPDEST PUSH1 0x20 MUL ADD MLOAD PUSH1 0x0 PUSH1 0x3 DUP2 LT PUSH2 0x15D9 JUMPI PUSH2 0x15D8 PUSH2 0x1FBA JUMP JUMPDEST JUMPDEST PUSH1 0x20 MUL ADD MLOAD PUSH1 0xFF AND EQ DUP1 PUSH2 0x1620 JUMPI POP PUSH1 0x2 DUP3 PUSH1 0x0 PUSH1 0x3 DUP2 LT PUSH2 0x15FE JUMPI PUSH2 0x15FD PUSH2 0x1FBA JUMP JUMPDEST JUMPDEST PUSH1 0x20 MUL ADD MLOAD PUSH1 0x0 PUSH1 0x3 DUP2 LT PUSH2 0x1616 JUMPI PUSH2 0x1615 PUSH2 0x1FBA JUMP JUMPDEST JUMPDEST PUSH1 0x20 MUL ADD MLOAD PUSH1 0xFF AND EQ JUMPDEST DUP1 ISZERO PUSH2 0x1691 JUMPI POP DUP2 PUSH1 0x1 PUSH1 0x3 DUP2 LT PUSH2 0x163B JUMPI PUSH2 0x163A PUSH2 0x1FBA JUMP JUMPDEST JUMPDEST PUSH1 0x20 MUL ADD MLOAD PUSH1 0x1 PUSH1 0x3 DUP2 LT PUSH2 0x1653 JUMPI PUSH2 0x1652 PUSH2 0x1FBA JUMP JUMPDEST JUMPDEST PUSH1 0x20 MUL ADD MLOAD PUSH1 0xFF AND DUP3 PUSH1 0x0 PUSH1 0x3 DUP2 LT PUSH2 0x166F JUMPI PUSH2 0x166E PUSH2 0x1FBA JUMP JUMPDEST JUMPDEST PUSH1 0x20 MUL ADD MLOAD PUSH1 0x0 PUSH1 0x3 DUP2 LT PUSH2 0x1687 JUMPI PUSH2 0x1686 PUSH2 0x1FBA JUMP JUMPDEST JUMPDEST PUSH1 0x20 MUL ADD MLOAD PUSH1 0xFF AND EQ JUMPDEST DUP1 ISZERO PUSH2 0x1702 JUMPI POP DUP2 PUSH1 0x2 PUSH1 0x3 DUP2 LT PUSH2 0x16AC JUMPI PUSH2 0x16AB PUSH2 0x1FBA JUMP JUMPDEST JUMPDEST PUSH1 0x20 MUL ADD MLOAD PUSH1 0x2 PUSH1 0x3 DUP2 LT PUSH2 0x16C4 JUMPI PUSH2 0x16C3 PUSH2 0x1FBA JUMP JUMPDEST JUMPDEST PUSH1 0x20 MUL ADD MLOAD PUSH1 0xFF AND DUP3 PUSH1 0x1 PUSH1 0x3 DUP2 LT PUSH2 0x16E0 JUMPI PUSH2 0x16DF PUSH2 0x1FBA JUMP JUMPDEST JUMPDEST PUSH1 0x20 MUL ADD MLOAD PUSH1 0x1 PUSH1 0x3 DUP2 LT PUSH2 0x16F8 JUMPI PUSH2 0x16F7 PUSH2 0x1FBA JUMP JUMPDEST JUMPDEST PUSH1 0x20 MUL ADD MLOAD PUSH1 0xFF AND EQ JUMPDEST ISZERO PUSH2 0x1753 JUMPI PUSH1 0x1 DUP3 PUSH1 0x0 PUSH1 0x3 DUP2 LT PUSH2 0x171D JUMPI PUSH2 0x171C PUSH2 0x1FBA JUMP JUMPDEST JUMPDEST PUSH1 0x20 MUL ADD MLOAD PUSH1 0x0 PUSH1 0x3 DUP2 LT PUSH2 0x1735 JUMPI PUSH2 0x1734 PUSH2 0x1FBA JUMP JUMPDEST JUMPDEST PUSH1 0x20 MUL ADD MLOAD PUSH1 0xFF AND EQ PUSH2 0x1749 JUMPI PUSH1 0x2 PUSH2 0x174C JUMP JUMPDEST PUSH1 0x1 JUMPDEST SWAP1 POP PUSH2 0x1900 JUMP JUMPDEST PUSH1 0x1 DUP3 PUSH1 0x0 PUSH1 0x3 DUP2 LT PUSH2 0x1769 JUMPI PUSH2 0x1768 PUSH2 0x1FBA JUMP JUMPDEST JUMPDEST PUSH1 0x20 MUL ADD MLOAD PUSH1 0x2 PUSH1 0x3 DUP2 LT PUSH2 0x1781 JUMPI PUSH2 0x1780 PUSH2 0x1FBA JUMP JUMPDEST JUMPDEST PUSH1 0x20 MUL ADD MLOAD PUSH1 0xFF AND EQ DUP1 PUSH2 0x17C8 JUMPI POP PUSH1 0x2 DUP3 PUSH1 0x0 PUSH1 0x3 DUP2 LT PUSH2 0x17A6 JUMPI PUSH2 0x17A5 PUSH2 0x1FBA JUMP JUMPDEST JUMPDEST PUSH1 0x20 MUL ADD MLOAD PUSH1 0x2 PUSH1 0x3 DUP2 LT PUSH2 0x17BE JUMPI PUSH2 0x17BD PUSH2 0x1FBA JUMP JUMPDEST JUMPDEST PUSH1 0x20 MUL ADD MLOAD PUSH1 0xFF AND EQ JUMPDEST DUP1 ISZERO PUSH2 0x1839 JUMPI POP DUP2 PUSH1 0x1 PUSH1 0x3 DUP2 LT PUSH2 0x17E3 JUMPI PUSH2 0x17E2 PUSH2 0x1FBA JUMP JUMPDEST JUMPDEST PUSH1 0x20 MUL ADD MLOAD PUSH1 0x1 PUSH1 0x3 DUP2 LT PUSH2 0x17FB JUMPI PUSH2 0x17FA PUSH2 0x1FBA JUMP JUMPDEST JUMPDEST PUSH1 0x20 MUL ADD MLOAD PUSH1 0xFF AND DUP3 PUSH1 0x0 PUSH1 0x3 DUP2 LT PUSH2 0x1817 JUMPI PUSH2 0x1816 PUSH2 0x1FBA JUMP JUMPDEST JUMPDEST PUSH1 0x20 MUL ADD MLOAD PUSH1 0x2 PUSH1 0x3 DUP2 LT PUSH2 0x182F JUMPI PUSH2 0x182E PUSH2 0x1FBA JUMP JUMPDEST JUMPDEST PUSH1 0x20 MUL ADD MLOAD PUSH1 0xFF AND EQ JUMPDEST DUP1 ISZERO PUSH2 0x18AA JUMPI POP DUP2 PUSH1 0x2 PUSH1 0x3 DUP2 LT PUSH2 0x1854 JUMPI PUSH2 0x1853 PUSH2 0x1FBA JUMP JUMPDEST JUMPDEST PUSH1 0x20 MUL ADD MLOAD PUSH1 0x0 PUSH1 0x3 DUP2 LT PUSH2 0x186C JUMPI PUSH2 0x186B PUSH2 0x1FBA JUMP JUMPDEST JUMPDEST PUSH1 0x20 MUL ADD MLOAD PUSH1 0xFF AND DUP3 PUSH1 0x1 PUSH1 0x3 DUP2 LT PUSH2 0x1888 JUMPI PUSH2 0x1887 PUSH2 0x1FBA JUMP JUMPDEST JUMPDEST PUSH1 0x20 MUL ADD MLOAD PUSH1 0x1 PUSH1 0x3 DUP2 LT PUSH2 0x18A0 JUMPI PUSH2 0x189F PUSH2 0x1FBA JUMP JUMPDEST JUMPDEST PUSH1 0x20 MUL ADD MLOAD PUSH1 0xFF AND EQ JUMPDEST ISZERO PUSH2 0x18FB JUMPI PUSH1 0x1 DUP3 PUSH1 0x0 PUSH1 0x3 DUP2 LT PUSH2 0x18C5 JUMPI PUSH2 0x18C4 PUSH2 0x1FBA JUMP JUMPDEST JUMPDEST PUSH1 0x20 MUL ADD MLOAD PUSH1 0x2 PUSH1 0x3 DUP2 LT PUSH2 0x18DD JUMPI PUSH2 0x18DC PUSH2 0x1FBA JUMP JUMPDEST JUMPDEST PUSH1 0x20 MUL ADD MLOAD PUSH1 0xFF AND EQ PUSH2 0x18F1 JUMPI PUSH1 0x2 PUSH2 0x18F4 JUMP JUMPDEST PUSH1 0x1 JUMPDEST SWAP1 POP PUSH2 0x1900 JUMP JUMPDEST PUSH1 0x0 SWAP1 POP JUMPDEST SWAP2 SWAP1 POP JUMP JUMPDEST PUSH1 0x0 DUP1 PUSH1 0x0 SWAP1 POP JUMPDEST PUSH1 0x3 DUP2 PUSH1 0xFF AND LT ISZERO PUSH2 0x19DF JUMPI PUSH1 0x0 JUMPDEST PUSH1 0x3 DUP2 PUSH1 0xFF AND LT ISZERO PUSH2 0x19CB JUMPI PUSH1 0x1 DUP5 DUP4 PUSH1 0xFF AND PUSH1 0x3 DUP2 LT PUSH2 0x1940 JUMPI PUSH2 0x193F PUSH2 0x1FBA JUMP JUMPDEST JUMPDEST PUSH1 0x20 MUL ADD MLOAD DUP3 PUSH1 0xFF AND PUSH1 0x3 DUP2 LT PUSH2 0x195A JUMPI PUSH2 0x1959 PUSH2 0x1FBA JUMP JUMPDEST JUMPDEST PUSH1 0x20 MUL ADD MLOAD PUSH1 0xFF AND EQ ISZERO DUP1 ISZERO PUSH2 0x19A8 JUMPI POP PUSH1 0x2 DUP5 DUP4 PUSH1 0xFF AND PUSH1 0x3 DUP2 LT PUSH2 0x1983 JUMPI PUSH2 0x1982 PUSH2 0x1FBA JUMP JUMPDEST JUMPDEST PUSH1 0x20 MUL ADD MLOAD DUP3 PUSH1 0xFF AND PUSH1 0x3 DUP2 LT PUSH2 0x199D JUMPI PUSH2 0x199C PUSH2 0x1FBA JUMP JUMPDEST JUMPDEST PUSH1 0x20 MUL ADD MLOAD PUSH1 0xFF AND EQ ISZERO JUMPDEST ISZERO PUSH2 0x19B8 JUMPI PUSH1 0x0 SWAP3 POP POP POP PUSH2 0x19E5 JUMP JUMPDEST DUP1 DUP1 PUSH2 0x19C3 SWAP1 PUSH2 0x1F32 JUMP JUMPDEST SWAP2 POP POP PUSH2 0x191C JUMP JUMPDEST POP DUP1 DUP1 PUSH2 0x19D7 SWAP1 PUSH2 0x1F32 JUMP JUMPDEST SWAP2 POP POP PUSH2 0x190D JUMP JUMPDEST POP PUSH1 0x1 SWAP1 POP JUMPDEST SWAP2 SWAP1 POP JUMP JUMPDEST PUSH1 0x40 MLOAD DUP1 PUSH1 0xA0 ADD PUSH1 0x40 MSTORE DUP1 PUSH1 0x0 PUSH20 0xFFFFFFFFFFFFFFFFFFFFFFFFFFFFFFFFFFFFFFFF AND DUP2 MSTORE PUSH1 0x20 ADD PUSH1 0x0 PUSH20 0xFFFFFFFFFFFFFFFFFFFFFFFFFFFFFFFFFFFFFFFF AND DUP2 MSTORE PUSH1 0x20 ADD PUSH1 0x0 PUSH1 0x3 DUP2 GT ISZERO PUSH2 0x1A43 JUMPI PUSH2 0x1A42 PUSH2 0x1F8B JUMP JUMPDEST JUMPDEST DUP2 MSTORE PUSH1 0x20 ADD PUSH1 0x0 PUSH1 0x2 DUP2 GT ISZERO PUSH2 0x1A5C JUMPI PUSH2 0x1A5B PUSH2 0x1F8B JUMP JUMPDEST JUMPDEST DUP2 MSTORE PUSH1 0x20 ADD PUSH2 0x1A69 PUSH2 0x1ABD JUMP JUMPDEST DUP2 MSTORE POP SWAP1 JUMP JUMPDEST DUP3 PUSH1 0x3 DUP2 ADD SWAP3 DUP3 ISZERO PUSH2 0x1AAC JUMPI SWAP2 PUSH1 0x20 MUL DUP3 ADD JUMPDEST DUP3 DUP2 GT ISZERO PUSH2 0x1AAB JUMPI DUP3 MLOAD DUP3 SWAP1 PUSH1 0x3 PUSH2 0x1A9B SWAP3 SWAP2 SWAP1 PUSH2 0x1AEA JUMP JUMPDEST POP SWAP2 PUSH1 0x20 ADD SWAP2 SWAP1 PUSH1 0x1 ADD SWAP1 PUSH2 0x1A82 JUMP JUMPDEST JUMPDEST POP SWAP1 POP PUSH2 0x1AB9 SWAP2 SWAP1 PUSH2 0x1B84 JUMP JUMPDEST POP SWAP1 JUMP JUMPDEST PUSH1 0x40 MLOAD DUP1 PUSH1 0x60 ADD PUSH1 0x40 MSTORE DUP1 PUSH1 0x3 SWAP1 JUMPDEST PUSH2 0x1AD4 PUSH2 0x1BA8 JUMP JUMPDEST DUP2 MSTORE PUSH1 0x20 ADD SWAP1 PUSH1 0x1 SWAP1 SUB SWAP1 DUP2 PUSH2 0x1ACC JUMPI SWAP1 POP POP SWAP1 JUMP JUMPDEST DUP3 PUSH1 0x3 PUSH1 0x1F ADD PUSH1 0x20 SWAP1 DIV DUP2 ADD SWAP3 DUP3 ISZERO PUSH2 0x1B73 JUMPI SWAP2 PUSH1 0x20 MUL DUP3 ADD PUSH1 0x0 JUMPDEST DUP4 DUP3 GT ISZERO PUSH2 0x1B44 JUMPI DUP4 MLOAD DUP4 DUP3 PUSH2 0x100 EXP DUP2 SLOAD DUP2 PUSH1 0xFF MUL NOT AND SWAP1 DUP4 PUSH1 0xFF AND MUL OR SWAP1 SSTORE POP SWAP3 PUSH1 0x20 ADD SWAP3 PUSH1 0x1 ADD PUSH1 0x20 DUP2 PUSH1 0x0 ADD DIV SWAP3 DUP4 ADD SWAP3 PUSH1 0x1 SUB MUL PUSH2 0x1B06 JUMP JUMPDEST DUP1 ISZERO PUSH2 0x1B71 JUMPI DUP3 DUP2 PUSH2 0x100 EXP DUP2 SLOAD SWAP1 PUSH1 0xFF MUL NOT AND SWAP1 SSTORE PUSH1 0x1 ADD PUSH1 0x20 DUP2 PUSH1 0x0 ADD DIV SWAP3 DUP4 ADD SWAP3 PUSH1 0x1 SUB MUL PUSH2 0x1B44 JUMP JUMPDEST POP JUMPDEST POP SWAP1 POP PUSH2 0x1B80 SWAP2 SWAP1 PUSH2 0x1BCA JUMP JUMPDEST POP SWAP1 JUMP JUMPDEST JUMPDEST DUP1 DUP3 GT ISZERO PUSH2 0x1BA4 JUMPI PUSH1 0x0 DUP2 DUP2 PUSH2 0x1B9B SWAP2 SWAP1 PUSH2 0x1BE7 JUMP JUMPDEST POP PUSH1 0x1 ADD PUSH2 0x1B85 JUMP JUMPDEST POP SWAP1 JUMP JUMPDEST PUSH1 0x40 MLOAD DUP1 PUSH1 0x60 ADD PUSH1 0x40 MSTORE DUP1 PUSH1 0x3 SWAP1 PUSH1 0x20 DUP3 MUL DUP1 CALLDATASIZE DUP4 CALLDATACOPY DUP1 DUP3 ADD SWAP2 POP POP SWAP1 POP POP SWAP1 JUMP JUMPDEST JUMPDEST DUP1 DUP3 GT ISZERO PUSH2 0x1BE3 JUMPI PUSH1 0x0 DUP2 PUSH1 0x0 SWAP1 SSTORE POP PUSH1 0x1 ADD PUSH2 0x1BCB JUMP JUMPDEST POP SWAP1 JUMP JUMPDEST POP PUSH1 0x0 SWAP1 SSTORE JUMP JUMPDEST PUSH1 0x0 DUP2 CALLDATALOAD SWAP1 POP PUSH2 0x1BFD DUP2 PUSH2 0x2013 JUMP JUMPDEST SWAP3 SWAP2 POP POP JUMP JUMPDEST PUSH1 0x0 PUSH1 0x20 DUP3 DUP5 SUB SLT ISZERO PUSH2 0x1C19 JUMPI PUSH2 0x1C18 PUSH2 0x1FE9 JUMP JUMPDEST JUMPDEST PUSH1 0x0 PUSH2 0x1C27 DUP5 DUP3 DUP6 ADD PUSH2 0x1BEE JUMP JUMPDEST SWAP2 POP POP SWAP3 SWAP2 POP POP JUMP JUMPDEST PUSH1 0x0 DUP1 PUSH1 0x0 PUSH1 0x60 DUP5 DUP7 SUB SLT ISZERO PUSH2 0x1C49 JUMPI PUSH2 0x1C48 PUSH2 0x1FE9 JUMP JUMPDEST JUMPDEST PUSH1 0x0 PUSH2 0x1C57 DUP7 DUP3 DUP8 ADD PUSH2 0x1BEE JUMP JUMPDEST SWAP4 POP POP PUSH1 0x20 PUSH2 0x1C68 DUP7 DUP3 DUP8 ADD PUSH2 0x1BEE JUMP JUMPDEST SWAP3 POP POP PUSH1 0x40 PUSH2 0x1C79 DUP7 DUP3 DUP8 ADD PUSH2 0x1BEE JUMP JUMPDEST SWAP2 POP POP SWAP3 POP SWAP3 POP SWAP3 JUMP JUMPDEST PUSH2 0x1C8C DUP2 PUSH2 0x1E3C JUMP JUMPDEST DUP3 MSTORE POP POP JUMP JUMPDEST PUSH2 0x1C9B DUP2 PUSH2 0x1E4E JUMP JUMPDEST DUP3 MSTORE POP POP JUMP JUMPDEST PUSH2 0x1CAA DUP2 PUSH2 0x1EA4 JUMP JUMPDEST DUP3 MSTORE POP POP JUMP JUMPDEST PUSH1 0x0 PUSH2 0x1CBB DUP3 PUSH2 0x1E20 JUMP JUMPDEST PUSH2 0x1CC5 DUP2 DUP6 PUSH2 0x1E2B JUMP JUMPDEST SWAP4 POP PUSH2 0x1CD5 DUP2 DUP6 PUSH1 0x20 DUP7 ADD PUSH2 0x1EB6 JUMP JUMPDEST PUSH2 0x1CDE DUP2 PUSH2 0x1FEE JUMP JUMPDEST DUP5 ADD SWAP2 POP POP SWAP3 SWAP2 POP POP JUMP JUMPDEST PUSH2 0x1CF2 DUP2 PUSH2 0x1E8D JUMP JUMPDEST DUP3 MSTORE POP POP JUMP JUMPDEST PUSH2 0x1D01 DUP2 PUSH2 0x1E97 JUMP JUMPDEST DUP3 MSTORE POP POP JUMP JUMPDEST PUSH1 0x0 PUSH1 0x40 DUP3 ADD SWAP1 POP PUSH2 0x1D1C PUSH1 0x0 DUP4 ADD DUP6 PUSH2 0x1C92 JUMP JUMPDEST DUP2 DUP2 SUB PUSH1 0x20 DUP4 ADD MSTORE PUSH2 0x1D2E DUP2 DUP5 PUSH2 0x1CB0 JUMP JUMPDEST SWAP1 POP SWAP4 SWAP3 POP POP POP JUMP JUMPDEST PUSH1 0x0 PUSH1 0x20 DUP3 ADD SWAP1 POP PUSH2 0x1D4C PUSH1 0x0 DUP4 ADD DUP5 PUSH2 0x1CE9 JUMP JUMPDEST SWAP3 SWAP2 POP POP JUMP JUMPDEST PUSH1 0x0 PUSH1 0x40 DUP3 ADD SWAP1 POP PUSH2 0x1D67 PUSH1 0x0 DUP4 ADD DUP6 PUSH2 0x1CE9 JUMP JUMPDEST PUSH2 0x1D74 PUSH1 0x20 DUP4 ADD DUP5 PUSH2 0x1C83 JUMP JUMPDEST SWAP4 SWAP3 POP POP POP JUMP JUMPDEST PUSH1 0x0 PUSH1 0x80 DUP3 ADD SWAP1 POP PUSH2 0x1D90 PUSH1 0x0 DUP4 ADD DUP8 PUSH2 0x1CE9 JUMP JUMPDEST PUSH2 0x1D9D PUSH1 0x20 DUP4 ADD DUP7 PUSH2 0x1C83 JUMP JUMPDEST PUSH2 0x1DAA PUSH1 0x40 DUP4 ADD DUP6 PUSH2 0x1CE9 JUMP JUMPDEST PUSH2 0x1DB7 PUSH1 0x60 DUP4 ADD DUP5 PUSH2 0x1CE9 JUMP JUMPDEST SWAP6 SWAP5 POP POP POP POP POP JUMP JUMPDEST PUSH1 0x0 PUSH1 0x60 DUP3 ADD SWAP1 POP PUSH2 0x1DD5 PUSH1 0x0 DUP4 ADD DUP7 PUSH2 0x1CE9 JUMP JUMPDEST PUSH2 0x1DE2 PUSH1 0x20 DUP4 ADD DUP6 PUSH2 0x1C83 JUMP JUMPDEST PUSH2 0x1DEF PUSH1 0x40 DUP4 ADD DUP5 PUSH2 0x1CF8 JUMP JUMPDEST SWAP5 SWAP4 POP POP POP POP JUMP JUMPDEST PUSH1 0x0 PUSH1 0x40 DUP3 ADD SWAP1 POP PUSH2 0x1E0C PUSH1 0x0 DUP4 ADD DUP6 PUSH2 0x1CE9 JUMP JUMPDEST PUSH2 0x1E19 PUSH1 0x20 DUP4 ADD DUP5 PUSH2 0x1CA1 JUMP JUMPDEST SWAP4 SWAP3 POP POP POP JUMP JUMPDEST PUSH1 0x0 DUP2 MLOAD SWAP1 POP SWAP2 SWAP1 POP JUMP JUMPDEST PUSH1 0x0 DUP3 DUP3 MSTORE PUSH1 0x20 DUP3 ADD SWAP1 POP SWAP3 SWAP2 POP POP JUMP JUMPDEST PUSH1 0x0 PUSH2 0x1E47 DUP3 PUSH2 0x1E6D JUMP JUMPDEST SWAP1 POP SWAP2 SWAP1 POP JUMP JUMPDEST PUSH1 0x0 DUP2 ISZERO ISZERO SWAP1 POP SWAP2 SWAP1 POP JUMP JUMPDEST PUSH1 0x0 DUP2 SWAP1 POP PUSH2 0x1E68 DUP3 PUSH2 0x1FFF JUMP JUMPDEST SWAP2 SWAP1 POP JUMP JUMPDEST PUSH1 0x0 PUSH20 0xFFFFFFFFFFFFFFFFFFFFFFFFFFFFFFFFFFFFFFFF DUP3 AND SWAP1 POP SWAP2 SWAP1 POP JUMP JUMPDEST PUSH1 0x0 DUP2 SWAP1 POP SWAP2 SWAP1 POP JUMP JUMPDEST PUSH1 0x0 PUSH1 0xFF DUP3 AND SWAP1 POP SWAP2 SWAP1 POP JUMP JUMPDEST PUSH1 0x0 PUSH2 0x1EAF DUP3 PUSH2 0x1E5A JUMP JUMPDEST SWAP1 POP SWAP2 SWAP1 POP JUMP JUMPDEST PUSH1 0x0 JUMPDEST DUP4 DUP2 LT ISZERO PUSH2 0x1ED4 JUMPI DUP1 DUP3 ADD MLOAD DUP2 DUP5 ADD MSTORE PUSH1 0x20 DUP2 ADD SWAP1 POP PUSH2 0x1EB9 JUMP JUMPDEST DUP4 DUP2 GT ISZERO PUSH2 0x1EE3 JUMPI PUSH1 0x0 DUP5 DUP5 ADD MSTORE JUMPDEST POP POP POP POP JUMP JUMPDEST PUSH1 0x0 PUSH2 0x1EF4 DUP3 PUSH2 0x1E8D JUMP JUMPDEST SWAP2 POP PUSH32 0xFFFFFFFFFFFFFFFFFFFFFFFFFFFFFFFFFFFFFFFFFFFFFFFFFFFFFFFFFFFFFFFF DUP3 EQ ISZERO PUSH2 0x1F27 JUMPI PUSH2 0x1F26 PUSH2 0x1F5C JUMP JUMPDEST JUMPDEST PUSH1 0x1 DUP3 ADD SWAP1 POP SWAP2 SWAP1 POP JUMP JUMPDEST PUSH1 0x0 PUSH2 0x1F3D DUP3 PUSH2 0x1E97 JUMP JUMPDEST SWAP2 POP PUSH1 0xFF DUP3 EQ ISZERO PUSH2 0x1F51 JUMPI PUSH2 0x1F50 PUSH2 0x1F5C JUMP JUMPDEST JUMPDEST PUSH1 0x1 DUP3 ADD SWAP1 POP SWAP2 SWAP1 POP JUMP JUMPDEST PUSH32 0x4E487B7100000000000000000000000000000000000000000000000000000000 PUSH1 0x0 MSTORE PUSH1 0x11 PUSH1 0x4 MSTORE PUSH1 0x24 PUSH1 0x0 REVERT JUMPDEST PUSH32 0x4E487B7100000000000000000000000000000000000000000000000000000000 PUSH1 0x0 MSTORE PUSH1 0x21 PUSH1 0x4 MSTORE PUSH1 0x24 PUSH1 0x0 REVERT JUMPDEST PUSH32 0x4E487B7100000000000000000000000000000000000000000000000000000000 PUSH1 0x0 MSTORE PUSH1 0x32 PUSH1 0x4 MSTORE PUSH1 0x24 PUSH1 0x0 REVERT JUMPDEST PUSH1 0x0 DUP1 REVERT JUMPDEST PUSH1 0x0 PUSH1 0x1F NOT PUSH1 0x1F DUP4 ADD AND SWAP1 POP SWAP2 SWAP1 POP JUMP JUMPDEST PUSH1 0x4 DUP2 LT PUSH2 0x2010 JUMPI PUSH2 0x200F PUSH2 0x1F8B JUMP JUMPDEST JUMPDEST POP JUMP JUMPDEST PUSH2 0x201C DUP2 PUSH2 0x1E8D JUMP JUMPDEST DUP2 EQ PUSH2 0x2027 JUMPI PUSH1 0x0 DUP1 REVERT JUMPDEST POP JUMP INVALID SLOAD PUSH9 0x65726520697320616C PUSH19 0x656164792061206D61726B2061742074686520 PUSH8 0x6976656E20636F6F PUSH19 0x64696E617465732E4A6F696E65642061732070 PUSH13 0x6179657220312E2047616D6520 PUSH9 0x61736E277420737461 PUSH19 0x746564207965742E4A6F696E65642061732070 PUSH13 0x6179657220312E20506C617965 PUSH19 0x203220616C7265616479206578697374732E20 POP PUSH13 0x6179657220312063616E206D61 PUSH12 0x652074686520666972737420 PUSH14 0x6F76652E4A6F696E656420617320 PUSH17 0x6C6179657220322E20506C617965722031 KECCAK256 PUSH4 0x616E206D PUSH2 0x6B65 KECCAK256 PUSH21 0x6865206669727374206D6F76652E4A6F696E656420 PUSH2 0x7320 PUSH17 0x6C6179657220322E2047616D6520686173 PUSH15 0x27742073746172746564207965742E SLOAD PUSH9 0x69732067616D652064 PUSH16 0x65736E277420686176652074776F2070 PUSH13 0x6179657273207965742EA26469 PUSH17 0x6673582212208EFE1DDB263EAF66AE3BDA SWAP14 0x25 CALL 0xE7 0xC0 PUSH17 0x27A75E4367B60F00F4A57B776A6CE86473 PUSH16 0x6C634300080700330000000000000000 "
				},
				"gasEstimates": {
					"creation": {
						"codeDepositCost": "1719000",
						"executionCost": "1806",
						"totalCost": "1720806"
					},
					"external": {
						"joinGame(uint256)": "infinite",
						"makeMove(uint256,uint256,uint256)": "infinite",
						"newGame()": "infinite"
					},
					"internal": {
						"calculateWinner(uint8[3] memory[3] memory)": "infinite",
						"getCurrentPlayer(struct TicTacToe.Game memory)": "infinite",
						"isBoardFull(uint8[3] memory[3] memory)": "infinite",
						"nextPlayer(struct TicTacToe.Game memory)": "infinite",
						"winnerInColumn(uint8[3] memory[3] memory)": "infinite",
						"winnerInDiagonal(uint8[3] memory[3] memory)": "infinite",
						"winnerInRow(uint8[3] memory[3] memory)": "infinite"
					}
				},
				"methodIdentifiers": {
					"joinGame(uint256)": "efaa55a0",
					"makeMove(uint256,uint256,uint256)": "cfc2f5ff",
					"newGame()": "7d03f5f3"
				}
			},
			"storageLayout": {
				"storage": [
					{
						"astId": 32,
						"contract": "contracts/TicTacToe.sol:TicTacToe",
						"label": "games",
						"offset": 0,
						"slot": "0",
						"type": "t_mapping(t_uint256,t_struct(Game)27_storage)"
					},
					{
						"astId": 34,
						"contract": "contracts/TicTacToe.sol:TicTacToe",
						"label": "nrOfGames",
						"offset": 0,
						"slot": "1",
						"type": "t_uint256"
					}
				],
				"types": {
					"t_address": {
						"encoding": "inplace",
						"label": "address",
						"numberOfBytes": "20"
					},
					"t_array(t_array(t_uint8)3_storage)3_storage": {
						"base": "t_array(t_uint8)3_storage",
						"encoding": "inplace",
						"label": "uint8[3][3]",
						"numberOfBytes": "96"
					},
					"t_array(t_uint8)3_storage": {
						"base": "t_uint8",
						"encoding": "inplace",
						"label": "uint8[3]",
						"numberOfBytes": "32"
					},
					"t_enum(Players)5": {
						"encoding": "inplace",
						"label": "enum TicTacToe.Players",
						"numberOfBytes": "1"
					},
					"t_enum(Winners)10": {
						"encoding": "inplace",
						"label": "enum TicTacToe.Winners",
						"numberOfBytes": "1"
					},
					"t_mapping(t_uint256,t_struct(Game)27_storage)": {
						"encoding": "mapping",
						"key": "t_uint256",
						"label": "mapping(uint256 => struct TicTacToe.Game)",
						"numberOfBytes": "32",
						"value": "t_struct(Game)27_storage"
					},
					"t_struct(Game)27_storage": {
						"encoding": "inplace",
						"label": "struct TicTacToe.Game",
						"members": [
							{
								"astId": 12,
								"contract": "contracts/TicTacToe.sol:TicTacToe",
								"label": "playerOne",
								"offset": 0,
								"slot": "0",
								"type": "t_address"
							},
							{
								"astId": 14,
								"contract": "contracts/TicTacToe.sol:TicTacToe",
								"label": "playerTwo",
								"offset": 0,
								"slot": "1",
								"type": "t_address"
							},
							{
								"astId": 17,
								"contract": "contracts/TicTacToe.sol:TicTacToe",
								"label": "winner",
								"offset": 20,
								"slot": "1",
								"type": "t_enum(Winners)10"
							},
							{
								"astId": 20,
								"contract": "contracts/TicTacToe.sol:TicTacToe",
								"label": "playerTurn",
								"offset": 21,
								"slot": "1",
								"type": "t_enum(Players)5"
							},
							{
								"astId": 26,
								"contract": "contracts/TicTacToe.sol:TicTacToe",
								"label": "board",
								"offset": 0,
								"slot": "2",
								"type": "t_array(t_array(t_uint8)3_storage)3_storage"
							}
						],
						"numberOfBytes": "160"
					},
					"t_uint256": {
						"encoding": "inplace",
						"label": "uint256",
						"numberOfBytes": "32"
					},
					"t_uint8": {
						"encoding": "inplace",
						"label": "uint8",
						"numberOfBytes": "1"
					}
				}
			},
			"userdoc": {
				"kind": "user",
				"methods": {},
				"version": 1
			}
		}
	}
}