{
	"contracts/TicTacToe.sol": {
		"TicTacToe": {
			"abi": [
				{
					"anonymous": false,
					"inputs": [
						{
							"indexed": false,
							"internalType": "uint256",
							"name": "gameId",
							"type": "uint256"
						},
						{
							"indexed": false,
							"internalType": "address",
							"name": "creator",
							"type": "address"
						}
					],
					"name": "GameCreated",
					"type": "event"
				},
				{
					"anonymous": false,
					"inputs": [
						{
							"indexed": false,
							"internalType": "uint256",
							"name": "gameId",
							"type": "uint256"
						},
						{
							"indexed": false,
							"internalType": "enum TicTacToe.Winners",
							"name": "winner",
							"type": "uint8"
						}
					],
					"name": "GameOver",
					"type": "event"
				},
				{
					"anonymous": false,
					"inputs": [
						{
							"indexed": false,
							"internalType": "uint256",
							"name": "gameId",
							"type": "uint256"
						},
						{
							"indexed": false,
							"internalType": "address",
							"name": "player",
							"type": "address"
						},
						{
							"indexed": false,
							"internalType": "uint8",
							"name": "playerNumber",
							"type": "uint8"
						}
					],
					"name": "PlayerJoinedGame",
					"type": "event"
				},
				{
					"anonymous": false,
					"inputs": [
						{
							"indexed": false,
							"internalType": "uint256",
							"name": "gameId",
							"type": "uint256"
						},
						{
							"indexed": false,
							"internalType": "address",
							"name": "player",
							"type": "address"
						},
						{
							"indexed": false,
							"internalType": "uint256",
							"name": "xCoordinate",
							"type": "uint256"
						},
						{
							"indexed": false,
							"internalType": "uint256",
							"name": "yCoordinate",
							"type": "uint256"
						}
					],
					"name": "PlayerMadeMove",
					"type": "event"
				},
				{
					"inputs": [
						{
							"internalType": "uint256",
							"name": "_gameId",
							"type": "uint256"
						}
					],
					"name": "joinGame",
					"outputs": [
						{
							"internalType": "bool",
							"name": "success",
							"type": "bool"
						},
						{
							"internalType": "string",
							"name": "reason",
							"type": "string"
						}
					],
					"stateMutability": "nonpayable",
					"type": "function"
				},
				{
					"inputs": [
						{
							"internalType": "uint256",
							"name": "_gameId",
							"type": "uint256"
						},
						{
							"internalType": "uint8",
							"name": "_xCoordinate",
							"type": "uint8"
						},
						{
							"internalType": "uint8",
							"name": "_yCoordinate",
							"type": "uint8"
						}
					],
					"name": "makeMove",
					"outputs": [
						{
							"internalType": "bool",
							"name": "success",
							"type": "bool"
						},
						{
							"internalType": "string",
							"name": "reason",
							"type": "string"
						}
					],
					"stateMutability": "nonpayable",
					"type": "function"
				},
				{
					"inputs": [],
					"name": "newGame",
					"outputs": [
						{
							"internalType": "uint256",
							"name": "gameId",
							"type": "uint256"
						}
					],
					"stateMutability": "nonpayable",
					"type": "function"
				}
			],
			"devdoc": {
				"kind": "dev",
				"methods": {},
				"version": 1
			},
			"evm": {
				"assembly": "    /* \"contracts/TicTacToe.sol\":212:11779  contract TicTacToe {... */\n  mstore(0x40, 0x80)\n  callvalue\n  dup1\n  iszero\n  tag_1\n  jumpi\n  0x00\n  dup1\n  revert\ntag_1:\n  pop\n  dataSize(sub_0)\n  dup1\n  dataOffset(sub_0)\n  0x00\n  codecopy\n  0x00\n  return\nstop\n\nsub_0: assembly {\n        /* \"contracts/TicTacToe.sol\":212:11779  contract TicTacToe {... */\n      mstore(0x40, 0x80)\n      callvalue\n      dup1\n      iszero\n      tag_1\n      jumpi\n      0x00\n      dup1\n      revert\n    tag_1:\n      pop\n      jumpi(tag_2, lt(calldatasize, 0x04))\n      shr(0xe0, calldataload(0x00))\n      dup1\n      0x7d03f5f3\n      eq\n      tag_3\n      jumpi\n      dup1\n      0xaa57f09c\n      eq\n      tag_4\n      jumpi\n      dup1\n      0xefaa55a0\n      eq\n      tag_5\n      jumpi\n    tag_2:\n      0x00\n      dup1\n      revert\n        /* \"contracts/TicTacToe.sol\":2475:2736  function newGame() public returns (uint256 gameId) {... */\n    tag_3:\n      tag_6\n      tag_7\n      jump\t// in\n    tag_6:\n      mload(0x40)\n      tag_8\n      swap2\n      swap1\n      tag_9\n      jump\t// in\n    tag_8:\n      mload(0x40)\n      dup1\n      swap2\n      sub\n      swap1\n      return\n        /* \"contracts/TicTacToe.sol\":4648:7016  function makeMove(uint256 _gameId, uint8 _xCoordinate, uint8 _yCoordinate) public returns (bool success, string memory reason) {... */\n    tag_4:\n      tag_10\n      0x04\n      dup1\n      calldatasize\n      sub\n      dup2\n      add\n      swap1\n      tag_11\n      swap2\n      swap1\n      tag_12\n      jump\t// in\n    tag_11:\n      tag_13\n      jump\t// in\n    tag_10:\n      mload(0x40)\n      tag_14\n      swap3\n      swap2\n      swap1\n      tag_15\n      jump\t// in\n    tag_14:\n      mload(0x40)\n      dup1\n      swap2\n      sub\n      swap1\n      return\n        /* \"contracts/TicTacToe.sol\":2988:4528  function joinGame(uint256 _gameId) public returns (bool success, string memory reason) {... */\n    tag_5:\n      tag_16\n      0x04\n      dup1\n      calldatasize\n      sub\n      dup2\n      add\n      swap1\n      tag_17\n      swap2\n      swap1\n      tag_18\n      jump\t// in\n    tag_17:\n      tag_19\n      jump\t// in\n    tag_16:\n      mload(0x40)\n      tag_20\n      swap3\n      swap2\n      swap1\n      tag_15\n      jump\t// in\n    tag_20:\n      mload(0x40)\n      dup1\n      swap2\n      sub\n      swap1\n      return\n        /* \"contracts/TicTacToe.sol\":2475:2736  function newGame() public returns (uint256 gameId) {... */\n    tag_7:\n        /* \"contracts/TicTacToe.sol\":2510:2524  uint256 gameId */\n      0x00\n        /* \"contracts/TicTacToe.sol\":2536:2552  Game memory game */\n      tag_22\n      tag_23\n      jump\t// in\n    tag_22:\n        /* \"contracts/TicTacToe.sol\":2580:2597  Players.PlayerOne */\n      0x01\n        /* \"contracts/TicTacToe.sol\":2562:2566  game */\n      dup2\n        /* \"contracts/TicTacToe.sol\":2562:2577  game.playerTurn */\n      0x60\n      add\n        /* \"contracts/TicTacToe.sol\":2562:2597  game.playerTurn = Players.PlayerOne */\n      swap1\n      0x02\n      dup2\n      gt\n      iszero\n      tag_24\n      jumpi\n      tag_25\n      tag_26\n      jump\t// in\n    tag_25:\n    tag_24:\n      swap1\n      dup2\n      0x02\n      dup2\n      gt\n      iszero\n      tag_27\n      jumpi\n      tag_28\n      tag_26\n      jump\t// in\n    tag_28:\n    tag_27:\n      dup2\n      mstore\n      pop\n      pop\n        /* \"contracts/TicTacToe.sol\":2608:2617  nrOfGames */\n      0x01\n      0x00\n        /* \"contracts/TicTacToe.sol\":2608:2619  nrOfGames++ */\n      dup2\n      sload\n      dup1\n      swap3\n      swap2\n      swap1\n      tag_29\n      swap1\n      tag_30\n      jump\t// in\n    tag_29:\n      swap2\n      swap1\n      pop\n      sstore\n      pop\n        /* \"contracts/TicTacToe.sol\":2648:2652  game */\n      dup1\n        /* \"contracts/TicTacToe.sol\":2629:2634  games */\n      0x00\n        /* \"contracts/TicTacToe.sol\":2629:2645  games[nrOfGames] */\n      dup1\n        /* \"contracts/TicTacToe.sol\":2635:2644  nrOfGames */\n      sload(0x01)\n        /* \"contracts/TicTacToe.sol\":2629:2645  games[nrOfGames] */\n      dup2\n      mstore\n      0x20\n      add\n      swap1\n      dup2\n      mstore\n      0x20\n      add\n      0x00\n      keccak256\n        /* \"contracts/TicTacToe.sol\":2629:2652  games[nrOfGames] = game */\n      0x00\n      dup3\n      add\n      mload\n      dup2\n      0x00\n      add\n      exp(0x0100, 0x00)\n      dup2\n      sload\n      dup2\n      0xffffffffffffffffffffffffffffffffffffffff\n      mul\n      not\n      and\n      swap1\n      dup4\n      0xffffffffffffffffffffffffffffffffffffffff\n      and\n      mul\n      or\n      swap1\n      sstore\n      pop\n      0x20\n      dup3\n      add\n      mload\n      dup2\n      0x01\n      add\n      exp(0x0100, 0x00)\n      dup2\n      sload\n      dup2\n      0xffffffffffffffffffffffffffffffffffffffff\n      mul\n      not\n      and\n      swap1\n      dup4\n      0xffffffffffffffffffffffffffffffffffffffff\n      and\n      mul\n      or\n      swap1\n      sstore\n      pop\n      0x40\n      dup3\n      add\n      mload\n      dup2\n      0x01\n      add\n      exp(0x0100, 0x14)\n      dup2\n      sload\n      dup2\n      0xff\n      mul\n      not\n      and\n      swap1\n      dup4\n      0x03\n      dup2\n      gt\n      iszero\n      tag_31\n      jumpi\n      tag_32\n      tag_26\n      jump\t// in\n    tag_32:\n    tag_31:\n      mul\n      or\n      swap1\n      sstore\n      pop\n      0x60\n      dup3\n      add\n      mload\n      dup2\n      0x01\n      add\n      exp(0x0100, 0x15)\n      dup2\n      sload\n      dup2\n      0xff\n      mul\n      not\n      and\n      swap1\n      dup4\n      0x02\n      dup2\n      gt\n      iszero\n      tag_33\n      jumpi\n      tag_34\n      tag_26\n      jump\t// in\n    tag_34:\n    tag_33:\n      mul\n      or\n      swap1\n      sstore\n      pop\n      0x80\n      dup3\n      add\n      mload\n      dup2\n      0x02\n      add\n      swap1\n      0x03\n      tag_35\n      swap3\n      swap2\n      swap1\n      tag_36\n      jump\t// in\n    tag_35:\n      pop\n      swap1\n      pop\n      pop\n        /* \"contracts/TicTacToe.sol\":2668:2702  GameCreated(nrOfGames, msg.sender) */\n      0xc3e0f84839dc888c892a013d10c8f9d6dc05a21a879d0ce468ca558013e9121c\n        /* \"contracts/TicTacToe.sol\":2680:2689  nrOfGames */\n      sload(0x01)\n        /* \"contracts/TicTacToe.sol\":2691:2701  msg.sender */\n      caller\n        /* \"contracts/TicTacToe.sol\":2668:2702  GameCreated(nrOfGames, msg.sender) */\n      mload(0x40)\n      tag_37\n      swap3\n      swap2\n      swap1\n      tag_38\n      jump\t// in\n    tag_37:\n      mload(0x40)\n      dup1\n      swap2\n      sub\n      swap1\n      log1\n        /* \"contracts/TicTacToe.sol\":2720:2729  nrOfGames */\n      sload(0x01)\n        /* \"contracts/TicTacToe.sol\":2713:2729  return nrOfGames */\n      swap2\n      pop\n      pop\n        /* \"contracts/TicTacToe.sol\":2475:2736  function newGame() public returns (uint256 gameId) {... */\n      swap1\n      jump\t// out\n        /* \"contracts/TicTacToe.sol\":4648:7016  function makeMove(uint256 _gameId, uint8 _xCoordinate, uint8 _yCoordinate) public returns (bool success, string memory reason) {... */\n    tag_13:\n        /* \"contracts/TicTacToe.sol\":4739:4751  bool success */\n      0x00\n        /* \"contracts/TicTacToe.sol\":4753:4773  string memory reason */\n      0x60\n        /* \"contracts/TicTacToe.sol\":4799:4808  nrOfGames */\n      sload(0x01)\n        /* \"contracts/TicTacToe.sol\":4789:4796  _gameId */\n      dup6\n        /* \"contracts/TicTacToe.sol\":4789:4808  _gameId > nrOfGames */\n      gt\n        /* \"contracts/TicTacToe.sol\":4789:4894  _gameId > nrOfGames || (games[_gameId].playerOne == address(0) && games[_gameId].playerTwo == address(0)) */\n      dup1\n      tag_40\n      jumpi\n      pop\n        /* \"contracts/TicTacToe.sol\":4849:4850  0 */\n      0x00\n        /* \"contracts/TicTacToe.sol\":4813:4851  games[_gameId].playerOne == address(0) */\n      0xffffffffffffffffffffffffffffffffffffffff\n      and\n        /* \"contracts/TicTacToe.sol\":4813:4818  games */\n      0x00\n        /* \"contracts/TicTacToe.sol\":4813:4827  games[_gameId] */\n      dup1\n        /* \"contracts/TicTacToe.sol\":4819:4826  _gameId */\n      dup8\n        /* \"contracts/TicTacToe.sol\":4813:4827  games[_gameId] */\n      dup2\n      mstore\n      0x20\n      add\n      swap1\n      dup2\n      mstore\n      0x20\n      add\n      0x00\n      keccak256\n        /* \"contracts/TicTacToe.sol\":4813:4837  games[_gameId].playerOne */\n      0x00\n      add\n      0x00\n      swap1\n      sload\n      swap1\n      0x0100\n      exp\n      swap1\n      div\n      0xffffffffffffffffffffffffffffffffffffffff\n      and\n        /* \"contracts/TicTacToe.sol\":4813:4851  games[_gameId].playerOne == address(0) */\n      0xffffffffffffffffffffffffffffffffffffffff\n      and\n      eq\n        /* \"contracts/TicTacToe.sol\":4813:4893  games[_gameId].playerOne == address(0) && games[_gameId].playerTwo == address(0) */\n      dup1\n      iszero\n      tag_41\n      jumpi\n      pop\n        /* \"contracts/TicTacToe.sol\":4891:4892  0 */\n      0x00\n        /* \"contracts/TicTacToe.sol\":4855:4893  games[_gameId].playerTwo == address(0) */\n      0xffffffffffffffffffffffffffffffffffffffff\n      and\n        /* \"contracts/TicTacToe.sol\":4855:4860  games */\n      0x00\n        /* \"contracts/TicTacToe.sol\":4855:4869  games[_gameId] */\n      dup1\n        /* \"contracts/TicTacToe.sol\":4861:4868  _gameId */\n      dup8\n        /* \"contracts/TicTacToe.sol\":4855:4869  games[_gameId] */\n      dup2\n      mstore\n      0x20\n      add\n      swap1\n      dup2\n      mstore\n      0x20\n      add\n      0x00\n      keccak256\n        /* \"contracts/TicTacToe.sol\":4855:4879  games[_gameId].playerTwo */\n      0x01\n      add\n      0x00\n      swap1\n      sload\n      swap1\n      0x0100\n      exp\n      swap1\n      div\n      0xffffffffffffffffffffffffffffffffffffffff\n      and\n        /* \"contracts/TicTacToe.sol\":4855:4893  games[_gameId].playerTwo == address(0) */\n      0xffffffffffffffffffffffffffffffffffffffff\n      and\n      eq\n        /* \"contracts/TicTacToe.sol\":4813:4893  games[_gameId].playerOne == address(0) && games[_gameId].playerTwo == address(0) */\n    tag_41:\n        /* \"contracts/TicTacToe.sol\":4789:4894  _gameId > nrOfGames || (games[_gameId].playerOne == address(0) && games[_gameId].playerTwo == address(0)) */\n    tag_40:\n        /* \"contracts/TicTacToe.sol\":4785:4959  if (_gameId > nrOfGames || (games[_gameId].playerOne == address(0) && games[_gameId].playerTwo == address(0))) {... */\n      iszero\n      tag_42\n      jumpi\n        /* \"contracts/TicTacToe.sol\":4918:4923  false */\n      0x00\n        /* \"contracts/TicTacToe.sol\":4910:4948  return (false, \"No such game exists.\") */\n      mload(0x40)\n      dup1\n      0x40\n      add\n      0x40\n      mstore\n      dup1\n      0x14\n      dup2\n      mstore\n      0x20\n      add\n      0x4e6f20737563682067616d65206578697374732e000000000000000000000000\n      dup2\n      mstore\n      pop\n      swap2\n      pop\n      swap2\n      pop\n      jump(tag_39)\n        /* \"contracts/TicTacToe.sol\":4785:4959  if (_gameId > nrOfGames || (games[_gameId].playerOne == address(0) && games[_gameId].playerTwo == address(0))) {... */\n    tag_42:\n        /* \"contracts/TicTacToe.sol\":4987:4988  0 */\n      0x00\n        /* \"contracts/TicTacToe.sol\":4972:4984  _xCoordinate */\n      dup5\n        /* \"contracts/TicTacToe.sol\":4972:4988  _xCoordinate < 0 */\n      0xff\n      and\n      lt\n        /* \"contracts/TicTacToe.sol\":4972:5008  _xCoordinate < 0 || _xCoordinate > 2 */\n      dup1\n      tag_43\n      jumpi\n      pop\n        /* \"contracts/TicTacToe.sol\":5007:5008  2 */\n      0x02\n        /* \"contracts/TicTacToe.sol\":4992:5004  _xCoordinate */\n      dup5\n        /* \"contracts/TicTacToe.sol\":4992:5008  _xCoordinate > 2 */\n      0xff\n      and\n      gt\n        /* \"contracts/TicTacToe.sol\":4972:5008  _xCoordinate < 0 || _xCoordinate > 2 */\n    tag_43:\n        /* \"contracts/TicTacToe.sol\":4969:5084  if(_xCoordinate < 0 || _xCoordinate > 2) { ... */\n      iszero\n      tag_44\n      jumpi\n        /* \"contracts/TicTacToe.sol\":5032:5037  false */\n      0x00\n        /* \"contracts/TicTacToe.sol\":5025:5073  return(false, \"Invalid input for x-coordinate.\") */\n      mload(0x40)\n      dup1\n      0x40\n      add\n      0x40\n      mstore\n      dup1\n      0x1f\n      dup2\n      mstore\n      0x20\n      add\n      0x496e76616c696420696e70757420666f7220782d636f6f7264696e6174652e00\n      dup2\n      mstore\n      pop\n      swap2\n      pop\n      swap2\n      pop\n      jump(tag_39)\n        /* \"contracts/TicTacToe.sol\":4969:5084  if(_xCoordinate < 0 || _xCoordinate > 2) { ... */\n    tag_44:\n        /* \"contracts/TicTacToe.sol\":5111:5112  0 */\n      0x00\n        /* \"contracts/TicTacToe.sol\":5096:5108  _yCoordinate */\n      dup4\n        /* \"contracts/TicTacToe.sol\":5096:5112  _yCoordinate < 0 */\n      0xff\n      and\n      lt\n        /* \"contracts/TicTacToe.sol\":5096:5132  _yCoordinate < 0 || _yCoordinate > 2 */\n      dup1\n      tag_45\n      jumpi\n      pop\n        /* \"contracts/TicTacToe.sol\":5131:5132  2 */\n      0x02\n        /* \"contracts/TicTacToe.sol\":5116:5128  _yCoordinate */\n      dup4\n        /* \"contracts/TicTacToe.sol\":5116:5132  _yCoordinate > 2 */\n      0xff\n      and\n      gt\n        /* \"contracts/TicTacToe.sol\":5096:5132  _yCoordinate < 0 || _yCoordinate > 2 */\n    tag_45:\n        /* \"contracts/TicTacToe.sol\":5093:5208  if(_yCoordinate < 0 || _yCoordinate > 2) { ... */\n      iszero\n      tag_46\n      jumpi\n        /* \"contracts/TicTacToe.sol\":5156:5161  false */\n      0x00\n        /* \"contracts/TicTacToe.sol\":5149:5197  return(false, \"Invalid input for y-coordinate.\") */\n      mload(0x40)\n      dup1\n      0x40\n      add\n      0x40\n      mstore\n      dup1\n      0x1f\n      dup2\n      mstore\n      0x20\n      add\n      0x496e76616c696420696e70757420666f7220792d636f6f7264696e6174652e00\n      dup2\n      mstore\n      pop\n      swap2\n      pop\n      swap2\n      pop\n      jump(tag_39)\n        /* \"contracts/TicTacToe.sol\":5093:5208  if(_yCoordinate < 0 || _yCoordinate > 2) { ... */\n    tag_46:\n        /* \"contracts/TicTacToe.sol\":5258:5259  0 */\n      0x00\n        /* \"contracts/TicTacToe.sol\":5222:5260  games[_gameId].playerOne == address(0) */\n      0xffffffffffffffffffffffffffffffffffffffff\n      and\n        /* \"contracts/TicTacToe.sol\":5222:5227  games */\n      0x00\n        /* \"contracts/TicTacToe.sol\":5222:5236  games[_gameId] */\n      dup1\n        /* \"contracts/TicTacToe.sol\":5228:5235  _gameId */\n      dup8\n        /* \"contracts/TicTacToe.sol\":5222:5236  games[_gameId] */\n      dup2\n      mstore\n      0x20\n      add\n      swap1\n      dup2\n      mstore\n      0x20\n      add\n      0x00\n      keccak256\n        /* \"contracts/TicTacToe.sol\":5222:5246  games[_gameId].playerOne */\n      0x00\n      add\n      0x00\n      swap1\n      sload\n      swap1\n      0x0100\n      exp\n      swap1\n      div\n      0xffffffffffffffffffffffffffffffffffffffff\n      and\n        /* \"contracts/TicTacToe.sol\":5222:5260  games[_gameId].playerOne == address(0) */\n      0xffffffffffffffffffffffffffffffffffffffff\n      and\n      eq\n        /* \"contracts/TicTacToe.sol\":5222:5302  games[_gameId].playerOne == address(0) || games[_gameId].playerTwo == address(0) */\n      dup1\n      tag_47\n      jumpi\n      pop\n        /* \"contracts/TicTacToe.sol\":5300:5301  0 */\n      0x00\n        /* \"contracts/TicTacToe.sol\":5264:5302  games[_gameId].playerTwo == address(0) */\n      0xffffffffffffffffffffffffffffffffffffffff\n      and\n        /* \"contracts/TicTacToe.sol\":5264:5269  games */\n      0x00\n        /* \"contracts/TicTacToe.sol\":5264:5278  games[_gameId] */\n      dup1\n        /* \"contracts/TicTacToe.sol\":5270:5277  _gameId */\n      dup8\n        /* \"contracts/TicTacToe.sol\":5264:5278  games[_gameId] */\n      dup2\n      mstore\n      0x20\n      add\n      swap1\n      dup2\n      mstore\n      0x20\n      add\n      0x00\n      keccak256\n        /* \"contracts/TicTacToe.sol\":5264:5288  games[_gameId].playerTwo */\n      0x01\n      add\n      0x00\n      swap1\n      sload\n      swap1\n      0x0100\n      exp\n      swap1\n      div\n      0xffffffffffffffffffffffffffffffffffffffff\n      and\n        /* \"contracts/TicTacToe.sol\":5264:5302  games[_gameId].playerTwo == address(0) */\n      0xffffffffffffffffffffffffffffffffffffffff\n      and\n      eq\n        /* \"contracts/TicTacToe.sol\":5222:5302  games[_gameId].playerOne == address(0) || games[_gameId].playerTwo == address(0) */\n    tag_47:\n        /* \"contracts/TicTacToe.sol\":5218:5386  if (games[_gameId].playerOne == address(0) || games[_gameId].playerTwo == address(0)) {... */\n      iszero\n      tag_48\n      jumpi\n        /* \"contracts/TicTacToe.sol\":5326:5331  false */\n      0x00\n        /* \"contracts/TicTacToe.sol\":5318:5375  return (false, \"This game doesn't have two players yet.\") */\n      mload(0x40)\n      dup1\n      0x60\n      add\n      0x40\n      mstore\n      dup1\n      0x27\n      dup2\n      mstore\n      0x20\n      add\n      data_cd1c82b9c97f6de04235118f1b9fb732f775ca593a234137657e86aa65a28d62\n      0x27\n      swap2\n      codecopy\n      swap2\n      pop\n      swap2\n      pop\n      jump(tag_39)\n        /* \"contracts/TicTacToe.sol\":5218:5386  if (games[_gameId].playerOne == address(0) || games[_gameId].playerTwo == address(0)) {... */\n    tag_48:\n        /* \"contracts/TicTacToe.sol\":5396:5412  Game memory game */\n      0x00\n        /* \"contracts/TicTacToe.sol\":5415:5420  games */\n      dup1\n        /* \"contracts/TicTacToe.sol\":5415:5429  games[_gameId] */\n      0x00\n        /* \"contracts/TicTacToe.sol\":5421:5428  _gameId */\n      dup8\n        /* \"contracts/TicTacToe.sol\":5415:5429  games[_gameId] */\n      dup2\n      mstore\n      0x20\n      add\n      swap1\n      dup2\n      mstore\n      0x20\n      add\n      0x00\n      keccak256\n        /* \"contracts/TicTacToe.sol\":5396:5429  Game memory game = games[_gameId] */\n      mload(0x40)\n      dup1\n      0xa0\n      add\n      0x40\n      mstore\n      swap1\n      dup2\n      0x00\n      dup3\n      add\n      0x00\n      swap1\n      sload\n      swap1\n      0x0100\n      exp\n      swap1\n      div\n      0xffffffffffffffffffffffffffffffffffffffff\n      and\n      0xffffffffffffffffffffffffffffffffffffffff\n      and\n      0xffffffffffffffffffffffffffffffffffffffff\n      and\n      dup2\n      mstore\n      0x20\n      add\n      0x01\n      dup3\n      add\n      0x00\n      swap1\n      sload\n      swap1\n      0x0100\n      exp\n      swap1\n      div\n      0xffffffffffffffffffffffffffffffffffffffff\n      and\n      0xffffffffffffffffffffffffffffffffffffffff\n      and\n      0xffffffffffffffffffffffffffffffffffffffff\n      and\n      dup2\n      mstore\n      0x20\n      add\n      0x01\n      dup3\n      add\n      0x14\n      swap1\n      sload\n      swap1\n      0x0100\n      exp\n      swap1\n      div\n      0xff\n      and\n      0x03\n      dup2\n      gt\n      iszero\n      tag_49\n      jumpi\n      tag_50\n      tag_26\n      jump\t// in\n    tag_50:\n    tag_49:\n      0x03\n      dup2\n      gt\n      iszero\n      tag_51\n      jumpi\n      tag_52\n      tag_26\n      jump\t// in\n    tag_52:\n    tag_51:\n      dup2\n      mstore\n      0x20\n      add\n      0x01\n      dup3\n      add\n      0x15\n      swap1\n      sload\n      swap1\n      0x0100\n      exp\n      swap1\n      div\n      0xff\n      and\n      0x02\n      dup2\n      gt\n      iszero\n      tag_53\n      jumpi\n      tag_54\n      tag_26\n      jump\t// in\n    tag_54:\n    tag_53:\n      0x02\n      dup2\n      gt\n      iszero\n      tag_55\n      jumpi\n      tag_56\n      tag_26\n      jump\t// in\n    tag_56:\n    tag_55:\n      dup2\n      mstore\n      0x20\n      add\n      0x02\n      dup3\n      add\n      0x03\n      dup1\n      0x20\n      mul\n      mload(0x40)\n      swap1\n      dup2\n      add\n      0x40\n      mstore\n      dup1\n      swap3\n      swap2\n      swap1\n      0x00\n      swap1\n    tag_57:\n      dup3\n      dup3\n      lt\n      iszero\n      tag_58\n      jumpi\n      dup4\n      dup3\n      add\n      0x03\n      dup1\n      0x20\n      mul\n      mload(0x40)\n      swap1\n      dup2\n      add\n      0x40\n      mstore\n      dup1\n      swap3\n      swap2\n      swap1\n      dup3\n      0x03\n      dup1\n      iszero\n      tag_60\n      jumpi\n      0x20\n      mul\n      dup3\n      add\n      swap2\n      0x00\n      swap1\n    tag_61:\n      dup3\n      dup3\n      swap1\n      sload\n      swap1\n      0x0100\n      exp\n      swap1\n      div\n      0xff\n      and\n      0xff\n      and\n      dup2\n      mstore\n      0x20\n      add\n      swap1\n      0x01\n      add\n      swap1\n      0x20\n      dup3\n      0x00\n      add\n      div\n      swap3\n      dup4\n      add\n      swap3\n      0x01\n      sub\n      dup3\n      mul\n      swap2\n      pop\n      dup1\n      dup5\n      gt\n      tag_61\n      jumpi\n      swap1\n      pop\n    tag_60:\n      pop\n      pop\n      pop\n      pop\n      pop\n      dup2\n      mstore\n      0x20\n      add\n      swap1\n      0x01\n      add\n      swap1\n      jump(tag_57)\n    tag_58:\n      pop\n      pop\n      pop\n      pop\n      dup2\n      mstore\n      pop\n      pop\n      swap1\n      pop\n        /* \"contracts/TicTacToe.sol\":5537:5549  Winners.None */\n      0x00\n        /* \"contracts/TicTacToe.sol\":5522:5549  game.winner != Winners.None */\n      0x03\n      dup2\n      gt\n      iszero\n      tag_62\n      jumpi\n      tag_63\n      tag_26\n      jump\t// in\n    tag_63:\n    tag_62:\n        /* \"contracts/TicTacToe.sol\":5522:5526  game */\n      dup2\n        /* \"contracts/TicTacToe.sol\":5522:5533  game.winner */\n      0x40\n      add\n      mload\n        /* \"contracts/TicTacToe.sol\":5522:5549  game.winner != Winners.None */\n      0x03\n      dup2\n      gt\n      iszero\n      tag_64\n      jumpi\n      tag_65\n      tag_26\n      jump\t// in\n    tag_65:\n    tag_64:\n      eq\n        /* \"contracts/TicTacToe.sol\":5518:5621  if (game.winner != Winners.None) {... */\n      tag_66\n      jumpi\n        /* \"contracts/TicTacToe.sol\":5573:5578  false */\n      0x00\n        /* \"contracts/TicTacToe.sol\":5565:5610  return (false, \"The game has already ended.\") */\n      mload(0x40)\n      dup1\n      0x40\n      add\n      0x40\n      mstore\n      dup1\n      0x1b\n      dup2\n      mstore\n      0x20\n      add\n      0x5468652067616d652068617320616c726561647920656e6465642e0000000000\n      dup2\n      mstore\n      pop\n      swap3\n      pop\n      swap3\n      pop\n      pop\n      jump(tag_39)\n        /* \"contracts/TicTacToe.sol\":5518:5621  if (game.winner != Winners.None) {... */\n    tag_66:\n        /* \"contracts/TicTacToe.sol\":5710:5732  getCurrentPlayer(game) */\n      tag_67\n        /* \"contracts/TicTacToe.sol\":5727:5731  game */\n      dup2\n        /* \"contracts/TicTacToe.sol\":5710:5726  getCurrentPlayer */\n      tag_68\n        /* \"contracts/TicTacToe.sol\":5710:5732  getCurrentPlayer(game) */\n      jump\t// in\n    tag_67:\n        /* \"contracts/TicTacToe.sol\":5696:5732  msg.sender != getCurrentPlayer(game) */\n      0xffffffffffffffffffffffffffffffffffffffff\n      and\n        /* \"contracts/TicTacToe.sol\":5696:5706  msg.sender */\n      caller\n        /* \"contracts/TicTacToe.sol\":5696:5732  msg.sender != getCurrentPlayer(game) */\n      0xffffffffffffffffffffffffffffffffffffffff\n      and\n      eq\n        /* \"contracts/TicTacToe.sol\":5692:5872  if (msg.sender != getCurrentPlayer(game)) {... */\n      tag_69\n      jumpi\n        /* \"contracts/TicTacToe.sol\":5831:5836  false */\n      0x00\n        /* \"contracts/TicTacToe.sol\":5823:5861  return (false, \"It is not your turn.\") */\n      mload(0x40)\n      dup1\n      0x40\n      add\n      0x40\n      mstore\n      dup1\n      0x14\n      dup2\n      mstore\n      0x20\n      add\n      0x4974206973206e6f7420796f7572207475726e2e000000000000000000000000\n      dup2\n      mstore\n      pop\n      swap3\n      pop\n      swap3\n      pop\n      pop\n      jump(tag_39)\n        /* \"contracts/TicTacToe.sol\":5692:5872  if (msg.sender != getCurrentPlayer(game)) {... */\n    tag_69:\n        /* \"contracts/TicTacToe.sol\":6023:6024  1 */\n      0x01\n        /* \"contracts/TicTacToe.sol\":5981:5985  game */\n      dup2\n        /* \"contracts/TicTacToe.sol\":5981:5991  game.board */\n      0x80\n      add\n      mload\n        /* \"contracts/TicTacToe.sol\":5992:6004  _xCoordinate */\n      dup7\n        /* \"contracts/TicTacToe.sol\":5981:6005  game.board[_xCoordinate] */\n      0xff\n      and\n      0x03\n      dup2\n      lt\n      tag_70\n      jumpi\n      tag_71\n      tag_72\n      jump\t// in\n    tag_71:\n    tag_70:\n      0x20\n      mul\n      add\n      mload\n        /* \"contracts/TicTacToe.sol\":6006:6018  _yCoordinate */\n      dup6\n        /* \"contracts/TicTacToe.sol\":5981:6019  game.board[_xCoordinate][_yCoordinate] */\n      0xff\n      and\n      0x03\n      dup2\n      lt\n      tag_73\n      jumpi\n      tag_74\n      tag_72\n      jump\t// in\n    tag_74:\n    tag_73:\n      0x20\n      mul\n      add\n      mload\n        /* \"contracts/TicTacToe.sol\":5981:6024  game.board[_xCoordinate][_yCoordinate] == 1 */\n      0xff\n      and\n      eq\n        /* \"contracts/TicTacToe.sol\":5981:6071  game.board[_xCoordinate][_yCoordinate] == 1 || game.board[_xCoordinate][_yCoordinate] == 2 */\n      dup1\n      tag_75\n      jumpi\n      pop\n        /* \"contracts/TicTacToe.sol\":6070:6071  2 */\n      0x02\n        /* \"contracts/TicTacToe.sol\":6028:6032  game */\n      dup2\n        /* \"contracts/TicTacToe.sol\":6028:6038  game.board */\n      0x80\n      add\n      mload\n        /* \"contracts/TicTacToe.sol\":6039:6051  _xCoordinate */\n      dup7\n        /* \"contracts/TicTacToe.sol\":6028:6052  game.board[_xCoordinate] */\n      0xff\n      and\n      0x03\n      dup2\n      lt\n      tag_76\n      jumpi\n      tag_77\n      tag_72\n      jump\t// in\n    tag_77:\n    tag_76:\n      0x20\n      mul\n      add\n      mload\n        /* \"contracts/TicTacToe.sol\":6053:6065  _yCoordinate */\n      dup6\n        /* \"contracts/TicTacToe.sol\":6028:6066  game.board[_xCoordinate][_yCoordinate] */\n      0xff\n      and\n      0x03\n      dup2\n      lt\n      tag_78\n      jumpi\n      tag_79\n      tag_72\n      jump\t// in\n    tag_79:\n    tag_78:\n      0x20\n      mul\n      add\n      mload\n        /* \"contracts/TicTacToe.sol\":6028:6071  game.board[_xCoordinate][_yCoordinate] == 2 */\n      0xff\n      and\n      eq\n        /* \"contracts/TicTacToe.sol\":5981:6071  game.board[_xCoordinate][_yCoordinate] == 1 || game.board[_xCoordinate][_yCoordinate] == 2 */\n    tag_75:\n        /* \"contracts/TicTacToe.sol\":5977:6165  if (game.board[_xCoordinate][_yCoordinate] == 1 || game.board[_xCoordinate][_yCoordinate] == 2) {... */\n      iszero\n      tag_80\n      jumpi\n        /* \"contracts/TicTacToe.sol\":6095:6100  false */\n      0x00\n        /* \"contracts/TicTacToe.sol\":6087:6154  return (false, \"There is already a mark at the given coordinates.\") */\n      mload(0x40)\n      dup1\n      0x60\n      add\n      0x40\n      mstore\n      dup1\n      0x31\n      dup2\n      mstore\n      0x20\n      add\n      data_024d23689c7c0d36b0295c402b03cbbb30a16b10831d85b0a50598b30664ffd5\n      0x31\n      swap2\n      codecopy\n      swap3\n      pop\n      swap3\n      pop\n      pop\n      jump(tag_39)\n        /* \"contracts/TicTacToe.sol\":5977:6165  if (game.board[_xCoordinate][_yCoordinate] == 1 || game.board[_xCoordinate][_yCoordinate] == 2) {... */\n    tag_80:\n        /* \"contracts/TicTacToe.sol\":6304:6321  Players.PlayerOne */\n      0x01\n        /* \"contracts/TicTacToe.sol\":6285:6321  game.playerTurn == Players.PlayerOne */\n      0x02\n      dup2\n      gt\n      iszero\n      tag_81\n      jumpi\n      tag_82\n      tag_26\n      jump\t// in\n    tag_82:\n    tag_81:\n        /* \"contracts/TicTacToe.sol\":6285:6289  game */\n      dup2\n        /* \"contracts/TicTacToe.sol\":6285:6300  game.playerTurn */\n      0x60\n      add\n      mload\n        /* \"contracts/TicTacToe.sol\":6285:6321  game.playerTurn == Players.PlayerOne */\n      0x02\n      dup2\n      gt\n      iszero\n      tag_83\n      jumpi\n      tag_84\n      tag_26\n      jump\t// in\n    tag_84:\n    tag_83:\n      eq\n        /* \"contracts/TicTacToe.sol\":6285:6329  game.playerTurn == Players.PlayerOne ? 1 : 2 */\n      tag_85\n      jumpi\n        /* \"contracts/TicTacToe.sol\":6328:6329  2 */\n      0x02\n        /* \"contracts/TicTacToe.sol\":6285:6329  game.playerTurn == Players.PlayerOne ? 1 : 2 */\n      jump(tag_86)\n    tag_85:\n        /* \"contracts/TicTacToe.sol\":6324:6325  1 */\n      0x01\n        /* \"contracts/TicTacToe.sol\":6285:6329  game.playerTurn == Players.PlayerOne ? 1 : 2 */\n    tag_86:\n        /* \"contracts/TicTacToe.sol\":6244:6248  game */\n      dup2\n        /* \"contracts/TicTacToe.sol\":6244:6254  game.board */\n      0x80\n      add\n      mload\n        /* \"contracts/TicTacToe.sol\":6255:6267  _xCoordinate */\n      dup7\n        /* \"contracts/TicTacToe.sol\":6244:6268  game.board[_xCoordinate] */\n      0xff\n      and\n      0x03\n      dup2\n      lt\n      tag_87\n      jumpi\n      tag_88\n      tag_72\n      jump\t// in\n    tag_88:\n    tag_87:\n      0x20\n      mul\n      add\n      mload\n        /* \"contracts/TicTacToe.sol\":6269:6281  _yCoordinate */\n      dup6\n        /* \"contracts/TicTacToe.sol\":6244:6282  game.board[_xCoordinate][_yCoordinate] */\n      0xff\n      and\n      0x03\n      dup2\n      lt\n      tag_89\n      jumpi\n      tag_90\n      tag_72\n      jump\t// in\n    tag_90:\n    tag_89:\n      0x20\n      mul\n      add\n        /* \"contracts/TicTacToe.sol\":6244:6329  game.board[_xCoordinate][_yCoordinate] = game.playerTurn == Players.PlayerOne ? 1 : 2 */\n      swap1\n      0xff\n      and\n      swap1\n      dup2\n      0xff\n      and\n      dup2\n      mstore\n      pop\n      pop\n        /* \"contracts/TicTacToe.sol\":6344:6407  PlayerMadeMove(_gameId, msg.sender, _xCoordinate, _yCoordinate) */\n      0xaa03b0eb53c70f6640eba4234ad2c58782c8927e7abf7d3a6e2c45d07ca9d583\n        /* \"contracts/TicTacToe.sol\":6359:6366  _gameId */\n      dup7\n        /* \"contracts/TicTacToe.sol\":6368:6378  msg.sender */\n      caller\n        /* \"contracts/TicTacToe.sol\":6380:6392  _xCoordinate */\n      dup8\n        /* \"contracts/TicTacToe.sol\":6394:6406  _yCoordinate */\n      dup8\n        /* \"contracts/TicTacToe.sol\":6344:6407  PlayerMadeMove(_gameId, msg.sender, _xCoordinate, _yCoordinate) */\n      mload(0x40)\n      tag_91\n      swap5\n      swap4\n      swap3\n      swap2\n      swap1\n      tag_92\n      jump\t// in\n    tag_91:\n      mload(0x40)\n      dup1\n      swap2\n      sub\n      swap1\n      log1\n        /* \"contracts/TicTacToe.sol\":6485:6499  Winners winner */\n      0x00\n        /* \"contracts/TicTacToe.sol\":6502:6529  calculateWinner(game.board) */\n      tag_93\n        /* \"contracts/TicTacToe.sol\":6518:6522  game */\n      dup3\n        /* \"contracts/TicTacToe.sol\":6518:6528  game.board */\n      0x80\n      add\n      mload\n        /* \"contracts/TicTacToe.sol\":6502:6517  calculateWinner */\n      tag_94\n        /* \"contracts/TicTacToe.sol\":6502:6529  calculateWinner(game.board) */\n      jump\t// in\n    tag_93:\n        /* \"contracts/TicTacToe.sol\":6485:6529  Winners winner = calculateWinner(game.board) */\n      swap1\n      pop\n        /* \"contracts/TicTacToe.sol\":6553:6565  Winners.None */\n      0x00\n        /* \"contracts/TicTacToe.sol\":6543:6565  winner != Winners.None */\n      0x03\n      dup2\n      gt\n      iszero\n      tag_95\n      jumpi\n      tag_96\n      tag_26\n      jump\t// in\n    tag_96:\n    tag_95:\n        /* \"contracts/TicTacToe.sol\":6543:6549  winner */\n      dup2\n        /* \"contracts/TicTacToe.sol\":6543:6565  winner != Winners.None */\n      0x03\n      dup2\n      gt\n      iszero\n      tag_97\n      jumpi\n      tag_98\n      tag_26\n      jump\t// in\n    tag_98:\n    tag_97:\n      eq\n        /* \"contracts/TicTacToe.sol\":6539:6851  if (winner != Winners.None) {... */\n      tag_99\n      jumpi\n        /* \"contracts/TicTacToe.sol\":6741:6747  winner */\n      dup1\n        /* \"contracts/TicTacToe.sol\":6727:6731  game */\n      dup3\n        /* \"contracts/TicTacToe.sol\":6727:6738  game.winner */\n      0x40\n      add\n        /* \"contracts/TicTacToe.sol\":6727:6747  game.winner = winner */\n      swap1\n      0x03\n      dup2\n      gt\n      iszero\n      tag_100\n      jumpi\n      tag_101\n      tag_26\n      jump\t// in\n    tag_101:\n    tag_100:\n      swap1\n      dup2\n      0x03\n      dup2\n      gt\n      iszero\n      tag_102\n      jumpi\n      tag_103\n      tag_26\n      jump\t// in\n    tag_103:\n    tag_102:\n      dup2\n      mstore\n      pop\n      pop\n        /* \"contracts/TicTacToe.sol\":6766:6791  GameOver(_gameId, winner) */\n      0x132b564c6f96092065580fd28989d181dfbbfe4aa2fb7fb1eda8af68ba3073e0\n        /* \"contracts/TicTacToe.sol\":6775:6782  _gameId */\n      dup8\n        /* \"contracts/TicTacToe.sol\":6784:6790  winner */\n      dup3\n        /* \"contracts/TicTacToe.sol\":6766:6791  GameOver(_gameId, winner) */\n      mload(0x40)\n      tag_104\n      swap3\n      swap2\n      swap1\n      tag_105\n      jump\t// in\n    tag_104:\n      mload(0x40)\n      dup1\n      swap2\n      sub\n      swap1\n      log1\n        /* \"contracts/TicTacToe.sol\":6814:6818  true */\n      0x01\n        /* \"contracts/TicTacToe.sol\":6806:6840  return (true, \"The game is over.\") */\n      mload(0x40)\n      dup1\n      0x40\n      add\n      0x40\n      mstore\n      dup1\n      0x11\n      dup2\n      mstore\n      0x20\n      add\n      0x5468652067616d65206973206f7665722e000000000000000000000000000000\n      dup2\n      mstore\n      pop\n      swap4\n      pop\n      swap4\n      pop\n      pop\n      pop\n      jump(tag_39)\n        /* \"contracts/TicTacToe.sol\":6539:6851  if (winner != Winners.None) {... */\n    tag_99:\n        /* \"contracts/TicTacToe.sol\":6965:6981  nextPlayer(game) */\n      tag_106\n        /* \"contracts/TicTacToe.sol\":6976:6980  game */\n      dup3\n        /* \"contracts/TicTacToe.sol\":6965:6975  nextPlayer */\n      tag_107\n        /* \"contracts/TicTacToe.sol\":6965:6981  nextPlayer(game) */\n      jump\t// in\n    tag_106:\n        /* \"contracts/TicTacToe.sol\":7000:7004  true */\n      0x01\n        /* \"contracts/TicTacToe.sol\":6992:7009  return (true, \"\") */\n      mload(0x40)\n      dup1\n      0x20\n      add\n      0x40\n      mstore\n      dup1\n      0x00\n      dup2\n      mstore\n      pop\n      swap4\n      pop\n      swap4\n      pop\n      pop\n      pop\n        /* \"contracts/TicTacToe.sol\":4648:7016  function makeMove(uint256 _gameId, uint8 _xCoordinate, uint8 _yCoordinate) public returns (bool success, string memory reason) {... */\n    tag_39:\n      swap4\n      pop\n      swap4\n      swap2\n      pop\n      pop\n      jump\t// out\n        /* \"contracts/TicTacToe.sol\":2988:4528  function joinGame(uint256 _gameId) public returns (bool success, string memory reason) {... */\n    tag_19:\n        /* \"contracts/TicTacToe.sol\":3039:3051  bool success */\n      0x00\n        /* \"contracts/TicTacToe.sol\":3053:3073  string memory reason */\n      0x60\n        /* \"contracts/TicTacToe.sol\":3099:3108  nrOfGames */\n      sload(0x01)\n        /* \"contracts/TicTacToe.sol\":3089:3096  _gameId */\n      dup4\n        /* \"contracts/TicTacToe.sol\":3089:3108  _gameId > nrOfGames */\n      gt\n        /* \"contracts/TicTacToe.sol\":3085:3173  if (_gameId > nrOfGames) {... */\n      iszero\n      tag_109\n      jumpi\n        /* \"contracts/TicTacToe.sol\":3132:3137  false */\n      0x00\n        /* \"contracts/TicTacToe.sol\":3124:3162  return (false, \"No such game exists.\") */\n      mload(0x40)\n      dup1\n      0x40\n      add\n      0x40\n      mstore\n      dup1\n      0x14\n      dup2\n      mstore\n      0x20\n      add\n      0x4e6f20737563682067616d65206578697374732e000000000000000000000000\n      dup2\n      mstore\n      pop\n      swap2\n      pop\n      swap2\n      pop\n      jump(tag_108)\n        /* \"contracts/TicTacToe.sol\":3085:3173  if (_gameId > nrOfGames) {... */\n    tag_109:\n        /* \"contracts/TicTacToe.sol\":3183:3200  address newPlayer */\n      0x00\n        /* \"contracts/TicTacToe.sol\":3203:3213  msg.sender */\n      caller\n        /* \"contracts/TicTacToe.sol\":3183:3213  address newPlayer = msg.sender */\n      swap1\n      pop\n        /* \"contracts/TicTacToe.sol\":3223:3240  Game storage game */\n      0x00\n        /* \"contracts/TicTacToe.sol\":3243:3248  games */\n      dup1\n        /* \"contracts/TicTacToe.sol\":3243:3257  games[_gameId] */\n      0x00\n        /* \"contracts/TicTacToe.sol\":3249:3256  _gameId */\n      dup7\n        /* \"contracts/TicTacToe.sol\":3243:3257  games[_gameId] */\n      dup2\n      mstore\n      0x20\n      add\n      swap1\n      dup2\n      mstore\n      0x20\n      add\n      0x00\n      keccak256\n        /* \"contracts/TicTacToe.sol\":3223:3257  Game storage game = games[_gameId] */\n      swap1\n      pop\n        /* \"contracts/TicTacToe.sol\":3286:3298  Winners.None */\n      0x00\n        /* \"contracts/TicTacToe.sol\":3271:3298  game.winner != Winners.None */\n      0x03\n      dup2\n      gt\n      iszero\n      tag_110\n      jumpi\n      tag_111\n      tag_26\n      jump\t// in\n    tag_111:\n    tag_110:\n        /* \"contracts/TicTacToe.sol\":3271:3275  game */\n      dup2\n        /* \"contracts/TicTacToe.sol\":3271:3282  game.winner */\n      0x01\n      add\n      0x14\n      swap1\n      sload\n      swap1\n      0x0100\n      exp\n      swap1\n      div\n      0xff\n      and\n        /* \"contracts/TicTacToe.sol\":3271:3298  game.winner != Winners.None */\n      0x03\n      dup2\n      gt\n      iszero\n      tag_112\n      jumpi\n      tag_113\n      tag_26\n      jump\t// in\n    tag_113:\n    tag_112:\n      eq\n        /* \"contracts/TicTacToe.sol\":3268:3372  if(game.winner != Winners.None) {... */\n      tag_114\n      jumpi\n        /* \"contracts/TicTacToe.sol\":3321:3326  false */\n      0x00\n        /* \"contracts/TicTacToe.sol\":3314:3361  return(false, \"This game is already complete.\") */\n      mload(0x40)\n      dup1\n      0x40\n      add\n      0x40\n      mstore\n      dup1\n      0x1e\n      dup2\n      mstore\n      0x20\n      add\n      0x546869732067616d6520697320616c726561647920636f6d706c6574652e0000\n      dup2\n      mstore\n      pop\n      swap4\n      pop\n      swap4\n      pop\n      pop\n      pop\n      jump(tag_108)\n        /* \"contracts/TicTacToe.sol\":3268:3372  if(game.winner != Winners.None) {... */\n    tag_114:\n        /* \"contracts/TicTacToe.sol\":3481:3482  0 */\n      0x00\n        /* \"contracts/TicTacToe.sol\":3455:3483  game.playerOne == address(0) */\n      0xffffffffffffffffffffffffffffffffffffffff\n      and\n        /* \"contracts/TicTacToe.sol\":3455:3459  game */\n      dup2\n        /* \"contracts/TicTacToe.sol\":3455:3469  game.playerOne */\n      0x00\n      add\n      0x00\n      swap1\n      sload\n      swap1\n      0x0100\n      exp\n      swap1\n      div\n      0xffffffffffffffffffffffffffffffffffffffff\n      and\n        /* \"contracts/TicTacToe.sol\":3455:3483  game.playerOne == address(0) */\n      0xffffffffffffffffffffffffffffffffffffffff\n      and\n      eq\n        /* \"contracts/TicTacToe.sol\":3451:3919  if (game.playerOne == address(0)) {... */\n      iszero\n      tag_115\n      jumpi\n        /* \"contracts/TicTacToe.sol\":3516:3525  newPlayer */\n      dup2\n        /* \"contracts/TicTacToe.sol\":3499:3503  game */\n      dup2\n        /* \"contracts/TicTacToe.sol\":3499:3513  game.playerOne */\n      0x00\n      add\n      0x00\n        /* \"contracts/TicTacToe.sol\":3499:3525  game.playerOne = newPlayer */\n      0x0100\n      exp\n      dup2\n      sload\n      dup2\n      0xffffffffffffffffffffffffffffffffffffffff\n      mul\n      not\n      and\n      swap1\n      dup4\n      0xffffffffffffffffffffffffffffffffffffffff\n      and\n      mul\n      or\n      swap1\n      sstore\n      pop\n        /* \"contracts/TicTacToe.sol\":3544:3606  PlayerJoinedGame(_gameId, newPlayer, uint8(Players.PlayerOne)) */\n      0x8f5866c09e99941481e2be79d3a7698371543fe3ad3387b903553fd6043e8550\n        /* \"contracts/TicTacToe.sol\":3561:3568  _gameId */\n      dup6\n        /* \"contracts/TicTacToe.sol\":3570:3579  newPlayer */\n      dup4\n        /* \"contracts/TicTacToe.sol\":3587:3604  Players.PlayerOne */\n      0x01\n        /* \"contracts/TicTacToe.sol\":3581:3605  uint8(Players.PlayerOne) */\n      0x02\n      dup2\n      gt\n      iszero\n      tag_116\n      jumpi\n      tag_117\n      tag_26\n      jump\t// in\n    tag_117:\n    tag_116:\n        /* \"contracts/TicTacToe.sol\":3544:3606  PlayerJoinedGame(_gameId, newPlayer, uint8(Players.PlayerOne)) */\n      mload(0x40)\n      tag_118\n      swap4\n      swap3\n      swap2\n      swap1\n      tag_119\n      jump\t// in\n    tag_118:\n      mload(0x40)\n      dup1\n      swap2\n      sub\n      swap1\n      log1\n        /* \"contracts/TicTacToe.sol\":3649:3650  0 */\n      0x00\n        /* \"contracts/TicTacToe.sol\":3623:3651  game.playerTwo != address(0) */\n      0xffffffffffffffffffffffffffffffffffffffff\n      and\n        /* \"contracts/TicTacToe.sol\":3623:3627  game */\n      dup2\n        /* \"contracts/TicTacToe.sol\":3623:3637  game.playerTwo */\n      0x01\n      add\n      0x00\n      swap1\n      sload\n      swap1\n      0x0100\n      exp\n      swap1\n      div\n      0xffffffffffffffffffffffffffffffffffffffff\n      and\n        /* \"contracts/TicTacToe.sol\":3623:3651  game.playerTwo != address(0) */\n      0xffffffffffffffffffffffffffffffffffffffff\n      and\n      eq\n        /* \"contracts/TicTacToe.sol\":3620:3833  if(game.playerTwo != address(0)) {... */\n      tag_120\n      jumpi\n        /* \"contracts/TicTacToe.sol\":3689:3706  Players.PlayerOne */\n      0x01\n        /* \"contracts/TicTacToe.sol\":3671:3675  game */\n      dup2\n        /* \"contracts/TicTacToe.sol\":3671:3686  game.playerTurn */\n      0x01\n      add\n      0x15\n        /* \"contracts/TicTacToe.sol\":3671:3706  game.playerTurn = Players.PlayerOne */\n      0x0100\n      exp\n      dup2\n      sload\n      dup2\n      0xff\n      mul\n      not\n      and\n      swap1\n      dup4\n      0x02\n      dup2\n      gt\n      iszero\n      tag_121\n      jumpi\n      tag_122\n      tag_26\n      jump\t// in\n    tag_122:\n    tag_121:\n      mul\n      or\n      swap1\n      sstore\n      pop\n        /* \"contracts/TicTacToe.sol\":3731:3735  true */\n      0x01\n        /* \"contracts/TicTacToe.sol\":3724:3818  return(true, \"Joined as player 1. Player 2 already exists. Player 1 can make the first move.\") */\n      mload(0x40)\n      dup1\n      0x80\n      add\n      0x40\n      mstore\n      dup1\n      0x4e\n      dup2\n      mstore\n      0x20\n      add\n      data_2307c6cecb6cdd4358fafc00b91c477d19bbf696b7e2882ab8bda9a452fbe182\n      0x4e\n      swap2\n      codecopy\n      swap4\n      pop\n      swap4\n      pop\n      pop\n      pop\n      jump(tag_108)\n        /* \"contracts/TicTacToe.sol\":3620:3833  if(game.playerTwo != address(0)) {... */\n    tag_120:\n        /* \"contracts/TicTacToe.sol\":3855:3859  true */\n      0x01\n        /* \"contracts/TicTacToe.sol\":3847:3908  return (true, \"Joined as player 1. Game hasn't started yet.\") */\n      mload(0x40)\n      dup1\n      0x60\n      add\n      0x40\n      mstore\n      dup1\n      0x2c\n      dup2\n      mstore\n      0x20\n      add\n      data_1dec2345cf2c9904d4bfc97b685b7aceb7535b3c20b581cfcd1a8aad6e3c0022\n      0x2c\n      swap2\n      codecopy\n      swap4\n      pop\n      swap4\n      pop\n      pop\n      pop\n      jump(tag_108)\n        /* \"contracts/TicTacToe.sol\":3451:3919  if (game.playerOne == address(0)) {... */\n    tag_115:\n        /* \"contracts/TicTacToe.sol\":4048:4049  0 */\n      0x00\n        /* \"contracts/TicTacToe.sol\":4022:4050  game.playerTwo == address(0) */\n      0xffffffffffffffffffffffffffffffffffffffff\n      and\n        /* \"contracts/TicTacToe.sol\":4022:4026  game */\n      dup2\n        /* \"contracts/TicTacToe.sol\":4022:4036  game.playerTwo */\n      0x01\n      add\n      0x00\n      swap1\n      sload\n      swap1\n      0x0100\n      exp\n      swap1\n      div\n      0xffffffffffffffffffffffffffffffffffffffff\n      and\n        /* \"contracts/TicTacToe.sol\":4022:4050  game.playerTwo == address(0) */\n      0xffffffffffffffffffffffffffffffffffffffff\n      and\n      eq\n        /* \"contracts/TicTacToe.sol\":4018:4461  if (game.playerTwo == address(0)) {... */\n      iszero\n      tag_123\n      jumpi\n        /* \"contracts/TicTacToe.sol\":4083:4092  newPlayer */\n      dup2\n        /* \"contracts/TicTacToe.sol\":4066:4070  game */\n      dup2\n        /* \"contracts/TicTacToe.sol\":4066:4080  game.playerTwo */\n      0x01\n      add\n      0x00\n        /* \"contracts/TicTacToe.sol\":4066:4092  game.playerTwo = newPlayer */\n      0x0100\n      exp\n      dup2\n      sload\n      dup2\n      0xffffffffffffffffffffffffffffffffffffffff\n      mul\n      not\n      and\n      swap1\n      dup4\n      0xffffffffffffffffffffffffffffffffffffffff\n      and\n      mul\n      or\n      swap1\n      sstore\n      pop\n        /* \"contracts/TicTacToe.sol\":4111:4173  PlayerJoinedGame(_gameId, newPlayer, uint8(Players.PlayerTwo)) */\n      0x8f5866c09e99941481e2be79d3a7698371543fe3ad3387b903553fd6043e8550\n        /* \"contracts/TicTacToe.sol\":4128:4135  _gameId */\n      dup6\n        /* \"contracts/TicTacToe.sol\":4137:4146  newPlayer */\n      dup4\n        /* \"contracts/TicTacToe.sol\":4154:4171  Players.PlayerTwo */\n      0x02\n        /* \"contracts/TicTacToe.sol\":4148:4172  uint8(Players.PlayerTwo) */\n      dup1\n      dup2\n      gt\n      iszero\n      tag_124\n      jumpi\n      tag_125\n      tag_26\n      jump\t// in\n    tag_125:\n    tag_124:\n        /* \"contracts/TicTacToe.sol\":4111:4173  PlayerJoinedGame(_gameId, newPlayer, uint8(Players.PlayerTwo)) */\n      mload(0x40)\n      tag_126\n      swap4\n      swap3\n      swap2\n      swap1\n      tag_119\n      jump\t// in\n    tag_126:\n      mload(0x40)\n      dup1\n      swap2\n      sub\n      swap1\n      log1\n        /* \"contracts/TicTacToe.sol\":4216:4217  0 */\n      0x00\n        /* \"contracts/TicTacToe.sol\":4190:4218  game.playerOne != address(0) */\n      0xffffffffffffffffffffffffffffffffffffffff\n      and\n        /* \"contracts/TicTacToe.sol\":4190:4194  game */\n      dup2\n        /* \"contracts/TicTacToe.sol\":4190:4204  game.playerOne */\n      0x00\n      add\n      0x00\n      swap1\n      sload\n      swap1\n      0x0100\n      exp\n      swap1\n      div\n      0xffffffffffffffffffffffffffffffffffffffff\n      and\n        /* \"contracts/TicTacToe.sol\":4190:4218  game.playerOne != address(0) */\n      0xffffffffffffffffffffffffffffffffffffffff\n      and\n      eq\n        /* \"contracts/TicTacToe.sol\":4187:4376  if(game.playerOne != address(0)) { ... */\n      tag_127\n      jumpi\n        /* \"contracts/TicTacToe.sol\":4257:4274  Players.PlayerOne */\n      0x01\n        /* \"contracts/TicTacToe.sol\":4239:4243  game */\n      dup2\n        /* \"contracts/TicTacToe.sol\":4239:4254  game.playerTurn */\n      0x01\n      add\n      0x15\n        /* \"contracts/TicTacToe.sol\":4239:4274  game.playerTurn = Players.PlayerOne */\n      0x0100\n      exp\n      dup2\n      sload\n      dup2\n      0xff\n      mul\n      not\n      and\n      swap1\n      dup4\n      0x02\n      dup2\n      gt\n      iszero\n      tag_128\n      jumpi\n      tag_129\n      tag_26\n      jump\t// in\n    tag_129:\n    tag_128:\n      mul\n      or\n      swap1\n      sstore\n      pop\n        /* \"contracts/TicTacToe.sol\":4299:4303  true */\n      0x01\n        /* \"contracts/TicTacToe.sol\":4292:4361  return(true, \"Joined as player 2. Player 1 can make the first move.\") */\n      mload(0x40)\n      dup1\n      0x60\n      add\n      0x40\n      mstore\n      dup1\n      0x35\n      dup2\n      mstore\n      0x20\n      add\n      data_476d10d052133a3cad173f786601a80ea3fb2cf99f87880757d5b4e323ffaa9b\n      0x35\n      swap2\n      codecopy\n      swap4\n      pop\n      swap4\n      pop\n      pop\n      pop\n      jump(tag_108)\n        /* \"contracts/TicTacToe.sol\":4187:4376  if(game.playerOne != address(0)) { ... */\n    tag_127:\n        /* \"contracts/TicTacToe.sol\":4397:4401  true */\n      0x01\n        /* \"contracts/TicTacToe.sol\":4389:4450  return (true, \"Joined as player 2. Game hasn't started yet.\") */\n      mload(0x40)\n      dup1\n      0x60\n      add\n      0x40\n      mstore\n      dup1\n      0x2c\n      dup2\n      mstore\n      0x20\n      add\n      data_54a12ab040607f091841913999c9806ab3bf0ebbc1cf1cdac8686e31b8bf9155\n      0x2c\n      swap2\n      codecopy\n      swap4\n      pop\n      swap4\n      pop\n      pop\n      pop\n      jump(tag_108)\n        /* \"contracts/TicTacToe.sol\":4018:4461  if (game.playerTwo == address(0)) {... */\n    tag_123:\n        /* \"contracts/TicTacToe.sol\":4479:4484  false */\n      0x00\n        /* \"contracts/TicTacToe.sol\":4471:4521  return (false, \"This game already has 2 players.\") */\n      mload(0x40)\n      dup1\n      0x40\n      add\n      0x40\n      mstore\n      dup1\n      0x20\n      dup2\n      mstore\n      0x20\n      add\n      0x546869732067616d6520616c726561647920686173203220706c61796572732e\n      dup2\n      mstore\n      pop\n      swap4\n      pop\n      swap4\n      pop\n      pop\n      pop\n        /* \"contracts/TicTacToe.sol\":2988:4528  function joinGame(uint256 _gameId) public returns (bool success, string memory reason) {... */\n    tag_108:\n      swap2\n      pop\n      swap2\n      jump\t// out\n        /* \"contracts/TicTacToe.sol\":7172:7489  function getCurrentPlayer(Game memory _game) private pure returns (address player) {... */\n    tag_68:\n        /* \"contracts/TicTacToe.sol\":7239:7253  address player */\n      0x00\n        /* \"contracts/TicTacToe.sol\":7289:7306  Players.PlayerOne */\n      0x01\n        /* \"contracts/TicTacToe.sol\":7269:7306  _game.playerTurn == Players.PlayerOne */\n      0x02\n      dup2\n      gt\n      iszero\n      tag_131\n      jumpi\n      tag_132\n      tag_26\n      jump\t// in\n    tag_132:\n    tag_131:\n        /* \"contracts/TicTacToe.sol\":7269:7274  _game */\n      dup3\n        /* \"contracts/TicTacToe.sol\":7269:7285  _game.playerTurn */\n      0x60\n      add\n      mload\n        /* \"contracts/TicTacToe.sol\":7269:7306  _game.playerTurn == Players.PlayerOne */\n      0x02\n      dup2\n      gt\n      iszero\n      tag_133\n      jumpi\n      tag_134\n      tag_26\n      jump\t// in\n    tag_134:\n    tag_133:\n      eq\n        /* \"contracts/TicTacToe.sol\":7265:7355  if (_game.playerTurn == Players.PlayerOne) {... */\n      iszero\n      tag_135\n      jumpi\n        /* \"contracts/TicTacToe.sol\":7329:7334  _game */\n      dup2\n        /* \"contracts/TicTacToe.sol\":7329:7344  _game.playerOne */\n      0x00\n      add\n      mload\n        /* \"contracts/TicTacToe.sol\":7322:7344  return _game.playerOne */\n      swap1\n      pop\n      jump(tag_130)\n        /* \"contracts/TicTacToe.sol\":7265:7355  if (_game.playerTurn == Players.PlayerOne) {... */\n    tag_135:\n        /* \"contracts/TicTacToe.sol\":7389:7406  Players.PlayerTwo */\n      0x02\n        /* \"contracts/TicTacToe.sol\":7369:7406  _game.playerTurn == Players.PlayerTwo */\n      dup1\n      dup2\n      gt\n      iszero\n      tag_136\n      jumpi\n      tag_137\n      tag_26\n      jump\t// in\n    tag_137:\n    tag_136:\n        /* \"contracts/TicTacToe.sol\":7369:7374  _game */\n      dup3\n        /* \"contracts/TicTacToe.sol\":7369:7385  _game.playerTurn */\n      0x60\n      add\n      mload\n        /* \"contracts/TicTacToe.sol\":7369:7406  _game.playerTurn == Players.PlayerTwo */\n      0x02\n      dup2\n      gt\n      iszero\n      tag_138\n      jumpi\n      tag_139\n      tag_26\n      jump\t// in\n    tag_139:\n    tag_138:\n      eq\n        /* \"contracts/TicTacToe.sol\":7365:7455  if (_game.playerTurn == Players.PlayerTwo) {... */\n      iszero\n      tag_140\n      jumpi\n        /* \"contracts/TicTacToe.sol\":7429:7434  _game */\n      dup2\n        /* \"contracts/TicTacToe.sol\":7429:7444  _game.playerTwo */\n      0x20\n      add\n      mload\n        /* \"contracts/TicTacToe.sol\":7422:7444  return _game.playerTwo */\n      swap1\n      pop\n      jump(tag_130)\n        /* \"contracts/TicTacToe.sol\":7365:7455  if (_game.playerTurn == Players.PlayerTwo) {... */\n    tag_140:\n        /* \"contracts/TicTacToe.sol\":7480:7481  0 */\n      0x00\n        /* \"contracts/TicTacToe.sol\":7465:7482  return address(0) */\n      swap1\n      pop\n        /* \"contracts/TicTacToe.sol\":7172:7489  function getCurrentPlayer(Game memory _game) private pure returns (address player) {... */\n    tag_130:\n      swap2\n      swap1\n      pop\n      jump\t// out\n        /* \"contracts/TicTacToe.sol\":7644:8850  function calculateWinner(uint8[3][3] memory _board) private pure returns (Winners winner) {... */\n    tag_94:\n        /* \"contracts/TicTacToe.sol\":7718:7732  Winners winner */\n      0x00\n        /* \"contracts/TicTacToe.sol\":7940:7954  Players player */\n      dup1\n        /* \"contracts/TicTacToe.sol\":7957:7976  winnerInRow(_board) */\n      tag_142\n        /* \"contracts/TicTacToe.sol\":7969:7975  _board */\n      dup4\n        /* \"contracts/TicTacToe.sol\":7957:7968  winnerInRow */\n      tag_143\n        /* \"contracts/TicTacToe.sol\":7957:7976  winnerInRow(_board) */\n      jump\t// in\n    tag_142:\n        /* \"contracts/TicTacToe.sol\":7940:7976  Players player = winnerInRow(_board) */\n      swap1\n      pop\n        /* \"contracts/TicTacToe.sol\":8000:8017  Players.PlayerOne */\n      0x01\n        /* \"contracts/TicTacToe.sol\":7990:8017  player == Players.PlayerOne */\n      0x02\n      dup2\n      gt\n      iszero\n      tag_144\n      jumpi\n      tag_145\n      tag_26\n      jump\t// in\n    tag_145:\n    tag_144:\n        /* \"contracts/TicTacToe.sol\":7990:7996  player */\n      dup2\n        /* \"contracts/TicTacToe.sol\":7990:8017  player == Players.PlayerOne */\n      0x02\n      dup2\n      gt\n      iszero\n      tag_146\n      jumpi\n      tag_147\n      tag_26\n      jump\t// in\n    tag_147:\n    tag_146:\n      eq\n        /* \"contracts/TicTacToe.sol\":7986:8068  if (player == Players.PlayerOne) {... */\n      iszero\n      tag_148\n      jumpi\n        /* \"contracts/TicTacToe.sol\":8040:8057  Winners.PlayerOne */\n      0x01\n        /* \"contracts/TicTacToe.sol\":8033:8057  return Winners.PlayerOne */\n      swap2\n      pop\n      pop\n      jump(tag_141)\n        /* \"contracts/TicTacToe.sol\":7986:8068  if (player == Players.PlayerOne) {... */\n    tag_148:\n        /* \"contracts/TicTacToe.sol\":8091:8108  Players.PlayerTwo */\n      0x02\n        /* \"contracts/TicTacToe.sol\":8081:8108  player == Players.PlayerTwo */\n      dup1\n      dup2\n      gt\n      iszero\n      tag_149\n      jumpi\n      tag_150\n      tag_26\n      jump\t// in\n    tag_150:\n    tag_149:\n        /* \"contracts/TicTacToe.sol\":8081:8087  player */\n      dup2\n        /* \"contracts/TicTacToe.sol\":8081:8108  player == Players.PlayerTwo */\n      0x02\n      dup2\n      gt\n      iszero\n      tag_151\n      jumpi\n      tag_152\n      tag_26\n      jump\t// in\n    tag_152:\n    tag_151:\n      eq\n        /* \"contracts/TicTacToe.sol\":8077:8159  if (player == Players.PlayerTwo) {... */\n      iszero\n      tag_153\n      jumpi\n        /* \"contracts/TicTacToe.sol\":8131:8148  Winners.PlayerTwo */\n      0x02\n        /* \"contracts/TicTacToe.sol\":8124:8148  return Winners.PlayerTwo */\n      swap2\n      pop\n      pop\n      jump(tag_141)\n        /* \"contracts/TicTacToe.sol\":8077:8159  if (player == Players.PlayerTwo) {... */\n    tag_153:\n        /* \"contracts/TicTacToe.sol\":8202:8224  winnerInColumn(_board) */\n      tag_154\n        /* \"contracts/TicTacToe.sol\":8217:8223  _board */\n      dup4\n        /* \"contracts/TicTacToe.sol\":8202:8216  winnerInColumn */\n      tag_155\n        /* \"contracts/TicTacToe.sol\":8202:8224  winnerInColumn(_board) */\n      jump\t// in\n    tag_154:\n        /* \"contracts/TicTacToe.sol\":8193:8224  player = winnerInColumn(_board) */\n      swap1\n      pop\n        /* \"contracts/TicTacToe.sol\":8248:8265  Players.PlayerOne */\n      0x01\n        /* \"contracts/TicTacToe.sol\":8238:8265  player == Players.PlayerOne */\n      0x02\n      dup2\n      gt\n      iszero\n      tag_156\n      jumpi\n      tag_157\n      tag_26\n      jump\t// in\n    tag_157:\n    tag_156:\n        /* \"contracts/TicTacToe.sol\":8238:8244  player */\n      dup2\n        /* \"contracts/TicTacToe.sol\":8238:8265  player == Players.PlayerOne */\n      0x02\n      dup2\n      gt\n      iszero\n      tag_158\n      jumpi\n      tag_159\n      tag_26\n      jump\t// in\n    tag_159:\n    tag_158:\n      eq\n        /* \"contracts/TicTacToe.sol\":8234:8316  if (player == Players.PlayerOne) {... */\n      iszero\n      tag_160\n      jumpi\n        /* \"contracts/TicTacToe.sol\":8288:8305  Winners.PlayerOne */\n      0x01\n        /* \"contracts/TicTacToe.sol\":8281:8305  return Winners.PlayerOne */\n      swap2\n      pop\n      pop\n      jump(tag_141)\n        /* \"contracts/TicTacToe.sol\":8234:8316  if (player == Players.PlayerOne) {... */\n    tag_160:\n        /* \"contracts/TicTacToe.sol\":8339:8356  Players.PlayerTwo */\n      0x02\n        /* \"contracts/TicTacToe.sol\":8329:8356  player == Players.PlayerTwo */\n      dup1\n      dup2\n      gt\n      iszero\n      tag_161\n      jumpi\n      tag_162\n      tag_26\n      jump\t// in\n    tag_162:\n    tag_161:\n        /* \"contracts/TicTacToe.sol\":8329:8335  player */\n      dup2\n        /* \"contracts/TicTacToe.sol\":8329:8356  player == Players.PlayerTwo */\n      0x02\n      dup2\n      gt\n      iszero\n      tag_163\n      jumpi\n      tag_164\n      tag_26\n      jump\t// in\n    tag_164:\n    tag_163:\n      eq\n        /* \"contracts/TicTacToe.sol\":8325:8407  if (player == Players.PlayerTwo) {... */\n      iszero\n      tag_165\n      jumpi\n        /* \"contracts/TicTacToe.sol\":8379:8396  Winners.PlayerTwo */\n      0x02\n        /* \"contracts/TicTacToe.sol\":8372:8396  return Winners.PlayerTwo */\n      swap2\n      pop\n      pop\n      jump(tag_141)\n        /* \"contracts/TicTacToe.sol\":8325:8407  if (player == Players.PlayerTwo) {... */\n    tag_165:\n        /* \"contracts/TicTacToe.sol\":8452:8476  winnerInDiagonal(_board) */\n      tag_166\n        /* \"contracts/TicTacToe.sol\":8469:8475  _board */\n      dup4\n        /* \"contracts/TicTacToe.sol\":8452:8468  winnerInDiagonal */\n      tag_167\n        /* \"contracts/TicTacToe.sol\":8452:8476  winnerInDiagonal(_board) */\n      jump\t// in\n    tag_166:\n        /* \"contracts/TicTacToe.sol\":8443:8476  player = winnerInDiagonal(_board) */\n      swap1\n      pop\n        /* \"contracts/TicTacToe.sol\":8500:8517  Players.PlayerOne */\n      0x01\n        /* \"contracts/TicTacToe.sol\":8490:8517  player == Players.PlayerOne */\n      0x02\n      dup2\n      gt\n      iszero\n      tag_168\n      jumpi\n      tag_169\n      tag_26\n      jump\t// in\n    tag_169:\n    tag_168:\n        /* \"contracts/TicTacToe.sol\":8490:8496  player */\n      dup2\n        /* \"contracts/TicTacToe.sol\":8490:8517  player == Players.PlayerOne */\n      0x02\n      dup2\n      gt\n      iszero\n      tag_170\n      jumpi\n      tag_171\n      tag_26\n      jump\t// in\n    tag_171:\n    tag_170:\n      eq\n        /* \"contracts/TicTacToe.sol\":8486:8568  if (player == Players.PlayerOne) {... */\n      iszero\n      tag_172\n      jumpi\n        /* \"contracts/TicTacToe.sol\":8540:8557  Winners.PlayerOne */\n      0x01\n        /* \"contracts/TicTacToe.sol\":8533:8557  return Winners.PlayerOne */\n      swap2\n      pop\n      pop\n      jump(tag_141)\n        /* \"contracts/TicTacToe.sol\":8486:8568  if (player == Players.PlayerOne) {... */\n    tag_172:\n        /* \"contracts/TicTacToe.sol\":8591:8608  Players.PlayerTwo */\n      0x02\n        /* \"contracts/TicTacToe.sol\":8581:8608  player == Players.PlayerTwo */\n      dup1\n      dup2\n      gt\n      iszero\n      tag_173\n      jumpi\n      tag_174\n      tag_26\n      jump\t// in\n    tag_174:\n    tag_173:\n        /* \"contracts/TicTacToe.sol\":8581:8587  player */\n      dup2\n        /* \"contracts/TicTacToe.sol\":8581:8608  player == Players.PlayerTwo */\n      0x02\n      dup2\n      gt\n      iszero\n      tag_175\n      jumpi\n      tag_176\n      tag_26\n      jump\t// in\n    tag_176:\n    tag_175:\n      eq\n        /* \"contracts/TicTacToe.sol\":8577:8659  if (player == Players.PlayerTwo) {... */\n      iszero\n      tag_177\n      jumpi\n        /* \"contracts/TicTacToe.sol\":8631:8648  Winners.PlayerTwo */\n      0x02\n        /* \"contracts/TicTacToe.sol\":8624:8648  return Winners.PlayerTwo */\n      swap2\n      pop\n      pop\n      jump(tag_141)\n        /* \"contracts/TicTacToe.sol\":8577:8659  if (player == Players.PlayerTwo) {... */\n    tag_177:\n        /* \"contracts/TicTacToe.sol\":8749:8768  isBoardFull(_board) */\n      tag_178\n        /* \"contracts/TicTacToe.sol\":8761:8767  _board */\n      dup4\n        /* \"contracts/TicTacToe.sol\":8749:8760  isBoardFull */\n      tag_179\n        /* \"contracts/TicTacToe.sol\":8749:8768  isBoardFull(_board) */\n      jump\t// in\n    tag_178:\n        /* \"contracts/TicTacToe.sol\":8745:8814  if (isBoardFull(_board)) {... */\n      iszero\n      tag_180\n      jumpi\n        /* \"contracts/TicTacToe.sol\":8791:8803  Winners.Draw */\n      0x03\n        /* \"contracts/TicTacToe.sol\":8784:8803  return Winners.Draw */\n      swap2\n      pop\n      pop\n      jump(tag_141)\n        /* \"contracts/TicTacToe.sol\":8745:8814  if (isBoardFull(_board)) {... */\n    tag_180:\n        /* \"contracts/TicTacToe.sol\":8831:8843  Winners.None */\n      0x00\n        /* \"contracts/TicTacToe.sol\":8824:8843  return Winners.None */\n      swap2\n      pop\n      pop\n        /* \"contracts/TicTacToe.sol\":7644:8850  function calculateWinner(uint8[3][3] memory _board) private pure returns (Winners winner) {... */\n    tag_141:\n      swap2\n      swap1\n      pop\n      jump\t// out\n        /* \"contracts/TicTacToe.sol\":11538:11777  function nextPlayer(Game memory _game) private pure {... */\n    tag_107:\n        /* \"contracts/TicTacToe.sol\":11624:11641  Players.PlayerOne */\n      0x01\n        /* \"contracts/TicTacToe.sol\":11604:11641  _game.playerTurn == Players.PlayerOne */\n      0x02\n      dup2\n      gt\n      iszero\n      tag_182\n      jumpi\n      tag_183\n      tag_26\n      jump\t// in\n    tag_183:\n    tag_182:\n        /* \"contracts/TicTacToe.sol\":11604:11609  _game */\n      dup2\n        /* \"contracts/TicTacToe.sol\":11604:11620  _game.playerTurn */\n      0x60\n      add\n      mload\n        /* \"contracts/TicTacToe.sol\":11604:11641  _game.playerTurn == Players.PlayerOne */\n      0x02\n      dup2\n      gt\n      iszero\n      tag_184\n      jumpi\n      tag_185\n      tag_26\n      jump\t// in\n    tag_185:\n    tag_184:\n      eq\n        /* \"contracts/TicTacToe.sol\":11600:11771  if (_game.playerTurn == Players.PlayerOne) {... */\n      iszero\n      tag_186\n      jumpi\n        /* \"contracts/TicTacToe.sol\":11676:11693  Players.PlayerTwo */\n      0x02\n        /* \"contracts/TicTacToe.sol\":11657:11662  _game */\n      dup2\n        /* \"contracts/TicTacToe.sol\":11657:11673  _game.playerTurn */\n      0x60\n      add\n        /* \"contracts/TicTacToe.sol\":11657:11693  _game.playerTurn = Players.PlayerTwo */\n      swap1\n      0x02\n      dup2\n      gt\n      iszero\n      tag_187\n      jumpi\n      tag_188\n      tag_26\n      jump\t// in\n    tag_188:\n    tag_187:\n      swap1\n      dup2\n      0x02\n      dup2\n      gt\n      iszero\n      tag_189\n      jumpi\n      tag_190\n      tag_26\n      jump\t// in\n    tag_190:\n    tag_189:\n      dup2\n      mstore\n      pop\n      pop\n        /* \"contracts/TicTacToe.sol\":11600:11771  if (_game.playerTurn == Players.PlayerOne) {... */\n      jump(tag_191)\n    tag_186:\n        /* \"contracts/TicTacToe.sol\":11743:11760  Players.PlayerOne */\n      0x01\n        /* \"contracts/TicTacToe.sol\":11724:11729  _game */\n      dup2\n        /* \"contracts/TicTacToe.sol\":11724:11740  _game.playerTurn */\n      0x60\n      add\n        /* \"contracts/TicTacToe.sol\":11724:11760  _game.playerTurn = Players.PlayerOne */\n      swap1\n      0x02\n      dup2\n      gt\n      iszero\n      tag_192\n      jumpi\n      tag_193\n      tag_26\n      jump\t// in\n    tag_193:\n    tag_192:\n      swap1\n      dup2\n      0x02\n      dup2\n      gt\n      iszero\n      tag_194\n      jumpi\n      tag_195\n      tag_26\n      jump\t// in\n    tag_195:\n    tag_194:\n      dup2\n      mstore\n      pop\n      pop\n        /* \"contracts/TicTacToe.sol\":11600:11771  if (_game.playerTurn == Players.PlayerOne) {... */\n    tag_191:\n        /* \"contracts/TicTacToe.sol\":11538:11777  function nextPlayer(Game memory _game) private pure {... */\n      pop\n      jump\t// out\n        /* \"contracts/TicTacToe.sol\":9046:9503  function winnerInRow(uint8[3][3] memory _board) private pure returns (Players winner) {... */\n    tag_143:\n        /* \"contracts/TicTacToe.sol\":9116:9130  Players winner */\n      0x00\n        /* \"contracts/TicTacToe.sol\":9147:9154  uint8 x */\n      dup1\n        /* \"contracts/TicTacToe.sol\":9157:9158  0 */\n      0x00\n        /* \"contracts/TicTacToe.sol\":9147:9158  uint8 x = 0 */\n      swap1\n      pop\n        /* \"contracts/TicTacToe.sol\":9142:9467  for (uint8 x = 0; x < 3; x++) {... */\n    tag_197:\n        /* \"contracts/TicTacToe.sol\":9164:9165  3 */\n      0x03\n        /* \"contracts/TicTacToe.sol\":9160:9161  x */\n      dup2\n        /* \"contracts/TicTacToe.sol\":9160:9165  x < 3 */\n      0xff\n      and\n      lt\n        /* \"contracts/TicTacToe.sol\":9142:9467  for (uint8 x = 0; x < 3; x++) {... */\n      iszero\n      tag_198\n      jumpi\n        /* \"contracts/TicTacToe.sol\":9224:9225  1 */\n      0x01\n        /* \"contracts/TicTacToe.sol\":9208:9214  _board */\n      dup4\n        /* \"contracts/TicTacToe.sol\":9215:9216  x */\n      dup3\n        /* \"contracts/TicTacToe.sol\":9208:9217  _board[x] */\n      0xff\n      and\n      0x03\n      dup2\n      lt\n      tag_200\n      jumpi\n      tag_201\n      tag_72\n      jump\t// in\n    tag_201:\n    tag_200:\n      0x20\n      mul\n      add\n      mload\n        /* \"contracts/TicTacToe.sol\":9218:9219  0 */\n      0x00\n        /* \"contracts/TicTacToe.sol\":9208:9220  _board[x][0] */\n      0x03\n      dup2\n      lt\n      tag_202\n      jumpi\n      tag_203\n      tag_72\n      jump\t// in\n    tag_203:\n    tag_202:\n      0x20\n      mul\n      add\n      mload\n        /* \"contracts/TicTacToe.sol\":9208:9225  _board[x][0] == 1 */\n      0xff\n      and\n      eq\n        /* \"contracts/TicTacToe.sol\":9208:9246  _board[x][0] == 1 || _board[x][0] == 2 */\n      dup1\n      tag_204\n      jumpi\n      pop\n        /* \"contracts/TicTacToe.sol\":9245:9246  2 */\n      0x02\n        /* \"contracts/TicTacToe.sol\":9229:9235  _board */\n      dup4\n        /* \"contracts/TicTacToe.sol\":9236:9237  x */\n      dup3\n        /* \"contracts/TicTacToe.sol\":9229:9238  _board[x] */\n      0xff\n      and\n      0x03\n      dup2\n      lt\n      tag_205\n      jumpi\n      tag_206\n      tag_72\n      jump\t// in\n    tag_206:\n    tag_205:\n      0x20\n      mul\n      add\n      mload\n        /* \"contracts/TicTacToe.sol\":9239:9240  0 */\n      0x00\n        /* \"contracts/TicTacToe.sol\":9229:9241  _board[x][0] */\n      0x03\n      dup2\n      lt\n      tag_207\n      jumpi\n      tag_208\n      tag_72\n      jump\t// in\n    tag_208:\n    tag_207:\n      0x20\n      mul\n      add\n      mload\n        /* \"contracts/TicTacToe.sol\":9229:9246  _board[x][0] == 2 */\n      0xff\n      and\n      eq\n        /* \"contracts/TicTacToe.sol\":9208:9246  _board[x][0] == 1 || _board[x][0] == 2 */\n    tag_204:\n        /* \"contracts/TicTacToe.sol\":9207:9296  (_board[x][0] == 1 || _board[x][0] == 2) ... */\n      dup1\n      iszero\n      tag_209\n      jumpi\n      pop\n        /* \"contracts/TicTacToe.sol\":9284:9290  _board */\n      dup3\n        /* \"contracts/TicTacToe.sol\":9291:9292  x */\n      dup2\n        /* \"contracts/TicTacToe.sol\":9284:9293  _board[x] */\n      0xff\n      and\n      0x03\n      dup2\n      lt\n      tag_210\n      jumpi\n      tag_211\n      tag_72\n      jump\t// in\n    tag_211:\n    tag_210:\n      0x20\n      mul\n      add\n      mload\n        /* \"contracts/TicTacToe.sol\":9294:9295  1 */\n      0x01\n        /* \"contracts/TicTacToe.sol\":9284:9296  _board[x][1] */\n      0x03\n      dup2\n      lt\n      tag_212\n      jumpi\n      tag_213\n      tag_72\n      jump\t// in\n    tag_213:\n    tag_212:\n      0x20\n      mul\n      add\n      mload\n        /* \"contracts/TicTacToe.sol\":9268:9296  _board[x][0] == _board[x][1] */\n      0xff\n      and\n        /* \"contracts/TicTacToe.sol\":9268:9274  _board */\n      dup4\n        /* \"contracts/TicTacToe.sol\":9275:9276  x */\n      dup3\n        /* \"contracts/TicTacToe.sol\":9268:9277  _board[x] */\n      0xff\n      and\n      0x03\n      dup2\n      lt\n      tag_214\n      jumpi\n      tag_215\n      tag_72\n      jump\t// in\n    tag_215:\n    tag_214:\n      0x20\n      mul\n      add\n      mload\n        /* \"contracts/TicTacToe.sol\":9278:9279  0 */\n      0x00\n        /* \"contracts/TicTacToe.sol\":9268:9280  _board[x][0] */\n      0x03\n      dup2\n      lt\n      tag_216\n      jumpi\n      tag_217\n      tag_72\n      jump\t// in\n    tag_217:\n    tag_216:\n      0x20\n      mul\n      add\n      mload\n        /* \"contracts/TicTacToe.sol\":9268:9296  _board[x][0] == _board[x][1] */\n      0xff\n      and\n      eq\n        /* \"contracts/TicTacToe.sol\":9207:9296  (_board[x][0] == 1 || _board[x][0] == 2) ... */\n    tag_209:\n        /* \"contracts/TicTacToe.sol\":9207:9345  (_board[x][0] == 1 || _board[x][0] == 2) ... */\n      dup1\n      iszero\n      tag_218\n      jumpi\n      pop\n        /* \"contracts/TicTacToe.sol\":9333:9339  _board */\n      dup3\n        /* \"contracts/TicTacToe.sol\":9340:9341  x */\n      dup2\n        /* \"contracts/TicTacToe.sol\":9333:9342  _board[x] */\n      0xff\n      and\n      0x03\n      dup2\n      lt\n      tag_219\n      jumpi\n      tag_220\n      tag_72\n      jump\t// in\n    tag_220:\n    tag_219:\n      0x20\n      mul\n      add\n      mload\n        /* \"contracts/TicTacToe.sol\":9343:9344  2 */\n      0x02\n        /* \"contracts/TicTacToe.sol\":9333:9345  _board[x][2] */\n      0x03\n      dup2\n      lt\n      tag_221\n      jumpi\n      tag_222\n      tag_72\n      jump\t// in\n    tag_222:\n    tag_221:\n      0x20\n      mul\n      add\n      mload\n        /* \"contracts/TicTacToe.sol\":9316:9345  _board[x][1]  == _board[x][2] */\n      0xff\n      and\n        /* \"contracts/TicTacToe.sol\":9316:9322  _board */\n      dup4\n        /* \"contracts/TicTacToe.sol\":9323:9324  x */\n      dup3\n        /* \"contracts/TicTacToe.sol\":9316:9325  _board[x] */\n      0xff\n      and\n      0x03\n      dup2\n      lt\n      tag_223\n      jumpi\n      tag_224\n      tag_72\n      jump\t// in\n    tag_224:\n    tag_223:\n      0x20\n      mul\n      add\n      mload\n        /* \"contracts/TicTacToe.sol\":9326:9327  1 */\n      0x01\n        /* \"contracts/TicTacToe.sol\":9316:9328  _board[x][1] */\n      0x03\n      dup2\n      lt\n      tag_225\n      jumpi\n      tag_226\n      tag_72\n      jump\t// in\n    tag_226:\n    tag_225:\n      0x20\n      mul\n      add\n      mload\n        /* \"contracts/TicTacToe.sol\":9316:9345  _board[x][1]  == _board[x][2] */\n      0xff\n      and\n      eq\n        /* \"contracts/TicTacToe.sol\":9207:9345  (_board[x][0] == 1 || _board[x][0] == 2) ... */\n    tag_218:\n        /* \"contracts/TicTacToe.sol\":9186:9457  if (... */\n      iszero\n      tag_227\n      jumpi\n        /* \"contracts/TicTacToe.sol\":9401:9402  1 */\n      0x01\n        /* \"contracts/TicTacToe.sol\":9385:9391  _board */\n      dup4\n        /* \"contracts/TicTacToe.sol\":9392:9393  x */\n      dup3\n        /* \"contracts/TicTacToe.sol\":9385:9394  _board[x] */\n      0xff\n      and\n      0x03\n      dup2\n      lt\n      tag_228\n      jumpi\n      tag_229\n      tag_72\n      jump\t// in\n    tag_229:\n    tag_228:\n      0x20\n      mul\n      add\n      mload\n        /* \"contracts/TicTacToe.sol\":9395:9396  0 */\n      0x00\n        /* \"contracts/TicTacToe.sol\":9385:9397  _board[x][0] */\n      0x03\n      dup2\n      lt\n      tag_230\n      jumpi\n      tag_231\n      tag_72\n      jump\t// in\n    tag_231:\n    tag_230:\n      0x20\n      mul\n      add\n      mload\n        /* \"contracts/TicTacToe.sol\":9385:9402  _board[x][0] == 1 */\n      0xff\n      and\n      eq\n        /* \"contracts/TicTacToe.sol\":9385:9442  _board[x][0] == 1 ? Players.PlayerOne : Players.PlayerTwo */\n      tag_232\n      jumpi\n        /* \"contracts/TicTacToe.sol\":9425:9442  Players.PlayerTwo */\n      0x02\n        /* \"contracts/TicTacToe.sol\":9385:9442  _board[x][0] == 1 ? Players.PlayerOne : Players.PlayerTwo */\n      jump(tag_233)\n    tag_232:\n        /* \"contracts/TicTacToe.sol\":9405:9422  Players.PlayerOne */\n      0x01\n        /* \"contracts/TicTacToe.sol\":9385:9442  _board[x][0] == 1 ? Players.PlayerOne : Players.PlayerTwo */\n    tag_233:\n        /* \"contracts/TicTacToe.sol\":9378:9442  return _board[x][0] == 1 ? Players.PlayerOne : Players.PlayerTwo */\n      swap2\n      pop\n      pop\n      jump(tag_196)\n        /* \"contracts/TicTacToe.sol\":9186:9457  if (... */\n    tag_227:\n        /* \"contracts/TicTacToe.sol\":9167:9170  x++ */\n      dup1\n      dup1\n      tag_234\n      swap1\n      tag_235\n      jump\t// in\n    tag_234:\n      swap2\n      pop\n      pop\n        /* \"contracts/TicTacToe.sol\":9142:9467  for (uint8 x = 0; x < 3; x++) {... */\n      jump(tag_197)\n    tag_198:\n      pop\n        /* \"contracts/TicTacToe.sol\":9484:9496  Players.None */\n      0x00\n        /* \"contracts/TicTacToe.sol\":9477:9496  return Players.None */\n      swap1\n      pop\n        /* \"contracts/TicTacToe.sol\":9046:9503  function winnerInRow(uint8[3][3] memory _board) private pure returns (Players winner) {... */\n    tag_196:\n      swap2\n      swap1\n      pop\n      jump\t// out\n        /* \"contracts/TicTacToe.sol\":9711:10169  function winnerInColumn(uint8[3][3] memory _board) private pure returns (Players winner) {... */\n    tag_155:\n        /* \"contracts/TicTacToe.sol\":9784:9798  Players winner */\n      0x00\n        /* \"contracts/TicTacToe.sol\":9815:9822  uint8 y */\n      dup1\n        /* \"contracts/TicTacToe.sol\":9825:9826  0 */\n      0x00\n        /* \"contracts/TicTacToe.sol\":9815:9826  uint8 y = 0 */\n      swap1\n      pop\n        /* \"contracts/TicTacToe.sol\":9810:10133  for (uint8 y = 0; y < 3; y++) {... */\n    tag_237:\n        /* \"contracts/TicTacToe.sol\":9832:9833  3 */\n      0x03\n        /* \"contracts/TicTacToe.sol\":9828:9829  y */\n      dup2\n        /* \"contracts/TicTacToe.sol\":9828:9833  y < 3 */\n      0xff\n      and\n      lt\n        /* \"contracts/TicTacToe.sol\":9810:10133  for (uint8 y = 0; y < 3; y++) {... */\n      iszero\n      tag_238\n      jumpi\n        /* \"contracts/TicTacToe.sol\":9892:9893  1 */\n      0x01\n        /* \"contracts/TicTacToe.sol\":9876:9882  _board */\n      dup4\n        /* \"contracts/TicTacToe.sol\":9883:9884  0 */\n      0x00\n        /* \"contracts/TicTacToe.sol\":9876:9885  _board[0] */\n      0x03\n      dup2\n      lt\n      tag_240\n      jumpi\n      tag_241\n      tag_72\n      jump\t// in\n    tag_241:\n    tag_240:\n      0x20\n      mul\n      add\n      mload\n        /* \"contracts/TicTacToe.sol\":9886:9887  y */\n      dup3\n        /* \"contracts/TicTacToe.sol\":9876:9888  _board[0][y] */\n      0xff\n      and\n      0x03\n      dup2\n      lt\n      tag_242\n      jumpi\n      tag_243\n      tag_72\n      jump\t// in\n    tag_243:\n    tag_242:\n      0x20\n      mul\n      add\n      mload\n        /* \"contracts/TicTacToe.sol\":9876:9893  _board[0][y] == 1 */\n      0xff\n      and\n      eq\n        /* \"contracts/TicTacToe.sol\":9876:9914  _board[0][y] == 1 || _board[0][y] == 2 */\n      dup1\n      tag_244\n      jumpi\n      pop\n        /* \"contracts/TicTacToe.sol\":9913:9914  2 */\n      0x02\n        /* \"contracts/TicTacToe.sol\":9897:9903  _board */\n      dup4\n        /* \"contracts/TicTacToe.sol\":9904:9905  0 */\n      0x00\n        /* \"contracts/TicTacToe.sol\":9897:9906  _board[0] */\n      0x03\n      dup2\n      lt\n      tag_245\n      jumpi\n      tag_246\n      tag_72\n      jump\t// in\n    tag_246:\n    tag_245:\n      0x20\n      mul\n      add\n      mload\n        /* \"contracts/TicTacToe.sol\":9907:9908  y */\n      dup3\n        /* \"contracts/TicTacToe.sol\":9897:9909  _board[0][y] */\n      0xff\n      and\n      0x03\n      dup2\n      lt\n      tag_247\n      jumpi\n      tag_248\n      tag_72\n      jump\t// in\n    tag_248:\n    tag_247:\n      0x20\n      mul\n      add\n      mload\n        /* \"contracts/TicTacToe.sol\":9897:9914  _board[0][y] == 2 */\n      0xff\n      and\n      eq\n        /* \"contracts/TicTacToe.sol\":9876:9914  _board[0][y] == 1 || _board[0][y] == 2 */\n    tag_244:\n        /* \"contracts/TicTacToe.sol\":9875:9963  (_board[0][y] == 1 || _board[0][y] == 2)... */\n      dup1\n      iszero\n      tag_249\n      jumpi\n      pop\n        /* \"contracts/TicTacToe.sol\":9951:9957  _board */\n      dup3\n        /* \"contracts/TicTacToe.sol\":9958:9959  1 */\n      0x01\n        /* \"contracts/TicTacToe.sol\":9951:9960  _board[1] */\n      0x03\n      dup2\n      lt\n      tag_250\n      jumpi\n      tag_251\n      tag_72\n      jump\t// in\n    tag_251:\n    tag_250:\n      0x20\n      mul\n      add\n      mload\n        /* \"contracts/TicTacToe.sol\":9961:9962  y */\n      dup2\n        /* \"contracts/TicTacToe.sol\":9951:9963  _board[1][y] */\n      0xff\n      and\n      0x03\n      dup2\n      lt\n      tag_252\n      jumpi\n      tag_253\n      tag_72\n      jump\t// in\n    tag_253:\n    tag_252:\n      0x20\n      mul\n      add\n      mload\n        /* \"contracts/TicTacToe.sol\":9935:9963  _board[0][y] == _board[1][y] */\n      0xff\n      and\n        /* \"contracts/TicTacToe.sol\":9935:9941  _board */\n      dup4\n        /* \"contracts/TicTacToe.sol\":9942:9943  0 */\n      0x00\n        /* \"contracts/TicTacToe.sol\":9935:9944  _board[0] */\n      0x03\n      dup2\n      lt\n      tag_254\n      jumpi\n      tag_255\n      tag_72\n      jump\t// in\n    tag_255:\n    tag_254:\n      0x20\n      mul\n      add\n      mload\n        /* \"contracts/TicTacToe.sol\":9945:9946  y */\n      dup3\n        /* \"contracts/TicTacToe.sol\":9935:9947  _board[0][y] */\n      0xff\n      and\n      0x03\n      dup2\n      lt\n      tag_256\n      jumpi\n      tag_257\n      tag_72\n      jump\t// in\n    tag_257:\n    tag_256:\n      0x20\n      mul\n      add\n      mload\n        /* \"contracts/TicTacToe.sol\":9935:9963  _board[0][y] == _board[1][y] */\n      0xff\n      and\n      eq\n        /* \"contracts/TicTacToe.sol\":9875:9963  (_board[0][y] == 1 || _board[0][y] == 2)... */\n    tag_249:\n        /* \"contracts/TicTacToe.sol\":9875:10011  (_board[0][y] == 1 || _board[0][y] == 2)... */\n      dup1\n      iszero\n      tag_258\n      jumpi\n      pop\n        /* \"contracts/TicTacToe.sol\":9999:10005  _board */\n      dup3\n        /* \"contracts/TicTacToe.sol\":10006:10007  2 */\n      0x02\n        /* \"contracts/TicTacToe.sol\":9999:10008  _board[2] */\n      0x03\n      dup2\n      lt\n      tag_259\n      jumpi\n      tag_260\n      tag_72\n      jump\t// in\n    tag_260:\n    tag_259:\n      0x20\n      mul\n      add\n      mload\n        /* \"contracts/TicTacToe.sol\":10009:10010  y */\n      dup2\n        /* \"contracts/TicTacToe.sol\":9999:10011  _board[2][y] */\n      0xff\n      and\n      0x03\n      dup2\n      lt\n      tag_261\n      jumpi\n      tag_262\n      tag_72\n      jump\t// in\n    tag_262:\n    tag_261:\n      0x20\n      mul\n      add\n      mload\n        /* \"contracts/TicTacToe.sol\":9983:10011  _board[1][y] == _board[2][y] */\n      0xff\n      and\n        /* \"contracts/TicTacToe.sol\":9983:9989  _board */\n      dup4\n        /* \"contracts/TicTacToe.sol\":9990:9991  1 */\n      0x01\n        /* \"contracts/TicTacToe.sol\":9983:9992  _board[1] */\n      0x03\n      dup2\n      lt\n      tag_263\n      jumpi\n      tag_264\n      tag_72\n      jump\t// in\n    tag_264:\n    tag_263:\n      0x20\n      mul\n      add\n      mload\n        /* \"contracts/TicTacToe.sol\":9993:9994  y */\n      dup3\n        /* \"contracts/TicTacToe.sol\":9983:9995  _board[1][y] */\n      0xff\n      and\n      0x03\n      dup2\n      lt\n      tag_265\n      jumpi\n      tag_266\n      tag_72\n      jump\t// in\n    tag_266:\n    tag_265:\n      0x20\n      mul\n      add\n      mload\n        /* \"contracts/TicTacToe.sol\":9983:10011  _board[1][y] == _board[2][y] */\n      0xff\n      and\n      eq\n        /* \"contracts/TicTacToe.sol\":9875:10011  (_board[0][y] == 1 || _board[0][y] == 2)... */\n    tag_258:\n        /* \"contracts/TicTacToe.sol\":9854:10123  if (... */\n      iszero\n      tag_267\n      jumpi\n        /* \"contracts/TicTacToe.sol\":10067:10068  1 */\n      0x01\n        /* \"contracts/TicTacToe.sol\":10051:10057  _board */\n      dup4\n        /* \"contracts/TicTacToe.sol\":10058:10059  0 */\n      0x00\n        /* \"contracts/TicTacToe.sol\":10051:10060  _board[0] */\n      0x03\n      dup2\n      lt\n      tag_268\n      jumpi\n      tag_269\n      tag_72\n      jump\t// in\n    tag_269:\n    tag_268:\n      0x20\n      mul\n      add\n      mload\n        /* \"contracts/TicTacToe.sol\":10061:10062  y */\n      dup3\n        /* \"contracts/TicTacToe.sol\":10051:10063  _board[0][y] */\n      0xff\n      and\n      0x03\n      dup2\n      lt\n      tag_270\n      jumpi\n      tag_271\n      tag_72\n      jump\t// in\n    tag_271:\n    tag_270:\n      0x20\n      mul\n      add\n      mload\n        /* \"contracts/TicTacToe.sol\":10051:10068  _board[0][y] == 1 */\n      0xff\n      and\n      eq\n        /* \"contracts/TicTacToe.sol\":10051:10108  _board[0][y] == 1 ? Players.PlayerOne : Players.PlayerTwo */\n      tag_272\n      jumpi\n        /* \"contracts/TicTacToe.sol\":10091:10108  Players.PlayerTwo */\n      0x02\n        /* \"contracts/TicTacToe.sol\":10051:10108  _board[0][y] == 1 ? Players.PlayerOne : Players.PlayerTwo */\n      jump(tag_273)\n    tag_272:\n        /* \"contracts/TicTacToe.sol\":10071:10088  Players.PlayerOne */\n      0x01\n        /* \"contracts/TicTacToe.sol\":10051:10108  _board[0][y] == 1 ? Players.PlayerOne : Players.PlayerTwo */\n    tag_273:\n        /* \"contracts/TicTacToe.sol\":10044:10108  return _board[0][y] == 1 ? Players.PlayerOne : Players.PlayerTwo */\n      swap2\n      pop\n      pop\n      jump(tag_236)\n        /* \"contracts/TicTacToe.sol\":9854:10123  if (... */\n    tag_267:\n        /* \"contracts/TicTacToe.sol\":9835:9838  y++ */\n      dup1\n      dup1\n      tag_274\n      swap1\n      tag_235\n      jump\t// in\n    tag_274:\n      swap2\n      pop\n      pop\n        /* \"contracts/TicTacToe.sol\":9810:10133  for (uint8 y = 0; y < 3; y++) {... */\n      jump(tag_237)\n    tag_238:\n      pop\n        /* \"contracts/TicTacToe.sol\":10150:10162  Players.None */\n      0x00\n        /* \"contracts/TicTacToe.sol\":10143:10162  return Players.None */\n      swap1\n      pop\n        /* \"contracts/TicTacToe.sol\":9711:10169  function winnerInColumn(uint8[3][3] memory _board) private pure returns (Players winner) {... */\n    tag_236:\n      swap2\n      swap1\n      pop\n      jump\t// out\n        /* \"contracts/TicTacToe.sol\":10386:11023  function winnerInDiagonal(uint8[3][3] memory _board) private pure returns (Players winner) {... */\n    tag_167:\n        /* \"contracts/TicTacToe.sol\":10461:10475  Players winner */\n      0x00\n        /* \"contracts/TicTacToe.sol\":10521:10522  1 */\n      0x01\n        /* \"contracts/TicTacToe.sol\":10505:10511  _board */\n      dup3\n        /* \"contracts/TicTacToe.sol\":10512:10513  0 */\n      0x00\n        /* \"contracts/TicTacToe.sol\":10505:10514  _board[0] */\n      0x03\n      dup2\n      lt\n      tag_276\n      jumpi\n      tag_277\n      tag_72\n      jump\t// in\n    tag_277:\n    tag_276:\n      0x20\n      mul\n      add\n      mload\n        /* \"contracts/TicTacToe.sol\":10515:10516  0 */\n      0x00\n        /* \"contracts/TicTacToe.sol\":10505:10517  _board[0][0] */\n      0x03\n      dup2\n      lt\n      tag_278\n      jumpi\n      tag_279\n      tag_72\n      jump\t// in\n    tag_279:\n    tag_278:\n      0x20\n      mul\n      add\n      mload\n        /* \"contracts/TicTacToe.sol\":10505:10522  _board[0][0] == 1 */\n      0xff\n      and\n      eq\n        /* \"contracts/TicTacToe.sol\":10505:10543  _board[0][0] == 1 || _board[0][0] == 2 */\n      dup1\n      tag_280\n      jumpi\n      pop\n        /* \"contracts/TicTacToe.sol\":10542:10543  2 */\n      0x02\n        /* \"contracts/TicTacToe.sol\":10526:10532  _board */\n      dup3\n        /* \"contracts/TicTacToe.sol\":10533:10534  0 */\n      0x00\n        /* \"contracts/TicTacToe.sol\":10526:10535  _board[0] */\n      0x03\n      dup2\n      lt\n      tag_281\n      jumpi\n      tag_282\n      tag_72\n      jump\t// in\n    tag_282:\n    tag_281:\n      0x20\n      mul\n      add\n      mload\n        /* \"contracts/TicTacToe.sol\":10536:10537  0 */\n      0x00\n        /* \"contracts/TicTacToe.sol\":10526:10538  _board[0][0] */\n      0x03\n      dup2\n      lt\n      tag_283\n      jumpi\n      tag_284\n      tag_72\n      jump\t// in\n    tag_284:\n    tag_283:\n      0x20\n      mul\n      add\n      mload\n        /* \"contracts/TicTacToe.sol\":10526:10543  _board[0][0] == 2 */\n      0xff\n      and\n      eq\n        /* \"contracts/TicTacToe.sol\":10505:10543  _board[0][0] == 1 || _board[0][0] == 2 */\n    tag_280:\n        /* \"contracts/TicTacToe.sol\":10504:10588  (_board[0][0] == 1 || _board[0][0] == 2)... */\n      dup1\n      iszero\n      tag_285\n      jumpi\n      pop\n        /* \"contracts/TicTacToe.sol\":10576:10582  _board */\n      dup2\n        /* \"contracts/TicTacToe.sol\":10583:10584  1 */\n      0x01\n        /* \"contracts/TicTacToe.sol\":10576:10585  _board[1] */\n      0x03\n      dup2\n      lt\n      tag_286\n      jumpi\n      tag_287\n      tag_72\n      jump\t// in\n    tag_287:\n    tag_286:\n      0x20\n      mul\n      add\n      mload\n        /* \"contracts/TicTacToe.sol\":10586:10587  1 */\n      0x01\n        /* \"contracts/TicTacToe.sol\":10576:10588  _board[1][1] */\n      0x03\n      dup2\n      lt\n      tag_288\n      jumpi\n      tag_289\n      tag_72\n      jump\t// in\n    tag_289:\n    tag_288:\n      0x20\n      mul\n      add\n      mload\n        /* \"contracts/TicTacToe.sol\":10560:10588  _board[0][0] == _board[1][1] */\n      0xff\n      and\n        /* \"contracts/TicTacToe.sol\":10560:10566  _board */\n      dup3\n        /* \"contracts/TicTacToe.sol\":10567:10568  0 */\n      0x00\n        /* \"contracts/TicTacToe.sol\":10560:10569  _board[0] */\n      0x03\n      dup2\n      lt\n      tag_290\n      jumpi\n      tag_291\n      tag_72\n      jump\t// in\n    tag_291:\n    tag_290:\n      0x20\n      mul\n      add\n      mload\n        /* \"contracts/TicTacToe.sol\":10570:10571  0 */\n      0x00\n        /* \"contracts/TicTacToe.sol\":10560:10572  _board[0][0] */\n      0x03\n      dup2\n      lt\n      tag_292\n      jumpi\n      tag_293\n      tag_72\n      jump\t// in\n    tag_293:\n    tag_292:\n      0x20\n      mul\n      add\n      mload\n        /* \"contracts/TicTacToe.sol\":10560:10588  _board[0][0] == _board[1][1] */\n      0xff\n      and\n      eq\n        /* \"contracts/TicTacToe.sol\":10504:10588  (_board[0][0] == 1 || _board[0][0] == 2)... */\n    tag_285:\n        /* \"contracts/TicTacToe.sol\":10504:10632  (_board[0][0] == 1 || _board[0][0] == 2)... */\n      dup1\n      iszero\n      tag_294\n      jumpi\n      pop\n        /* \"contracts/TicTacToe.sol\":10620:10626  _board */\n      dup2\n        /* \"contracts/TicTacToe.sol\":10627:10628  2 */\n      0x02\n        /* \"contracts/TicTacToe.sol\":10620:10629  _board[2] */\n      0x03\n      dup2\n      lt\n      tag_295\n      jumpi\n      tag_296\n      tag_72\n      jump\t// in\n    tag_296:\n    tag_295:\n      0x20\n      mul\n      add\n      mload\n        /* \"contracts/TicTacToe.sol\":10630:10631  2 */\n      0x02\n        /* \"contracts/TicTacToe.sol\":10620:10632  _board[2][2] */\n      0x03\n      dup2\n      lt\n      tag_297\n      jumpi\n      tag_298\n      tag_72\n      jump\t// in\n    tag_298:\n    tag_297:\n      0x20\n      mul\n      add\n      mload\n        /* \"contracts/TicTacToe.sol\":10604:10632  _board[1][1] == _board[2][2] */\n      0xff\n      and\n        /* \"contracts/TicTacToe.sol\":10604:10610  _board */\n      dup3\n        /* \"contracts/TicTacToe.sol\":10611:10612  1 */\n      0x01\n        /* \"contracts/TicTacToe.sol\":10604:10613  _board[1] */\n      0x03\n      dup2\n      lt\n      tag_299\n      jumpi\n      tag_300\n      tag_72\n      jump\t// in\n    tag_300:\n    tag_299:\n      0x20\n      mul\n      add\n      mload\n        /* \"contracts/TicTacToe.sol\":10614:10615  1 */\n      0x01\n        /* \"contracts/TicTacToe.sol\":10604:10616  _board[1][1] */\n      0x03\n      dup2\n      lt\n      tag_301\n      jumpi\n      tag_302\n      tag_72\n      jump\t// in\n    tag_302:\n    tag_301:\n      0x20\n      mul\n      add\n      mload\n        /* \"contracts/TicTacToe.sol\":10604:10632  _board[1][1] == _board[2][2] */\n      0xff\n      and\n      eq\n        /* \"contracts/TicTacToe.sol\":10504:10632  (_board[0][0] == 1 || _board[0][0] == 2)... */\n    tag_294:\n        /* \"contracts/TicTacToe.sol\":10487:10732  if (... */\n      iszero\n      tag_303\n      jumpi\n        /* \"contracts/TicTacToe.sol\":10680:10681  1 */\n      0x01\n        /* \"contracts/TicTacToe.sol\":10664:10670  _board */\n      dup3\n        /* \"contracts/TicTacToe.sol\":10671:10672  0 */\n      0x00\n        /* \"contracts/TicTacToe.sol\":10664:10673  _board[0] */\n      0x03\n      dup2\n      lt\n      tag_304\n      jumpi\n      tag_305\n      tag_72\n      jump\t// in\n    tag_305:\n    tag_304:\n      0x20\n      mul\n      add\n      mload\n        /* \"contracts/TicTacToe.sol\":10674:10675  0 */\n      0x00\n        /* \"contracts/TicTacToe.sol\":10664:10676  _board[0][0] */\n      0x03\n      dup2\n      lt\n      tag_306\n      jumpi\n      tag_307\n      tag_72\n      jump\t// in\n    tag_307:\n    tag_306:\n      0x20\n      mul\n      add\n      mload\n        /* \"contracts/TicTacToe.sol\":10664:10681  _board[0][0] == 1 */\n      0xff\n      and\n      eq\n        /* \"contracts/TicTacToe.sol\":10664:10721  _board[0][0] == 1 ? Players.PlayerOne : Players.PlayerTwo */\n      tag_308\n      jumpi\n        /* \"contracts/TicTacToe.sol\":10704:10721  Players.PlayerTwo */\n      0x02\n        /* \"contracts/TicTacToe.sol\":10664:10721  _board[0][0] == 1 ? Players.PlayerOne : Players.PlayerTwo */\n      jump(tag_309)\n    tag_308:\n        /* \"contracts/TicTacToe.sol\":10684:10701  Players.PlayerOne */\n      0x01\n        /* \"contracts/TicTacToe.sol\":10664:10721  _board[0][0] == 1 ? Players.PlayerOne : Players.PlayerTwo */\n    tag_309:\n        /* \"contracts/TicTacToe.sol\":10657:10721  return _board[0][0] == 1 ? Players.PlayerOne : Players.PlayerTwo */\n      swap1\n      pop\n      jump(tag_275)\n        /* \"contracts/TicTacToe.sol\":10487:10732  if (... */\n    tag_303:\n        /* \"contracts/TicTacToe.sol\":10776:10777  1 */\n      0x01\n        /* \"contracts/TicTacToe.sol\":10760:10766  _board */\n      dup3\n        /* \"contracts/TicTacToe.sol\":10767:10768  0 */\n      0x00\n        /* \"contracts/TicTacToe.sol\":10760:10769  _board[0] */\n      0x03\n      dup2\n      lt\n      tag_310\n      jumpi\n      tag_311\n      tag_72\n      jump\t// in\n    tag_311:\n    tag_310:\n      0x20\n      mul\n      add\n      mload\n        /* \"contracts/TicTacToe.sol\":10770:10771  2 */\n      0x02\n        /* \"contracts/TicTacToe.sol\":10760:10772  _board[0][2] */\n      0x03\n      dup2\n      lt\n      tag_312\n      jumpi\n      tag_313\n      tag_72\n      jump\t// in\n    tag_313:\n    tag_312:\n      0x20\n      mul\n      add\n      mload\n        /* \"contracts/TicTacToe.sol\":10760:10777  _board[0][2] == 1 */\n      0xff\n      and\n      eq\n        /* \"contracts/TicTacToe.sol\":10760:10798  _board[0][2] == 1 || _board[0][2] == 2 */\n      dup1\n      tag_314\n      jumpi\n      pop\n        /* \"contracts/TicTacToe.sol\":10797:10798  2 */\n      0x02\n        /* \"contracts/TicTacToe.sol\":10781:10787  _board */\n      dup3\n        /* \"contracts/TicTacToe.sol\":10788:10789  0 */\n      0x00\n        /* \"contracts/TicTacToe.sol\":10781:10790  _board[0] */\n      0x03\n      dup2\n      lt\n      tag_315\n      jumpi\n      tag_316\n      tag_72\n      jump\t// in\n    tag_316:\n    tag_315:\n      0x20\n      mul\n      add\n      mload\n        /* \"contracts/TicTacToe.sol\":10791:10792  2 */\n      0x02\n        /* \"contracts/TicTacToe.sol\":10781:10793  _board[0][2] */\n      0x03\n      dup2\n      lt\n      tag_317\n      jumpi\n      tag_318\n      tag_72\n      jump\t// in\n    tag_318:\n    tag_317:\n      0x20\n      mul\n      add\n      mload\n        /* \"contracts/TicTacToe.sol\":10781:10798  _board[0][2] == 2 */\n      0xff\n      and\n      eq\n        /* \"contracts/TicTacToe.sol\":10760:10798  _board[0][2] == 1 || _board[0][2] == 2 */\n    tag_314:\n        /* \"contracts/TicTacToe.sol\":10759:10843  (_board[0][2] == 1 || _board[0][2] == 2)... */\n      dup1\n      iszero\n      tag_319\n      jumpi\n      pop\n        /* \"contracts/TicTacToe.sol\":10831:10837  _board */\n      dup2\n        /* \"contracts/TicTacToe.sol\":10838:10839  1 */\n      0x01\n        /* \"contracts/TicTacToe.sol\":10831:10840  _board[1] */\n      0x03\n      dup2\n      lt\n      tag_320\n      jumpi\n      tag_321\n      tag_72\n      jump\t// in\n    tag_321:\n    tag_320:\n      0x20\n      mul\n      add\n      mload\n        /* \"contracts/TicTacToe.sol\":10841:10842  1 */\n      0x01\n        /* \"contracts/TicTacToe.sol\":10831:10843  _board[1][1] */\n      0x03\n      dup2\n      lt\n      tag_322\n      jumpi\n      tag_323\n      tag_72\n      jump\t// in\n    tag_323:\n    tag_322:\n      0x20\n      mul\n      add\n      mload\n        /* \"contracts/TicTacToe.sol\":10815:10843  _board[0][2] == _board[1][1] */\n      0xff\n      and\n        /* \"contracts/TicTacToe.sol\":10815:10821  _board */\n      dup3\n        /* \"contracts/TicTacToe.sol\":10822:10823  0 */\n      0x00\n        /* \"contracts/TicTacToe.sol\":10815:10824  _board[0] */\n      0x03\n      dup2\n      lt\n      tag_324\n      jumpi\n      tag_325\n      tag_72\n      jump\t// in\n    tag_325:\n    tag_324:\n      0x20\n      mul\n      add\n      mload\n        /* \"contracts/TicTacToe.sol\":10825:10826  2 */\n      0x02\n        /* \"contracts/TicTacToe.sol\":10815:10827  _board[0][2] */\n      0x03\n      dup2\n      lt\n      tag_326\n      jumpi\n      tag_327\n      tag_72\n      jump\t// in\n    tag_327:\n    tag_326:\n      0x20\n      mul\n      add\n      mload\n        /* \"contracts/TicTacToe.sol\":10815:10843  _board[0][2] == _board[1][1] */\n      0xff\n      and\n      eq\n        /* \"contracts/TicTacToe.sol\":10759:10843  (_board[0][2] == 1 || _board[0][2] == 2)... */\n    tag_319:\n        /* \"contracts/TicTacToe.sol\":10759:10887  (_board[0][2] == 1 || _board[0][2] == 2)... */\n      dup1\n      iszero\n      tag_328\n      jumpi\n      pop\n        /* \"contracts/TicTacToe.sol\":10875:10881  _board */\n      dup2\n        /* \"contracts/TicTacToe.sol\":10882:10883  2 */\n      0x02\n        /* \"contracts/TicTacToe.sol\":10875:10884  _board[2] */\n      0x03\n      dup2\n      lt\n      tag_329\n      jumpi\n      tag_330\n      tag_72\n      jump\t// in\n    tag_330:\n    tag_329:\n      0x20\n      mul\n      add\n      mload\n        /* \"contracts/TicTacToe.sol\":10885:10886  0 */\n      0x00\n        /* \"contracts/TicTacToe.sol\":10875:10887  _board[2][0] */\n      0x03\n      dup2\n      lt\n      tag_331\n      jumpi\n      tag_332\n      tag_72\n      jump\t// in\n    tag_332:\n    tag_331:\n      0x20\n      mul\n      add\n      mload\n        /* \"contracts/TicTacToe.sol\":10859:10887  _board[1][1] == _board[2][0] */\n      0xff\n      and\n        /* \"contracts/TicTacToe.sol\":10859:10865  _board */\n      dup3\n        /* \"contracts/TicTacToe.sol\":10866:10867  1 */\n      0x01\n        /* \"contracts/TicTacToe.sol\":10859:10868  _board[1] */\n      0x03\n      dup2\n      lt\n      tag_333\n      jumpi\n      tag_334\n      tag_72\n      jump\t// in\n    tag_334:\n    tag_333:\n      0x20\n      mul\n      add\n      mload\n        /* \"contracts/TicTacToe.sol\":10869:10870  1 */\n      0x01\n        /* \"contracts/TicTacToe.sol\":10859:10871  _board[1][1] */\n      0x03\n      dup2\n      lt\n      tag_335\n      jumpi\n      tag_336\n      tag_72\n      jump\t// in\n    tag_336:\n    tag_335:\n      0x20\n      mul\n      add\n      mload\n        /* \"contracts/TicTacToe.sol\":10859:10887  _board[1][1] == _board[2][0] */\n      0xff\n      and\n      eq\n        /* \"contracts/TicTacToe.sol\":10759:10887  (_board[0][2] == 1 || _board[0][2] == 2)... */\n    tag_328:\n        /* \"contracts/TicTacToe.sol\":10742:10987  if (... */\n      iszero\n      tag_337\n      jumpi\n        /* \"contracts/TicTacToe.sol\":10935:10936  1 */\n      0x01\n        /* \"contracts/TicTacToe.sol\":10919:10925  _board */\n      dup3\n        /* \"contracts/TicTacToe.sol\":10926:10927  0 */\n      0x00\n        /* \"contracts/TicTacToe.sol\":10919:10928  _board[0] */\n      0x03\n      dup2\n      lt\n      tag_338\n      jumpi\n      tag_339\n      tag_72\n      jump\t// in\n    tag_339:\n    tag_338:\n      0x20\n      mul\n      add\n      mload\n        /* \"contracts/TicTacToe.sol\":10929:10930  2 */\n      0x02\n        /* \"contracts/TicTacToe.sol\":10919:10931  _board[0][2] */\n      0x03\n      dup2\n      lt\n      tag_340\n      jumpi\n      tag_341\n      tag_72\n      jump\t// in\n    tag_341:\n    tag_340:\n      0x20\n      mul\n      add\n      mload\n        /* \"contracts/TicTacToe.sol\":10919:10936  _board[0][2] == 1 */\n      0xff\n      and\n      eq\n        /* \"contracts/TicTacToe.sol\":10919:10976  _board[0][2] == 1 ? Players.PlayerOne : Players.PlayerTwo */\n      tag_342\n      jumpi\n        /* \"contracts/TicTacToe.sol\":10959:10976  Players.PlayerTwo */\n      0x02\n        /* \"contracts/TicTacToe.sol\":10919:10976  _board[0][2] == 1 ? Players.PlayerOne : Players.PlayerTwo */\n      jump(tag_343)\n    tag_342:\n        /* \"contracts/TicTacToe.sol\":10939:10956  Players.PlayerOne */\n      0x01\n        /* \"contracts/TicTacToe.sol\":10919:10976  _board[0][2] == 1 ? Players.PlayerOne : Players.PlayerTwo */\n    tag_343:\n        /* \"contracts/TicTacToe.sol\":10912:10976  return _board[0][2] == 1 ? Players.PlayerOne : Players.PlayerTwo */\n      swap1\n      pop\n      jump(tag_275)\n        /* \"contracts/TicTacToe.sol\":10742:10987  if (... */\n    tag_337:\n        /* \"contracts/TicTacToe.sol\":11004:11016  Players.None */\n      0x00\n        /* \"contracts/TicTacToe.sol\":10997:11016  return Players.None */\n      swap1\n      pop\n        /* \"contracts/TicTacToe.sol\":10386:11023  function winnerInDiagonal(uint8[3][3] memory _board) private pure returns (Players winner) {... */\n    tag_275:\n      swap2\n      swap1\n      pop\n      jump\t// out\n        /* \"contracts/TicTacToe.sol\":11132:11466  function isBoardFull(uint8[3][3] memory _board) private pure returns (bool isFull) {... */\n    tag_179:\n        /* \"contracts/TicTacToe.sol\":11202:11213  bool isFull */\n      0x00\n        /* \"contracts/TicTacToe.sol\":11230:11237  uint8 x */\n      dup1\n        /* \"contracts/TicTacToe.sol\":11240:11241  0 */\n      0x00\n        /* \"contracts/TicTacToe.sol\":11230:11241  uint8 x = 0 */\n      swap1\n      pop\n        /* \"contracts/TicTacToe.sol\":11225:11438  for (uint8 x = 0; x < 3; x++) {... */\n    tag_345:\n        /* \"contracts/TicTacToe.sol\":11247:11248  3 */\n      0x03\n        /* \"contracts/TicTacToe.sol\":11243:11244  x */\n      dup2\n        /* \"contracts/TicTacToe.sol\":11243:11248  x < 3 */\n      0xff\n      and\n      lt\n        /* \"contracts/TicTacToe.sol\":11225:11438  for (uint8 x = 0; x < 3; x++) {... */\n      iszero\n      tag_346\n      jumpi\n        /* \"contracts/TicTacToe.sol\":11274:11281  uint8 y */\n      0x00\n        /* \"contracts/TicTacToe.sol\":11269:11428  for (uint8 y = 0; y < 3; y++) {... */\n    tag_348:\n        /* \"contracts/TicTacToe.sol\":11291:11292  3 */\n      0x03\n        /* \"contracts/TicTacToe.sol\":11287:11288  y */\n      dup2\n        /* \"contracts/TicTacToe.sol\":11287:11292  y < 3 */\n      0xff\n      and\n      lt\n        /* \"contracts/TicTacToe.sol\":11269:11428  for (uint8 y = 0; y < 3; y++) {... */\n      iszero\n      tag_349\n      jumpi\n        /* \"contracts/TicTacToe.sol\":11337:11338  1 */\n      0x01\n        /* \"contracts/TicTacToe.sol\":11321:11327  _board */\n      dup5\n        /* \"contracts/TicTacToe.sol\":11328:11329  x */\n      dup4\n        /* \"contracts/TicTacToe.sol\":11321:11330  _board[x] */\n      0xff\n      and\n      0x03\n      dup2\n      lt\n      tag_351\n      jumpi\n      tag_352\n      tag_72\n      jump\t// in\n    tag_352:\n    tag_351:\n      0x20\n      mul\n      add\n      mload\n        /* \"contracts/TicTacToe.sol\":11331:11332  y */\n      dup3\n        /* \"contracts/TicTacToe.sol\":11321:11333  _board[x][y] */\n      0xff\n      and\n      0x03\n      dup2\n      lt\n      tag_353\n      jumpi\n      tag_354\n      tag_72\n      jump\t// in\n    tag_354:\n    tag_353:\n      0x20\n      mul\n      add\n      mload\n        /* \"contracts/TicTacToe.sol\":11321:11338  _board[x][y] != 1 */\n      0xff\n      and\n      eq\n      iszero\n        /* \"contracts/TicTacToe.sol\":11321:11359  _board[x][y] != 1 && _board[x][y] != 2 */\n      dup1\n      iszero\n      tag_355\n      jumpi\n      pop\n        /* \"contracts/TicTacToe.sol\":11358:11359  2 */\n      0x02\n        /* \"contracts/TicTacToe.sol\":11342:11348  _board */\n      dup5\n        /* \"contracts/TicTacToe.sol\":11349:11350  x */\n      dup4\n        /* \"contracts/TicTacToe.sol\":11342:11351  _board[x] */\n      0xff\n      and\n      0x03\n      dup2\n      lt\n      tag_356\n      jumpi\n      tag_357\n      tag_72\n      jump\t// in\n    tag_357:\n    tag_356:\n      0x20\n      mul\n      add\n      mload\n        /* \"contracts/TicTacToe.sol\":11352:11353  y */\n      dup3\n        /* \"contracts/TicTacToe.sol\":11342:11354  _board[x][y] */\n      0xff\n      and\n      0x03\n      dup2\n      lt\n      tag_358\n      jumpi\n      tag_359\n      tag_72\n      jump\t// in\n    tag_359:\n    tag_358:\n      0x20\n      mul\n      add\n      mload\n        /* \"contracts/TicTacToe.sol\":11342:11359  _board[x][y] != 2 */\n      0xff\n      and\n      eq\n      iszero\n        /* \"contracts/TicTacToe.sol\":11321:11359  _board[x][y] != 1 && _board[x][y] != 2 */\n    tag_355:\n        /* \"contracts/TicTacToe.sol\":11317:11414  if (_board[x][y] != 1 && _board[x][y] != 2) {... */\n      iszero\n      tag_360\n      jumpi\n        /* \"contracts/TicTacToe.sol\":11390:11395  false */\n      0x00\n        /* \"contracts/TicTacToe.sol\":11383:11395  return false */\n      swap3\n      pop\n      pop\n      pop\n      jump(tag_344)\n        /* \"contracts/TicTacToe.sol\":11317:11414  if (_board[x][y] != 1 && _board[x][y] != 2) {... */\n    tag_360:\n        /* \"contracts/TicTacToe.sol\":11294:11297  y++ */\n      dup1\n      dup1\n      tag_361\n      swap1\n      tag_235\n      jump\t// in\n    tag_361:\n      swap2\n      pop\n      pop\n        /* \"contracts/TicTacToe.sol\":11269:11428  for (uint8 y = 0; y < 3; y++) {... */\n      jump(tag_348)\n    tag_349:\n      pop\n        /* \"contracts/TicTacToe.sol\":11250:11253  x++ */\n      dup1\n      dup1\n      tag_362\n      swap1\n      tag_235\n      jump\t// in\n    tag_362:\n      swap2\n      pop\n      pop\n        /* \"contracts/TicTacToe.sol\":11225:11438  for (uint8 x = 0; x < 3; x++) {... */\n      jump(tag_345)\n    tag_346:\n      pop\n        /* \"contracts/TicTacToe.sol\":11455:11459  true */\n      0x01\n        /* \"contracts/TicTacToe.sol\":11448:11459  return true */\n      swap1\n      pop\n        /* \"contracts/TicTacToe.sol\":11132:11466  function isBoardFull(uint8[3][3] memory _board) private pure returns (bool isFull) {... */\n    tag_344:\n      swap2\n      swap1\n      pop\n      jump\t// out\n    tag_23:\n      mload(0x40)\n      dup1\n      0xa0\n      add\n      0x40\n      mstore\n      dup1\n      and(0xffffffffffffffffffffffffffffffffffffffff, 0x00)\n      dup2\n      mstore\n      0x20\n      add\n      and(0xffffffffffffffffffffffffffffffffffffffff, 0x00)\n      dup2\n      mstore\n      0x20\n      add\n      0x00\n      0x03\n      dup2\n      gt\n      iszero\n      tag_363\n      jumpi\n      tag_364\n      tag_26\n      jump\t// in\n    tag_364:\n    tag_363:\n      dup2\n      mstore\n      0x20\n      add\n      0x00\n      0x02\n      dup2\n      gt\n      iszero\n      tag_365\n      jumpi\n      tag_366\n      tag_26\n      jump\t// in\n    tag_366:\n    tag_365:\n      dup2\n      mstore\n      0x20\n      add\n      tag_367\n      tag_368\n      jump\t// in\n    tag_367:\n      dup2\n      mstore\n      pop\n      swap1\n      jump\t// out\n    tag_36:\n      dup3\n      0x03\n      dup2\n      add\n      swap3\n      dup3\n      iszero\n      tag_369\n      jumpi\n      swap2\n      0x20\n      mul\n      dup3\n      add\n    tag_370:\n      dup3\n      dup2\n      gt\n      iszero\n      tag_371\n      jumpi\n      dup3\n      mload\n      dup3\n      swap1\n      0x03\n      tag_372\n      swap3\n      swap2\n      swap1\n      tag_373\n      jump\t// in\n    tag_372:\n      pop\n      swap2\n      0x20\n      add\n      swap2\n      swap1\n      0x01\n      add\n      swap1\n      jump(tag_370)\n    tag_371:\n    tag_369:\n      pop\n      swap1\n      pop\n      tag_374\n      swap2\n      swap1\n      tag_375\n      jump\t// in\n    tag_374:\n      pop\n      swap1\n      jump\t// out\n    tag_368:\n      mload(0x40)\n      dup1\n      0x60\n      add\n      0x40\n      mstore\n      dup1\n      0x03\n      swap1\n    tag_376:\n      tag_377\n      tag_378\n      jump\t// in\n    tag_377:\n      dup2\n      mstore\n      0x20\n      add\n      swap1\n      0x01\n      swap1\n      sub\n      swap1\n      dup2\n      tag_376\n      jumpi\n      swap1\n      pop\n      pop\n      swap1\n      jump\t// out\n    tag_373:\n      dup3\n      add(0x1f, 0x03)\n      0x20\n      swap1\n      div\n      dup2\n      add\n      swap3\n      dup3\n      iszero\n      tag_379\n      jumpi\n      swap2\n      0x20\n      mul\n      dup3\n      add\n      0x00\n    tag_380:\n      dup4\n      dup3\n      gt\n      iszero\n      tag_381\n      jumpi\n      dup4\n      mload\n      dup4\n      dup3\n      0x0100\n      exp\n      dup2\n      sload\n      dup2\n      0xff\n      mul\n      not\n      and\n      swap1\n      dup4\n      0xff\n      and\n      mul\n      or\n      swap1\n      sstore\n      pop\n      swap3\n      0x20\n      add\n      swap3\n      0x01\n      add\n      0x20\n      dup2\n      0x00\n      add\n      div\n      swap3\n      dup4\n      add\n      swap3\n      0x01\n      sub\n      mul\n      jump(tag_380)\n    tag_381:\n      dup1\n      iszero\n      tag_382\n      jumpi\n      dup3\n      dup2\n      0x0100\n      exp\n      dup2\n      sload\n      swap1\n      0xff\n      mul\n      not\n      and\n      swap1\n      sstore\n      0x01\n      add\n      0x20\n      dup2\n      0x00\n      add\n      div\n      swap3\n      dup4\n      add\n      swap3\n      0x01\n      sub\n      mul\n      jump(tag_381)\n    tag_382:\n      pop\n    tag_379:\n      pop\n      swap1\n      pop\n      tag_383\n      swap2\n      swap1\n      tag_384\n      jump\t// in\n    tag_383:\n      pop\n      swap1\n      jump\t// out\n    tag_375:\n    tag_385:\n      dup1\n      dup3\n      gt\n      iszero\n      tag_386\n      jumpi\n      0x00\n      dup2\n      dup2\n      tag_387\n      swap2\n      swap1\n      tag_388\n      jump\t// in\n    tag_387:\n      pop\n      0x01\n      add\n      jump(tag_385)\n    tag_386:\n      pop\n      swap1\n      jump\t// out\n    tag_378:\n      mload(0x40)\n      dup1\n      0x60\n      add\n      0x40\n      mstore\n      dup1\n      0x03\n      swap1\n      0x20\n      dup3\n      mul\n      dup1\n      calldatasize\n      dup4\n      calldatacopy\n      dup1\n      dup3\n      add\n      swap2\n      pop\n      pop\n      swap1\n      pop\n      pop\n      swap1\n      jump\t// out\n    tag_384:\n    tag_389:\n      dup1\n      dup3\n      gt\n      iszero\n      tag_390\n      jumpi\n      0x00\n      dup2\n      0x00\n      swap1\n      sstore\n      pop\n      0x01\n      add\n      jump(tag_389)\n    tag_390:\n      pop\n      swap1\n      jump\t// out\n    tag_388:\n      pop\n      0x00\n      swap1\n      sstore\n      jump\t// out\n        /* \"#utility.yul\":7:146   */\n    tag_392:\n        /* \"#utility.yul\":53:58   */\n      0x00\n        /* \"#utility.yul\":91:97   */\n      dup2\n        /* \"#utility.yul\":78:98   */\n      calldataload\n        /* \"#utility.yul\":69:98   */\n      swap1\n      pop\n        /* \"#utility.yul\":107:140   */\n      tag_394\n        /* \"#utility.yul\":134:139   */\n      dup2\n        /* \"#utility.yul\":107:140   */\n      tag_395\n      jump\t// in\n    tag_394:\n        /* \"#utility.yul\":7:146   */\n      swap3\n      swap2\n      pop\n      pop\n      jump\t// out\n        /* \"#utility.yul\":152:287   */\n    tag_396:\n        /* \"#utility.yul\":196:201   */\n      0x00\n        /* \"#utility.yul\":234:240   */\n      dup2\n        /* \"#utility.yul\":221:241   */\n      calldataload\n        /* \"#utility.yul\":212:241   */\n      swap1\n      pop\n        /* \"#utility.yul\":250:281   */\n      tag_398\n        /* \"#utility.yul\":275:280   */\n      dup2\n        /* \"#utility.yul\":250:281   */\n      tag_399\n      jump\t// in\n    tag_398:\n        /* \"#utility.yul\":152:287   */\n      swap3\n      swap2\n      pop\n      pop\n      jump\t// out\n        /* \"#utility.yul\":293:622   */\n    tag_18:\n        /* \"#utility.yul\":352:358   */\n      0x00\n        /* \"#utility.yul\":401:403   */\n      0x20\n        /* \"#utility.yul\":389:398   */\n      dup3\n        /* \"#utility.yul\":380:387   */\n      dup5\n        /* \"#utility.yul\":376:399   */\n      sub\n        /* \"#utility.yul\":372:404   */\n      slt\n        /* \"#utility.yul\":369:488   */\n      iszero\n      tag_401\n      jumpi\n        /* \"#utility.yul\":407:486   */\n      tag_402\n      tag_403\n      jump\t// in\n    tag_402:\n        /* \"#utility.yul\":369:488   */\n    tag_401:\n        /* \"#utility.yul\":527:528   */\n      0x00\n        /* \"#utility.yul\":552:605   */\n      tag_404\n        /* \"#utility.yul\":597:604   */\n      dup5\n        /* \"#utility.yul\":588:594   */\n      dup3\n        /* \"#utility.yul\":577:586   */\n      dup6\n        /* \"#utility.yul\":573:595   */\n      add\n        /* \"#utility.yul\":552:605   */\n      tag_392\n      jump\t// in\n    tag_404:\n        /* \"#utility.yul\":542:605   */\n      swap2\n      pop\n        /* \"#utility.yul\":498:615   */\n      pop\n        /* \"#utility.yul\":293:622   */\n      swap3\n      swap2\n      pop\n      pop\n      jump\t// out\n        /* \"#utility.yul\":628:1239   */\n    tag_12:\n        /* \"#utility.yul\":701:707   */\n      0x00\n        /* \"#utility.yul\":709:715   */\n      dup1\n        /* \"#utility.yul\":717:723   */\n      0x00\n        /* \"#utility.yul\":766:768   */\n      0x60\n        /* \"#utility.yul\":754:763   */\n      dup5\n        /* \"#utility.yul\":745:752   */\n      dup7\n        /* \"#utility.yul\":741:764   */\n      sub\n        /* \"#utility.yul\":737:769   */\n      slt\n        /* \"#utility.yul\":734:853   */\n      iszero\n      tag_406\n      jumpi\n        /* \"#utility.yul\":772:851   */\n      tag_407\n      tag_403\n      jump\t// in\n    tag_407:\n        /* \"#utility.yul\":734:853   */\n    tag_406:\n        /* \"#utility.yul\":892:893   */\n      0x00\n        /* \"#utility.yul\":917:970   */\n      tag_408\n        /* \"#utility.yul\":962:969   */\n      dup7\n        /* \"#utility.yul\":953:959   */\n      dup3\n        /* \"#utility.yul\":942:951   */\n      dup8\n        /* \"#utility.yul\":938:960   */\n      add\n        /* \"#utility.yul\":917:970   */\n      tag_392\n      jump\t// in\n    tag_408:\n        /* \"#utility.yul\":907:970   */\n      swap4\n      pop\n        /* \"#utility.yul\":863:980   */\n      pop\n        /* \"#utility.yul\":1019:1021   */\n      0x20\n        /* \"#utility.yul\":1045:1096   */\n      tag_409\n        /* \"#utility.yul\":1088:1095   */\n      dup7\n        /* \"#utility.yul\":1079:1085   */\n      dup3\n        /* \"#utility.yul\":1068:1077   */\n      dup8\n        /* \"#utility.yul\":1064:1086   */\n      add\n        /* \"#utility.yul\":1045:1096   */\n      tag_396\n      jump\t// in\n    tag_409:\n        /* \"#utility.yul\":1035:1096   */\n      swap3\n      pop\n        /* \"#utility.yul\":990:1106   */\n      pop\n        /* \"#utility.yul\":1145:1147   */\n      0x40\n        /* \"#utility.yul\":1171:1222   */\n      tag_410\n        /* \"#utility.yul\":1214:1221   */\n      dup7\n        /* \"#utility.yul\":1205:1211   */\n      dup3\n        /* \"#utility.yul\":1194:1203   */\n      dup8\n        /* \"#utility.yul\":1190:1212   */\n      add\n        /* \"#utility.yul\":1171:1222   */\n      tag_396\n      jump\t// in\n    tag_410:\n        /* \"#utility.yul\":1161:1222   */\n      swap2\n      pop\n        /* \"#utility.yul\":1116:1232   */\n      pop\n        /* \"#utility.yul\":628:1239   */\n      swap3\n      pop\n      swap3\n      pop\n      swap3\n      jump\t// out\n        /* \"#utility.yul\":1245:1363   */\n    tag_411:\n        /* \"#utility.yul\":1332:1356   */\n      tag_413\n        /* \"#utility.yul\":1350:1355   */\n      dup2\n        /* \"#utility.yul\":1332:1356   */\n      tag_414\n      jump\t// in\n    tag_413:\n        /* \"#utility.yul\":1327:1330   */\n      dup3\n        /* \"#utility.yul\":1320:1357   */\n      mstore\n        /* \"#utility.yul\":1245:1363   */\n      pop\n      pop\n      jump\t// out\n        /* \"#utility.yul\":1369:1478   */\n    tag_415:\n        /* \"#utility.yul\":1450:1471   */\n      tag_417\n        /* \"#utility.yul\":1465:1470   */\n      dup2\n        /* \"#utility.yul\":1450:1471   */\n      tag_418\n      jump\t// in\n    tag_417:\n        /* \"#utility.yul\":1445:1448   */\n      dup3\n        /* \"#utility.yul\":1438:1472   */\n      mstore\n        /* \"#utility.yul\":1369:1478   */\n      pop\n      pop\n      jump\t// out\n        /* \"#utility.yul\":1484:1631   */\n    tag_419:\n        /* \"#utility.yul\":1579:1624   */\n      tag_421\n        /* \"#utility.yul\":1618:1623   */\n      dup2\n        /* \"#utility.yul\":1579:1624   */\n      tag_422\n      jump\t// in\n    tag_421:\n        /* \"#utility.yul\":1574:1577   */\n      dup3\n        /* \"#utility.yul\":1567:1625   */\n      mstore\n        /* \"#utility.yul\":1484:1631   */\n      pop\n      pop\n      jump\t// out\n        /* \"#utility.yul\":1637:2001   */\n    tag_423:\n        /* \"#utility.yul\":1725:1728   */\n      0x00\n        /* \"#utility.yul\":1753:1792   */\n      tag_425\n        /* \"#utility.yul\":1786:1791   */\n      dup3\n        /* \"#utility.yul\":1753:1792   */\n      tag_426\n      jump\t// in\n    tag_425:\n        /* \"#utility.yul\":1808:1879   */\n      tag_427\n        /* \"#utility.yul\":1872:1878   */\n      dup2\n        /* \"#utility.yul\":1867:1870   */\n      dup6\n        /* \"#utility.yul\":1808:1879   */\n      tag_428\n      jump\t// in\n    tag_427:\n        /* \"#utility.yul\":1801:1879   */\n      swap4\n      pop\n        /* \"#utility.yul\":1888:1940   */\n      tag_429\n        /* \"#utility.yul\":1933:1939   */\n      dup2\n        /* \"#utility.yul\":1928:1931   */\n      dup6\n        /* \"#utility.yul\":1921:1925   */\n      0x20\n        /* \"#utility.yul\":1914:1919   */\n      dup7\n        /* \"#utility.yul\":1910:1926   */\n      add\n        /* \"#utility.yul\":1888:1940   */\n      tag_430\n      jump\t// in\n    tag_429:\n        /* \"#utility.yul\":1965:1994   */\n      tag_431\n        /* \"#utility.yul\":1987:1993   */\n      dup2\n        /* \"#utility.yul\":1965:1994   */\n      tag_432\n      jump\t// in\n    tag_431:\n        /* \"#utility.yul\":1960:1963   */\n      dup5\n        /* \"#utility.yul\":1956:1995   */\n      add\n        /* \"#utility.yul\":1949:1995   */\n      swap2\n      pop\n        /* \"#utility.yul\":1729:2001   */\n      pop\n        /* \"#utility.yul\":1637:2001   */\n      swap3\n      swap2\n      pop\n      pop\n      jump\t// out\n        /* \"#utility.yul\":2007:2125   */\n    tag_433:\n        /* \"#utility.yul\":2094:2118   */\n      tag_435\n        /* \"#utility.yul\":2112:2117   */\n      dup2\n        /* \"#utility.yul\":2094:2118   */\n      tag_436\n      jump\t// in\n    tag_435:\n        /* \"#utility.yul\":2089:2092   */\n      dup3\n        /* \"#utility.yul\":2082:2119   */\n      mstore\n        /* \"#utility.yul\":2007:2125   */\n      pop\n      pop\n      jump\t// out\n        /* \"#utility.yul\":2131:2258   */\n    tag_437:\n        /* \"#utility.yul\":2216:2251   */\n      tag_439\n        /* \"#utility.yul\":2245:2250   */\n      dup2\n        /* \"#utility.yul\":2216:2251   */\n      tag_440\n      jump\t// in\n    tag_439:\n        /* \"#utility.yul\":2211:2214   */\n      dup3\n        /* \"#utility.yul\":2204:2252   */\n      mstore\n        /* \"#utility.yul\":2131:2258   */\n      pop\n      pop\n      jump\t// out\n        /* \"#utility.yul\":2264:2376   */\n    tag_441:\n        /* \"#utility.yul\":2347:2369   */\n      tag_443\n        /* \"#utility.yul\":2363:2368   */\n      dup2\n        /* \"#utility.yul\":2347:2369   */\n      tag_444\n      jump\t// in\n    tag_443:\n        /* \"#utility.yul\":2342:2345   */\n      dup3\n        /* \"#utility.yul\":2335:2370   */\n      mstore\n        /* \"#utility.yul\":2264:2376   */\n      pop\n      pop\n      jump\t// out\n        /* \"#utility.yul\":2382:2793   */\n    tag_15:\n        /* \"#utility.yul\":2517:2521   */\n      0x00\n        /* \"#utility.yul\":2555:2557   */\n      0x40\n        /* \"#utility.yul\":2544:2553   */\n      dup3\n        /* \"#utility.yul\":2540:2558   */\n      add\n        /* \"#utility.yul\":2532:2558   */\n      swap1\n      pop\n        /* \"#utility.yul\":2568:2633   */\n      tag_446\n        /* \"#utility.yul\":2630:2631   */\n      0x00\n        /* \"#utility.yul\":2619:2628   */\n      dup4\n        /* \"#utility.yul\":2615:2632   */\n      add\n        /* \"#utility.yul\":2606:2612   */\n      dup6\n        /* \"#utility.yul\":2568:2633   */\n      tag_415\n      jump\t// in\n    tag_446:\n        /* \"#utility.yul\":2680:2689   */\n      dup2\n        /* \"#utility.yul\":2674:2678   */\n      dup2\n        /* \"#utility.yul\":2670:2690   */\n      sub\n        /* \"#utility.yul\":2665:2667   */\n      0x20\n        /* \"#utility.yul\":2654:2663   */\n      dup4\n        /* \"#utility.yul\":2650:2668   */\n      add\n        /* \"#utility.yul\":2643:2691   */\n      mstore\n        /* \"#utility.yul\":2708:2786   */\n      tag_447\n        /* \"#utility.yul\":2781:2785   */\n      dup2\n        /* \"#utility.yul\":2772:2778   */\n      dup5\n        /* \"#utility.yul\":2708:2786   */\n      tag_423\n      jump\t// in\n    tag_447:\n        /* \"#utility.yul\":2700:2786   */\n      swap1\n      pop\n        /* \"#utility.yul\":2382:2793   */\n      swap4\n      swap3\n      pop\n      pop\n      pop\n      jump\t// out\n        /* \"#utility.yul\":2799:3021   */\n    tag_9:\n        /* \"#utility.yul\":2892:2896   */\n      0x00\n        /* \"#utility.yul\":2930:2932   */\n      0x20\n        /* \"#utility.yul\":2919:2928   */\n      dup3\n        /* \"#utility.yul\":2915:2933   */\n      add\n        /* \"#utility.yul\":2907:2933   */\n      swap1\n      pop\n        /* \"#utility.yul\":2943:3014   */\n      tag_449\n        /* \"#utility.yul\":3011:3012   */\n      0x00\n        /* \"#utility.yul\":3000:3009   */\n      dup4\n        /* \"#utility.yul\":2996:3013   */\n      add\n        /* \"#utility.yul\":2987:2993   */\n      dup5\n        /* \"#utility.yul\":2943:3014   */\n      tag_433\n      jump\t// in\n    tag_449:\n        /* \"#utility.yul\":2799:3021   */\n      swap3\n      swap2\n      pop\n      pop\n      jump\t// out\n        /* \"#utility.yul\":3027:3359   */\n    tag_38:\n        /* \"#utility.yul\":3148:3152   */\n      0x00\n        /* \"#utility.yul\":3186:3188   */\n      0x40\n        /* \"#utility.yul\":3175:3184   */\n      dup3\n        /* \"#utility.yul\":3171:3189   */\n      add\n        /* \"#utility.yul\":3163:3189   */\n      swap1\n      pop\n        /* \"#utility.yul\":3199:3270   */\n      tag_451\n        /* \"#utility.yul\":3267:3268   */\n      0x00\n        /* \"#utility.yul\":3256:3265   */\n      dup4\n        /* \"#utility.yul\":3252:3269   */\n      add\n        /* \"#utility.yul\":3243:3249   */\n      dup6\n        /* \"#utility.yul\":3199:3270   */\n      tag_433\n      jump\t// in\n    tag_451:\n        /* \"#utility.yul\":3280:3352   */\n      tag_452\n        /* \"#utility.yul\":3348:3350   */\n      0x20\n        /* \"#utility.yul\":3337:3346   */\n      dup4\n        /* \"#utility.yul\":3333:3351   */\n      add\n        /* \"#utility.yul\":3324:3330   */\n      dup5\n        /* \"#utility.yul\":3280:3352   */\n      tag_411\n      jump\t// in\n    tag_452:\n        /* \"#utility.yul\":3027:3359   */\n      swap4\n      swap3\n      pop\n      pop\n      pop\n      jump\t// out\n        /* \"#utility.yul\":3365:3799   */\n    tag_119:\n        /* \"#utility.yul\":3510:3514   */\n      0x00\n        /* \"#utility.yul\":3548:3550   */\n      0x60\n        /* \"#utility.yul\":3537:3546   */\n      dup3\n        /* \"#utility.yul\":3533:3551   */\n      add\n        /* \"#utility.yul\":3525:3551   */\n      swap1\n      pop\n        /* \"#utility.yul\":3561:3632   */\n      tag_454\n        /* \"#utility.yul\":3629:3630   */\n      0x00\n        /* \"#utility.yul\":3618:3627   */\n      dup4\n        /* \"#utility.yul\":3614:3631   */\n      add\n        /* \"#utility.yul\":3605:3611   */\n      dup7\n        /* \"#utility.yul\":3561:3632   */\n      tag_433\n      jump\t// in\n    tag_454:\n        /* \"#utility.yul\":3642:3714   */\n      tag_455\n        /* \"#utility.yul\":3710:3712   */\n      0x20\n        /* \"#utility.yul\":3699:3708   */\n      dup4\n        /* \"#utility.yul\":3695:3713   */\n      add\n        /* \"#utility.yul\":3686:3692   */\n      dup6\n        /* \"#utility.yul\":3642:3714   */\n      tag_411\n      jump\t// in\n    tag_455:\n        /* \"#utility.yul\":3724:3792   */\n      tag_456\n        /* \"#utility.yul\":3788:3790   */\n      0x40\n        /* \"#utility.yul\":3777:3786   */\n      dup4\n        /* \"#utility.yul\":3773:3791   */\n      add\n        /* \"#utility.yul\":3764:3770   */\n      dup5\n        /* \"#utility.yul\":3724:3792   */\n      tag_441\n      jump\t// in\n    tag_456:\n        /* \"#utility.yul\":3365:3799   */\n      swap5\n      swap4\n      pop\n      pop\n      pop\n      pop\n      jump\t// out\n        /* \"#utility.yul\":3805:4350   */\n    tag_92:\n        /* \"#utility.yul\":3978:3982   */\n      0x00\n        /* \"#utility.yul\":4016:4019   */\n      0x80\n        /* \"#utility.yul\":4005:4014   */\n      dup3\n        /* \"#utility.yul\":4001:4020   */\n      add\n        /* \"#utility.yul\":3993:4020   */\n      swap1\n      pop\n        /* \"#utility.yul\":4030:4101   */\n      tag_458\n        /* \"#utility.yul\":4098:4099   */\n      0x00\n        /* \"#utility.yul\":4087:4096   */\n      dup4\n        /* \"#utility.yul\":4083:4100   */\n      add\n        /* \"#utility.yul\":4074:4080   */\n      dup8\n        /* \"#utility.yul\":4030:4101   */\n      tag_433\n      jump\t// in\n    tag_458:\n        /* \"#utility.yul\":4111:4183   */\n      tag_459\n        /* \"#utility.yul\":4179:4181   */\n      0x20\n        /* \"#utility.yul\":4168:4177   */\n      dup4\n        /* \"#utility.yul\":4164:4182   */\n      add\n        /* \"#utility.yul\":4155:4161   */\n      dup7\n        /* \"#utility.yul\":4111:4183   */\n      tag_411\n      jump\t// in\n    tag_459:\n        /* \"#utility.yul\":4193:4263   */\n      tag_460\n        /* \"#utility.yul\":4259:4261   */\n      0x40\n        /* \"#utility.yul\":4248:4257   */\n      dup4\n        /* \"#utility.yul\":4244:4262   */\n      add\n        /* \"#utility.yul\":4235:4241   */\n      dup6\n        /* \"#utility.yul\":4193:4263   */\n      tag_437\n      jump\t// in\n    tag_460:\n        /* \"#utility.yul\":4273:4343   */\n      tag_461\n        /* \"#utility.yul\":4339:4341   */\n      0x60\n        /* \"#utility.yul\":4328:4337   */\n      dup4\n        /* \"#utility.yul\":4324:4342   */\n      add\n        /* \"#utility.yul\":4315:4321   */\n      dup5\n        /* \"#utility.yul\":4273:4343   */\n      tag_437\n      jump\t// in\n    tag_461:\n        /* \"#utility.yul\":3805:4350   */\n      swap6\n      swap5\n      pop\n      pop\n      pop\n      pop\n      pop\n      jump\t// out\n        /* \"#utility.yul\":4356:4704   */\n    tag_105:\n        /* \"#utility.yul\":4485:4489   */\n      0x00\n        /* \"#utility.yul\":4523:4525   */\n      0x40\n        /* \"#utility.yul\":4512:4521   */\n      dup3\n        /* \"#utility.yul\":4508:4526   */\n      add\n        /* \"#utility.yul\":4500:4526   */\n      swap1\n      pop\n        /* \"#utility.yul\":4536:4607   */\n      tag_463\n        /* \"#utility.yul\":4604:4605   */\n      0x00\n        /* \"#utility.yul\":4593:4602   */\n      dup4\n        /* \"#utility.yul\":4589:4606   */\n      add\n        /* \"#utility.yul\":4580:4586   */\n      dup6\n        /* \"#utility.yul\":4536:4607   */\n      tag_433\n      jump\t// in\n    tag_463:\n        /* \"#utility.yul\":4617:4697   */\n      tag_464\n        /* \"#utility.yul\":4693:4695   */\n      0x20\n        /* \"#utility.yul\":4682:4691   */\n      dup4\n        /* \"#utility.yul\":4678:4696   */\n      add\n        /* \"#utility.yul\":4669:4675   */\n      dup5\n        /* \"#utility.yul\":4617:4697   */\n      tag_419\n      jump\t// in\n    tag_464:\n        /* \"#utility.yul\":4356:4704   */\n      swap4\n      swap3\n      pop\n      pop\n      pop\n      jump\t// out\n        /* \"#utility.yul\":4791:4890   */\n    tag_426:\n        /* \"#utility.yul\":4843:4849   */\n      0x00\n        /* \"#utility.yul\":4877:4882   */\n      dup2\n        /* \"#utility.yul\":4871:4883   */\n      mload\n        /* \"#utility.yul\":4861:4883   */\n      swap1\n      pop\n        /* \"#utility.yul\":4791:4890   */\n      swap2\n      swap1\n      pop\n      jump\t// out\n        /* \"#utility.yul\":4896:5065   */\n    tag_428:\n        /* \"#utility.yul\":4980:4991   */\n      0x00\n        /* \"#utility.yul\":5014:5020   */\n      dup3\n        /* \"#utility.yul\":5009:5012   */\n      dup3\n        /* \"#utility.yul\":5002:5021   */\n      mstore\n        /* \"#utility.yul\":5054:5058   */\n      0x20\n        /* \"#utility.yul\":5049:5052   */\n      dup3\n        /* \"#utility.yul\":5045:5059   */\n      add\n        /* \"#utility.yul\":5030:5059   */\n      swap1\n      pop\n        /* \"#utility.yul\":4896:5065   */\n      swap3\n      swap2\n      pop\n      pop\n      jump\t// out\n        /* \"#utility.yul\":5071:5167   */\n    tag_414:\n        /* \"#utility.yul\":5108:5115   */\n      0x00\n        /* \"#utility.yul\":5137:5161   */\n      tag_470\n        /* \"#utility.yul\":5155:5160   */\n      dup3\n        /* \"#utility.yul\":5137:5161   */\n      tag_471\n      jump\t// in\n    tag_470:\n        /* \"#utility.yul\":5126:5161   */\n      swap1\n      pop\n        /* \"#utility.yul\":5071:5167   */\n      swap2\n      swap1\n      pop\n      jump\t// out\n        /* \"#utility.yul\":5173:5263   */\n    tag_418:\n        /* \"#utility.yul\":5207:5214   */\n      0x00\n        /* \"#utility.yul\":5250:5255   */\n      dup2\n        /* \"#utility.yul\":5243:5256   */\n      iszero\n        /* \"#utility.yul\":5236:5257   */\n      iszero\n        /* \"#utility.yul\":5225:5257   */\n      swap1\n      pop\n        /* \"#utility.yul\":5173:5263   */\n      swap2\n      swap1\n      pop\n      jump\t// out\n        /* \"#utility.yul\":5269:5400   */\n    tag_473:\n        /* \"#utility.yul\":5316:5323   */\n      0x00\n        /* \"#utility.yul\":5345:5350   */\n      dup2\n        /* \"#utility.yul\":5334:5350   */\n      swap1\n      pop\n        /* \"#utility.yul\":5351:5394   */\n      tag_475\n        /* \"#utility.yul\":5388:5393   */\n      dup3\n        /* \"#utility.yul\":5351:5394   */\n      tag_476\n      jump\t// in\n    tag_475:\n        /* \"#utility.yul\":5269:5400   */\n      swap2\n      swap1\n      pop\n      jump\t// out\n        /* \"#utility.yul\":5406:5532   */\n    tag_471:\n        /* \"#utility.yul\":5443:5450   */\n      0x00\n        /* \"#utility.yul\":5483:5525   */\n      0xffffffffffffffffffffffffffffffffffffffff\n        /* \"#utility.yul\":5476:5481   */\n      dup3\n        /* \"#utility.yul\":5472:5526   */\n      and\n        /* \"#utility.yul\":5461:5526   */\n      swap1\n      pop\n        /* \"#utility.yul\":5406:5532   */\n      swap2\n      swap1\n      pop\n      jump\t// out\n        /* \"#utility.yul\":5538:5615   */\n    tag_436:\n        /* \"#utility.yul\":5575:5582   */\n      0x00\n        /* \"#utility.yul\":5604:5609   */\n      dup2\n        /* \"#utility.yul\":5593:5609   */\n      swap1\n      pop\n        /* \"#utility.yul\":5538:5615   */\n      swap2\n      swap1\n      pop\n      jump\t// out\n        /* \"#utility.yul\":5621:5707   */\n    tag_444:\n        /* \"#utility.yul\":5656:5663   */\n      0x00\n        /* \"#utility.yul\":5696:5700   */\n      0xff\n        /* \"#utility.yul\":5689:5694   */\n      dup3\n        /* \"#utility.yul\":5685:5701   */\n      and\n        /* \"#utility.yul\":5674:5701   */\n      swap1\n      pop\n        /* \"#utility.yul\":5621:5707   */\n      swap2\n      swap1\n      pop\n      jump\t// out\n        /* \"#utility.yul\":5713:5844   */\n    tag_422:\n        /* \"#utility.yul\":5771:5780   */\n      0x00\n        /* \"#utility.yul\":5804:5838   */\n      tag_481\n        /* \"#utility.yul\":5832:5837   */\n      dup3\n        /* \"#utility.yul\":5804:5838   */\n      tag_473\n      jump\t// in\n    tag_481:\n        /* \"#utility.yul\":5791:5838   */\n      swap1\n      pop\n        /* \"#utility.yul\":5713:5844   */\n      swap2\n      swap1\n      pop\n      jump\t// out\n        /* \"#utility.yul\":5850:5959   */\n    tag_440:\n        /* \"#utility.yul\":5898:5907   */\n      0x00\n        /* \"#utility.yul\":5931:5953   */\n      tag_483\n        /* \"#utility.yul\":5947:5952   */\n      dup3\n        /* \"#utility.yul\":5931:5953   */\n      tag_444\n      jump\t// in\n    tag_483:\n        /* \"#utility.yul\":5918:5953   */\n      swap1\n      pop\n        /* \"#utility.yul\":5850:5959   */\n      swap2\n      swap1\n      pop\n      jump\t// out\n        /* \"#utility.yul\":5965:6272   */\n    tag_430:\n        /* \"#utility.yul\":6033:6034   */\n      0x00\n        /* \"#utility.yul\":6043:6156   */\n    tag_485:\n        /* \"#utility.yul\":6057:6063   */\n      dup4\n        /* \"#utility.yul\":6054:6055   */\n      dup2\n        /* \"#utility.yul\":6051:6064   */\n      lt\n        /* \"#utility.yul\":6043:6156   */\n      iszero\n      tag_487\n      jumpi\n        /* \"#utility.yul\":6142:6143   */\n      dup1\n        /* \"#utility.yul\":6137:6140   */\n      dup3\n        /* \"#utility.yul\":6133:6144   */\n      add\n        /* \"#utility.yul\":6127:6145   */\n      mload\n        /* \"#utility.yul\":6123:6124   */\n      dup2\n        /* \"#utility.yul\":6118:6121   */\n      dup5\n        /* \"#utility.yul\":6114:6125   */\n      add\n        /* \"#utility.yul\":6107:6146   */\n      mstore\n        /* \"#utility.yul\":6079:6081   */\n      0x20\n        /* \"#utility.yul\":6076:6077   */\n      dup2\n        /* \"#utility.yul\":6072:6082   */\n      add\n        /* \"#utility.yul\":6067:6082   */\n      swap1\n      pop\n        /* \"#utility.yul\":6043:6156   */\n      jump(tag_485)\n    tag_487:\n        /* \"#utility.yul\":6174:6180   */\n      dup4\n        /* \"#utility.yul\":6171:6172   */\n      dup2\n        /* \"#utility.yul\":6168:6181   */\n      gt\n        /* \"#utility.yul\":6165:6266   */\n      iszero\n      tag_488\n      jumpi\n        /* \"#utility.yul\":6254:6255   */\n      0x00\n        /* \"#utility.yul\":6245:6251   */\n      dup5\n        /* \"#utility.yul\":6240:6243   */\n      dup5\n        /* \"#utility.yul\":6236:6252   */\n      add\n        /* \"#utility.yul\":6229:6256   */\n      mstore\n        /* \"#utility.yul\":6165:6266   */\n    tag_488:\n        /* \"#utility.yul\":6014:6272   */\n      pop\n        /* \"#utility.yul\":5965:6272   */\n      pop\n      pop\n      pop\n      jump\t// out\n        /* \"#utility.yul\":6278:6511   */\n    tag_30:\n        /* \"#utility.yul\":6317:6320   */\n      0x00\n        /* \"#utility.yul\":6340:6364   */\n      tag_490\n        /* \"#utility.yul\":6358:6363   */\n      dup3\n        /* \"#utility.yul\":6340:6364   */\n      tag_436\n      jump\t// in\n    tag_490:\n        /* \"#utility.yul\":6331:6364   */\n      swap2\n      pop\n        /* \"#utility.yul\":6386:6452   */\n      0xffffffffffffffffffffffffffffffffffffffffffffffffffffffffffffffff\n        /* \"#utility.yul\":6379:6384   */\n      dup3\n        /* \"#utility.yul\":6376:6453   */\n      eq\n        /* \"#utility.yul\":6373:6476   */\n      iszero\n      tag_491\n      jumpi\n        /* \"#utility.yul\":6456:6474   */\n      tag_492\n      tag_493\n      jump\t// in\n    tag_492:\n        /* \"#utility.yul\":6373:6476   */\n    tag_491:\n        /* \"#utility.yul\":6503:6504   */\n      0x01\n        /* \"#utility.yul\":6496:6501   */\n      dup3\n        /* \"#utility.yul\":6492:6505   */\n      add\n        /* \"#utility.yul\":6485:6505   */\n      swap1\n      pop\n        /* \"#utility.yul\":6278:6511   */\n      swap2\n      swap1\n      pop\n      jump\t// out\n        /* \"#utility.yul\":6517:6684   */\n    tag_235:\n        /* \"#utility.yul\":6554:6557   */\n      0x00\n        /* \"#utility.yul\":6577:6599   */\n      tag_495\n        /* \"#utility.yul\":6593:6598   */\n      dup3\n        /* \"#utility.yul\":6577:6599   */\n      tag_444\n      jump\t// in\n    tag_495:\n        /* \"#utility.yul\":6568:6599   */\n      swap2\n      pop\n        /* \"#utility.yul\":6621:6625   */\n      0xff\n        /* \"#utility.yul\":6614:6619   */\n      dup3\n        /* \"#utility.yul\":6611:6626   */\n      eq\n        /* \"#utility.yul\":6608:6649   */\n      iszero\n      tag_496\n      jumpi\n        /* \"#utility.yul\":6629:6647   */\n      tag_497\n      tag_493\n      jump\t// in\n    tag_497:\n        /* \"#utility.yul\":6608:6649   */\n    tag_496:\n        /* \"#utility.yul\":6676:6677   */\n      0x01\n        /* \"#utility.yul\":6669:6674   */\n      dup3\n        /* \"#utility.yul\":6665:6678   */\n      add\n        /* \"#utility.yul\":6658:6678   */\n      swap1\n      pop\n        /* \"#utility.yul\":6517:6684   */\n      swap2\n      swap1\n      pop\n      jump\t// out\n        /* \"#utility.yul\":6690:6870   */\n    tag_493:\n        /* \"#utility.yul\":6738:6815   */\n      0x4e487b7100000000000000000000000000000000000000000000000000000000\n        /* \"#utility.yul\":6735:6736   */\n      0x00\n        /* \"#utility.yul\":6728:6816   */\n      mstore\n        /* \"#utility.yul\":6835:6839   */\n      0x11\n        /* \"#utility.yul\":6832:6833   */\n      0x04\n        /* \"#utility.yul\":6825:6840   */\n      mstore\n        /* \"#utility.yul\":6859:6863   */\n      0x24\n        /* \"#utility.yul\":6856:6857   */\n      0x00\n        /* \"#utility.yul\":6849:6864   */\n      revert\n        /* \"#utility.yul\":6876:7056   */\n    tag_26:\n        /* \"#utility.yul\":6924:7001   */\n      0x4e487b7100000000000000000000000000000000000000000000000000000000\n        /* \"#utility.yul\":6921:6922   */\n      0x00\n        /* \"#utility.yul\":6914:7002   */\n      mstore\n        /* \"#utility.yul\":7021:7025   */\n      0x21\n        /* \"#utility.yul\":7018:7019   */\n      0x04\n        /* \"#utility.yul\":7011:7026   */\n      mstore\n        /* \"#utility.yul\":7045:7049   */\n      0x24\n        /* \"#utility.yul\":7042:7043   */\n      0x00\n        /* \"#utility.yul\":7035:7050   */\n      revert\n        /* \"#utility.yul\":7062:7242   */\n    tag_72:\n        /* \"#utility.yul\":7110:7187   */\n      0x4e487b7100000000000000000000000000000000000000000000000000000000\n        /* \"#utility.yul\":7107:7108   */\n      0x00\n        /* \"#utility.yul\":7100:7188   */\n      mstore\n        /* \"#utility.yul\":7207:7211   */\n      0x32\n        /* \"#utility.yul\":7204:7205   */\n      0x04\n        /* \"#utility.yul\":7197:7212   */\n      mstore\n        /* \"#utility.yul\":7231:7235   */\n      0x24\n        /* \"#utility.yul\":7228:7229   */\n      0x00\n        /* \"#utility.yul\":7221:7236   */\n      revert\n        /* \"#utility.yul\":7371:7488   */\n    tag_403:\n        /* \"#utility.yul\":7480:7481   */\n      0x00\n        /* \"#utility.yul\":7477:7478   */\n      dup1\n        /* \"#utility.yul\":7470:7482   */\n      revert\n        /* \"#utility.yul\":7494:7596   */\n    tag_432:\n        /* \"#utility.yul\":7535:7541   */\n      0x00\n        /* \"#utility.yul\":7586:7588   */\n      0x1f\n        /* \"#utility.yul\":7582:7589   */\n      not\n        /* \"#utility.yul\":7577:7579   */\n      0x1f\n        /* \"#utility.yul\":7570:7575   */\n      dup4\n        /* \"#utility.yul\":7566:7580   */\n      add\n        /* \"#utility.yul\":7562:7590   */\n      and\n        /* \"#utility.yul\":7552:7590   */\n      swap1\n      pop\n        /* \"#utility.yul\":7494:7596   */\n      swap2\n      swap1\n      pop\n      jump\t// out\n        /* \"#utility.yul\":7602:7717   */\n    tag_476:\n        /* \"#utility.yul\":7685:7686   */\n      0x04\n        /* \"#utility.yul\":7678:7683   */\n      dup2\n        /* \"#utility.yul\":7675:7687   */\n      lt\n        /* \"#utility.yul\":7665:7711   */\n      tag_506\n      jumpi\n        /* \"#utility.yul\":7691:7709   */\n      tag_507\n      tag_26\n      jump\t// in\n    tag_507:\n        /* \"#utility.yul\":7665:7711   */\n    tag_506:\n        /* \"#utility.yul\":7602:7717   */\n      pop\n      jump\t// out\n        /* \"#utility.yul\":7723:7845   */\n    tag_395:\n        /* \"#utility.yul\":7796:7820   */\n      tag_509\n        /* \"#utility.yul\":7814:7819   */\n      dup2\n        /* \"#utility.yul\":7796:7820   */\n      tag_436\n      jump\t// in\n    tag_509:\n        /* \"#utility.yul\":7789:7794   */\n      dup2\n        /* \"#utility.yul\":7786:7821   */\n      eq\n        /* \"#utility.yul\":7776:7839   */\n      tag_510\n      jumpi\n        /* \"#utility.yul\":7835:7836   */\n      0x00\n        /* \"#utility.yul\":7832:7833   */\n      dup1\n        /* \"#utility.yul\":7825:7837   */\n      revert\n        /* \"#utility.yul\":7776:7839   */\n    tag_510:\n        /* \"#utility.yul\":7723:7845   */\n      pop\n      jump\t// out\n        /* \"#utility.yul\":7851:7969   */\n    tag_399:\n        /* \"#utility.yul\":7922:7944   */\n      tag_512\n        /* \"#utility.yul\":7938:7943   */\n      dup2\n        /* \"#utility.yul\":7922:7944   */\n      tag_444\n      jump\t// in\n    tag_512:\n        /* \"#utility.yul\":7915:7920   */\n      dup2\n        /* \"#utility.yul\":7912:7945   */\n      eq\n        /* \"#utility.yul\":7902:7963   */\n      tag_513\n      jumpi\n        /* \"#utility.yul\":7959:7960   */\n      0x00\n        /* \"#utility.yul\":7956:7957   */\n      dup1\n        /* \"#utility.yul\":7949:7961   */\n      revert\n        /* \"#utility.yul\":7902:7963   */\n    tag_513:\n        /* \"#utility.yul\":7851:7969   */\n      pop\n      jump\t// out\n    stop\n    data_024d23689c7c0d36b0295c402b03cbbb30a16b10831d85b0a50598b30664ffd5 546865726520697320616c72656164792061206d61726b2061742074686520676976656e20636f6f7264696e617465732e\n    data_1dec2345cf2c9904d4bfc97b685b7aceb7535b3c20b581cfcd1a8aad6e3c0022 4a6f696e656420617320706c6179657220312e2047616d65206861736e27742073746172746564207965742e\n    data_2307c6cecb6cdd4358fafc00b91c477d19bbf696b7e2882ab8bda9a452fbe182 4a6f696e656420617320706c6179657220312e20506c61796572203220616c7265616479206578697374732e20506c6179657220312063616e206d616b6520746865206669727374206d6f76652e\n    data_476d10d052133a3cad173f786601a80ea3fb2cf99f87880757d5b4e323ffaa9b 4a6f696e656420617320706c6179657220322e20506c6179657220312063616e206d616b6520746865206669727374206d6f76652e\n    data_54a12ab040607f091841913999c9806ab3bf0ebbc1cf1cdac8686e31b8bf9155 4a6f696e656420617320706c6179657220322e2047616d65206861736e27742073746172746564207965742e\n    data_cd1c82b9c97f6de04235118f1b9fb732f775ca593a234137657e86aa65a28d62 546869732067616d6520646f65736e277420686176652074776f20706c6179657273207965742e\n\n    auxdata: 0xa2646970667358221220d01d980a97f82db56ff38a653c0a191a30ffc4023f44d8dcb11ae1358f63550864736f6c63430008070033\n}\n",
				"bytecode": {
					"linkReferences": {},
					"object": "608060405234801561001057600080fd5b506121fe806100206000396000f3fe608060405234801561001057600080fd5b50600436106100415760003560e01c80637d03f5f314610046578063aa57f09c14610064578063efaa55a014610095575b600080fd5b61004e6100c6565b60405161005b9190611d79565b60405180910390f35b61007e60048036038101906100799190611c63565b61027b565b60405161008c929190611d49565b60405180910390f35b6100af60048036038101906100aa9190611c36565b610aa3565b6040516100bd929190611d49565b60405180910390f35b60006100d0611a08565b6001816060019060028111156100e9576100e8611fdf565b5b908160028111156100fd576100fc611fdf565b5b815250506001600081548092919061011490611f3d565b919050555080600080600154815260200190815260200160002060008201518160000160006101000a81548173ffffffffffffffffffffffffffffffffffffffff021916908373ffffffffffffffffffffffffffffffffffffffff16021790555060208201518160010160006101000a81548173ffffffffffffffffffffffffffffffffffffffff021916908373ffffffffffffffffffffffffffffffffffffffff16021790555060408201518160010160146101000a81548160ff021916908360038111156101e7576101e6611fdf565b5b021790555060608201518160010160156101000a81548160ff0219169083600281111561021757610216611fdf565b5b0217905550608082015181600201906003610233929190611a8d565b509050507fc3e0f84839dc888c892a013d10c8f9d6dc05a21a879d0ce468ca558013e9121c6001543360405161026a929190611d94565b60405180910390a160015491505090565b6000606060015485118061035d5750600073ffffffffffffffffffffffffffffffffffffffff1660008087815260200190815260200160002060000160009054906101000a900473ffffffffffffffffffffffffffffffffffffffff1673ffffffffffffffffffffffffffffffffffffffff1614801561035c5750600073ffffffffffffffffffffffffffffffffffffffff1660008087815260200190815260200160002060010160009054906101000a900473ffffffffffffffffffffffffffffffffffffffff1673ffffffffffffffffffffffffffffffffffffffff16145b5b156103a35760006040518060400160405280601481526020017f4e6f20737563682067616d65206578697374732e00000000000000000000000081525091509150610a9b565b60008460ff1610806103b8575060028460ff16115b156103fe5760006040518060400160405280601f81526020017f496e76616c696420696e70757420666f7220782d636f6f7264696e6174652e0081525091509150610a9b565b60008360ff161080610413575060028360ff16115b156104595760006040518060400160405280601f81526020017f496e76616c696420696e70757420666f7220792d636f6f7264696e6174652e0081525091509150610a9b565b600073ffffffffffffffffffffffffffffffffffffffff1660008087815260200190815260200160002060000160009054906101000a900473ffffffffffffffffffffffffffffffffffffffff1673ffffffffffffffffffffffffffffffffffffffff16148061052a5750600073ffffffffffffffffffffffffffffffffffffffff1660008087815260200190815260200160002060010160009054906101000a900473ffffffffffffffffffffffffffffffffffffffff1673ffffffffffffffffffffffffffffffffffffffff16145b156105535760006040518060600160405280602781526020016121a26027913991509150610a9b565b60008060008781526020019081526020016000206040518060a00160405290816000820160009054906101000a900473ffffffffffffffffffffffffffffffffffffffff1673ffffffffffffffffffffffffffffffffffffffff1673ffffffffffffffffffffffffffffffffffffffff1681526020016001820160009054906101000a900473ffffffffffffffffffffffffffffffffffffffff1673ffffffffffffffffffffffffffffffffffffffff1673ffffffffffffffffffffffffffffffffffffffff1681526020016001820160149054906101000a900460ff16600381111561064357610642611fdf565b5b600381111561065557610654611fdf565b5b81526020016001820160159054906101000a900460ff16600281111561067e5761067d611fdf565b5b60028111156106905761068f611fdf565b5b815260200160028201600380602002604051908101604052809291906000905b8282101561072c57838201600380602002604051908101604052809291908260038015610718576020028201916000905b82829054906101000a900460ff1660ff16815260200190600101906020826000010492830192600103820291508084116106e15790505b5050505050815260200190600101906106b0565b505050508152505090506000600381111561074a57610749611fdf565b5b8160400151600381111561076157610760611fdf565b5b146107a85760006040518060400160405280601b81526020017f5468652067616d652068617320616c726561647920656e6465642e00000000008152509250925050610a9b565b6107b181610f46565b73ffffffffffffffffffffffffffffffffffffffff163373ffffffffffffffffffffffffffffffffffffffff16146108255760006040518060400160405280601481526020017f4974206973206e6f7420796f7572207475726e2e0000000000000000000000008152509250925050610a9b565b600181608001518660ff16600381106108415761084061200e565b5b60200201518560ff166003811061085b5761085a61200e565b5b602002015160ff1614806108aa5750600281608001518660ff16600381106108865761088561200e565b5b60200201518560ff16600381106108a05761089f61200e565b5b602002015160ff16145b156108d4576000604051806060016040528060318152602001612096603191399250925050610a9b565b600160028111156108e8576108e7611fdf565b5b816060015160028111156108ff576108fe611fdf565b5b1461090b57600261090e565b60015b81608001518660ff16600381106109285761092761200e565b5b60200201518560ff16600381106109425761094161200e565b5b602002019060ff16908160ff16815250507faa03b0eb53c70f6640eba4234ad2c58782c8927e7abf7d3a6e2c45d07ca9d583863387876040516109889493929190611df4565b60405180910390a1600061099f8260800151610fcb565b9050600060038111156109b5576109b4611fdf565b5b8160038111156109c8576109c7611fdf565b5b14610a795780826040019060038111156109e5576109e4611fdf565b5b908160038111156109f9576109f8611fdf565b5b815250507f132b564c6f96092065580fd28989d181dfbbfe4aa2fb7fb1eda8af68ba3073e08782604051610a2e929190611e39565b60405180910390a160016040518060400160405280601181526020017f5468652067616d65206973206f7665722e000000000000000000000000000000815250935093505050610a9b565b610a8282611159565b6001604051806020016040528060008152509350935050505b935093915050565b60006060600154831115610af25760006040518060400160405280601481526020017f4e6f20737563682067616d65206578697374732e00000000000000000000000081525091509150610f41565b60003390506000806000868152602001908152602001600020905060006003811115610b2157610b20611fdf565b5b8160010160149054906101000a900460ff166003811115610b4557610b44611fdf565b5b14610b8d5760006040518060400160405280601e81526020017f546869732067616d6520697320616c726561647920636f6d706c6574652e0000815250935093505050610f41565b600073ffffffffffffffffffffffffffffffffffffffff168160000160009054906101000a900473ffffffffffffffffffffffffffffffffffffffff1673ffffffffffffffffffffffffffffffffffffffff161415610d4857818160000160006101000a81548173ffffffffffffffffffffffffffffffffffffffff021916908373ffffffffffffffffffffffffffffffffffffffff1602179055507f8f5866c09e99941481e2be79d3a7698371543fe3ad3387b903553fd6043e8550858360016002811115610c6057610c5f611fdf565b5b604051610c6f93929190611dbd565b60405180910390a1600073ffffffffffffffffffffffffffffffffffffffff168160010160009054906101000a900473ffffffffffffffffffffffffffffffffffffffff1673ffffffffffffffffffffffffffffffffffffffff1614610d225760018160010160156101000a81548160ff02191690836002811115610cf757610cf6611fdf565b5b021790555060016040518060800160405280604e81526020016120f3604e9139935093505050610f41565b60016040518060600160405280602c81526020016120c7602c9139935093505050610f41565b600073ffffffffffffffffffffffffffffffffffffffff168160010160009054906101000a900473ffffffffffffffffffffffffffffffffffffffff1673ffffffffffffffffffffffffffffffffffffffff161415610f0257818160010160006101000a81548173ffffffffffffffffffffffffffffffffffffffff021916908373ffffffffffffffffffffffffffffffffffffffff1602179055507f8f5866c09e99941481e2be79d3a7698371543fe3ad3387b903553fd6043e85508583600280811115610e1a57610e19611fdf565b5b604051610e2993929190611dbd565b60405180910390a1600073ffffffffffffffffffffffffffffffffffffffff168160000160009054906101000a900473ffffffffffffffffffffffffffffffffffffffff1673ffffffffffffffffffffffffffffffffffffffff1614610edc5760018160010160156101000a81548160ff02191690836002811115610eb157610eb0611fdf565b5b0217905550600160405180606001604052806035815260200161214160359139935093505050610f41565b60016040518060600160405280602c8152602001612176602c9139935093505050610f41565b60006040518060400160405280602081526020017f546869732067616d6520616c726561647920686173203220706c61796572732e8152509350935050505b915091565b600060016002811115610f5c57610f5b611fdf565b5b82606001516002811115610f7357610f72611fdf565b5b1415610f855781600001519050610fc6565b600280811115610f9857610f97611fdf565b5b82606001516002811115610faf57610fae611fdf565b5b1415610fc15781602001519050610fc6565b600090505b919050565b600080610fd7836111f5565b905060016002811115610fed57610fec611fdf565b5b81600281111561100057610fff611fdf565b5b1415611010576001915050611154565b60028081111561102357611022611fdf565b5b81600281111561103657611035611fdf565b5b1415611046576002915050611154565b61104f836113de565b90506001600281111561106557611064611fdf565b5b81600281111561107857611077611fdf565b5b1415611088576001915050611154565b60028081111561109b5761109a611fdf565b5b8160028111156110ae576110ad611fdf565b5b14156110be576002915050611154565b6110c7836115c7565b9050600160028111156110dd576110dc611fdf565b5b8160028111156110f0576110ef611fdf565b5b1415611100576001915050611154565b60028081111561111357611112611fdf565b5b81600281111561112657611125611fdf565b5b1415611136576002915050611154565b61113f83611923565b1561114e576003915050611154565b60009150505b919050565b6001600281111561116d5761116c611fdf565b5b8160600151600281111561118457611183611fdf565b5b14156111c0576002816060019060028111156111a3576111a2611fdf565b5b908160028111156111b7576111b6611fdf565b5b815250506111f2565b6001816060019060028111156111d9576111d8611fdf565b5b908160028111156111ed576111ec611fdf565b5b815250505b50565b600080600090505b60038160ff1610156113d3576001838260ff16600381106112215761122061200e565b5b60200201516000600381106112395761123861200e565b5b602002015160ff16148061128257506002838260ff16600381106112605761125f61200e565b5b60200201516000600381106112785761127761200e565b5b602002015160ff16145b80156112f75750828160ff166003811061129f5761129e61200e565b5b60200201516001600381106112b7576112b661200e565b5b602002015160ff16838260ff16600381106112d5576112d461200e565b5b60200201516000600381106112ed576112ec61200e565b5b602002015160ff16145b801561136c5750828160ff16600381106113145761131361200e565b5b602002015160026003811061132c5761132b61200e565b5b602002015160ff16838260ff166003811061134a5761134961200e565b5b60200201516001600381106113625761136161200e565b5b602002015160ff16145b156113c0576001838260ff16600381106113895761138861200e565b5b60200201516000600381106113a1576113a061200e565b5b602002015160ff16146113b55760026113b8565b60015b9150506113d9565b80806113cb90611f86565b9150506111fd565b50600090505b919050565b600080600090505b60038160ff1610156115bc576001836000600381106114085761140761200e565b5b60200201518260ff16600381106114225761142161200e565b5b602002015160ff16148061146b57506002836000600381106114475761144661200e565b5b60200201518260ff16600381106114615761146061200e565b5b602002015160ff16145b80156114e05750826001600381106114865761148561200e565b5b60200201518160ff16600381106114a05761149f61200e565b5b602002015160ff16836000600381106114bc576114bb61200e565b5b60200201518260ff16600381106114d6576114d561200e565b5b602002015160ff16145b80156115555750826002600381106114fb576114fa61200e565b5b60200201518160ff16600381106115155761151461200e565b5b602002015160ff16836001600381106115315761153061200e565b5b60200201518260ff166003811061154b5761154a61200e565b5b602002015160ff16145b156115a9576001836000600381106115705761156f61200e565b5b60200201518260ff166003811061158a5761158961200e565b5b602002015160ff161461159e5760026115a1565b60015b9150506115c2565b80806115b490611f86565b9150506113e6565b50600090505b919050565b60006001826000600381106115df576115de61200e565b5b60200201516000600381106115f7576115f661200e565b5b602002015160ff16148061163e575060028260006003811061161c5761161b61200e565b5b60200201516000600381106116345761163361200e565b5b602002015160ff16145b80156116af5750816001600381106116595761165861200e565b5b60200201516001600381106116715761167061200e565b5b602002015160ff168260006003811061168d5761168c61200e565b5b60200201516000600381106116a5576116a461200e565b5b602002015160ff16145b80156117205750816002600381106116ca576116c961200e565b5b60200201516002600381106116e2576116e161200e565b5b602002015160ff16826001600381106116fe576116fd61200e565b5b60200201516001600381106117165761171561200e565b5b602002015160ff16145b156117715760018260006003811061173b5761173a61200e565b5b60200201516000600381106117535761175261200e565b5b602002015160ff161461176757600261176a565b60015b905061191e565b6001826000600381106117875761178661200e565b5b602002015160026003811061179f5761179e61200e565b5b602002015160ff1614806117e657506002826000600381106117c4576117c361200e565b5b60200201516002600381106117dc576117db61200e565b5b602002015160ff16145b80156118575750816001600381106118015761180061200e565b5b60200201516001600381106118195761181861200e565b5b602002015160ff16826000600381106118355761183461200e565b5b602002015160026003811061184d5761184c61200e565b5b602002015160ff16145b80156118c85750816002600381106118725761187161200e565b5b602002015160006003811061188a5761188961200e565b5b602002015160ff16826001600381106118a6576118a561200e565b5b60200201516001600381106118be576118bd61200e565b5b602002015160ff16145b15611919576001826000600381106118e3576118e261200e565b5b60200201516002600381106118fb576118fa61200e565b5b602002015160ff161461190f576002611912565b60015b905061191e565b600090505b919050565b600080600090505b60038160ff1610156119fd5760005b60038160ff1610156119e9576001848360ff166003811061195e5761195d61200e565b5b60200201518260ff16600381106119785761197761200e565b5b602002015160ff16141580156119c657506002848360ff16600381106119a1576119a061200e565b5b60200201518260ff16600381106119bb576119ba61200e565b5b602002015160ff1614155b156119d657600092505050611a03565b80806119e190611f86565b91505061193a565b5080806119f590611f86565b91505061192b565b50600190505b919050565b6040518060a00160405280600073ffffffffffffffffffffffffffffffffffffffff168152602001600073ffffffffffffffffffffffffffffffffffffffff16815260200160006003811115611a6157611a60611fdf565b5b815260200160006002811115611a7a57611a79611fdf565b5b8152602001611a87611adb565b81525090565b8260038101928215611aca579160200282015b82811115611ac957825182906003611ab9929190611b08565b5091602001919060010190611aa0565b5b509050611ad79190611ba2565b5090565b60405180606001604052806003905b611af2611bc6565b815260200190600190039081611aea5790505090565b826003601f01602090048101928215611b915791602002820160005b83821115611b6257835183826101000a81548160ff021916908360ff1602179055509260200192600101602081600001049283019260010302611b24565b8015611b8f5782816101000a81549060ff0219169055600101602081600001049283019260010302611b62565b505b509050611b9e9190611be8565b5090565b5b80821115611bc25760008181611bb99190611c05565b50600101611ba3565b5090565b6040518060600160405280600390602082028036833780820191505090505090565b5b80821115611c01576000816000905550600101611be9565b5090565b5060009055565b600081359050611c1b81612067565b92915050565b600081359050611c308161207e565b92915050565b600060208284031215611c4c57611c4b61203d565b5b6000611c5a84828501611c0c565b91505092915050565b600080600060608486031215611c7c57611c7b61203d565b5b6000611c8a86828701611c0c565b9350506020611c9b86828701611c21565b9250506040611cac86828701611c21565b9150509250925092565b611cbf81611e7e565b82525050565b611cce81611e90565b82525050565b611cdd81611ee6565b82525050565b6000611cee82611e62565b611cf88185611e6d565b9350611d08818560208601611f0a565b611d1181612042565b840191505092915050565b611d2581611ecf565b82525050565b611d3481611ef8565b82525050565b611d4381611ed9565b82525050565b6000604082019050611d5e6000830185611cc5565b8181036020830152611d708184611ce3565b90509392505050565b6000602082019050611d8e6000830184611d1c565b92915050565b6000604082019050611da96000830185611d1c565b611db66020830184611cb6565b9392505050565b6000606082019050611dd26000830186611d1c565b611ddf6020830185611cb6565b611dec6040830184611d3a565b949350505050565b6000608082019050611e096000830187611d1c565b611e166020830186611cb6565b611e236040830185611d2b565b611e306060830184611d2b565b95945050505050565b6000604082019050611e4e6000830185611d1c565b611e5b6020830184611cd4565b9392505050565b600081519050919050565b600082825260208201905092915050565b6000611e8982611eaf565b9050919050565b60008115159050919050565b6000819050611eaa82612053565b919050565b600073ffffffffffffffffffffffffffffffffffffffff82169050919050565b6000819050919050565b600060ff82169050919050565b6000611ef182611e9c565b9050919050565b6000611f0382611ed9565b9050919050565b60005b83811015611f28578082015181840152602081019050611f0d565b83811115611f37576000848401525b50505050565b6000611f4882611ecf565b91507fffffffffffffffffffffffffffffffffffffffffffffffffffffffffffffffff821415611f7b57611f7a611fb0565b5b600182019050919050565b6000611f9182611ed9565b915060ff821415611fa557611fa4611fb0565b5b600182019050919050565b7f4e487b7100000000000000000000000000000000000000000000000000000000600052601160045260246000fd5b7f4e487b7100000000000000000000000000000000000000000000000000000000600052602160045260246000fd5b7f4e487b7100000000000000000000000000000000000000000000000000000000600052603260045260246000fd5b600080fd5b6000601f19601f8301169050919050565b6004811061206457612063611fdf565b5b50565b61207081611ecf565b811461207b57600080fd5b50565b61208781611ed9565b811461209257600080fd5b5056fe546865726520697320616c72656164792061206d61726b2061742074686520676976656e20636f6f7264696e617465732e4a6f696e656420617320706c6179657220312e2047616d65206861736e27742073746172746564207965742e4a6f696e656420617320706c6179657220312e20506c61796572203220616c7265616479206578697374732e20506c6179657220312063616e206d616b6520746865206669727374206d6f76652e4a6f696e656420617320706c6179657220322e20506c6179657220312063616e206d616b6520746865206669727374206d6f76652e4a6f696e656420617320706c6179657220322e2047616d65206861736e27742073746172746564207965742e546869732067616d6520646f65736e277420686176652074776f20706c6179657273207965742ea2646970667358221220d01d980a97f82db56ff38a653c0a191a30ffc4023f44d8dcb11ae1358f63550864736f6c63430008070033",
					"opcodes": "PUSH1 0x80 PUSH1 0x40 MSTORE CALLVALUE DUP1 ISZERO PUSH2 0x10 JUMPI PUSH1 0x0 DUP1 REVERT JUMPDEST POP PUSH2 0x21FE DUP1 PUSH2 0x20 PUSH1 0x0 CODECOPY PUSH1 0x0 RETURN INVALID PUSH1 0x80 PUSH1 0x40 MSTORE CALLVALUE DUP1 ISZERO PUSH2 0x10 JUMPI PUSH1 0x0 DUP1 REVERT JUMPDEST POP PUSH1 0x4 CALLDATASIZE LT PUSH2 0x41 JUMPI PUSH1 0x0 CALLDATALOAD PUSH1 0xE0 SHR DUP1 PUSH4 0x7D03F5F3 EQ PUSH2 0x46 JUMPI DUP1 PUSH4 0xAA57F09C EQ PUSH2 0x64 JUMPI DUP1 PUSH4 0xEFAA55A0 EQ PUSH2 0x95 JUMPI JUMPDEST PUSH1 0x0 DUP1 REVERT JUMPDEST PUSH2 0x4E PUSH2 0xC6 JUMP JUMPDEST PUSH1 0x40 MLOAD PUSH2 0x5B SWAP2 SWAP1 PUSH2 0x1D79 JUMP JUMPDEST PUSH1 0x40 MLOAD DUP1 SWAP2 SUB SWAP1 RETURN JUMPDEST PUSH2 0x7E PUSH1 0x4 DUP1 CALLDATASIZE SUB DUP2 ADD SWAP1 PUSH2 0x79 SWAP2 SWAP1 PUSH2 0x1C63 JUMP JUMPDEST PUSH2 0x27B JUMP JUMPDEST PUSH1 0x40 MLOAD PUSH2 0x8C SWAP3 SWAP2 SWAP1 PUSH2 0x1D49 JUMP JUMPDEST PUSH1 0x40 MLOAD DUP1 SWAP2 SUB SWAP1 RETURN JUMPDEST PUSH2 0xAF PUSH1 0x4 DUP1 CALLDATASIZE SUB DUP2 ADD SWAP1 PUSH2 0xAA SWAP2 SWAP1 PUSH2 0x1C36 JUMP JUMPDEST PUSH2 0xAA3 JUMP JUMPDEST PUSH1 0x40 MLOAD PUSH2 0xBD SWAP3 SWAP2 SWAP1 PUSH2 0x1D49 JUMP JUMPDEST PUSH1 0x40 MLOAD DUP1 SWAP2 SUB SWAP1 RETURN JUMPDEST PUSH1 0x0 PUSH2 0xD0 PUSH2 0x1A08 JUMP JUMPDEST PUSH1 0x1 DUP2 PUSH1 0x60 ADD SWAP1 PUSH1 0x2 DUP2 GT ISZERO PUSH2 0xE9 JUMPI PUSH2 0xE8 PUSH2 0x1FDF JUMP JUMPDEST JUMPDEST SWAP1 DUP2 PUSH1 0x2 DUP2 GT ISZERO PUSH2 0xFD JUMPI PUSH2 0xFC PUSH2 0x1FDF JUMP JUMPDEST JUMPDEST DUP2 MSTORE POP POP PUSH1 0x1 PUSH1 0x0 DUP2 SLOAD DUP1 SWAP3 SWAP2 SWAP1 PUSH2 0x114 SWAP1 PUSH2 0x1F3D JUMP JUMPDEST SWAP2 SWAP1 POP SSTORE POP DUP1 PUSH1 0x0 DUP1 PUSH1 0x1 SLOAD DUP2 MSTORE PUSH1 0x20 ADD SWAP1 DUP2 MSTORE PUSH1 0x20 ADD PUSH1 0x0 KECCAK256 PUSH1 0x0 DUP3 ADD MLOAD DUP2 PUSH1 0x0 ADD PUSH1 0x0 PUSH2 0x100 EXP DUP2 SLOAD DUP2 PUSH20 0xFFFFFFFFFFFFFFFFFFFFFFFFFFFFFFFFFFFFFFFF MUL NOT AND SWAP1 DUP4 PUSH20 0xFFFFFFFFFFFFFFFFFFFFFFFFFFFFFFFFFFFFFFFF AND MUL OR SWAP1 SSTORE POP PUSH1 0x20 DUP3 ADD MLOAD DUP2 PUSH1 0x1 ADD PUSH1 0x0 PUSH2 0x100 EXP DUP2 SLOAD DUP2 PUSH20 0xFFFFFFFFFFFFFFFFFFFFFFFFFFFFFFFFFFFFFFFF MUL NOT AND SWAP1 DUP4 PUSH20 0xFFFFFFFFFFFFFFFFFFFFFFFFFFFFFFFFFFFFFFFF AND MUL OR SWAP1 SSTORE POP PUSH1 0x40 DUP3 ADD MLOAD DUP2 PUSH1 0x1 ADD PUSH1 0x14 PUSH2 0x100 EXP DUP2 SLOAD DUP2 PUSH1 0xFF MUL NOT AND SWAP1 DUP4 PUSH1 0x3 DUP2 GT ISZERO PUSH2 0x1E7 JUMPI PUSH2 0x1E6 PUSH2 0x1FDF JUMP JUMPDEST JUMPDEST MUL OR SWAP1 SSTORE POP PUSH1 0x60 DUP3 ADD MLOAD DUP2 PUSH1 0x1 ADD PUSH1 0x15 PUSH2 0x100 EXP DUP2 SLOAD DUP2 PUSH1 0xFF MUL NOT AND SWAP1 DUP4 PUSH1 0x2 DUP2 GT ISZERO PUSH2 0x217 JUMPI PUSH2 0x216 PUSH2 0x1FDF JUMP JUMPDEST JUMPDEST MUL OR SWAP1 SSTORE POP PUSH1 0x80 DUP3 ADD MLOAD DUP2 PUSH1 0x2 ADD SWAP1 PUSH1 0x3 PUSH2 0x233 SWAP3 SWAP2 SWAP1 PUSH2 0x1A8D JUMP JUMPDEST POP SWAP1 POP POP PUSH32 0xC3E0F84839DC888C892A013D10C8F9D6DC05A21A879D0CE468CA558013E9121C PUSH1 0x1 SLOAD CALLER PUSH1 0x40 MLOAD PUSH2 0x26A SWAP3 SWAP2 SWAP1 PUSH2 0x1D94 JUMP JUMPDEST PUSH1 0x40 MLOAD DUP1 SWAP2 SUB SWAP1 LOG1 PUSH1 0x1 SLOAD SWAP2 POP POP SWAP1 JUMP JUMPDEST PUSH1 0x0 PUSH1 0x60 PUSH1 0x1 SLOAD DUP6 GT DUP1 PUSH2 0x35D JUMPI POP PUSH1 0x0 PUSH20 0xFFFFFFFFFFFFFFFFFFFFFFFFFFFFFFFFFFFFFFFF AND PUSH1 0x0 DUP1 DUP8 DUP2 MSTORE PUSH1 0x20 ADD SWAP1 DUP2 MSTORE PUSH1 0x20 ADD PUSH1 0x0 KECCAK256 PUSH1 0x0 ADD PUSH1 0x0 SWAP1 SLOAD SWAP1 PUSH2 0x100 EXP SWAP1 DIV PUSH20 0xFFFFFFFFFFFFFFFFFFFFFFFFFFFFFFFFFFFFFFFF AND PUSH20 0xFFFFFFFFFFFFFFFFFFFFFFFFFFFFFFFFFFFFFFFF AND EQ DUP1 ISZERO PUSH2 0x35C JUMPI POP PUSH1 0x0 PUSH20 0xFFFFFFFFFFFFFFFFFFFFFFFFFFFFFFFFFFFFFFFF AND PUSH1 0x0 DUP1 DUP8 DUP2 MSTORE PUSH1 0x20 ADD SWAP1 DUP2 MSTORE PUSH1 0x20 ADD PUSH1 0x0 KECCAK256 PUSH1 0x1 ADD PUSH1 0x0 SWAP1 SLOAD SWAP1 PUSH2 0x100 EXP SWAP1 DIV PUSH20 0xFFFFFFFFFFFFFFFFFFFFFFFFFFFFFFFFFFFFFFFF AND PUSH20 0xFFFFFFFFFFFFFFFFFFFFFFFFFFFFFFFFFFFFFFFF AND EQ JUMPDEST JUMPDEST ISZERO PUSH2 0x3A3 JUMPI PUSH1 0x0 PUSH1 0x40 MLOAD DUP1 PUSH1 0x40 ADD PUSH1 0x40 MSTORE DUP1 PUSH1 0x14 DUP2 MSTORE PUSH1 0x20 ADD PUSH32 0x4E6F20737563682067616D65206578697374732E000000000000000000000000 DUP2 MSTORE POP SWAP2 POP SWAP2 POP PUSH2 0xA9B JUMP JUMPDEST PUSH1 0x0 DUP5 PUSH1 0xFF AND LT DUP1 PUSH2 0x3B8 JUMPI POP PUSH1 0x2 DUP5 PUSH1 0xFF AND GT JUMPDEST ISZERO PUSH2 0x3FE JUMPI PUSH1 0x0 PUSH1 0x40 MLOAD DUP1 PUSH1 0x40 ADD PUSH1 0x40 MSTORE DUP1 PUSH1 0x1F DUP2 MSTORE PUSH1 0x20 ADD PUSH32 0x496E76616C696420696E70757420666F7220782D636F6F7264696E6174652E00 DUP2 MSTORE POP SWAP2 POP SWAP2 POP PUSH2 0xA9B JUMP JUMPDEST PUSH1 0x0 DUP4 PUSH1 0xFF AND LT DUP1 PUSH2 0x413 JUMPI POP PUSH1 0x2 DUP4 PUSH1 0xFF AND GT JUMPDEST ISZERO PUSH2 0x459 JUMPI PUSH1 0x0 PUSH1 0x40 MLOAD DUP1 PUSH1 0x40 ADD PUSH1 0x40 MSTORE DUP1 PUSH1 0x1F DUP2 MSTORE PUSH1 0x20 ADD PUSH32 0x496E76616C696420696E70757420666F7220792D636F6F7264696E6174652E00 DUP2 MSTORE POP SWAP2 POP SWAP2 POP PUSH2 0xA9B JUMP JUMPDEST PUSH1 0x0 PUSH20 0xFFFFFFFFFFFFFFFFFFFFFFFFFFFFFFFFFFFFFFFF AND PUSH1 0x0 DUP1 DUP8 DUP2 MSTORE PUSH1 0x20 ADD SWAP1 DUP2 MSTORE PUSH1 0x20 ADD PUSH1 0x0 KECCAK256 PUSH1 0x0 ADD PUSH1 0x0 SWAP1 SLOAD SWAP1 PUSH2 0x100 EXP SWAP1 DIV PUSH20 0xFFFFFFFFFFFFFFFFFFFFFFFFFFFFFFFFFFFFFFFF AND PUSH20 0xFFFFFFFFFFFFFFFFFFFFFFFFFFFFFFFFFFFFFFFF AND EQ DUP1 PUSH2 0x52A JUMPI POP PUSH1 0x0 PUSH20 0xFFFFFFFFFFFFFFFFFFFFFFFFFFFFFFFFFFFFFFFF AND PUSH1 0x0 DUP1 DUP8 DUP2 MSTORE PUSH1 0x20 ADD SWAP1 DUP2 MSTORE PUSH1 0x20 ADD PUSH1 0x0 KECCAK256 PUSH1 0x1 ADD PUSH1 0x0 SWAP1 SLOAD SWAP1 PUSH2 0x100 EXP SWAP1 DIV PUSH20 0xFFFFFFFFFFFFFFFFFFFFFFFFFFFFFFFFFFFFFFFF AND PUSH20 0xFFFFFFFFFFFFFFFFFFFFFFFFFFFFFFFFFFFFFFFF AND EQ JUMPDEST ISZERO PUSH2 0x553 JUMPI PUSH1 0x0 PUSH1 0x40 MLOAD DUP1 PUSH1 0x60 ADD PUSH1 0x40 MSTORE DUP1 PUSH1 0x27 DUP2 MSTORE PUSH1 0x20 ADD PUSH2 0x21A2 PUSH1 0x27 SWAP2 CODECOPY SWAP2 POP SWAP2 POP PUSH2 0xA9B JUMP JUMPDEST PUSH1 0x0 DUP1 PUSH1 0x0 DUP8 DUP2 MSTORE PUSH1 0x20 ADD SWAP1 DUP2 MSTORE PUSH1 0x20 ADD PUSH1 0x0 KECCAK256 PUSH1 0x40 MLOAD DUP1 PUSH1 0xA0 ADD PUSH1 0x40 MSTORE SWAP1 DUP2 PUSH1 0x0 DUP3 ADD PUSH1 0x0 SWAP1 SLOAD SWAP1 PUSH2 0x100 EXP SWAP1 DIV PUSH20 0xFFFFFFFFFFFFFFFFFFFFFFFFFFFFFFFFFFFFFFFF AND PUSH20 0xFFFFFFFFFFFFFFFFFFFFFFFFFFFFFFFFFFFFFFFF AND PUSH20 0xFFFFFFFFFFFFFFFFFFFFFFFFFFFFFFFFFFFFFFFF AND DUP2 MSTORE PUSH1 0x20 ADD PUSH1 0x1 DUP3 ADD PUSH1 0x0 SWAP1 SLOAD SWAP1 PUSH2 0x100 EXP SWAP1 DIV PUSH20 0xFFFFFFFFFFFFFFFFFFFFFFFFFFFFFFFFFFFFFFFF AND PUSH20 0xFFFFFFFFFFFFFFFFFFFFFFFFFFFFFFFFFFFFFFFF AND PUSH20 0xFFFFFFFFFFFFFFFFFFFFFFFFFFFFFFFFFFFFFFFF AND DUP2 MSTORE PUSH1 0x20 ADD PUSH1 0x1 DUP3 ADD PUSH1 0x14 SWAP1 SLOAD SWAP1 PUSH2 0x100 EXP SWAP1 DIV PUSH1 0xFF AND PUSH1 0x3 DUP2 GT ISZERO PUSH2 0x643 JUMPI PUSH2 0x642 PUSH2 0x1FDF JUMP JUMPDEST JUMPDEST PUSH1 0x3 DUP2 GT ISZERO PUSH2 0x655 JUMPI PUSH2 0x654 PUSH2 0x1FDF JUMP JUMPDEST JUMPDEST DUP2 MSTORE PUSH1 0x20 ADD PUSH1 0x1 DUP3 ADD PUSH1 0x15 SWAP1 SLOAD SWAP1 PUSH2 0x100 EXP SWAP1 DIV PUSH1 0xFF AND PUSH1 0x2 DUP2 GT ISZERO PUSH2 0x67E JUMPI PUSH2 0x67D PUSH2 0x1FDF JUMP JUMPDEST JUMPDEST PUSH1 0x2 DUP2 GT ISZERO PUSH2 0x690 JUMPI PUSH2 0x68F PUSH2 0x1FDF JUMP JUMPDEST JUMPDEST DUP2 MSTORE PUSH1 0x20 ADD PUSH1 0x2 DUP3 ADD PUSH1 0x3 DUP1 PUSH1 0x20 MUL PUSH1 0x40 MLOAD SWAP1 DUP2 ADD PUSH1 0x40 MSTORE DUP1 SWAP3 SWAP2 SWAP1 PUSH1 0x0 SWAP1 JUMPDEST DUP3 DUP3 LT ISZERO PUSH2 0x72C JUMPI DUP4 DUP3 ADD PUSH1 0x3 DUP1 PUSH1 0x20 MUL PUSH1 0x40 MLOAD SWAP1 DUP2 ADD PUSH1 0x40 MSTORE DUP1 SWAP3 SWAP2 SWAP1 DUP3 PUSH1 0x3 DUP1 ISZERO PUSH2 0x718 JUMPI PUSH1 0x20 MUL DUP3 ADD SWAP2 PUSH1 0x0 SWAP1 JUMPDEST DUP3 DUP3 SWAP1 SLOAD SWAP1 PUSH2 0x100 EXP SWAP1 DIV PUSH1 0xFF AND PUSH1 0xFF AND DUP2 MSTORE PUSH1 0x20 ADD SWAP1 PUSH1 0x1 ADD SWAP1 PUSH1 0x20 DUP3 PUSH1 0x0 ADD DIV SWAP3 DUP4 ADD SWAP3 PUSH1 0x1 SUB DUP3 MUL SWAP2 POP DUP1 DUP5 GT PUSH2 0x6E1 JUMPI SWAP1 POP JUMPDEST POP POP POP POP POP DUP2 MSTORE PUSH1 0x20 ADD SWAP1 PUSH1 0x1 ADD SWAP1 PUSH2 0x6B0 JUMP JUMPDEST POP POP POP POP DUP2 MSTORE POP POP SWAP1 POP PUSH1 0x0 PUSH1 0x3 DUP2 GT ISZERO PUSH2 0x74A JUMPI PUSH2 0x749 PUSH2 0x1FDF JUMP JUMPDEST JUMPDEST DUP2 PUSH1 0x40 ADD MLOAD PUSH1 0x3 DUP2 GT ISZERO PUSH2 0x761 JUMPI PUSH2 0x760 PUSH2 0x1FDF JUMP JUMPDEST JUMPDEST EQ PUSH2 0x7A8 JUMPI PUSH1 0x0 PUSH1 0x40 MLOAD DUP1 PUSH1 0x40 ADD PUSH1 0x40 MSTORE DUP1 PUSH1 0x1B DUP2 MSTORE PUSH1 0x20 ADD PUSH32 0x5468652067616D652068617320616C726561647920656E6465642E0000000000 DUP2 MSTORE POP SWAP3 POP SWAP3 POP POP PUSH2 0xA9B JUMP JUMPDEST PUSH2 0x7B1 DUP2 PUSH2 0xF46 JUMP JUMPDEST PUSH20 0xFFFFFFFFFFFFFFFFFFFFFFFFFFFFFFFFFFFFFFFF AND CALLER PUSH20 0xFFFFFFFFFFFFFFFFFFFFFFFFFFFFFFFFFFFFFFFF AND EQ PUSH2 0x825 JUMPI PUSH1 0x0 PUSH1 0x40 MLOAD DUP1 PUSH1 0x40 ADD PUSH1 0x40 MSTORE DUP1 PUSH1 0x14 DUP2 MSTORE PUSH1 0x20 ADD PUSH32 0x4974206973206E6F7420796F7572207475726E2E000000000000000000000000 DUP2 MSTORE POP SWAP3 POP SWAP3 POP POP PUSH2 0xA9B JUMP JUMPDEST PUSH1 0x1 DUP2 PUSH1 0x80 ADD MLOAD DUP7 PUSH1 0xFF AND PUSH1 0x3 DUP2 LT PUSH2 0x841 JUMPI PUSH2 0x840 PUSH2 0x200E JUMP JUMPDEST JUMPDEST PUSH1 0x20 MUL ADD MLOAD DUP6 PUSH1 0xFF AND PUSH1 0x3 DUP2 LT PUSH2 0x85B JUMPI PUSH2 0x85A PUSH2 0x200E JUMP JUMPDEST JUMPDEST PUSH1 0x20 MUL ADD MLOAD PUSH1 0xFF AND EQ DUP1 PUSH2 0x8AA JUMPI POP PUSH1 0x2 DUP2 PUSH1 0x80 ADD MLOAD DUP7 PUSH1 0xFF AND PUSH1 0x3 DUP2 LT PUSH2 0x886 JUMPI PUSH2 0x885 PUSH2 0x200E JUMP JUMPDEST JUMPDEST PUSH1 0x20 MUL ADD MLOAD DUP6 PUSH1 0xFF AND PUSH1 0x3 DUP2 LT PUSH2 0x8A0 JUMPI PUSH2 0x89F PUSH2 0x200E JUMP JUMPDEST JUMPDEST PUSH1 0x20 MUL ADD MLOAD PUSH1 0xFF AND EQ JUMPDEST ISZERO PUSH2 0x8D4 JUMPI PUSH1 0x0 PUSH1 0x40 MLOAD DUP1 PUSH1 0x60 ADD PUSH1 0x40 MSTORE DUP1 PUSH1 0x31 DUP2 MSTORE PUSH1 0x20 ADD PUSH2 0x2096 PUSH1 0x31 SWAP2 CODECOPY SWAP3 POP SWAP3 POP POP PUSH2 0xA9B JUMP JUMPDEST PUSH1 0x1 PUSH1 0x2 DUP2 GT ISZERO PUSH2 0x8E8 JUMPI PUSH2 0x8E7 PUSH2 0x1FDF JUMP JUMPDEST JUMPDEST DUP2 PUSH1 0x60 ADD MLOAD PUSH1 0x2 DUP2 GT ISZERO PUSH2 0x8FF JUMPI PUSH2 0x8FE PUSH2 0x1FDF JUMP JUMPDEST JUMPDEST EQ PUSH2 0x90B JUMPI PUSH1 0x2 PUSH2 0x90E JUMP JUMPDEST PUSH1 0x1 JUMPDEST DUP2 PUSH1 0x80 ADD MLOAD DUP7 PUSH1 0xFF AND PUSH1 0x3 DUP2 LT PUSH2 0x928 JUMPI PUSH2 0x927 PUSH2 0x200E JUMP JUMPDEST JUMPDEST PUSH1 0x20 MUL ADD MLOAD DUP6 PUSH1 0xFF AND PUSH1 0x3 DUP2 LT PUSH2 0x942 JUMPI PUSH2 0x941 PUSH2 0x200E JUMP JUMPDEST JUMPDEST PUSH1 0x20 MUL ADD SWAP1 PUSH1 0xFF AND SWAP1 DUP2 PUSH1 0xFF AND DUP2 MSTORE POP POP PUSH32 0xAA03B0EB53C70F6640EBA4234AD2C58782C8927E7ABF7D3A6E2C45D07CA9D583 DUP7 CALLER DUP8 DUP8 PUSH1 0x40 MLOAD PUSH2 0x988 SWAP5 SWAP4 SWAP3 SWAP2 SWAP1 PUSH2 0x1DF4 JUMP JUMPDEST PUSH1 0x40 MLOAD DUP1 SWAP2 SUB SWAP1 LOG1 PUSH1 0x0 PUSH2 0x99F DUP3 PUSH1 0x80 ADD MLOAD PUSH2 0xFCB JUMP JUMPDEST SWAP1 POP PUSH1 0x0 PUSH1 0x3 DUP2 GT ISZERO PUSH2 0x9B5 JUMPI PUSH2 0x9B4 PUSH2 0x1FDF JUMP JUMPDEST JUMPDEST DUP2 PUSH1 0x3 DUP2 GT ISZERO PUSH2 0x9C8 JUMPI PUSH2 0x9C7 PUSH2 0x1FDF JUMP JUMPDEST JUMPDEST EQ PUSH2 0xA79 JUMPI DUP1 DUP3 PUSH1 0x40 ADD SWAP1 PUSH1 0x3 DUP2 GT ISZERO PUSH2 0x9E5 JUMPI PUSH2 0x9E4 PUSH2 0x1FDF JUMP JUMPDEST JUMPDEST SWAP1 DUP2 PUSH1 0x3 DUP2 GT ISZERO PUSH2 0x9F9 JUMPI PUSH2 0x9F8 PUSH2 0x1FDF JUMP JUMPDEST JUMPDEST DUP2 MSTORE POP POP PUSH32 0x132B564C6F96092065580FD28989D181DFBBFE4AA2FB7FB1EDA8AF68BA3073E0 DUP8 DUP3 PUSH1 0x40 MLOAD PUSH2 0xA2E SWAP3 SWAP2 SWAP1 PUSH2 0x1E39 JUMP JUMPDEST PUSH1 0x40 MLOAD DUP1 SWAP2 SUB SWAP1 LOG1 PUSH1 0x1 PUSH1 0x40 MLOAD DUP1 PUSH1 0x40 ADD PUSH1 0x40 MSTORE DUP1 PUSH1 0x11 DUP2 MSTORE PUSH1 0x20 ADD PUSH32 0x5468652067616D65206973206F7665722E000000000000000000000000000000 DUP2 MSTORE POP SWAP4 POP SWAP4 POP POP POP PUSH2 0xA9B JUMP JUMPDEST PUSH2 0xA82 DUP3 PUSH2 0x1159 JUMP JUMPDEST PUSH1 0x1 PUSH1 0x40 MLOAD DUP1 PUSH1 0x20 ADD PUSH1 0x40 MSTORE DUP1 PUSH1 0x0 DUP2 MSTORE POP SWAP4 POP SWAP4 POP POP POP JUMPDEST SWAP4 POP SWAP4 SWAP2 POP POP JUMP JUMPDEST PUSH1 0x0 PUSH1 0x60 PUSH1 0x1 SLOAD DUP4 GT ISZERO PUSH2 0xAF2 JUMPI PUSH1 0x0 PUSH1 0x40 MLOAD DUP1 PUSH1 0x40 ADD PUSH1 0x40 MSTORE DUP1 PUSH1 0x14 DUP2 MSTORE PUSH1 0x20 ADD PUSH32 0x4E6F20737563682067616D65206578697374732E000000000000000000000000 DUP2 MSTORE POP SWAP2 POP SWAP2 POP PUSH2 0xF41 JUMP JUMPDEST PUSH1 0x0 CALLER SWAP1 POP PUSH1 0x0 DUP1 PUSH1 0x0 DUP7 DUP2 MSTORE PUSH1 0x20 ADD SWAP1 DUP2 MSTORE PUSH1 0x20 ADD PUSH1 0x0 KECCAK256 SWAP1 POP PUSH1 0x0 PUSH1 0x3 DUP2 GT ISZERO PUSH2 0xB21 JUMPI PUSH2 0xB20 PUSH2 0x1FDF JUMP JUMPDEST JUMPDEST DUP2 PUSH1 0x1 ADD PUSH1 0x14 SWAP1 SLOAD SWAP1 PUSH2 0x100 EXP SWAP1 DIV PUSH1 0xFF AND PUSH1 0x3 DUP2 GT ISZERO PUSH2 0xB45 JUMPI PUSH2 0xB44 PUSH2 0x1FDF JUMP JUMPDEST JUMPDEST EQ PUSH2 0xB8D JUMPI PUSH1 0x0 PUSH1 0x40 MLOAD DUP1 PUSH1 0x40 ADD PUSH1 0x40 MSTORE DUP1 PUSH1 0x1E DUP2 MSTORE PUSH1 0x20 ADD PUSH32 0x546869732067616D6520697320616C726561647920636F6D706C6574652E0000 DUP2 MSTORE POP SWAP4 POP SWAP4 POP POP POP PUSH2 0xF41 JUMP JUMPDEST PUSH1 0x0 PUSH20 0xFFFFFFFFFFFFFFFFFFFFFFFFFFFFFFFFFFFFFFFF AND DUP2 PUSH1 0x0 ADD PUSH1 0x0 SWAP1 SLOAD SWAP1 PUSH2 0x100 EXP SWAP1 DIV PUSH20 0xFFFFFFFFFFFFFFFFFFFFFFFFFFFFFFFFFFFFFFFF AND PUSH20 0xFFFFFFFFFFFFFFFFFFFFFFFFFFFFFFFFFFFFFFFF AND EQ ISZERO PUSH2 0xD48 JUMPI DUP2 DUP2 PUSH1 0x0 ADD PUSH1 0x0 PUSH2 0x100 EXP DUP2 SLOAD DUP2 PUSH20 0xFFFFFFFFFFFFFFFFFFFFFFFFFFFFFFFFFFFFFFFF MUL NOT AND SWAP1 DUP4 PUSH20 0xFFFFFFFFFFFFFFFFFFFFFFFFFFFFFFFFFFFFFFFF AND MUL OR SWAP1 SSTORE POP PUSH32 0x8F5866C09E99941481E2BE79D3A7698371543FE3AD3387B903553FD6043E8550 DUP6 DUP4 PUSH1 0x1 PUSH1 0x2 DUP2 GT ISZERO PUSH2 0xC60 JUMPI PUSH2 0xC5F PUSH2 0x1FDF JUMP JUMPDEST JUMPDEST PUSH1 0x40 MLOAD PUSH2 0xC6F SWAP4 SWAP3 SWAP2 SWAP1 PUSH2 0x1DBD JUMP JUMPDEST PUSH1 0x40 MLOAD DUP1 SWAP2 SUB SWAP1 LOG1 PUSH1 0x0 PUSH20 0xFFFFFFFFFFFFFFFFFFFFFFFFFFFFFFFFFFFFFFFF AND DUP2 PUSH1 0x1 ADD PUSH1 0x0 SWAP1 SLOAD SWAP1 PUSH2 0x100 EXP SWAP1 DIV PUSH20 0xFFFFFFFFFFFFFFFFFFFFFFFFFFFFFFFFFFFFFFFF AND PUSH20 0xFFFFFFFFFFFFFFFFFFFFFFFFFFFFFFFFFFFFFFFF AND EQ PUSH2 0xD22 JUMPI PUSH1 0x1 DUP2 PUSH1 0x1 ADD PUSH1 0x15 PUSH2 0x100 EXP DUP2 SLOAD DUP2 PUSH1 0xFF MUL NOT AND SWAP1 DUP4 PUSH1 0x2 DUP2 GT ISZERO PUSH2 0xCF7 JUMPI PUSH2 0xCF6 PUSH2 0x1FDF JUMP JUMPDEST JUMPDEST MUL OR SWAP1 SSTORE POP PUSH1 0x1 PUSH1 0x40 MLOAD DUP1 PUSH1 0x80 ADD PUSH1 0x40 MSTORE DUP1 PUSH1 0x4E DUP2 MSTORE PUSH1 0x20 ADD PUSH2 0x20F3 PUSH1 0x4E SWAP2 CODECOPY SWAP4 POP SWAP4 POP POP POP PUSH2 0xF41 JUMP JUMPDEST PUSH1 0x1 PUSH1 0x40 MLOAD DUP1 PUSH1 0x60 ADD PUSH1 0x40 MSTORE DUP1 PUSH1 0x2C DUP2 MSTORE PUSH1 0x20 ADD PUSH2 0x20C7 PUSH1 0x2C SWAP2 CODECOPY SWAP4 POP SWAP4 POP POP POP PUSH2 0xF41 JUMP JUMPDEST PUSH1 0x0 PUSH20 0xFFFFFFFFFFFFFFFFFFFFFFFFFFFFFFFFFFFFFFFF AND DUP2 PUSH1 0x1 ADD PUSH1 0x0 SWAP1 SLOAD SWAP1 PUSH2 0x100 EXP SWAP1 DIV PUSH20 0xFFFFFFFFFFFFFFFFFFFFFFFFFFFFFFFFFFFFFFFF AND PUSH20 0xFFFFFFFFFFFFFFFFFFFFFFFFFFFFFFFFFFFFFFFF AND EQ ISZERO PUSH2 0xF02 JUMPI DUP2 DUP2 PUSH1 0x1 ADD PUSH1 0x0 PUSH2 0x100 EXP DUP2 SLOAD DUP2 PUSH20 0xFFFFFFFFFFFFFFFFFFFFFFFFFFFFFFFFFFFFFFFF MUL NOT AND SWAP1 DUP4 PUSH20 0xFFFFFFFFFFFFFFFFFFFFFFFFFFFFFFFFFFFFFFFF AND MUL OR SWAP1 SSTORE POP PUSH32 0x8F5866C09E99941481E2BE79D3A7698371543FE3AD3387B903553FD6043E8550 DUP6 DUP4 PUSH1 0x2 DUP1 DUP2 GT ISZERO PUSH2 0xE1A JUMPI PUSH2 0xE19 PUSH2 0x1FDF JUMP JUMPDEST JUMPDEST PUSH1 0x40 MLOAD PUSH2 0xE29 SWAP4 SWAP3 SWAP2 SWAP1 PUSH2 0x1DBD JUMP JUMPDEST PUSH1 0x40 MLOAD DUP1 SWAP2 SUB SWAP1 LOG1 PUSH1 0x0 PUSH20 0xFFFFFFFFFFFFFFFFFFFFFFFFFFFFFFFFFFFFFFFF AND DUP2 PUSH1 0x0 ADD PUSH1 0x0 SWAP1 SLOAD SWAP1 PUSH2 0x100 EXP SWAP1 DIV PUSH20 0xFFFFFFFFFFFFFFFFFFFFFFFFFFFFFFFFFFFFFFFF AND PUSH20 0xFFFFFFFFFFFFFFFFFFFFFFFFFFFFFFFFFFFFFFFF AND EQ PUSH2 0xEDC JUMPI PUSH1 0x1 DUP2 PUSH1 0x1 ADD PUSH1 0x15 PUSH2 0x100 EXP DUP2 SLOAD DUP2 PUSH1 0xFF MUL NOT AND SWAP1 DUP4 PUSH1 0x2 DUP2 GT ISZERO PUSH2 0xEB1 JUMPI PUSH2 0xEB0 PUSH2 0x1FDF JUMP JUMPDEST JUMPDEST MUL OR SWAP1 SSTORE POP PUSH1 0x1 PUSH1 0x40 MLOAD DUP1 PUSH1 0x60 ADD PUSH1 0x40 MSTORE DUP1 PUSH1 0x35 DUP2 MSTORE PUSH1 0x20 ADD PUSH2 0x2141 PUSH1 0x35 SWAP2 CODECOPY SWAP4 POP SWAP4 POP POP POP PUSH2 0xF41 JUMP JUMPDEST PUSH1 0x1 PUSH1 0x40 MLOAD DUP1 PUSH1 0x60 ADD PUSH1 0x40 MSTORE DUP1 PUSH1 0x2C DUP2 MSTORE PUSH1 0x20 ADD PUSH2 0x2176 PUSH1 0x2C SWAP2 CODECOPY SWAP4 POP SWAP4 POP POP POP PUSH2 0xF41 JUMP JUMPDEST PUSH1 0x0 PUSH1 0x40 MLOAD DUP1 PUSH1 0x40 ADD PUSH1 0x40 MSTORE DUP1 PUSH1 0x20 DUP2 MSTORE PUSH1 0x20 ADD PUSH32 0x546869732067616D6520616C726561647920686173203220706C61796572732E DUP2 MSTORE POP SWAP4 POP SWAP4 POP POP POP JUMPDEST SWAP2 POP SWAP2 JUMP JUMPDEST PUSH1 0x0 PUSH1 0x1 PUSH1 0x2 DUP2 GT ISZERO PUSH2 0xF5C JUMPI PUSH2 0xF5B PUSH2 0x1FDF JUMP JUMPDEST JUMPDEST DUP3 PUSH1 0x60 ADD MLOAD PUSH1 0x2 DUP2 GT ISZERO PUSH2 0xF73 JUMPI PUSH2 0xF72 PUSH2 0x1FDF JUMP JUMPDEST JUMPDEST EQ ISZERO PUSH2 0xF85 JUMPI DUP2 PUSH1 0x0 ADD MLOAD SWAP1 POP PUSH2 0xFC6 JUMP JUMPDEST PUSH1 0x2 DUP1 DUP2 GT ISZERO PUSH2 0xF98 JUMPI PUSH2 0xF97 PUSH2 0x1FDF JUMP JUMPDEST JUMPDEST DUP3 PUSH1 0x60 ADD MLOAD PUSH1 0x2 DUP2 GT ISZERO PUSH2 0xFAF JUMPI PUSH2 0xFAE PUSH2 0x1FDF JUMP JUMPDEST JUMPDEST EQ ISZERO PUSH2 0xFC1 JUMPI DUP2 PUSH1 0x20 ADD MLOAD SWAP1 POP PUSH2 0xFC6 JUMP JUMPDEST PUSH1 0x0 SWAP1 POP JUMPDEST SWAP2 SWAP1 POP JUMP JUMPDEST PUSH1 0x0 DUP1 PUSH2 0xFD7 DUP4 PUSH2 0x11F5 JUMP JUMPDEST SWAP1 POP PUSH1 0x1 PUSH1 0x2 DUP2 GT ISZERO PUSH2 0xFED JUMPI PUSH2 0xFEC PUSH2 0x1FDF JUMP JUMPDEST JUMPDEST DUP2 PUSH1 0x2 DUP2 GT ISZERO PUSH2 0x1000 JUMPI PUSH2 0xFFF PUSH2 0x1FDF JUMP JUMPDEST JUMPDEST EQ ISZERO PUSH2 0x1010 JUMPI PUSH1 0x1 SWAP2 POP POP PUSH2 0x1154 JUMP JUMPDEST PUSH1 0x2 DUP1 DUP2 GT ISZERO PUSH2 0x1023 JUMPI PUSH2 0x1022 PUSH2 0x1FDF JUMP JUMPDEST JUMPDEST DUP2 PUSH1 0x2 DUP2 GT ISZERO PUSH2 0x1036 JUMPI PUSH2 0x1035 PUSH2 0x1FDF JUMP JUMPDEST JUMPDEST EQ ISZERO PUSH2 0x1046 JUMPI PUSH1 0x2 SWAP2 POP POP PUSH2 0x1154 JUMP JUMPDEST PUSH2 0x104F DUP4 PUSH2 0x13DE JUMP JUMPDEST SWAP1 POP PUSH1 0x1 PUSH1 0x2 DUP2 GT ISZERO PUSH2 0x1065 JUMPI PUSH2 0x1064 PUSH2 0x1FDF JUMP JUMPDEST JUMPDEST DUP2 PUSH1 0x2 DUP2 GT ISZERO PUSH2 0x1078 JUMPI PUSH2 0x1077 PUSH2 0x1FDF JUMP JUMPDEST JUMPDEST EQ ISZERO PUSH2 0x1088 JUMPI PUSH1 0x1 SWAP2 POP POP PUSH2 0x1154 JUMP JUMPDEST PUSH1 0x2 DUP1 DUP2 GT ISZERO PUSH2 0x109B JUMPI PUSH2 0x109A PUSH2 0x1FDF JUMP JUMPDEST JUMPDEST DUP2 PUSH1 0x2 DUP2 GT ISZERO PUSH2 0x10AE JUMPI PUSH2 0x10AD PUSH2 0x1FDF JUMP JUMPDEST JUMPDEST EQ ISZERO PUSH2 0x10BE JUMPI PUSH1 0x2 SWAP2 POP POP PUSH2 0x1154 JUMP JUMPDEST PUSH2 0x10C7 DUP4 PUSH2 0x15C7 JUMP JUMPDEST SWAP1 POP PUSH1 0x1 PUSH1 0x2 DUP2 GT ISZERO PUSH2 0x10DD JUMPI PUSH2 0x10DC PUSH2 0x1FDF JUMP JUMPDEST JUMPDEST DUP2 PUSH1 0x2 DUP2 GT ISZERO PUSH2 0x10F0 JUMPI PUSH2 0x10EF PUSH2 0x1FDF JUMP JUMPDEST JUMPDEST EQ ISZERO PUSH2 0x1100 JUMPI PUSH1 0x1 SWAP2 POP POP PUSH2 0x1154 JUMP JUMPDEST PUSH1 0x2 DUP1 DUP2 GT ISZERO PUSH2 0x1113 JUMPI PUSH2 0x1112 PUSH2 0x1FDF JUMP JUMPDEST JUMPDEST DUP2 PUSH1 0x2 DUP2 GT ISZERO PUSH2 0x1126 JUMPI PUSH2 0x1125 PUSH2 0x1FDF JUMP JUMPDEST JUMPDEST EQ ISZERO PUSH2 0x1136 JUMPI PUSH1 0x2 SWAP2 POP POP PUSH2 0x1154 JUMP JUMPDEST PUSH2 0x113F DUP4 PUSH2 0x1923 JUMP JUMPDEST ISZERO PUSH2 0x114E JUMPI PUSH1 0x3 SWAP2 POP POP PUSH2 0x1154 JUMP JUMPDEST PUSH1 0x0 SWAP2 POP POP JUMPDEST SWAP2 SWAP1 POP JUMP JUMPDEST PUSH1 0x1 PUSH1 0x2 DUP2 GT ISZERO PUSH2 0x116D JUMPI PUSH2 0x116C PUSH2 0x1FDF JUMP JUMPDEST JUMPDEST DUP2 PUSH1 0x60 ADD MLOAD PUSH1 0x2 DUP2 GT ISZERO PUSH2 0x1184 JUMPI PUSH2 0x1183 PUSH2 0x1FDF JUMP JUMPDEST JUMPDEST EQ ISZERO PUSH2 0x11C0 JUMPI PUSH1 0x2 DUP2 PUSH1 0x60 ADD SWAP1 PUSH1 0x2 DUP2 GT ISZERO PUSH2 0x11A3 JUMPI PUSH2 0x11A2 PUSH2 0x1FDF JUMP JUMPDEST JUMPDEST SWAP1 DUP2 PUSH1 0x2 DUP2 GT ISZERO PUSH2 0x11B7 JUMPI PUSH2 0x11B6 PUSH2 0x1FDF JUMP JUMPDEST JUMPDEST DUP2 MSTORE POP POP PUSH2 0x11F2 JUMP JUMPDEST PUSH1 0x1 DUP2 PUSH1 0x60 ADD SWAP1 PUSH1 0x2 DUP2 GT ISZERO PUSH2 0x11D9 JUMPI PUSH2 0x11D8 PUSH2 0x1FDF JUMP JUMPDEST JUMPDEST SWAP1 DUP2 PUSH1 0x2 DUP2 GT ISZERO PUSH2 0x11ED JUMPI PUSH2 0x11EC PUSH2 0x1FDF JUMP JUMPDEST JUMPDEST DUP2 MSTORE POP POP JUMPDEST POP JUMP JUMPDEST PUSH1 0x0 DUP1 PUSH1 0x0 SWAP1 POP JUMPDEST PUSH1 0x3 DUP2 PUSH1 0xFF AND LT ISZERO PUSH2 0x13D3 JUMPI PUSH1 0x1 DUP4 DUP3 PUSH1 0xFF AND PUSH1 0x3 DUP2 LT PUSH2 0x1221 JUMPI PUSH2 0x1220 PUSH2 0x200E JUMP JUMPDEST JUMPDEST PUSH1 0x20 MUL ADD MLOAD PUSH1 0x0 PUSH1 0x3 DUP2 LT PUSH2 0x1239 JUMPI PUSH2 0x1238 PUSH2 0x200E JUMP JUMPDEST JUMPDEST PUSH1 0x20 MUL ADD MLOAD PUSH1 0xFF AND EQ DUP1 PUSH2 0x1282 JUMPI POP PUSH1 0x2 DUP4 DUP3 PUSH1 0xFF AND PUSH1 0x3 DUP2 LT PUSH2 0x1260 JUMPI PUSH2 0x125F PUSH2 0x200E JUMP JUMPDEST JUMPDEST PUSH1 0x20 MUL ADD MLOAD PUSH1 0x0 PUSH1 0x3 DUP2 LT PUSH2 0x1278 JUMPI PUSH2 0x1277 PUSH2 0x200E JUMP JUMPDEST JUMPDEST PUSH1 0x20 MUL ADD MLOAD PUSH1 0xFF AND EQ JUMPDEST DUP1 ISZERO PUSH2 0x12F7 JUMPI POP DUP3 DUP2 PUSH1 0xFF AND PUSH1 0x3 DUP2 LT PUSH2 0x129F JUMPI PUSH2 0x129E PUSH2 0x200E JUMP JUMPDEST JUMPDEST PUSH1 0x20 MUL ADD MLOAD PUSH1 0x1 PUSH1 0x3 DUP2 LT PUSH2 0x12B7 JUMPI PUSH2 0x12B6 PUSH2 0x200E JUMP JUMPDEST JUMPDEST PUSH1 0x20 MUL ADD MLOAD PUSH1 0xFF AND DUP4 DUP3 PUSH1 0xFF AND PUSH1 0x3 DUP2 LT PUSH2 0x12D5 JUMPI PUSH2 0x12D4 PUSH2 0x200E JUMP JUMPDEST JUMPDEST PUSH1 0x20 MUL ADD MLOAD PUSH1 0x0 PUSH1 0x3 DUP2 LT PUSH2 0x12ED JUMPI PUSH2 0x12EC PUSH2 0x200E JUMP JUMPDEST JUMPDEST PUSH1 0x20 MUL ADD MLOAD PUSH1 0xFF AND EQ JUMPDEST DUP1 ISZERO PUSH2 0x136C JUMPI POP DUP3 DUP2 PUSH1 0xFF AND PUSH1 0x3 DUP2 LT PUSH2 0x1314 JUMPI PUSH2 0x1313 PUSH2 0x200E JUMP JUMPDEST JUMPDEST PUSH1 0x20 MUL ADD MLOAD PUSH1 0x2 PUSH1 0x3 DUP2 LT PUSH2 0x132C JUMPI PUSH2 0x132B PUSH2 0x200E JUMP JUMPDEST JUMPDEST PUSH1 0x20 MUL ADD MLOAD PUSH1 0xFF AND DUP4 DUP3 PUSH1 0xFF AND PUSH1 0x3 DUP2 LT PUSH2 0x134A JUMPI PUSH2 0x1349 PUSH2 0x200E JUMP JUMPDEST JUMPDEST PUSH1 0x20 MUL ADD MLOAD PUSH1 0x1 PUSH1 0x3 DUP2 LT PUSH2 0x1362 JUMPI PUSH2 0x1361 PUSH2 0x200E JUMP JUMPDEST JUMPDEST PUSH1 0x20 MUL ADD MLOAD PUSH1 0xFF AND EQ JUMPDEST ISZERO PUSH2 0x13C0 JUMPI PUSH1 0x1 DUP4 DUP3 PUSH1 0xFF AND PUSH1 0x3 DUP2 LT PUSH2 0x1389 JUMPI PUSH2 0x1388 PUSH2 0x200E JUMP JUMPDEST JUMPDEST PUSH1 0x20 MUL ADD MLOAD PUSH1 0x0 PUSH1 0x3 DUP2 LT PUSH2 0x13A1 JUMPI PUSH2 0x13A0 PUSH2 0x200E JUMP JUMPDEST JUMPDEST PUSH1 0x20 MUL ADD MLOAD PUSH1 0xFF AND EQ PUSH2 0x13B5 JUMPI PUSH1 0x2 PUSH2 0x13B8 JUMP JUMPDEST PUSH1 0x1 JUMPDEST SWAP2 POP POP PUSH2 0x13D9 JUMP JUMPDEST DUP1 DUP1 PUSH2 0x13CB SWAP1 PUSH2 0x1F86 JUMP JUMPDEST SWAP2 POP POP PUSH2 0x11FD JUMP JUMPDEST POP PUSH1 0x0 SWAP1 POP JUMPDEST SWAP2 SWAP1 POP JUMP JUMPDEST PUSH1 0x0 DUP1 PUSH1 0x0 SWAP1 POP JUMPDEST PUSH1 0x3 DUP2 PUSH1 0xFF AND LT ISZERO PUSH2 0x15BC JUMPI PUSH1 0x1 DUP4 PUSH1 0x0 PUSH1 0x3 DUP2 LT PUSH2 0x1408 JUMPI PUSH2 0x1407 PUSH2 0x200E JUMP JUMPDEST JUMPDEST PUSH1 0x20 MUL ADD MLOAD DUP3 PUSH1 0xFF AND PUSH1 0x3 DUP2 LT PUSH2 0x1422 JUMPI PUSH2 0x1421 PUSH2 0x200E JUMP JUMPDEST JUMPDEST PUSH1 0x20 MUL ADD MLOAD PUSH1 0xFF AND EQ DUP1 PUSH2 0x146B JUMPI POP PUSH1 0x2 DUP4 PUSH1 0x0 PUSH1 0x3 DUP2 LT PUSH2 0x1447 JUMPI PUSH2 0x1446 PUSH2 0x200E JUMP JUMPDEST JUMPDEST PUSH1 0x20 MUL ADD MLOAD DUP3 PUSH1 0xFF AND PUSH1 0x3 DUP2 LT PUSH2 0x1461 JUMPI PUSH2 0x1460 PUSH2 0x200E JUMP JUMPDEST JUMPDEST PUSH1 0x20 MUL ADD MLOAD PUSH1 0xFF AND EQ JUMPDEST DUP1 ISZERO PUSH2 0x14E0 JUMPI POP DUP3 PUSH1 0x1 PUSH1 0x3 DUP2 LT PUSH2 0x1486 JUMPI PUSH2 0x1485 PUSH2 0x200E JUMP JUMPDEST JUMPDEST PUSH1 0x20 MUL ADD MLOAD DUP2 PUSH1 0xFF AND PUSH1 0x3 DUP2 LT PUSH2 0x14A0 JUMPI PUSH2 0x149F PUSH2 0x200E JUMP JUMPDEST JUMPDEST PUSH1 0x20 MUL ADD MLOAD PUSH1 0xFF AND DUP4 PUSH1 0x0 PUSH1 0x3 DUP2 LT PUSH2 0x14BC JUMPI PUSH2 0x14BB PUSH2 0x200E JUMP JUMPDEST JUMPDEST PUSH1 0x20 MUL ADD MLOAD DUP3 PUSH1 0xFF AND PUSH1 0x3 DUP2 LT PUSH2 0x14D6 JUMPI PUSH2 0x14D5 PUSH2 0x200E JUMP JUMPDEST JUMPDEST PUSH1 0x20 MUL ADD MLOAD PUSH1 0xFF AND EQ JUMPDEST DUP1 ISZERO PUSH2 0x1555 JUMPI POP DUP3 PUSH1 0x2 PUSH1 0x3 DUP2 LT PUSH2 0x14FB JUMPI PUSH2 0x14FA PUSH2 0x200E JUMP JUMPDEST JUMPDEST PUSH1 0x20 MUL ADD MLOAD DUP2 PUSH1 0xFF AND PUSH1 0x3 DUP2 LT PUSH2 0x1515 JUMPI PUSH2 0x1514 PUSH2 0x200E JUMP JUMPDEST JUMPDEST PUSH1 0x20 MUL ADD MLOAD PUSH1 0xFF AND DUP4 PUSH1 0x1 PUSH1 0x3 DUP2 LT PUSH2 0x1531 JUMPI PUSH2 0x1530 PUSH2 0x200E JUMP JUMPDEST JUMPDEST PUSH1 0x20 MUL ADD MLOAD DUP3 PUSH1 0xFF AND PUSH1 0x3 DUP2 LT PUSH2 0x154B JUMPI PUSH2 0x154A PUSH2 0x200E JUMP JUMPDEST JUMPDEST PUSH1 0x20 MUL ADD MLOAD PUSH1 0xFF AND EQ JUMPDEST ISZERO PUSH2 0x15A9 JUMPI PUSH1 0x1 DUP4 PUSH1 0x0 PUSH1 0x3 DUP2 LT PUSH2 0x1570 JUMPI PUSH2 0x156F PUSH2 0x200E JUMP JUMPDEST JUMPDEST PUSH1 0x20 MUL ADD MLOAD DUP3 PUSH1 0xFF AND PUSH1 0x3 DUP2 LT PUSH2 0x158A JUMPI PUSH2 0x1589 PUSH2 0x200E JUMP JUMPDEST JUMPDEST PUSH1 0x20 MUL ADD MLOAD PUSH1 0xFF AND EQ PUSH2 0x159E JUMPI PUSH1 0x2 PUSH2 0x15A1 JUMP JUMPDEST PUSH1 0x1 JUMPDEST SWAP2 POP POP PUSH2 0x15C2 JUMP JUMPDEST DUP1 DUP1 PUSH2 0x15B4 SWAP1 PUSH2 0x1F86 JUMP JUMPDEST SWAP2 POP POP PUSH2 0x13E6 JUMP JUMPDEST POP PUSH1 0x0 SWAP1 POP JUMPDEST SWAP2 SWAP1 POP JUMP JUMPDEST PUSH1 0x0 PUSH1 0x1 DUP3 PUSH1 0x0 PUSH1 0x3 DUP2 LT PUSH2 0x15DF JUMPI PUSH2 0x15DE PUSH2 0x200E JUMP JUMPDEST JUMPDEST PUSH1 0x20 MUL ADD MLOAD PUSH1 0x0 PUSH1 0x3 DUP2 LT PUSH2 0x15F7 JUMPI PUSH2 0x15F6 PUSH2 0x200E JUMP JUMPDEST JUMPDEST PUSH1 0x20 MUL ADD MLOAD PUSH1 0xFF AND EQ DUP1 PUSH2 0x163E JUMPI POP PUSH1 0x2 DUP3 PUSH1 0x0 PUSH1 0x3 DUP2 LT PUSH2 0x161C JUMPI PUSH2 0x161B PUSH2 0x200E JUMP JUMPDEST JUMPDEST PUSH1 0x20 MUL ADD MLOAD PUSH1 0x0 PUSH1 0x3 DUP2 LT PUSH2 0x1634 JUMPI PUSH2 0x1633 PUSH2 0x200E JUMP JUMPDEST JUMPDEST PUSH1 0x20 MUL ADD MLOAD PUSH1 0xFF AND EQ JUMPDEST DUP1 ISZERO PUSH2 0x16AF JUMPI POP DUP2 PUSH1 0x1 PUSH1 0x3 DUP2 LT PUSH2 0x1659 JUMPI PUSH2 0x1658 PUSH2 0x200E JUMP JUMPDEST JUMPDEST PUSH1 0x20 MUL ADD MLOAD PUSH1 0x1 PUSH1 0x3 DUP2 LT PUSH2 0x1671 JUMPI PUSH2 0x1670 PUSH2 0x200E JUMP JUMPDEST JUMPDEST PUSH1 0x20 MUL ADD MLOAD PUSH1 0xFF AND DUP3 PUSH1 0x0 PUSH1 0x3 DUP2 LT PUSH2 0x168D JUMPI PUSH2 0x168C PUSH2 0x200E JUMP JUMPDEST JUMPDEST PUSH1 0x20 MUL ADD MLOAD PUSH1 0x0 PUSH1 0x3 DUP2 LT PUSH2 0x16A5 JUMPI PUSH2 0x16A4 PUSH2 0x200E JUMP JUMPDEST JUMPDEST PUSH1 0x20 MUL ADD MLOAD PUSH1 0xFF AND EQ JUMPDEST DUP1 ISZERO PUSH2 0x1720 JUMPI POP DUP2 PUSH1 0x2 PUSH1 0x3 DUP2 LT PUSH2 0x16CA JUMPI PUSH2 0x16C9 PUSH2 0x200E JUMP JUMPDEST JUMPDEST PUSH1 0x20 MUL ADD MLOAD PUSH1 0x2 PUSH1 0x3 DUP2 LT PUSH2 0x16E2 JUMPI PUSH2 0x16E1 PUSH2 0x200E JUMP JUMPDEST JUMPDEST PUSH1 0x20 MUL ADD MLOAD PUSH1 0xFF AND DUP3 PUSH1 0x1 PUSH1 0x3 DUP2 LT PUSH2 0x16FE JUMPI PUSH2 0x16FD PUSH2 0x200E JUMP JUMPDEST JUMPDEST PUSH1 0x20 MUL ADD MLOAD PUSH1 0x1 PUSH1 0x3 DUP2 LT PUSH2 0x1716 JUMPI PUSH2 0x1715 PUSH2 0x200E JUMP JUMPDEST JUMPDEST PUSH1 0x20 MUL ADD MLOAD PUSH1 0xFF AND EQ JUMPDEST ISZERO PUSH2 0x1771 JUMPI PUSH1 0x1 DUP3 PUSH1 0x0 PUSH1 0x3 DUP2 LT PUSH2 0x173B JUMPI PUSH2 0x173A PUSH2 0x200E JUMP JUMPDEST JUMPDEST PUSH1 0x20 MUL ADD MLOAD PUSH1 0x0 PUSH1 0x3 DUP2 LT PUSH2 0x1753 JUMPI PUSH2 0x1752 PUSH2 0x200E JUMP JUMPDEST JUMPDEST PUSH1 0x20 MUL ADD MLOAD PUSH1 0xFF AND EQ PUSH2 0x1767 JUMPI PUSH1 0x2 PUSH2 0x176A JUMP JUMPDEST PUSH1 0x1 JUMPDEST SWAP1 POP PUSH2 0x191E JUMP JUMPDEST PUSH1 0x1 DUP3 PUSH1 0x0 PUSH1 0x3 DUP2 LT PUSH2 0x1787 JUMPI PUSH2 0x1786 PUSH2 0x200E JUMP JUMPDEST JUMPDEST PUSH1 0x20 MUL ADD MLOAD PUSH1 0x2 PUSH1 0x3 DUP2 LT PUSH2 0x179F JUMPI PUSH2 0x179E PUSH2 0x200E JUMP JUMPDEST JUMPDEST PUSH1 0x20 MUL ADD MLOAD PUSH1 0xFF AND EQ DUP1 PUSH2 0x17E6 JUMPI POP PUSH1 0x2 DUP3 PUSH1 0x0 PUSH1 0x3 DUP2 LT PUSH2 0x17C4 JUMPI PUSH2 0x17C3 PUSH2 0x200E JUMP JUMPDEST JUMPDEST PUSH1 0x20 MUL ADD MLOAD PUSH1 0x2 PUSH1 0x3 DUP2 LT PUSH2 0x17DC JUMPI PUSH2 0x17DB PUSH2 0x200E JUMP JUMPDEST JUMPDEST PUSH1 0x20 MUL ADD MLOAD PUSH1 0xFF AND EQ JUMPDEST DUP1 ISZERO PUSH2 0x1857 JUMPI POP DUP2 PUSH1 0x1 PUSH1 0x3 DUP2 LT PUSH2 0x1801 JUMPI PUSH2 0x1800 PUSH2 0x200E JUMP JUMPDEST JUMPDEST PUSH1 0x20 MUL ADD MLOAD PUSH1 0x1 PUSH1 0x3 DUP2 LT PUSH2 0x1819 JUMPI PUSH2 0x1818 PUSH2 0x200E JUMP JUMPDEST JUMPDEST PUSH1 0x20 MUL ADD MLOAD PUSH1 0xFF AND DUP3 PUSH1 0x0 PUSH1 0x3 DUP2 LT PUSH2 0x1835 JUMPI PUSH2 0x1834 PUSH2 0x200E JUMP JUMPDEST JUMPDEST PUSH1 0x20 MUL ADD MLOAD PUSH1 0x2 PUSH1 0x3 DUP2 LT PUSH2 0x184D JUMPI PUSH2 0x184C PUSH2 0x200E JUMP JUMPDEST JUMPDEST PUSH1 0x20 MUL ADD MLOAD PUSH1 0xFF AND EQ JUMPDEST DUP1 ISZERO PUSH2 0x18C8 JUMPI POP DUP2 PUSH1 0x2 PUSH1 0x3 DUP2 LT PUSH2 0x1872 JUMPI PUSH2 0x1871 PUSH2 0x200E JUMP JUMPDEST JUMPDEST PUSH1 0x20 MUL ADD MLOAD PUSH1 0x0 PUSH1 0x3 DUP2 LT PUSH2 0x188A JUMPI PUSH2 0x1889 PUSH2 0x200E JUMP JUMPDEST JUMPDEST PUSH1 0x20 MUL ADD MLOAD PUSH1 0xFF AND DUP3 PUSH1 0x1 PUSH1 0x3 DUP2 LT PUSH2 0x18A6 JUMPI PUSH2 0x18A5 PUSH2 0x200E JUMP JUMPDEST JUMPDEST PUSH1 0x20 MUL ADD MLOAD PUSH1 0x1 PUSH1 0x3 DUP2 LT PUSH2 0x18BE JUMPI PUSH2 0x18BD PUSH2 0x200E JUMP JUMPDEST JUMPDEST PUSH1 0x20 MUL ADD MLOAD PUSH1 0xFF AND EQ JUMPDEST ISZERO PUSH2 0x1919 JUMPI PUSH1 0x1 DUP3 PUSH1 0x0 PUSH1 0x3 DUP2 LT PUSH2 0x18E3 JUMPI PUSH2 0x18E2 PUSH2 0x200E JUMP JUMPDEST JUMPDEST PUSH1 0x20 MUL ADD MLOAD PUSH1 0x2 PUSH1 0x3 DUP2 LT PUSH2 0x18FB JUMPI PUSH2 0x18FA PUSH2 0x200E JUMP JUMPDEST JUMPDEST PUSH1 0x20 MUL ADD MLOAD PUSH1 0xFF AND EQ PUSH2 0x190F JUMPI PUSH1 0x2 PUSH2 0x1912 JUMP JUMPDEST PUSH1 0x1 JUMPDEST SWAP1 POP PUSH2 0x191E JUMP JUMPDEST PUSH1 0x0 SWAP1 POP JUMPDEST SWAP2 SWAP1 POP JUMP JUMPDEST PUSH1 0x0 DUP1 PUSH1 0x0 SWAP1 POP JUMPDEST PUSH1 0x3 DUP2 PUSH1 0xFF AND LT ISZERO PUSH2 0x19FD JUMPI PUSH1 0x0 JUMPDEST PUSH1 0x3 DUP2 PUSH1 0xFF AND LT ISZERO PUSH2 0x19E9 JUMPI PUSH1 0x1 DUP5 DUP4 PUSH1 0xFF AND PUSH1 0x3 DUP2 LT PUSH2 0x195E JUMPI PUSH2 0x195D PUSH2 0x200E JUMP JUMPDEST JUMPDEST PUSH1 0x20 MUL ADD MLOAD DUP3 PUSH1 0xFF AND PUSH1 0x3 DUP2 LT PUSH2 0x1978 JUMPI PUSH2 0x1977 PUSH2 0x200E JUMP JUMPDEST JUMPDEST PUSH1 0x20 MUL ADD MLOAD PUSH1 0xFF AND EQ ISZERO DUP1 ISZERO PUSH2 0x19C6 JUMPI POP PUSH1 0x2 DUP5 DUP4 PUSH1 0xFF AND PUSH1 0x3 DUP2 LT PUSH2 0x19A1 JUMPI PUSH2 0x19A0 PUSH2 0x200E JUMP JUMPDEST JUMPDEST PUSH1 0x20 MUL ADD MLOAD DUP3 PUSH1 0xFF AND PUSH1 0x3 DUP2 LT PUSH2 0x19BB JUMPI PUSH2 0x19BA PUSH2 0x200E JUMP JUMPDEST JUMPDEST PUSH1 0x20 MUL ADD MLOAD PUSH1 0xFF AND EQ ISZERO JUMPDEST ISZERO PUSH2 0x19D6 JUMPI PUSH1 0x0 SWAP3 POP POP POP PUSH2 0x1A03 JUMP JUMPDEST DUP1 DUP1 PUSH2 0x19E1 SWAP1 PUSH2 0x1F86 JUMP JUMPDEST SWAP2 POP POP PUSH2 0x193A JUMP JUMPDEST POP DUP1 DUP1 PUSH2 0x19F5 SWAP1 PUSH2 0x1F86 JUMP JUMPDEST SWAP2 POP POP PUSH2 0x192B JUMP JUMPDEST POP PUSH1 0x1 SWAP1 POP JUMPDEST SWAP2 SWAP1 POP JUMP JUMPDEST PUSH1 0x40 MLOAD DUP1 PUSH1 0xA0 ADD PUSH1 0x40 MSTORE DUP1 PUSH1 0x0 PUSH20 0xFFFFFFFFFFFFFFFFFFFFFFFFFFFFFFFFFFFFFFFF AND DUP2 MSTORE PUSH1 0x20 ADD PUSH1 0x0 PUSH20 0xFFFFFFFFFFFFFFFFFFFFFFFFFFFFFFFFFFFFFFFF AND DUP2 MSTORE PUSH1 0x20 ADD PUSH1 0x0 PUSH1 0x3 DUP2 GT ISZERO PUSH2 0x1A61 JUMPI PUSH2 0x1A60 PUSH2 0x1FDF JUMP JUMPDEST JUMPDEST DUP2 MSTORE PUSH1 0x20 ADD PUSH1 0x0 PUSH1 0x2 DUP2 GT ISZERO PUSH2 0x1A7A JUMPI PUSH2 0x1A79 PUSH2 0x1FDF JUMP JUMPDEST JUMPDEST DUP2 MSTORE PUSH1 0x20 ADD PUSH2 0x1A87 PUSH2 0x1ADB JUMP JUMPDEST DUP2 MSTORE POP SWAP1 JUMP JUMPDEST DUP3 PUSH1 0x3 DUP2 ADD SWAP3 DUP3 ISZERO PUSH2 0x1ACA JUMPI SWAP2 PUSH1 0x20 MUL DUP3 ADD JUMPDEST DUP3 DUP2 GT ISZERO PUSH2 0x1AC9 JUMPI DUP3 MLOAD DUP3 SWAP1 PUSH1 0x3 PUSH2 0x1AB9 SWAP3 SWAP2 SWAP1 PUSH2 0x1B08 JUMP JUMPDEST POP SWAP2 PUSH1 0x20 ADD SWAP2 SWAP1 PUSH1 0x1 ADD SWAP1 PUSH2 0x1AA0 JUMP JUMPDEST JUMPDEST POP SWAP1 POP PUSH2 0x1AD7 SWAP2 SWAP1 PUSH2 0x1BA2 JUMP JUMPDEST POP SWAP1 JUMP JUMPDEST PUSH1 0x40 MLOAD DUP1 PUSH1 0x60 ADD PUSH1 0x40 MSTORE DUP1 PUSH1 0x3 SWAP1 JUMPDEST PUSH2 0x1AF2 PUSH2 0x1BC6 JUMP JUMPDEST DUP2 MSTORE PUSH1 0x20 ADD SWAP1 PUSH1 0x1 SWAP1 SUB SWAP1 DUP2 PUSH2 0x1AEA JUMPI SWAP1 POP POP SWAP1 JUMP JUMPDEST DUP3 PUSH1 0x3 PUSH1 0x1F ADD PUSH1 0x20 SWAP1 DIV DUP2 ADD SWAP3 DUP3 ISZERO PUSH2 0x1B91 JUMPI SWAP2 PUSH1 0x20 MUL DUP3 ADD PUSH1 0x0 JUMPDEST DUP4 DUP3 GT ISZERO PUSH2 0x1B62 JUMPI DUP4 MLOAD DUP4 DUP3 PUSH2 0x100 EXP DUP2 SLOAD DUP2 PUSH1 0xFF MUL NOT AND SWAP1 DUP4 PUSH1 0xFF AND MUL OR SWAP1 SSTORE POP SWAP3 PUSH1 0x20 ADD SWAP3 PUSH1 0x1 ADD PUSH1 0x20 DUP2 PUSH1 0x0 ADD DIV SWAP3 DUP4 ADD SWAP3 PUSH1 0x1 SUB MUL PUSH2 0x1B24 JUMP JUMPDEST DUP1 ISZERO PUSH2 0x1B8F JUMPI DUP3 DUP2 PUSH2 0x100 EXP DUP2 SLOAD SWAP1 PUSH1 0xFF MUL NOT AND SWAP1 SSTORE PUSH1 0x1 ADD PUSH1 0x20 DUP2 PUSH1 0x0 ADD DIV SWAP3 DUP4 ADD SWAP3 PUSH1 0x1 SUB MUL PUSH2 0x1B62 JUMP JUMPDEST POP JUMPDEST POP SWAP1 POP PUSH2 0x1B9E SWAP2 SWAP1 PUSH2 0x1BE8 JUMP JUMPDEST POP SWAP1 JUMP JUMPDEST JUMPDEST DUP1 DUP3 GT ISZERO PUSH2 0x1BC2 JUMPI PUSH1 0x0 DUP2 DUP2 PUSH2 0x1BB9 SWAP2 SWAP1 PUSH2 0x1C05 JUMP JUMPDEST POP PUSH1 0x1 ADD PUSH2 0x1BA3 JUMP JUMPDEST POP SWAP1 JUMP JUMPDEST PUSH1 0x40 MLOAD DUP1 PUSH1 0x60 ADD PUSH1 0x40 MSTORE DUP1 PUSH1 0x3 SWAP1 PUSH1 0x20 DUP3 MUL DUP1 CALLDATASIZE DUP4 CALLDATACOPY DUP1 DUP3 ADD SWAP2 POP POP SWAP1 POP POP SWAP1 JUMP JUMPDEST JUMPDEST DUP1 DUP3 GT ISZERO PUSH2 0x1C01 JUMPI PUSH1 0x0 DUP2 PUSH1 0x0 SWAP1 SSTORE POP PUSH1 0x1 ADD PUSH2 0x1BE9 JUMP JUMPDEST POP SWAP1 JUMP JUMPDEST POP PUSH1 0x0 SWAP1 SSTORE JUMP JUMPDEST PUSH1 0x0 DUP2 CALLDATALOAD SWAP1 POP PUSH2 0x1C1B DUP2 PUSH2 0x2067 JUMP JUMPDEST SWAP3 SWAP2 POP POP JUMP JUMPDEST PUSH1 0x0 DUP2 CALLDATALOAD SWAP1 POP PUSH2 0x1C30 DUP2 PUSH2 0x207E JUMP JUMPDEST SWAP3 SWAP2 POP POP JUMP JUMPDEST PUSH1 0x0 PUSH1 0x20 DUP3 DUP5 SUB SLT ISZERO PUSH2 0x1C4C JUMPI PUSH2 0x1C4B PUSH2 0x203D JUMP JUMPDEST JUMPDEST PUSH1 0x0 PUSH2 0x1C5A DUP5 DUP3 DUP6 ADD PUSH2 0x1C0C JUMP JUMPDEST SWAP2 POP POP SWAP3 SWAP2 POP POP JUMP JUMPDEST PUSH1 0x0 DUP1 PUSH1 0x0 PUSH1 0x60 DUP5 DUP7 SUB SLT ISZERO PUSH2 0x1C7C JUMPI PUSH2 0x1C7B PUSH2 0x203D JUMP JUMPDEST JUMPDEST PUSH1 0x0 PUSH2 0x1C8A DUP7 DUP3 DUP8 ADD PUSH2 0x1C0C JUMP JUMPDEST SWAP4 POP POP PUSH1 0x20 PUSH2 0x1C9B DUP7 DUP3 DUP8 ADD PUSH2 0x1C21 JUMP JUMPDEST SWAP3 POP POP PUSH1 0x40 PUSH2 0x1CAC DUP7 DUP3 DUP8 ADD PUSH2 0x1C21 JUMP JUMPDEST SWAP2 POP POP SWAP3 POP SWAP3 POP SWAP3 JUMP JUMPDEST PUSH2 0x1CBF DUP2 PUSH2 0x1E7E JUMP JUMPDEST DUP3 MSTORE POP POP JUMP JUMPDEST PUSH2 0x1CCE DUP2 PUSH2 0x1E90 JUMP JUMPDEST DUP3 MSTORE POP POP JUMP JUMPDEST PUSH2 0x1CDD DUP2 PUSH2 0x1EE6 JUMP JUMPDEST DUP3 MSTORE POP POP JUMP JUMPDEST PUSH1 0x0 PUSH2 0x1CEE DUP3 PUSH2 0x1E62 JUMP JUMPDEST PUSH2 0x1CF8 DUP2 DUP6 PUSH2 0x1E6D JUMP JUMPDEST SWAP4 POP PUSH2 0x1D08 DUP2 DUP6 PUSH1 0x20 DUP7 ADD PUSH2 0x1F0A JUMP JUMPDEST PUSH2 0x1D11 DUP2 PUSH2 0x2042 JUMP JUMPDEST DUP5 ADD SWAP2 POP POP SWAP3 SWAP2 POP POP JUMP JUMPDEST PUSH2 0x1D25 DUP2 PUSH2 0x1ECF JUMP JUMPDEST DUP3 MSTORE POP POP JUMP JUMPDEST PUSH2 0x1D34 DUP2 PUSH2 0x1EF8 JUMP JUMPDEST DUP3 MSTORE POP POP JUMP JUMPDEST PUSH2 0x1D43 DUP2 PUSH2 0x1ED9 JUMP JUMPDEST DUP3 MSTORE POP POP JUMP JUMPDEST PUSH1 0x0 PUSH1 0x40 DUP3 ADD SWAP1 POP PUSH2 0x1D5E PUSH1 0x0 DUP4 ADD DUP6 PUSH2 0x1CC5 JUMP JUMPDEST DUP2 DUP2 SUB PUSH1 0x20 DUP4 ADD MSTORE PUSH2 0x1D70 DUP2 DUP5 PUSH2 0x1CE3 JUMP JUMPDEST SWAP1 POP SWAP4 SWAP3 POP POP POP JUMP JUMPDEST PUSH1 0x0 PUSH1 0x20 DUP3 ADD SWAP1 POP PUSH2 0x1D8E PUSH1 0x0 DUP4 ADD DUP5 PUSH2 0x1D1C JUMP JUMPDEST SWAP3 SWAP2 POP POP JUMP JUMPDEST PUSH1 0x0 PUSH1 0x40 DUP3 ADD SWAP1 POP PUSH2 0x1DA9 PUSH1 0x0 DUP4 ADD DUP6 PUSH2 0x1D1C JUMP JUMPDEST PUSH2 0x1DB6 PUSH1 0x20 DUP4 ADD DUP5 PUSH2 0x1CB6 JUMP JUMPDEST SWAP4 SWAP3 POP POP POP JUMP JUMPDEST PUSH1 0x0 PUSH1 0x60 DUP3 ADD SWAP1 POP PUSH2 0x1DD2 PUSH1 0x0 DUP4 ADD DUP7 PUSH2 0x1D1C JUMP JUMPDEST PUSH2 0x1DDF PUSH1 0x20 DUP4 ADD DUP6 PUSH2 0x1CB6 JUMP JUMPDEST PUSH2 0x1DEC PUSH1 0x40 DUP4 ADD DUP5 PUSH2 0x1D3A JUMP JUMPDEST SWAP5 SWAP4 POP POP POP POP JUMP JUMPDEST PUSH1 0x0 PUSH1 0x80 DUP3 ADD SWAP1 POP PUSH2 0x1E09 PUSH1 0x0 DUP4 ADD DUP8 PUSH2 0x1D1C JUMP JUMPDEST PUSH2 0x1E16 PUSH1 0x20 DUP4 ADD DUP7 PUSH2 0x1CB6 JUMP JUMPDEST PUSH2 0x1E23 PUSH1 0x40 DUP4 ADD DUP6 PUSH2 0x1D2B JUMP JUMPDEST PUSH2 0x1E30 PUSH1 0x60 DUP4 ADD DUP5 PUSH2 0x1D2B JUMP JUMPDEST SWAP6 SWAP5 POP POP POP POP POP JUMP JUMPDEST PUSH1 0x0 PUSH1 0x40 DUP3 ADD SWAP1 POP PUSH2 0x1E4E PUSH1 0x0 DUP4 ADD DUP6 PUSH2 0x1D1C JUMP JUMPDEST PUSH2 0x1E5B PUSH1 0x20 DUP4 ADD DUP5 PUSH2 0x1CD4 JUMP JUMPDEST SWAP4 SWAP3 POP POP POP JUMP JUMPDEST PUSH1 0x0 DUP2 MLOAD SWAP1 POP SWAP2 SWAP1 POP JUMP JUMPDEST PUSH1 0x0 DUP3 DUP3 MSTORE PUSH1 0x20 DUP3 ADD SWAP1 POP SWAP3 SWAP2 POP POP JUMP JUMPDEST PUSH1 0x0 PUSH2 0x1E89 DUP3 PUSH2 0x1EAF JUMP JUMPDEST SWAP1 POP SWAP2 SWAP1 POP JUMP JUMPDEST PUSH1 0x0 DUP2 ISZERO ISZERO SWAP1 POP SWAP2 SWAP1 POP JUMP JUMPDEST PUSH1 0x0 DUP2 SWAP1 POP PUSH2 0x1EAA DUP3 PUSH2 0x2053 JUMP JUMPDEST SWAP2 SWAP1 POP JUMP JUMPDEST PUSH1 0x0 PUSH20 0xFFFFFFFFFFFFFFFFFFFFFFFFFFFFFFFFFFFFFFFF DUP3 AND SWAP1 POP SWAP2 SWAP1 POP JUMP JUMPDEST PUSH1 0x0 DUP2 SWAP1 POP SWAP2 SWAP1 POP JUMP JUMPDEST PUSH1 0x0 PUSH1 0xFF DUP3 AND SWAP1 POP SWAP2 SWAP1 POP JUMP JUMPDEST PUSH1 0x0 PUSH2 0x1EF1 DUP3 PUSH2 0x1E9C JUMP JUMPDEST SWAP1 POP SWAP2 SWAP1 POP JUMP JUMPDEST PUSH1 0x0 PUSH2 0x1F03 DUP3 PUSH2 0x1ED9 JUMP JUMPDEST SWAP1 POP SWAP2 SWAP1 POP JUMP JUMPDEST PUSH1 0x0 JUMPDEST DUP4 DUP2 LT ISZERO PUSH2 0x1F28 JUMPI DUP1 DUP3 ADD MLOAD DUP2 DUP5 ADD MSTORE PUSH1 0x20 DUP2 ADD SWAP1 POP PUSH2 0x1F0D JUMP JUMPDEST DUP4 DUP2 GT ISZERO PUSH2 0x1F37 JUMPI PUSH1 0x0 DUP5 DUP5 ADD MSTORE JUMPDEST POP POP POP POP JUMP JUMPDEST PUSH1 0x0 PUSH2 0x1F48 DUP3 PUSH2 0x1ECF JUMP JUMPDEST SWAP2 POP PUSH32 0xFFFFFFFFFFFFFFFFFFFFFFFFFFFFFFFFFFFFFFFFFFFFFFFFFFFFFFFFFFFFFFFF DUP3 EQ ISZERO PUSH2 0x1F7B JUMPI PUSH2 0x1F7A PUSH2 0x1FB0 JUMP JUMPDEST JUMPDEST PUSH1 0x1 DUP3 ADD SWAP1 POP SWAP2 SWAP1 POP JUMP JUMPDEST PUSH1 0x0 PUSH2 0x1F91 DUP3 PUSH2 0x1ED9 JUMP JUMPDEST SWAP2 POP PUSH1 0xFF DUP3 EQ ISZERO PUSH2 0x1FA5 JUMPI PUSH2 0x1FA4 PUSH2 0x1FB0 JUMP JUMPDEST JUMPDEST PUSH1 0x1 DUP3 ADD SWAP1 POP SWAP2 SWAP1 POP JUMP JUMPDEST PUSH32 0x4E487B7100000000000000000000000000000000000000000000000000000000 PUSH1 0x0 MSTORE PUSH1 0x11 PUSH1 0x4 MSTORE PUSH1 0x24 PUSH1 0x0 REVERT JUMPDEST PUSH32 0x4E487B7100000000000000000000000000000000000000000000000000000000 PUSH1 0x0 MSTORE PUSH1 0x21 PUSH1 0x4 MSTORE PUSH1 0x24 PUSH1 0x0 REVERT JUMPDEST PUSH32 0x4E487B7100000000000000000000000000000000000000000000000000000000 PUSH1 0x0 MSTORE PUSH1 0x32 PUSH1 0x4 MSTORE PUSH1 0x24 PUSH1 0x0 REVERT JUMPDEST PUSH1 0x0 DUP1 REVERT JUMPDEST PUSH1 0x0 PUSH1 0x1F NOT PUSH1 0x1F DUP4 ADD AND SWAP1 POP SWAP2 SWAP1 POP JUMP JUMPDEST PUSH1 0x4 DUP2 LT PUSH2 0x2064 JUMPI PUSH2 0x2063 PUSH2 0x1FDF JUMP JUMPDEST JUMPDEST POP JUMP JUMPDEST PUSH2 0x2070 DUP2 PUSH2 0x1ECF JUMP JUMPDEST DUP2 EQ PUSH2 0x207B JUMPI PUSH1 0x0 DUP1 REVERT JUMPDEST POP JUMP JUMPDEST PUSH2 0x2087 DUP2 PUSH2 0x1ED9 JUMP JUMPDEST DUP2 EQ PUSH2 0x2092 JUMPI PUSH1 0x0 DUP1 REVERT JUMPDEST POP JUMP INVALID SLOAD PUSH9 0x65726520697320616C PUSH19 0x656164792061206D61726B2061742074686520 PUSH8 0x6976656E20636F6F PUSH19 0x64696E617465732E4A6F696E65642061732070 PUSH13 0x6179657220312E2047616D6520 PUSH9 0x61736E277420737461 PUSH19 0x746564207965742E4A6F696E65642061732070 PUSH13 0x6179657220312E20506C617965 PUSH19 0x203220616C7265616479206578697374732E20 POP PUSH13 0x6179657220312063616E206D61 PUSH12 0x652074686520666972737420 PUSH14 0x6F76652E4A6F696E656420617320 PUSH17 0x6C6179657220322E20506C617965722031 KECCAK256 PUSH4 0x616E206D PUSH2 0x6B65 KECCAK256 PUSH21 0x6865206669727374206D6F76652E4A6F696E656420 PUSH2 0x7320 PUSH17 0x6C6179657220322E2047616D6520686173 PUSH15 0x27742073746172746564207965742E SLOAD PUSH9 0x69732067616D652064 PUSH16 0x65736E277420686176652074776F2070 PUSH13 0x6179657273207965742EA26469 PUSH17 0x667358221220D01D980A97F82DB56FF38A PUSH6 0x3C0A191A30FF 0xC4 MUL EXTCODEHASH DIFFICULTY 0xD8 0xDC 0xB1 BYTE 0xE1 CALLDATALOAD DUP16 PUSH4 0x55086473 PUSH16 0x6C634300080700330000000000000000 "
				},
				"gasEstimates": {
					"creation": {
						"codeDepositCost": "1740400",
						"executionCost": "1827",
						"totalCost": "1742227"
					},
					"external": {
						"joinGame(uint256)": "infinite",
						"makeMove(uint256,uint8,uint8)": "infinite",
						"newGame()": "infinite"
					},
					"internal": {
						"calculateWinner(uint8[3] memory[3] memory)": "infinite",
						"getCurrentPlayer(struct TicTacToe.Game memory)": "infinite",
						"isBoardFull(uint8[3] memory[3] memory)": "infinite",
						"nextPlayer(struct TicTacToe.Game memory)": "infinite",
						"winnerInColumn(uint8[3] memory[3] memory)": "infinite",
						"winnerInDiagonal(uint8[3] memory[3] memory)": "infinite",
						"winnerInRow(uint8[3] memory[3] memory)": "infinite"
					}
				},
				"methodIdentifiers": {
					"joinGame(uint256)": "efaa55a0",
					"makeMove(uint256,uint8,uint8)": "aa57f09c",
					"newGame()": "7d03f5f3"
				}
			},
			"storageLayout": {
				"storage": [
					{
						"astId": 32,
						"contract": "contracts/TicTacToe.sol:TicTacToe",
						"label": "games",
						"offset": 0,
						"slot": "0",
						"type": "t_mapping(t_uint256,t_struct(Game)27_storage)"
					},
					{
						"astId": 34,
						"contract": "contracts/TicTacToe.sol:TicTacToe",
						"label": "nrOfGames",
						"offset": 0,
						"slot": "1",
						"type": "t_uint256"
					}
				],
				"types": {
					"t_address": {
						"encoding": "inplace",
						"label": "address",
						"numberOfBytes": "20"
					},
					"t_array(t_array(t_uint8)3_storage)3_storage": {
						"base": "t_array(t_uint8)3_storage",
						"encoding": "inplace",
						"label": "uint8[3][3]",
						"numberOfBytes": "96"
					},
					"t_array(t_uint8)3_storage": {
						"base": "t_uint8",
						"encoding": "inplace",
						"label": "uint8[3]",
						"numberOfBytes": "32"
					},
					"t_enum(Players)5": {
						"encoding": "inplace",
						"label": "enum TicTacToe.Players",
						"numberOfBytes": "1"
					},
					"t_enum(Winners)10": {
						"encoding": "inplace",
						"label": "enum TicTacToe.Winners",
						"numberOfBytes": "1"
					},
					"t_mapping(t_uint256,t_struct(Game)27_storage)": {
						"encoding": "mapping",
						"key": "t_uint256",
						"label": "mapping(uint256 => struct TicTacToe.Game)",
						"numberOfBytes": "32",
						"value": "t_struct(Game)27_storage"
					},
					"t_struct(Game)27_storage": {
						"encoding": "inplace",
						"label": "struct TicTacToe.Game",
						"members": [
							{
								"astId": 12,
								"contract": "contracts/TicTacToe.sol:TicTacToe",
								"label": "playerOne",
								"offset": 0,
								"slot": "0",
								"type": "t_address"
							},
							{
								"astId": 14,
								"contract": "contracts/TicTacToe.sol:TicTacToe",
								"label": "playerTwo",
								"offset": 0,
								"slot": "1",
								"type": "t_address"
							},
							{
								"astId": 17,
								"contract": "contracts/TicTacToe.sol:TicTacToe",
								"label": "winner",
								"offset": 20,
								"slot": "1",
								"type": "t_enum(Winners)10"
							},
							{
								"astId": 20,
								"contract": "contracts/TicTacToe.sol:TicTacToe",
								"label": "playerTurn",
								"offset": 21,
								"slot": "1",
								"type": "t_enum(Players)5"
							},
							{
								"astId": 26,
								"contract": "contracts/TicTacToe.sol:TicTacToe",
								"label": "board",
								"offset": 0,
								"slot": "2",
								"type": "t_array(t_array(t_uint8)3_storage)3_storage"
							}
						],
						"numberOfBytes": "160"
					},
					"t_uint256": {
						"encoding": "inplace",
						"label": "uint256",
						"numberOfBytes": "32"
					},
					"t_uint8": {
						"encoding": "inplace",
						"label": "uint8",
						"numberOfBytes": "1"
					}
				}
			},
			"userdoc": {
				"kind": "user",
				"methods": {},
				"version": 1
			}
		}
	}
}